{
  "address": "0x5C0b5dc169B43A681Bcab2E5E0Dc77B920cEf768",
  "abi": [
    {
      "inputs": [
        {
          "internalType": "address",
          "name": "_wnative",
          "type": "address"
        },
        {
          "internalType": "address",
          "name": "_usdc",
          "type": "address"
        },
        {
          "internalType": "address",
          "name": "_oTokenFactory",
          "type": "address"
        },
        {
          "internalType": "address",
          "name": "_gammaController",
          "type": "address"
        },
        {
          "internalType": "address",
          "name": "_marginPool",
          "type": "address"
        },
        {
          "internalType": "address",
          "name": "_gnosisEasyAuction",
          "type": "address"
        },
        {
          "internalType": "address",
          "name": "_spreadTokenLogic",
          "type": "address"
        }
      ],
      "stateMutability": "nonpayable",
      "type": "constructor"
    },
    {
      "anonymous": false,
      "inputs": [
        {
          "indexed": true,
          "internalType": "address",
          "name": "owner",
          "type": "address"
        },
        {
          "indexed": true,
          "internalType": "address",
          "name": "spender",
          "type": "address"
        },
        {
          "indexed": false,
          "internalType": "uint256",
          "name": "value",
          "type": "uint256"
        }
      ],
      "name": "Approval",
      "type": "event"
    },
    {
      "anonymous": false,
      "inputs": [
        {
          "indexed": false,
          "internalType": "uint256",
          "name": "auctionDuration",
          "type": "uint256"
        },
        {
          "indexed": false,
          "internalType": "uint256",
          "name": "newAuctionDuration",
          "type": "uint256"
        }
      ],
      "name": "AuctionDurationSet",
      "type": "event"
    },
    {
      "anonymous": false,
      "inputs": [
        {
          "indexed": false,
          "internalType": "uint256",
          "name": "oldCap",
          "type": "uint256"
        },
        {
          "indexed": false,
          "internalType": "uint256",
          "name": "newCap",
          "type": "uint256"
        }
      ],
      "name": "CapSet",
      "type": "event"
    },
    {
      "anonymous": false,
      "inputs": [
        {
          "indexed": false,
          "internalType": "address[]",
          "name": "options",
          "type": "address[]"
        },
        {
          "indexed": false,
          "internalType": "uint256",
          "name": "withdrawAmount",
          "type": "uint256"
        },
        {
          "indexed": true,
          "internalType": "address",
          "name": "manager",
          "type": "address"
        }
      ],
      "name": "CloseShort",
      "type": "event"
    },
    {
      "anonymous": false,
      "inputs": [
        {
          "indexed": false,
          "internalType": "uint256",
          "name": "performanceFee",
          "type": "uint256"
        },
        {
          "indexed": false,
          "internalType": "uint256",
          "name": "vaultFee",
          "type": "uint256"
        },
        {
          "indexed": false,
          "internalType": "uint256",
          "name": "round",
          "type": "uint256"
        },
        {
          "indexed": true,
          "internalType": "address",
          "name": "feeRecipient",
          "type": "address"
        }
      ],
      "name": "CollectVaultFees",
      "type": "event"
    },
    {
      "anonymous": false,
      "inputs": [
        {
          "indexed": true,
          "internalType": "address",
          "name": "account",
          "type": "address"
        },
        {
          "indexed": false,
          "internalType": "uint256",
          "name": "amount",
          "type": "uint256"
        },
        {
          "indexed": false,
          "internalType": "uint256",
          "name": "round",
          "type": "uint256"
        }
      ],
      "name": "Deposit",
      "type": "event"
    },
    {
      "anonymous": false,
      "inputs": [
        {
          "indexed": true,
          "internalType": "address",
          "name": "auctioningToken",
          "type": "address"
        },
        {
          "indexed": true,
          "internalType": "address",
          "name": "biddingToken",
          "type": "address"
        },
        {
          "indexed": false,
          "internalType": "uint256",
          "name": "auctionCounter",
          "type": "uint256"
        },
        {
          "indexed": true,
          "internalType": "address",
          "name": "manager",
          "type": "address"
        }
      ],
      "name": "InitiateGnosisAuction",
      "type": "event"
    },
    {
      "anonymous": false,
      "inputs": [
        {
          "indexed": true,
          "internalType": "address",
          "name": "account",
          "type": "address"
        },
        {
          "indexed": false,
          "internalType": "uint256",
          "name": "shares",
          "type": "uint256"
        },
        {
          "indexed": false,
          "internalType": "uint256",
          "name": "round",
          "type": "uint256"
        }
      ],
      "name": "InitiateWithdraw",
      "type": "event"
    },
    {
      "anonymous": false,
      "inputs": [
        {
          "indexed": true,
          "internalType": "address",
          "name": "account",
          "type": "address"
        },
        {
          "indexed": false,
          "internalType": "uint256",
          "name": "amount",
          "type": "uint256"
        },
        {
          "indexed": false,
          "internalType": "uint256",
          "name": "round",
          "type": "uint256"
        }
      ],
      "name": "InstantWithdraw",
      "type": "event"
    },
    {
      "anonymous": false,
      "inputs": [
        {
          "indexed": false,
          "internalType": "uint256",
          "name": "managementFee",
          "type": "uint256"
        },
        {
          "indexed": false,
          "internalType": "uint256",
          "name": "newManagementFee",
          "type": "uint256"
        }
      ],
      "name": "ManagementFeeSet",
      "type": "event"
    },
    {
      "anonymous": false,
      "inputs": [
        {
          "indexed": false,
          "internalType": "uint256[]",
          "name": "strikePrices",
          "type": "uint256[]"
        },
        {
          "indexed": false,
          "internalType": "uint256[]",
          "name": "deltas",
          "type": "uint256[]"
        },
        {
          "indexed": false,
          "internalType": "address",
          "name": "spreadToken",
          "type": "address"
        }
      ],
      "name": "NewSpreadStrikesSelected",
      "type": "event"
    },
    {
      "anonymous": false,
      "inputs": [
        {
          "indexed": false,
          "internalType": "address[]",
          "name": "spread",
          "type": "address[]"
        },
        {
          "indexed": false,
          "internalType": "uint256",
          "name": "depositAmount",
          "type": "uint256"
        },
        {
          "indexed": true,
          "internalType": "address",
          "name": "manager",
          "type": "address"
        }
      ],
      "name": "OpenShort",
      "type": "event"
    },
    {
      "anonymous": false,
      "inputs": [
        {
          "indexed": true,
          "internalType": "address",
          "name": "previousOwner",
          "type": "address"
        },
        {
          "indexed": true,
          "internalType": "address",
          "name": "newOwner",
          "type": "address"
        }
      ],
      "name": "OwnershipTransferred",
      "type": "event"
    },
    {
      "anonymous": false,
      "inputs": [
        {
          "indexed": false,
          "internalType": "uint256",
          "name": "performanceFee",
          "type": "uint256"
        },
        {
          "indexed": false,
          "internalType": "uint256",
          "name": "newPerformanceFee",
          "type": "uint256"
        }
      ],
      "name": "PerformanceFeeSet",
      "type": "event"
    },
    {
      "anonymous": false,
      "inputs": [
        {
          "indexed": false,
          "internalType": "uint256",
          "name": "premiumDiscount",
          "type": "uint256"
        },
        {
          "indexed": false,
          "internalType": "uint256",
          "name": "newPremiumDiscount",
          "type": "uint256"
        }
      ],
      "name": "PremiumDiscountSet",
      "type": "event"
    },
    {
      "anonymous": false,
      "inputs": [
        {
          "indexed": true,
          "internalType": "address",
          "name": "account",
          "type": "address"
        },
        {
          "indexed": false,
          "internalType": "uint256",
          "name": "share",
          "type": "uint256"
        },
        {
          "indexed": false,
          "internalType": "uint256",
          "name": "round",
          "type": "uint256"
        }
      ],
      "name": "Redeem",
      "type": "event"
    },
    {
      "anonymous": false,
      "inputs": [
        {
          "indexed": true,
          "internalType": "address",
          "name": "from",
          "type": "address"
        },
        {
          "indexed": true,
          "internalType": "address",
          "name": "to",
          "type": "address"
        },
        {
          "indexed": false,
          "internalType": "uint256",
          "name": "value",
          "type": "uint256"
        }
      ],
      "name": "Transfer",
      "type": "event"
    },
    {
      "anonymous": false,
      "inputs": [
        {
          "indexed": true,
          "internalType": "address",
          "name": "account",
          "type": "address"
        },
        {
          "indexed": false,
          "internalType": "uint256",
          "name": "amount",
          "type": "uint256"
        },
        {
          "indexed": false,
          "internalType": "uint256",
          "name": "shares",
          "type": "uint256"
        }
      ],
      "name": "Withdraw",
      "type": "event"
    },
    {
      "inputs": [],
      "name": "DELAY",
      "outputs": [
        {
          "internalType": "uint256",
          "name": "",
          "type": "uint256"
        }
      ],
      "stateMutability": "view",
      "type": "function"
    },
    {
      "inputs": [],
      "name": "GAMMA_CONTROLLER",
      "outputs": [
        {
          "internalType": "address",
          "name": "",
          "type": "address"
        }
      ],
      "stateMutability": "view",
      "type": "function"
    },
    {
      "inputs": [],
      "name": "GNOSIS_EASY_AUCTION",
      "outputs": [
        {
          "internalType": "address",
          "name": "",
          "type": "address"
        }
      ],
      "stateMutability": "view",
      "type": "function"
    },
    {
      "inputs": [],
      "name": "MARGIN_POOL",
      "outputs": [
        {
          "internalType": "address",
          "name": "",
          "type": "address"
        }
      ],
      "stateMutability": "view",
      "type": "function"
    },
    {
      "inputs": [],
      "name": "OTOKEN_FACTORY",
      "outputs": [
        {
          "internalType": "address",
          "name": "",
          "type": "address"
        }
      ],
      "stateMutability": "view",
      "type": "function"
    },
    {
      "inputs": [],
      "name": "PERIOD",
      "outputs": [
        {
          "internalType": "uint256",
          "name": "",
          "type": "uint256"
        }
      ],
      "stateMutability": "view",
      "type": "function"
    },
    {
      "inputs": [],
      "name": "SPREAD_TOKEN",
      "outputs": [
        {
          "internalType": "address",
          "name": "",
          "type": "address"
        }
      ],
      "stateMutability": "view",
      "type": "function"
    },
    {
      "inputs": [],
      "name": "USDC",
      "outputs": [
        {
          "internalType": "address",
          "name": "",
          "type": "address"
        }
      ],
      "stateMutability": "view",
      "type": "function"
    },
    {
      "inputs": [],
      "name": "WNATIVE",
      "outputs": [
        {
          "internalType": "address",
          "name": "",
          "type": "address"
        }
      ],
      "stateMutability": "view",
      "type": "function"
    },
    {
      "inputs": [
        {
          "internalType": "address",
          "name": "account",
          "type": "address"
        }
      ],
      "name": "accountVaultBalance",
      "outputs": [
        {
          "internalType": "uint256",
          "name": "",
          "type": "uint256"
        }
      ],
      "stateMutability": "view",
      "type": "function"
    },
    {
      "inputs": [
        {
          "internalType": "address",
          "name": "owner",
          "type": "address"
        },
        {
          "internalType": "address",
          "name": "spender",
          "type": "address"
        }
      ],
      "name": "allowance",
      "outputs": [
        {
          "internalType": "uint256",
          "name": "",
          "type": "uint256"
        }
      ],
      "stateMutability": "view",
      "type": "function"
    },
    {
      "inputs": [
        {
          "internalType": "address",
          "name": "spender",
          "type": "address"
        },
        {
          "internalType": "uint256",
          "name": "amount",
          "type": "uint256"
        }
      ],
      "name": "approve",
      "outputs": [
        {
          "internalType": "bool",
          "name": "",
          "type": "bool"
        }
      ],
      "stateMutability": "nonpayable",
      "type": "function"
    },
    {
      "inputs": [],
      "name": "auctionDuration",
      "outputs": [
        {
          "internalType": "uint256",
          "name": "",
          "type": "uint256"
        }
      ],
      "stateMutability": "view",
      "type": "function"
    },
    {
      "inputs": [
        {
          "internalType": "address",
          "name": "account",
          "type": "address"
        }
      ],
      "name": "balanceOf",
      "outputs": [
        {
          "internalType": "uint256",
          "name": "",
          "type": "uint256"
        }
      ],
      "stateMutability": "view",
      "type": "function"
    },
    {
      "inputs": [],
      "name": "cap",
      "outputs": [
        {
          "internalType": "uint256",
          "name": "",
          "type": "uint256"
        }
      ],
      "stateMutability": "view",
      "type": "function"
    },
    {
      "inputs": [],
      "name": "commitAndClose",
      "outputs": [],
      "stateMutability": "nonpayable",
      "type": "function"
    },
    {
      "inputs": [],
      "name": "completeWithdraw",
      "outputs": [],
      "stateMutability": "nonpayable",
      "type": "function"
    },
    {
      "inputs": [],
      "name": "currentOtokenPremium",
      "outputs": [
        {
          "internalType": "uint256",
          "name": "",
          "type": "uint256"
        }
      ],
      "stateMutability": "view",
      "type": "function"
    },
    {
      "inputs": [],
      "name": "currentQueuedWithdrawShares",
      "outputs": [
        {
          "internalType": "uint256",
          "name": "",
          "type": "uint256"
        }
      ],
      "stateMutability": "view",
      "type": "function"
    },
    {
      "inputs": [],
      "name": "currentSpread",
      "outputs": [
        {
          "internalType": "address[]",
          "name": "",
          "type": "address[]"
        }
      ],
      "stateMutability": "view",
      "type": "function"
    },
    {
      "inputs": [],
      "name": "decimals",
      "outputs": [
        {
          "internalType": "uint8",
          "name": "",
          "type": "uint8"
        }
      ],
      "stateMutability": "view",
      "type": "function"
    },
    {
      "inputs": [
        {
          "internalType": "address",
          "name": "spender",
          "type": "address"
        },
        {
          "internalType": "uint256",
          "name": "subtractedValue",
          "type": "uint256"
        }
      ],
      "name": "decreaseAllowance",
      "outputs": [
        {
          "internalType": "bool",
          "name": "",
          "type": "bool"
        }
      ],
      "stateMutability": "nonpayable",
      "type": "function"
    },
    {
      "inputs": [
        {
          "internalType": "uint256",
          "name": "amount",
          "type": "uint256"
        }
      ],
      "name": "deposit",
      "outputs": [],
      "stateMutability": "nonpayable",
      "type": "function"
    },
    {
      "inputs": [],
      "name": "depositETH",
      "outputs": [],
      "stateMutability": "payable",
      "type": "function"
    },
    {
      "inputs": [
        {
          "internalType": "uint256",
          "name": "amount",
          "type": "uint256"
        },
        {
          "internalType": "address",
          "name": "creditor",
          "type": "address"
        }
      ],
      "name": "depositFor",
      "outputs": [],
      "stateMutability": "nonpayable",
      "type": "function"
    },
    {
      "inputs": [
        {
          "internalType": "address",
          "name": "",
          "type": "address"
        }
      ],
      "name": "depositReceipts",
      "outputs": [
        {
          "internalType": "uint16",
          "name": "round",
          "type": "uint16"
        },
        {
          "internalType": "uint104",
          "name": "amount",
          "type": "uint104"
        },
        {
          "internalType": "uint128",
          "name": "unredeemedShares",
          "type": "uint128"
        }
      ],
      "stateMutability": "view",
      "type": "function"
    },
    {
      "inputs": [],
      "name": "feeRecipient",
      "outputs": [
        {
          "internalType": "address",
          "name": "",
          "type": "address"
        }
      ],
      "stateMutability": "view",
      "type": "function"
    },
    {
      "inputs": [
        {
          "internalType": "address",
          "name": "spender",
          "type": "address"
        },
        {
          "internalType": "uint256",
          "name": "addedValue",
          "type": "uint256"
        }
      ],
      "name": "increaseAllowance",
      "outputs": [
        {
          "internalType": "bool",
          "name": "",
          "type": "bool"
        }
      ],
      "stateMutability": "nonpayable",
      "type": "function"
    },
    {
      "inputs": [
        {
          "internalType": "uint256",
          "name": "numRounds",
          "type": "uint256"
        }
      ],
      "name": "initRounds",
      "outputs": [],
      "stateMutability": "nonpayable",
      "type": "function"
    },
    {
      "inputs": [
        {
          "components": [
            {
              "internalType": "address",
              "name": "_owner",
              "type": "address"
            },
            {
              "internalType": "address",
              "name": "_keeper",
              "type": "address"
            },
            {
              "internalType": "address",
              "name": "_feeRecipient",
              "type": "address"
            },
            {
              "internalType": "uint256",
              "name": "_managementFee",
              "type": "uint256"
            },
            {
              "internalType": "uint256",
              "name": "_performanceFee",
              "type": "uint256"
            },
            {
              "internalType": "string",
              "name": "_tokenName",
              "type": "string"
            },
            {
              "internalType": "string",
              "name": "_tokenSymbol",
              "type": "string"
            },
            {
              "internalType": "address",
              "name": "_strikeSelection",
              "type": "address"
            },
            {
              "internalType": "uint32",
              "name": "_premiumDiscount",
              "type": "uint32"
            },
            {
              "internalType": "uint256",
              "name": "_auctionDuration",
              "type": "uint256"
            }
          ],
          "internalType": "struct CallSpread.InitParams",
          "name": "_initParams",
          "type": "tuple"
        },
        {
          "components": [
            {
              "internalType": "bool",
              "name": "isPut",
              "type": "bool"
            },
            {
              "internalType": "bool",
              "name": "isSpread",
              "type": "bool"
            },
            {
              "internalType": "uint8",
              "name": "decimals",
              "type": "uint8"
            },
            {
              "internalType": "address",
              "name": "asset",
              "type": "address"
            },
            {
              "internalType": "address",
              "name": "underlying",
              "type": "address"
            },
            {
              "internalType": "uint56",
              "name": "minimumSupply",
              "type": "uint56"
            },
            {
              "internalType": "uint104",
              "name": "cap",
              "type": "uint104"
            }
          ],
          "internalType": "struct Vault.VaultParams",
          "name": "_vaultParams",
          "type": "tuple"
        }
      ],
      "name": "initialize",
      "outputs": [],
      "stateMutability": "nonpayable",
      "type": "function"
    },
    {
      "inputs": [
        {
          "internalType": "uint256",
          "name": "numShares",
          "type": "uint256"
        }
      ],
      "name": "initiateWithdraw",
      "outputs": [],
      "stateMutability": "nonpayable",
      "type": "function"
    },
    {
      "inputs": [],
      "name": "keeper",
      "outputs": [
        {
          "internalType": "address",
          "name": "",
          "type": "address"
        }
      ],
      "stateMutability": "view",
      "type": "function"
    },
    {
      "inputs": [],
      "name": "lastQueuedWithdrawAmount",
      "outputs": [
        {
          "internalType": "uint256",
          "name": "",
          "type": "uint256"
        }
      ],
      "stateMutability": "view",
      "type": "function"
    },
    {
      "inputs": [],
      "name": "managementFee",
      "outputs": [
        {
          "internalType": "uint256",
          "name": "",
          "type": "uint256"
        }
      ],
      "stateMutability": "view",
      "type": "function"
    },
    {
      "inputs": [],
      "name": "maxRedeem",
      "outputs": [],
      "stateMutability": "nonpayable",
      "type": "function"
    },
    {
      "inputs": [],
      "name": "name",
      "outputs": [
        {
          "internalType": "string",
          "name": "",
          "type": "string"
        }
      ],
      "stateMutability": "view",
      "type": "function"
    },
    {
      "inputs": [],
      "name": "nextOptionReadyAt",
      "outputs": [
        {
          "internalType": "uint256",
          "name": "",
          "type": "uint256"
        }
      ],
      "stateMutability": "view",
      "type": "function"
    },
    {
      "inputs": [],
      "name": "nextSpread",
      "outputs": [
        {
          "internalType": "address[]",
          "name": "",
          "type": "address[]"
        }
      ],
      "stateMutability": "view",
      "type": "function"
    },
    {
      "inputs": [],
      "name": "optionAuctionID",
      "outputs": [
        {
          "internalType": "uint256",
          "name": "",
          "type": "uint256"
        }
      ],
      "stateMutability": "view",
      "type": "function"
    },
    {
      "inputs": [],
      "name": "optionsPremiumPricer",
      "outputs": [
        {
          "internalType": "address",
          "name": "",
          "type": "address"
        }
      ],
      "stateMutability": "view",
      "type": "function"
    },
    {
      "inputs": [],
      "name": "optionsPurchaseQueue",
      "outputs": [
        {
          "internalType": "address",
          "name": "",
          "type": "address"
        }
      ],
      "stateMutability": "view",
      "type": "function"
    },
    {
      "inputs": [],
      "name": "owner",
      "outputs": [
        {
          "internalType": "address",
          "name": "",
          "type": "address"
        }
      ],
      "stateMutability": "view",
      "type": "function"
    },
    {
      "inputs": [],
      "name": "performanceFee",
      "outputs": [
        {
          "internalType": "uint256",
          "name": "",
          "type": "uint256"
        }
      ],
      "stateMutability": "view",
      "type": "function"
    },
    {
      "inputs": [],
      "name": "premiumDiscount",
      "outputs": [
        {
          "internalType": "uint256",
          "name": "",
          "type": "uint256"
        }
      ],
      "stateMutability": "view",
      "type": "function"
    },
    {
      "inputs": [],
      "name": "pricePerShare",
      "outputs": [
        {
          "internalType": "uint256",
          "name": "",
          "type": "uint256"
        }
      ],
      "stateMutability": "view",
      "type": "function"
    },
    {
      "inputs": [
        {
          "internalType": "address",
          "name": "token",
          "type": "address"
        },
        {
          "internalType": "address",
          "name": "recipient",
          "type": "address"
        }
      ],
      "name": "recoverTokens",
      "outputs": [],
      "stateMutability": "nonpayable",
      "type": "function"
    },
    {
      "inputs": [
        {
          "internalType": "uint256",
          "name": "numShares",
          "type": "uint256"
        }
      ],
      "name": "redeem",
      "outputs": [],
      "stateMutability": "nonpayable",
      "type": "function"
    },
    {
      "inputs": [],
      "name": "renounceOwnership",
      "outputs": [],
      "stateMutability": "nonpayable",
      "type": "function"
    },
    {
      "inputs": [
        {
          "internalType": "uint256",
          "name": "index",
          "type": "uint256"
        }
      ],
      "name": "rollToNextOption",
      "outputs": [],
      "stateMutability": "nonpayable",
      "type": "function"
    },
    {
      "inputs": [
        {
          "internalType": "uint256",
          "name": "",
          "type": "uint256"
        }
      ],
      "name": "roundPricePerShare",
      "outputs": [
        {
          "internalType": "uint256",
          "name": "",
          "type": "uint256"
        }
      ],
      "stateMutability": "view",
      "type": "function"
    },
    {
      "inputs": [
        {
          "internalType": "uint256",
          "name": "newAuctionDuration",
          "type": "uint256"
        }
      ],
      "name": "setAuctionDuration",
      "outputs": [],
      "stateMutability": "nonpayable",
      "type": "function"
    },
    {
      "inputs": [
        {
          "internalType": "uint256",
          "name": "newCap",
          "type": "uint256"
        }
      ],
      "name": "setCap",
      "outputs": [],
      "stateMutability": "nonpayable",
      "type": "function"
    },
    {
      "inputs": [
        {
          "internalType": "address",
          "name": "newFeeRecipient",
          "type": "address"
        }
      ],
      "name": "setFeeRecipient",
      "outputs": [],
      "stateMutability": "nonpayable",
      "type": "function"
    },
    {
      "inputs": [
        {
          "internalType": "uint256",
          "name": "newManagementFee",
          "type": "uint256"
        }
      ],
      "name": "setManagementFee",
      "outputs": [],
      "stateMutability": "nonpayable",
      "type": "function"
    },
    {
      "inputs": [
        {
          "internalType": "uint256",
          "name": "minPrice",
          "type": "uint256"
        }
      ],
      "name": "setMinPrice",
      "outputs": [],
      "stateMutability": "nonpayable",
      "type": "function"
    },
    {
      "inputs": [
        {
          "internalType": "address",
          "name": "newKeeper",
          "type": "address"
        }
      ],
      "name": "setNewKeeper",
      "outputs": [],
      "stateMutability": "nonpayable",
      "type": "function"
    },
    {
      "inputs": [
        {
          "internalType": "uint256",
          "name": "newPerformanceFee",
          "type": "uint256"
        }
      ],
      "name": "setPerformanceFee",
      "outputs": [],
      "stateMutability": "nonpayable",
      "type": "function"
    },
    {
      "inputs": [
        {
          "internalType": "uint256",
          "name": "newPremiumDiscount",
          "type": "uint256"
        }
      ],
      "name": "setPremiumDiscount",
      "outputs": [],
      "stateMutability": "nonpayable",
      "type": "function"
    },
    {
      "inputs": [
        {
          "internalType": "address",
          "name": "newStrikeSelection",
          "type": "address"
        }
      ],
      "name": "setStrikeSelection",
      "outputs": [],
      "stateMutability": "nonpayable",
      "type": "function"
    },
    {
      "inputs": [
        {
          "internalType": "address",
          "name": "account",
          "type": "address"
        }
      ],
      "name": "shareBalances",
      "outputs": [
        {
          "internalType": "uint256",
          "name": "heldByAccount",
          "type": "uint256"
        },
        {
          "internalType": "uint256",
          "name": "heldByVault",
          "type": "uint256"
        }
      ],
      "stateMutability": "view",
      "type": "function"
    },
    {
      "inputs": [
        {
          "internalType": "address",
          "name": "account",
          "type": "address"
        }
      ],
      "name": "shares",
      "outputs": [
        {
          "internalType": "uint256",
          "name": "",
          "type": "uint256"
        }
      ],
      "stateMutability": "view",
      "type": "function"
    },
    {
      "inputs": [],
      "name": "spreadState",
      "outputs": [
        {
          "internalType": "uint32",
          "name": "nextOptionReadyAt",
          "type": "uint32"
        },
        {
          "internalType": "address",
          "name": "currentSpreadToken",
          "type": "address"
        },
        {
          "internalType": "address",
          "name": "nextSpreadToken",
          "type": "address"
        }
      ],
      "stateMutability": "view",
      "type": "function"
    },
    {
      "inputs": [],
      "name": "startAuction",
      "outputs": [],
      "stateMutability": "nonpayable",
      "type": "function"
    },
    {
      "inputs": [],
      "name": "strikeSelection",
      "outputs": [
        {
          "internalType": "address",
          "name": "",
          "type": "address"
        }
      ],
      "stateMutability": "view",
      "type": "function"
    },
    {
      "inputs": [],
      "name": "symbol",
      "outputs": [
        {
          "internalType": "string",
          "name": "",
          "type": "string"
        }
      ],
      "stateMutability": "view",
      "type": "function"
    },
    {
      "inputs": [],
      "name": "totalBalance",
      "outputs": [
        {
          "internalType": "uint256",
          "name": "",
          "type": "uint256"
        }
      ],
      "stateMutability": "view",
      "type": "function"
    },
    {
      "inputs": [],
      "name": "totalPending",
      "outputs": [
        {
          "internalType": "uint256",
          "name": "",
          "type": "uint256"
        }
      ],
      "stateMutability": "view",
      "type": "function"
    },
    {
      "inputs": [],
      "name": "totalSupply",
      "outputs": [
        {
          "internalType": "uint256",
          "name": "",
          "type": "uint256"
        }
      ],
      "stateMutability": "view",
      "type": "function"
    },
    {
      "inputs": [
        {
          "internalType": "address",
          "name": "recipient",
          "type": "address"
        },
        {
          "internalType": "uint256",
          "name": "amount",
          "type": "uint256"
        }
      ],
      "name": "transfer",
      "outputs": [
        {
          "internalType": "bool",
          "name": "",
          "type": "bool"
        }
      ],
      "stateMutability": "nonpayable",
      "type": "function"
    },
    {
      "inputs": [
        {
          "internalType": "address",
          "name": "sender",
          "type": "address"
        },
        {
          "internalType": "address",
          "name": "recipient",
          "type": "address"
        },
        {
          "internalType": "uint256",
          "name": "amount",
          "type": "uint256"
        }
      ],
      "name": "transferFrom",
      "outputs": [
        {
          "internalType": "bool",
          "name": "",
          "type": "bool"
        }
      ],
      "stateMutability": "nonpayable",
      "type": "function"
    },
    {
      "inputs": [
        {
          "internalType": "address",
          "name": "newOwner",
          "type": "address"
        }
      ],
      "name": "transferOwnership",
      "outputs": [],
      "stateMutability": "nonpayable",
      "type": "function"
    },
    {
      "inputs": [],
      "name": "vaultParams",
      "outputs": [
        {
          "internalType": "bool",
          "name": "isPut",
          "type": "bool"
        },
        {
          "internalType": "bool",
          "name": "isSpread",
          "type": "bool"
        },
        {
          "internalType": "uint8",
          "name": "decimals",
          "type": "uint8"
        },
        {
          "internalType": "address",
          "name": "asset",
          "type": "address"
        },
        {
          "internalType": "address",
          "name": "underlying",
          "type": "address"
        },
        {
          "internalType": "uint56",
          "name": "minimumSupply",
          "type": "uint56"
        },
        {
          "internalType": "uint104",
          "name": "cap",
          "type": "uint104"
        }
      ],
      "stateMutability": "view",
      "type": "function"
    },
    {
      "inputs": [],
      "name": "vaultPauser",
      "outputs": [
        {
          "internalType": "address",
          "name": "",
          "type": "address"
        }
      ],
      "stateMutability": "view",
      "type": "function"
    },
    {
      "inputs": [],
      "name": "vaultState",
      "outputs": [
        {
          "internalType": "uint16",
          "name": "round",
          "type": "uint16"
        },
        {
          "internalType": "uint104",
          "name": "lockedAmount",
          "type": "uint104"
        },
        {
          "internalType": "uint104",
          "name": "lastLockedAmount",
          "type": "uint104"
        },
        {
          "internalType": "uint104",
          "name": "lockedAmountUsed",
          "type": "uint104"
        },
        {
          "internalType": "uint128",
          "name": "totalPending",
          "type": "uint128"
        },
        {
          "internalType": "uint128",
          "name": "queuedWithdrawShares",
          "type": "uint128"
        }
      ],
      "stateMutability": "view",
      "type": "function"
    },
    {
      "inputs": [
        {
          "internalType": "uint256",
          "name": "amount",
          "type": "uint256"
        }
      ],
      "name": "withdrawInstantly",
      "outputs": [],
      "stateMutability": "nonpayable",
      "type": "function"
    },
    {
      "inputs": [
        {
          "internalType": "address",
          "name": "",
          "type": "address"
        }
      ],
      "name": "withdrawals",
      "outputs": [
        {
          "internalType": "uint16",
          "name": "round",
          "type": "uint16"
        },
        {
          "internalType": "uint128",
          "name": "shares",
          "type": "uint128"
        }
      ],
      "stateMutability": "view",
      "type": "function"
    }
  ],
  "transactionHash": "0xf8a17c09ecdb3b2168d76c674c96c09337fde43b3a3daa0a8faa0843d737c53c",
  "args": [
    "0x0d500b1d8e8ef31e21c99d1db9a6444d3adf1270",
    "0x2791bca1f2de4661ed88a30c99a7a9449aa84174",
    "0xedD70E045903D34fBA7302B5094D37EAceb1397c",
    "0x7a23c712bddde52b22d8ff52e4cdadb1bcb0b203",
    "0x30aE5DEBc9EdF60a23cD19494492b1ef37afA56d",
    "0x0b7fFc1f4AD541A4Ed16b40D8c37f0929158D101",
    "0xa4eb8ce5A9443d484aeE00e3804Db7c52C76Ef4f"
  ],
  "solcInputHash": "d527cdaa9e8309b979a05a31d25f22aa",
  "bytecode": "0x6101606040523480156200001257600080fd5b50604051620061b0380380620061b0833981016040819052620000359162000294565b8686858585856001600160a01b038616620000835760405162461bcd60e51b8152602060048201526009602482015268215f776e617469766560b81b60448201526064015b60405180910390fd5b6001600160a01b038516620000c45760405162461bcd60e51b8152602060048201526006602482015265215f7573646360d01b60448201526064016200007a565b6001600160a01b0382166200011c5760405162461bcd60e51b815260206004820152601360248201527f215f676e6f7369734561737941756374696f6e0000000000000000000000000060448201526064016200007a565b6001600160a01b038416620001685760405162461bcd60e51b815260206004820152601160248201527010afb3b0b6b6b0a1b7b73a3937b63632b960791b60448201526064016200007a565b6001600160a01b038316620001af5760405162461bcd60e51b815260206004820152600c60248201526b0857db585c99da5b941bdbdb60a21b60448201526064016200007a565b6001600160a01b038116620001f05760405162461bcd60e51b815260206004820152600660248201526510ba37b5b2b760d11b60448201526064016200007a565b6001600160a01b0395861660805293851660a05291841660c052831660e05282166101005281166101205285166200025d5760405162461bcd60e51b815260206004820152600f60248201526e215f6f546f6b656e466163746f727960881b60448201526064016200007a565b505050506001600160a01b03166101405250620003299050565b80516001600160a01b03811681146200028f57600080fd5b919050565b600080600080600080600060e0888a031215620002b057600080fd5b620002bb8862000277565b9650620002cb6020890162000277565b9550620002db6040890162000277565b9450620002eb6060890162000277565b9350620002fb6080890162000277565b92506200030b60a0890162000277565b91506200031b60c0890162000277565b905092959891949750929550565b60805160a05160c05160e051610100516101205161014051615ddf620003d160003960008181610d3a015261274a015260008181610a6001526127b80152600081816108310152613e4601526000818161074f01526116c3015260008181610444015281816116a201526143f70152600081816109ac015261276f015260008181610c3901528181612bb701528181612c670152818161398701526139c30152615ddf6000f3fe6080604052600436106103575760003560e01c8063056097ac1461035c57806306fdde031461037e578063073521ea146103a9578063095ea7b3146103c95780630cbf54c8146103f957806318160ddd1461041d5780631a92f6c2146104325780631b60612a1461047357806323b872dd146104935780632728f333146104b35780632775d01c1461055557806330630da414610575578063313ce5671461059557806333aaee5b146105c0578063355274ea146105e257806336efd16f1461060057806339509351146106205780633f23bb73146106405780633f90916a14610660578063432833a614610685578063469048401461069b57806347786d37146106bb5780634b2431d9146106db578063503c70aa146106f25780635ea8cd12146107085780636152137d14610728578063650cce8a1461073d5780636719b2ee1461077157806369b41170146107f55780636b64c7691461080a5780636c10f66c1461081f5780636f31ab341461085357806370897b231461086857806370a0823114610888578063715018a6146108a85780637a9262a2146108bd5780637e108d521461092157806383536ff31461094157806387153eb114610957578063877887821461098457806389a302711461099a5780638da5cb5b146109ce578063947061b5146109e357806395d89b4114610a0457806399530b0614610a195780639be43daa14610a2e5780639f0bf18214610a4e5780639fcc2d7514610a82578063a285c9e814610b41578063a457c2d714610b5c578063a497e67414610b7c578063a6f7f5d614610b9c578063a9059cbb14610bb2578063aced166114610bd2578063ad7a672f14610bf2578063afa6626414610c07578063b381cf4014610c27578063b4d1d79514610c5b578063b6b55f2514610c72578063ce7c2ac214610c92578063d13f1b3e14610cb2578063d164cc1514610cd2578063d5f2638214610cf2578063db006a7514610d08578063db43e86214610d28578063dd62ed3e14610d5c578063e74b981b14610da2578063ea00b1ca14610dc2578063f2fde38b14610dd7578063f3f140e214610df7578063f6326fb314610e59578063f656ba5114610e61578063f756fa2114610e8f578063f957a06714610ea4578063fba7dc6114610ec4578063fe56e23214610ee4575b600080fd5b34801561036857600080fd5b5061037c610377366004614fab565b610f04565b005b34801561038a57600080fd5b50610393611133565b6040516103a09190615034565b60405180910390f35b3480156103b557600080fd5b5061037c6103c4366004615047565b6111c5565b3480156103d557600080fd5b506103e96103e43660046150a7565b61147d565b60405190151581526020016103a0565b34801561040557600080fd5b5061040f60fc5481565b6040519081526020016103a0565b34801561042957600080fd5b5060995461040f565b34801561043e57600080fd5b506104667f000000000000000000000000000000000000000000000000000000000000000081565b6040516103a091906150e0565b34801561047f57600080fd5b5061037c61048e3660046150f4565b611494565b34801561049f57600080fd5b506103e96104ae36600461510d565b611816565b3480156104bf57600080fd5b5060cf5460d05460d15461050a9261ffff8116926001600160681b03620100008304811693600160781b909304811692908216916001600160801b03600160681b9091048116911686565b6040805161ffff90971687526001600160681b03958616602088015293851693860193909352921660608401526001600160801b0391821660808401521660a082015260c0016103a0565b34801561056157600080fd5b5061037c6105703660046150f4565b6118c0565b34801561058157600080fd5b5061037c61059036600461514e565b611a77565b3480156105a157600080fd5b5060cc5462010000900460ff1660405160ff90911681526020016103a0565b3480156105cc57600080fd5b506105d5611b14565b6040516103a091906151af565b3480156105ee57600080fd5b5060ce546001600160681b031661040f565b34801561060c57600080fd5b5061037c61061b3660046151c2565b611b78565b34801561062c57600080fd5b506103e961063b3660046150a7565b611c00565b34801561064c57600080fd5b5061040f61065b36600461514e565b611c3c565b34801561066c57600080fd5b5060d054600160681b90046001600160801b031661040f565b34801561069157600080fd5b5061040f60fd5481565b3480156106a757600080fd5b5060d654610466906001600160a01b031681565b3480156106c757600080fd5b5061037c6106d63660046150f4565b611c97565b3480156106e757600080fd5b5061040f6101005481565b3480156106fe57600080fd5b5061040f60fe5481565b34801561071457600080fd5b5061037c6107233660046150f4565b611d71565b34801561073457600080fd5b506105d5611ddc565b34801561074957600080fd5b506104667f000000000000000000000000000000000000000000000000000000000000000081565b34801561077d57600080fd5b506107c461078c36600461514e565b60c96020526000908152604090205461ffff8116906201000081046001600160681b031690600160781b90046001600160801b031683565b6040805161ffff90941684526001600160681b0390921660208401526001600160801b0316908201526060016103a0565b34801561080157600080fd5b5061040f600081565b34801561081657600080fd5b5061037c611e3f565b34801561082b57600080fd5b506104667f000000000000000000000000000000000000000000000000000000000000000081565b34801561085f57600080fd5b5061037c611e9e565b34801561087457600080fd5b5061037c6108833660046150f4565b611ed4565b34801561089457600080fd5b5061040f6108a336600461514e565b611f99565b3480156108b457600080fd5b5061037c611fb4565b3480156108c957600080fd5b506108ff6108d836600461514e565b60cb6020526000908152604090205461ffff8116906201000090046001600160801b031682565b6040805161ffff90931683526001600160801b039091166020830152016103a0565b34801561092d57600080fd5b5061037c61093c3660046150f4565b611fef565b34801561094d57600080fd5b5061040f60fa5481565b34801561096357600080fd5b5061040f6109723660046150f4565b60ca6020526000908152604090205481565b34801561099057600080fd5b5061040f60d85481565b3480156109a657600080fd5b506104667f000000000000000000000000000000000000000000000000000000000000000081565b3480156109da57600080fd5b50610466612039565b3480156109ef57600080fd5b5061010154610466906001600160a01b031681565b348015610a1057600080fd5b50610393612048565b348015610a2557600080fd5b5061040f612057565b348015610a3a57600080fd5b5061037c610a493660046150f4565b612098565b348015610a5a57600080fd5b506104667f000000000000000000000000000000000000000000000000000000000000000081565b348015610a8e57600080fd5b5060cc5460cd5460ce54610ae89260ff80821693610100830482169362010000840490921692630100000090046001600160a01b039081169290821691600160a01b900466ffffffffffffff16906001600160681b031687565b604080519715158852951515602088015260ff909416948601949094526001600160a01b03918216606086015216608084015266ffffffffffffff90911660a08301526001600160681b031660c082015260e0016103a0565b348015610b4d57600080fd5b5060d45463ffffffff1661040f565b348015610b6857600080fd5b506103e9610b773660046150a7565b612191565b348015610b8857600080fd5b5061037c610b973660046150f4565b61222a565b348015610ba857600080fd5b5061040f60d95481565b348015610bbe57600080fd5b506103e9610bcd3660046150a7565b6122e6565b348015610bde57600080fd5b5060d754610466906001600160a01b031681565b348015610bfe57600080fd5b5061040f6122f3565b348015610c1357600080fd5b5060f854610466906001600160a01b031681565b348015610c3357600080fd5b506104667f000000000000000000000000000000000000000000000000000000000000000081565b348015610c6757600080fd5b5061040f62093a8081565b348015610c7e57600080fd5b5061037c610c8d3660046150f4565b612388565b348015610c9e57600080fd5b5061040f610cad36600461514e565b6123fc565b348015610cbe57600080fd5b5061037c610ccd3660046150f4565b612419565b348015610cde57600080fd5b5061037c610ced36600461514e565b6124dd565b348015610cfe57600080fd5b5061040f60fb5481565b348015610d1457600080fd5b5061037c610d233660046150f4565b612571565b348015610d3457600080fd5b506104667f000000000000000000000000000000000000000000000000000000000000000081565b348015610d6857600080fd5b5061040f610d77366004614fab565b6001600160a01b03918216600090815260986020908152604080832093909416825291909152205490565b348015610dae57600080fd5b5061037c610dbd36600461514e565b6125c0565b348015610dce57600080fd5b5061037c6126b3565b348015610de357600080fd5b5061037c610df236600461514e565b612aeb565b348015610e0357600080fd5b5060d45460d554610e2d9163ffffffff8116916001600160a01b03600160201b9092048216911683565b6040805163ffffffff90941684526001600160a01b0392831660208501529116908201526060016103a0565b61037c612b8b565b348015610e6d57600080fd5b50610e81610e7c36600461514e565b612cdf565b6040516103a09291906151e7565b348015610e9b57600080fd5b5061037c612da3565b348015610eb057600080fd5b5060f954610466906001600160a01b031681565b348015610ed057600080fd5b5060ff54610466906001600160a01b031681565b348015610ef057600080fd5b5061037c610eff3660046150f4565b612df7565b33610f0d612039565b6001600160a01b031614610f3c5760405162461bcd60e51b8152600401610f33906151f5565b60405180910390fd5b60cc546001600160a01b036301000000909104811690831603610f9f5760405162461bcd60e51b815260206004820152601b60248201527a5661756c74206173736574206e6f74207265636f76657261626c6560281b6044820152606401610f33565b306001600160a01b03831603610ff55760405162461bcd60e51b815260206004820152601b60248201527a5661756c74207368617265206e6f74207265636f76657261626c6560281b6044820152606401610f33565b306001600160a01b038216036110495760405162461bcd60e51b8152602060048201526019602482015278149958da5c1a595b9d0818d85b9b9bdd081899481d985d5b1d603a1b6044820152606401610f33565b60d4546001600160a01b03600160201b9091048116908316036110ad5760405162461bcd60e51b815260206004820152601c60248201527b53707265616420546f6b656e206e6f74207265636f76657261626c6560201b6044820152606401610f33565b61112f81836001600160a01b03166370a08231306040518263ffffffff1660e01b81526004016110dd91906150e0565b602060405180830381865afa1580156110fa573d6000803e3d6000fd5b505050506040513d601f19601f8201168201806040525081019061111e919061522a565b6001600160a01b0385169190612edc565b5050565b6060609a805461114290615243565b80601f016020809104026020016040519081016040528092919081815260200182805461116e90615243565b80156111bb5780601f10611190576101008083540402835291602001916111bb565b820191906000526020600020905b81548152906001019060200180831161119e57829003601f168201915b5050505050905090565b600054610100900460ff16806111de575060005460ff16155b6111fa5760405162461bcd60e51b8152600401610f339061527d565b600054610100900460ff1615801561121c576000805461ffff19166101011790555b6112e161122c602085018561514e565b61123c604086016020870161514e565b61124c606087016040880161514e565b6060870135608088013561126360a08a018a6152cb565b8080601f0160208091040260200160405190810160405280939291908181526020018383808284376000920191909152506112a59250505060c08b018b6152cb565b8080601f0160208091040260200160405190810160405280939291908181526020018383808284376000920191909152508c9250612f3f915050565b60006112f4610100850160e0860161514e565b6001600160a01b03160361133e5760405162461bcd60e51b815260206004820152601160248201527010afb9ba3934b5b2a9b2b632b1ba34b7b760791b6044820152606401610f33565b600061135261012085016101008601615318565b63ffffffff16118015611386575061136c600a6064615354565b61137e61012085016101008601615318565b63ffffffff16105b6113c65760405162461bcd60e51b81526020600482015260116024820152700857dc1c995b5a5d5b511a5cd8dbdd5b9d607a1b6044820152606401610f33565b61012c83610120013510156114115760405162461bcd60e51b815260206004820152601160248201527010afb0bab1ba34b7b7223ab930ba34b7b760791b6044820152606401610f33565b611422610100840160e0850161514e565b60f980546001600160a01b0319166001600160a01b039290921691909117905561145461012084016101008501615318565b63ffffffff1660fa5561012083013560fc558015611478576000805461ff00191690555b505050565b600061148a33848461316b565b5060015b92915050565b60d7546001600160a01b031633146114be5760405162461bcd60e51b8152600401610f339061536b565b6002600154036114e05760405162461bcd60e51b8152600401610f339061538c565b60026001556101005460d05460d38054604080516020808402820181019092528281526001600160681b03909416936000939092909183018282801561154f57602002820191906000526020600020905b81546001600160a01b03168152600190910190602001808311611531575b505060cf5460d4549495506201000090046001600160681b0390811694600160201b90046001600160a01b0316935060009250829150861681036116585761159960fe548861328f565b60fe82905560d15493985091965090945092506000906115c39089906001600160801b03166153c3565b90506115ce8161371d565b60d180546001600160801b0319166001600160801b0383161790556000610100556115f885613767565b60cf805462010000600160781b031916620100006001600160681b0388160217905560405133907fa46edfc89996c30fc5a40bc6b832933b7a4b51a5e185e5be90b32c76856b8e3b9061164e90899089906153d6565b60405180910390a2505b61166b6001600160681b038716856153f8565b93505b60008811801561167e5750600084115b156117ae576000807387ccF30e94F87b3f5cD5e7ea6F683F216486206c63087aebc47f00000000000000000000000000000000000000000000000000000000000000007f00000000000000000000000000000000000000000000000000000000000000008a8a8a6040518663ffffffff1660e01b815260040161170595949392919061540b565b6040805180830381865af4158015611721573d6000803e3d6000fd5b505050506040513d601f19601f82011682018060405250810190611745919061544f565b909250905061175482846153c3565b925061176160018b6153f8565b60d054909a5061177b9082906001600160681b0316615473565b60d080546001600160681b0319166001600160681b03929092169190911790556117a581876153f8565b9550505061166e565b60405163140e25ad60e31b8152600481018290526001600160a01b0384169063a0712d6890602401600060405180830381600087803b1580156117f057600080fd5b505af1158015611804573d6000803e3d6000fd5b50506001805550505050505050505050565b60006118238484846137b1565b6001600160a01b0384166000908152609860209081526040808320338452909152902054828110156118a85760405162461bcd60e51b815260206004820152602860248201527f45524332303a207472616e7366657220616d6f756e74206578636565647320616044820152676c6c6f77616e636560c01b6064820152608401610f33565b6118b5853385840361316b565b506001949350505050565b6002600154036118e25760405162461bcd60e51b8152600401610f339061538c565b600260015533600090815260c96020526040902060cf5461ffff168261191a5760405162461bcd60e51b8152600401610f339061549a565b815461ffff16811461195e5760405162461bcd60e51b815260206004820152600d60248201526c125b9d985b1a59081c9bdd5b99609a1b6044820152606401610f33565b81546201000090046001600160681b0316838110156119af5760405162461bcd60e51b815260206004820152600d60248201526c115e18d9595908185b5bdd5b9d609a1b6044820152606401610f33565b6119b984826153f8565b83546001600160681b0391909116620100000262010000600160781b031990911617835560d0546119fc9085906001600160801b03600160681b909104166153f8565b60d080546001600160801b0392909216600160681b02600160681b600160e81b031990921691909117905560405133907fab2daf3c146ca6416cbccd2a86ed2ba995e171ef6319df14a38aef01403a9c9690611a5b90879086906151e7565b60405180910390a2611a6d338561396f565b5050600180555050565b33611a80612039565b6001600160a01b031614611aa65760405162461bcd60e51b8152600401610f33906151f5565b6001600160a01b038116611af25760405162461bcd60e51b815260206004820152601360248201527210b732bba9ba3934b5b2a9b2b632b1ba34b7b760691b6044820152606401610f33565b60f980546001600160a01b0319166001600160a01b0392909216919091179055565b606060d26000018054806020026020016040519081016040528092919081815260200182805480156111bb57602002820191906000526020600020905b81546001600160a01b03168152600190910190602001808311611b51575050505050905090565b600260015403611b9a5760405162461bcd60e51b8152600401610f339061538c565b600260015581611bbc5760405162461bcd60e51b8152600401610f339061549a565b6001600160a01b038116611bcf57600080fd5b611bd98282613ad0565b60cc54611bf890630100000090046001600160a01b0316333085613d6a565b505060018055565b3360008181526098602090815260408083206001600160a01b0387168452909152812054909161148a918590611c379086906153c3565b61316b565b60cc5460009060ff620100009091041681611c7a611c5960995490565b611c616122f3565b60d054600160681b90046001600160801b031685613da2565b9050611c8f611c88856123fc565b8284613de8565b949350505050565b33611ca0612039565b6001600160a01b031614611cc65760405162461bcd60e51b8152600401610f33906151f5565b60008111611d005760405162461bcd60e51b81526020600482015260076024820152660216e65774361760cc1b6044820152606401610f33565b611d0981613767565b60ce54604080516001600160681b039092168252602082018390527f5f86edbb9d92228a9edc3f0ebc0f001bda1ea345ac7335e0eeef3504b31d1a1c910160405180910390a160ce80546001600160681b0319166001600160681b0392909216919091179055565b60d7546001600160a01b03163314611d9b5760405162461bcd60e51b8152600401610f339061536b565b60008111611dd75760405162461bcd60e51b8152602060048201526009602482015268216d696e507269636560b81b6044820152606401610f33565b60fb55565b606060d26001018054806020026020016040519081016040528092919081815260200182805480156111bb576020028201919060005260206000209081546001600160a01b03168152600190910190602001808311611b51575050505050905090565b60d7546001600160a01b03163314611e695760405162461bcd60e51b8152600401610f339061536b565b600260015403611e8b5760405162461bcd60e51b8152600401610f339061538c565b6002600155611e98613e22565b60018055565b600260015403611ec05760405162461bcd60e51b8152600401610f339061538c565b6002600181905550611e9860006001613f4f565b33611edd612039565b6001600160a01b031614611f035760405162461bcd60e51b8152600401610f33906151f5565b611f11620f42406064615354565b8110611f595760405162461bcd60e51b8152602060048201526017602482015276496e76616c696420706572666f726d616e63652066656560481b6044820152606401610f33565b7f24867dfb6fcb9970a07be21024956524abe7a1837faa903ff0e99aaa40cf893e60d85482604051611f8c9291906151e7565b60405180910390a160d855565b6001600160a01b031660009081526097602052604090205490565b33611fbd612039565b6001600160a01b031614611fe35760405162461bcd60e51b8152600401610f33906151f5565b611fed6000614100565b565b6002600154036120115760405162461bcd60e51b8152600401610f339061538c565b600260015561201f81614152565b806101005461202e91906153c3565b610100555060018055565b6065546001600160a01b031690565b6060609b805461114290615243565b600061209361206560995490565b61206d6122f3565b60d05460cc54600160681b9091046001600160801b03169062010000900460ff16613da2565b905090565b6002600154036120ba5760405162461bcd60e51b8152600401610f339061538c565b6002600155806120f95760405162461bcd60e51b815260206004820152600a602482015269216e756d526f756e647360b01b6044820152606401610f33565b60cf5461ffff1660005b8281101561218857600061211782846153c3565b600081815260ca6020526040902054909150156121645760405162461bcd60e51b815260206004820152600b60248201526a125b9a5d1a585b1a5e995960aa1b6044820152606401610f33565b600090815260ca602052604090206001905580612180816154bb565b915050612103565b50506001805550565b3360009081526098602090815260408083206001600160a01b0386168452909152812054828110156122135760405162461bcd60e51b815260206004820152602560248201527f45524332303a2064656372656173656420616c6c6f77616e63652062656c6f77604482015264207a65726f60d81b6064820152608401610f33565b612220338585840361316b565b5060019392505050565b33612233612039565b6001600160a01b0316146122595760405162461bcd60e51b8152600401610f33906151f5565b61012c8110156122a65760405162461bcd60e51b815260206004820152601860248201527724b73b30b634b21030bab1ba34b7b710323ab930ba34b7b760411b6044820152606401610f33565b7f5acd982e2240ed224a69aa03dab039d3797c108e4b5f288cd7dd6ca181b275f360fc54826040516122d99291906151e7565b60405180910390a160fc55565b600061148a3384846137b1565b60cc546040516370a0823160e01b8152600091630100000090046001600160a01b0316906370a082319061232b9030906004016150e0565b602060405180830381865afa158015612348573d6000803e3d6000fd5b505050506040513d601f19601f8201168201806040525081019061236c919061522a565b60cf5461209391906201000090046001600160681b03166153c3565b6002600154036123aa5760405162461bcd60e51b8152600401610f339061538c565b6002600155806123cc5760405162461bcd60e51b8152600401610f339061549a565b6123d68133613ad0565b60cc546123f590630100000090046001600160a01b0316333084613d6a565b5060018055565b600080600061240a84612cdf565b9092509050611c8f81836153c3565b60d7546001600160a01b031633146124435760405162461bcd60e51b8152600401610f339061536b565b60008111801561245e575061245a600a6064615354565b8111155b61249d5760405162461bcd60e51b815260206004820152601060248201526f125b9d985b1a5908191a5cd8dbdd5b9d60821b6044820152606401610f33565b7f4cd657fde404967d63a338fb06c5c98751a9df57dfae6dc333a432faf8a5f65660fa54826040516124d09291906151e7565b60405180910390a160fa55565b336124e6612039565b6001600160a01b03161461250c5760405162461bcd60e51b8152600401610f33906151f5565b6001600160a01b03811661254f5760405162461bcd60e51b815260206004820152600a60248201526910b732bba5b2b2b832b960b11b6044820152606401610f33565b60d780546001600160a01b0319166001600160a01b0392909216919091179055565b6002600154036125935760405162461bcd60e51b8152600401610f339061538c565b6002600155806125b55760405162461bcd60e51b8152600401610f33906154d4565b6123f5816000613f4f565b336125c9612039565b6001600160a01b0316146125ef5760405162461bcd60e51b8152600401610f33906151f5565b6001600160a01b0381166126385760405162461bcd60e51b815260206004820152601060248201526f085b995dd19959549958da5c1a595b9d60821b6044820152606401610f33565b60d6546001600160a01b03908116908216036126915760405162461bcd60e51b8152602060048201526018602482015277135d5cdd081899481b995dc8199959549958da5c1a595b9d60421b6044820152606401610f33565b60d680546001600160a01b0319166001600160a01b0392909216919091179055565b6002600154036126d55760405162461bcd60e51b8152600401610f339061538c565b600260015560d38054604080516020808402820181019092528281526000939092909183018282801561273157602002820191906000526020600020905b81546001600160a01b03168152600190910190602001808311612713575b505060d4546040805160e0810182526001600160a01b037f0000000000000000000000000000000000000000000000000000000000000000811682527f00000000000000000000000000000000000000000000000000000000000000008116602083015281830188905260006060830181905260f9548216608084015260fa5460a08401527f0000000000000000000000000000000000000000000000000000000000000000821660c0840152925163068bb40360e41b8152979850600160201b909304909216959194509250829150819081907387ccF30e94F87b3f5cD5e7ea6F683F216486206c906368bb40309061283590889060cc9060cf906004016154f8565b600060405180830381865af4158015612852573d6000803e3d6000fd5b505050506040513d6000823e601f3d908101601f1916820160405261287a919081019061565e565b93509350935093507f8b2c6e7d4d72cff90224277b40c8404bbdedcede50c7449f6e4d231b5b11981b8383836040516128b593929190615787565b60405180910390a1836001815181106128d0576128d06157c5565b60200260200101516001600160a01b031663c52987cf6040518163ffffffff1660e01b8152600401602060405180830381865afa158015612915573d6000803e3d6000fd5b505050506040513d601f19601f82011682018060405250810190612939919061522a565b8460008151811061294c5761294c6157c5565b60200260200101516001600160a01b031663c52987cf6040518163ffffffff1660e01b8152600401602060405180830381865afa158015612991573d6000803e3d6000fd5b505050506040513d601f19601f820116820180604052508101906129b5919061522a565b10612a225760405162461bcd60e51b815260206004820152603760248201527f53686f727420746f6b656e206d7573742068617665206c65737320737472696b6044820152763290383934b1b2903a3432b7103637b733903a37b5b2b760491b6064820152608401610f33565b8351612a359060d2906020870190614ef2565b5060d580546001600160a01b0319166001600160a01b0383161790556000612a5d81426153c3565b905063ffffffff811115612aae5760405162461bcd60e51b81526020600482015260186024820152774f766572666c6f77206e6578744f7074696f6e526561647960401b6044820152606401610f33565b60d4805463ffffffff191663ffffffff831617905560d080546001600160681b0319169055612add8888614304565b505060018055505050505050565b33612af4612039565b6001600160a01b031614612b1a5760405162461bcd60e51b8152600401610f33906151f5565b6001600160a01b038116612b7f5760405162461bcd60e51b815260206004820152602660248201527f4f776e61626c653a206e6577206f776e657220697320746865207a65726f206160448201526564647265737360d01b6064820152608401610f33565b612b8881614100565b50565b600260015403612bad5760405162461bcd60e51b8152600401610f339061538c565b600260015560cc547f00000000000000000000000000000000000000000000000000000000000000006001600160a01b0390811663010000009092041614612c225760405162461bcd60e51b815260206004820152600860248201526721574e415449564560c01b6044820152606401610f33565b60003411612c5b5760405162461bcd60e51b81526020600482015260066024820152652176616c756560d01b6044820152606401610f33565b612c653433613ad0565b7f00000000000000000000000000000000000000000000000000000000000000006001600160a01b031663d0e30db0346040518263ffffffff1660e01b81526004016000604051808303818588803b158015612cc057600080fd5b505af1158015612cd4573d6000803e3d6000fd5b505060018055505050565b6001600160a01b038116600090815260c9602090815260408083208151606081018352905461ffff81168083526201000082046001600160681b031694830194909452600160781b90046001600160801b031691810191909152829160011115612d5757612d4c84611f99565b946000945092505050565b60cf54815161ffff908116600090815260ca602052604081205460cc549193612d8e9386939116919062010000900460ff166144d2565b9050612d9985611f99565b9590945092505050565b600260015403612dc55760405162461bcd60e51b8152600401610f339061538c565b60026001556000612dd4614543565b90508060fe54612de491906153f8565b6001600160801b031660fe555060018055565b33612e00612039565b6001600160a01b031614612e265760405162461bcd60e51b8152600401610f33906151f5565b612e34620f42406064615354565b8110612e7b5760405162461bcd60e51b8152602060048201526016602482015275496e76616c6964206d616e6167656d656e742066656560501b6044820152606401610f33565b600063031ba309612e8f620f424084615354565b612e9991906157db565b90507f4e874b007ab14f7e263baefd44951834c8266f4f224d1092e49e9c254354cc5460d95483604051612ece9291906151e7565b60405180910390a160d95550565b6040516001600160a01b03831660248201526044810182905261147890849063a9059cbb60e01b906064015b60408051601f198184030181529190526020810180516001600160e01b03166001600160e01b031990931692909217909152614704565b600054610100900460ff1680612f58575060005460ff16155b612f745760405162461bcd60e51b8152600401610f339061527d565b600054610100900460ff16158015612f96576000805461ffff19166101011790555b60405163c72733f760e01b81527387ccF30e94F87b3f5cD5e7ea6F683F216486206c9063c72733f790612fdb908c908c908c908b908d908c908c908c9060040161585a565b60006040518083038186803b158015612ff357600080fd5b505af4158015613007573d6000803e3d6000fd5b505050506130136147d6565b61301d8484614849565b6130256148c8565b61302e89612aeb565b60d780546001600160a01b03808b166001600160a01b03199283161790925560d68054928a169290911691909117905560d885905563031ba309613075620f424088615354565b61307f91906157db565b60d9558160cc61308f82826159a2565b505060cc546040516370a0823160e01b8152600091630100000090046001600160a01b0316906370a08231906130c99030906004016150e0565b602060405180830381865afa1580156130e6573d6000803e3d6000fd5b505050506040513d601f19601f8201168201806040525081019061310a919061522a565b905061311581613767565b60cf805461ffff196001600160681b03909316600160781b029290921661ffff600160781b03600160e01b03199092169190911760011790558015613160576000805461ff00191690555b505050505050505050565b6001600160a01b0383166131cd5760405162461bcd60e51b8152602060048201526024808201527f45524332303a20617070726f76652066726f6d20746865207a65726f206164646044820152637265737360e01b6064820152608401610f33565b6001600160a01b03821661322e5760405162461bcd60e51b815260206004820152602260248201527f45524332303a20617070726f766520746f20746865207a65726f206164647265604482015261737360f01b6064820152608401610f33565b6001600160a01b0383811660008181526098602090815260408083209487168084529482529182902085905590518481527f8c5be1e5ebec7d5bd14f71427d1e84f3dd0314c0f7b2291e5b200ac8c7c3b925910160405180910390a3505050565b60d4546060906000908190819063ffffffff164210156132da5760405162461bcd60e51b815260206004820152600660248201526521726561647960d01b6044820152606401610f33565b60d280546040805160208084028201810190925282815292919083018282801561332d57602002820191906000526020600020905b81546001600160a01b0316815260019091019060200180831161330f575b505060d55484519498506001600160a01b031694506000938893508492501515905061335b5761335b6157c5565b60200260200101516001600160a01b0316036133a95760405162461bcd60e51b815260206004820152600d60248201526c0216e657874537072656164203609c1b6044820152606401610f33565b60006001600160a01b0316846001815181106133c7576133c76157c5565b60200260200101516001600160a01b0316036134155760405162461bcd60e51b815260206004820152600d60248201526c216e657874537072656164203160981b6044820152606401610f33565b6001600160a01b03811661345a5760405162461bcd60e51b815260206004820152600c60248201526b10b9b83932b0b22a37b5b2b760a11b6044820152606401610f33565b60d6546040805160e08101825260cc5460ff62010000820416825291516370a0823160e01b81526001600160a01b03938416936000938493849384937387ccF30e94F87b3f5cD5e7ea6F683F216486206c9363c8128b659360cf93909260208401926301000000900416906370a08231906134d99030906004016150e0565b602060405180830381865afa1580156134f6573d6000803e3d6000fd5b505050506040513d601f19601f8201168201806040525081019061351a919061522a565b815260200161352860995490565b81526020018f815260200160d854815260200160d95481526020018e8152506040518363ffffffff1660e01b81526004016135b592919060006101008201905083825282516020830152602083015160408301526040830151606083015260608301516080830152608083015160a083015260a083015160c083015260c083015160e08301529392505050565b60c060405180830381865af41580156135d2573d6000803e3d6000fd5b505050506040513d601f19601f820116820180604052508101906135f69190615ae2565b8e51959d50939b50909750955090935091506136199060d39060208c0190614ef2565b5060d48054600160201b600160c01b031916600160201b6001600160a01b0389160217905560d580546001600160a01b031916905561365a60d26000614f57565b60cf5461ffff16600081815260ca602090815260409182902084905581518681529081018590529081018290526001600160a01b038716907f0a242f7ecaf711036ca770774ceffae28e60ef042ac113ddd187f2631db0c0069060600160405180910390a260d08054600160681b600160e81b03191690556136dd8160016153c3565b60cf805461ffff191661ffff92909216919091179055506137009050308461492f565b801561371057613710848261396f565b5050505092959194509250565b6001600160801b03811115612b885760405162461bcd60e51b815260206004820152601060248201526f09eeccae4ccd8deee40ead2dce86264760831b6044820152606401610f33565b6001600160681b03811115612b885760405162461bcd60e51b815260206004820152601060248201526f13dd995c999b1bddc81d5a5b9d0c4c0d60821b6044820152606401610f33565b6001600160a01b0383166138155760405162461bcd60e51b815260206004820152602560248201527f45524332303a207472616e736665722066726f6d20746865207a65726f206164604482015264647265737360d81b6064820152608401610f33565b6001600160a01b0382166138775760405162461bcd60e51b815260206004820152602360248201527f45524332303a207472616e7366657220746f20746865207a65726f206164647260448201526265737360e81b6064820152608401610f33565b6001600160a01b038316600090815260976020526040902054818110156138ef5760405162461bcd60e51b815260206004820152602660248201527f45524332303a207472616e7366657220616d6f756e7420657863656564732062604482015265616c616e636560d01b6064820152608401610f33565b6001600160a01b038085166000908152609760205260408082208585039055918516815290812080548492906139269084906153c3565b92505081905550826001600160a01b0316846001600160a01b0316600080516020615d8a8339815191528460405161396091815260200190565b60405180910390a35b50505050565b60cc546001600160a01b0363010000009091048116907f0000000000000000000000000000000000000000000000000000000000000000168103613abc57604051632e1a7d4d60e01b8152600481018390527f00000000000000000000000000000000000000000000000000000000000000006001600160a01b031690632e1a7d4d90602401600060405180830381600087803b158015613a0f57600080fd5b505af1158015613a23573d6000803e3d6000fd5b505050506000836001600160a01b03168360405160006040518083038185875af1925050503d8060008114613a74576040519150601f19603f3d011682016040523d82523d6000602084013e613a79565b606091505b50509050806139695760405162461bcd60e51b815260206004820152600f60248201526e151c985b9cd9995c8819985a5b1959608a1b6044820152606401610f33565b6114786001600160a01b0382168484612edc565b60cf5461ffff16600083613ae26122f3565b613aec91906153c3565b60ce549091506001600160681b0316811115613b375760405162461bcd60e51b815260206004820152600a6024820152690457863656564206361760b41b6044820152606401610f33565b60cd54600160a01b900466ffffffffffffff16811015613b905760405162461bcd60e51b8152602060048201526014602482015273496e73756666696369656e742062616c616e636560601b6044820152606401610f33565b826001600160a01b03167f90890809c654f11d6e72a28fa60149770a0d11ec6c92319d6ceb2bb0a4ea1a158584604051613bcb9291906151e7565b60405180910390a26001600160a01b038316600090815260c9602090815260408083208151606081018352905461ffff8116808352620100008083046001600160681b031684870152600160781b9092046001600160801b031683850152855260ca9093529083205460cc54919392613c4d928592889290910460ff166144d2565b8251909150869061ffff168503613c7d5760008784602001516001600160681b0316613c7991906153c3565b9150505b613c8681613767565b6040805160608101825261ffff80881682526001600160681b0380851660208085019182526001600160801b038089168688019081526001600160a01b038e16600090815260c990935296822095518654935197518216600160781b02600160781b600160f81b03199890951662010000026001600160781b031990941695169490941791909117949094161790915560d054613d2c918a91600160681b9004166153c3565b9050613d378161371d565b60d080546001600160801b03909216600160681b02600160681b600160e81b031990921691909117905550505050505050565b6040516001600160a01b03808516602483015283166044820152606481018290526139699085906323b872dd60e01b90608401612f08565b600080613db083600a615c10565b905060008611613dc05780613dde565b613dde86613dd8613dd188886149fc565b8490614a0f565b90614a1b565b9695505050505050565b600060018311613e0a5760405162461bcd60e51b8152600401610f3390615c1c565b611c8f613e1883600a615c10565b613dd88686614a0f565b6040805160c08101825260d4546001600160a01b03600160201b90910481168083527f000000000000000000000000000000000000000000000000000000000000000082166020840190815260cc5463010000008104841685870190815260ff62010000909204919091166060860190815260fb546080870190815260fc5460a088019081529751633baf17fd60e21b8152875187166004820152935186166024850152915190941660448301529251606482015291516084830152925160a48201529091907387ccF30e94F87b3f5cD5e7ea6F683F216486206c9063eebc5ff49060c401602060405180830381865af4158015613f24573d6000803e3d6000fd5b505050506040513d601f19601f82011682018060405250810190613f48919061522a565b60fd555050565b33600090815260c9602090815260408083208151606081018352905461ffff808216808452620100008084046001600160681b031685880152600160781b9093046001600160801b03168486015260cf5490875260ca9095529285205460cc549295949093169392613fc99286928692910460ff166144d2565b905083613fd65784613fd8565b805b945084600003613fe9575050505050565b8085111561402d5760405162461bcd60e51b81526020600482015260116024820152704578636565647320617661696c61626c6560781b6044820152606401610f33565b825161ffff1682111561405a5733600090815260c960205260409020805462010000600160781b03191690555b6140638561371d565b61406d85826153f8565b33600081815260c960205260409081902080546001600160801b0394909416600160781b02600160781b600160f81b0319909416939093179092558451915190917fe5b754fb1abb7f01b499791d0b820ae3b6af3424ac1c59768edb53f4ec31a929916140e69189825261ffff16602082015260400190565b60405180910390a26140f93033876137b1565b5050505050565b606580546001600160a01b038381166001600160a01b0319831681179093556040519116919082907f8be0079c531659141344cd1fd0a4f28419497f9722a3daafe3b4186f6b6457e090600090a35050565b600081116141725760405162461bcd60e51b8152600401610f33906154d4565b33600090815260c960205260409020546201000090046001600160681b03161515806141bc575033600090815260c96020526040902054600160781b90046001600160801b031615155b156141cd576141cd60006001613f4f565b60cf5433600081815260cb6020526040908190208054915161ffff948516949193919092168414917f0c53c82ad07e2d592d88ece3b066777dd60f1118e2a081b380efc4358f0d9e2a9061422490879087906151e7565b60405180910390a281546201000090046001600160801b0316600082156142565761424f86836153c3565b90506142b9565b81156142985760405162461bcd60e51b81526020600482015260116024820152704578697374696e6720776974686472617760781b6044820152606401610f33565b5033600090815260cb60205260409020805461ffff191661ffff8616179055845b6142c28161371d565b33600081815260cb60205260409020805462010000600160901b031916620100006001600160801b038516021790556142fc9030886137b1565b505050505050565b60cf548251620100009091046001600160681b03169015801590614355575060006001600160a01b031683600081518110614341576143416157c5565b60200260200101516001600160a01b031614155b1561437f5760cf8054600160781b600160e01b031916600160781b6001600160681b038416021790555b60cf805462010000600160781b031916905561439d60d36000614f57565b600083511180156143db575060006001600160a01b0316836000815181106143c7576143c76157c5565b60200260200101516001600160a01b031614155b1561147857604051630499725b60e31b81526001600160a01b037f000000000000000000000000000000000000000000000000000000000000000081166004830152831660248201526000907387ccF30e94F87b3f5cD5e7ea6F683F216486206c906324cb92d890604401602060405180830381865af4158015614463573d6000803e3d6000fd5b505050506040513d601f19601f82011682018060405250810190614487919061522a565b9050336001600160a01b03167f2ff819b1ba3c904525d86a4f45f37f802203fabdb574cdde3081a42668e321de85836040516144c49291906153d6565b60405180910390a250505050565b835160009061ffff16158015906144ed5750845161ffff1684115b1561452f57600061450c86602001516001600160681b03168585614a27565b6040870151909150614527906001600160801b031682614a62565b915050611c8f565b50505050604001516001600160801b031690565b33600090815260cb6020526040812080546001600160801b03620100008204169061ffff16816145a55760405162461bcd60e51b815260206004820152600d60248201526c139bdd081a5b9a5d1a585d1959609a1b6044820152606401610f33565b60cf5461ffff1681106145ed5760405162461bcd60e51b815260206004820152601060248201526f149bdd5b99081b9bdd0818db1bdcd95960821b6044820152606401610f33565b33600090815260cb60205260409020805462010000600160901b031916905560d1546146239083906001600160801b03166153f8565b60d180546001600160801b0319166001600160801b0392909216919091179055600081815260ca602052604081205460cc5461466991859162010000900460ff16613de8565b9050336001600160a01b03167ff279e6a1f5e320cca91135676d9cb6e44ca8a08c0b88342bcdb1144f6511b56882856040516146a69291906151e7565b60405180910390a26146b83084614a6e565b600081116146fa5760405162461bcd60e51b815260206004820152600f60248201526e085dda5d1a191c985dd05b5bdd5b9d608a1b6044820152606401610f33565b611c8f338261396f565b6000614759826040518060400160405280602081526020017f5361666545524332303a206c6f772d6c6576656c2063616c6c206661696c6564815250856001600160a01b0316614baa9092919063ffffffff16565b80519091501561147857808060200190518101906147779190615c4b565b6114785760405162461bcd60e51b815260206004820152602a60248201527f5361666545524332303a204552433230206f7065726174696f6e20646964206e6044820152691bdd081cdd58d8d9595960b21b6064820152608401610f33565b600054610100900460ff16806147ef575060005460ff16155b61480b5760405162461bcd60e51b8152600401610f339061527d565b600054610100900460ff1615801561482d576000805461ffff19166101011790555b614835614bb9565b8015612b88576000805461ff001916905550565b600054610100900460ff1680614862575060005460ff16155b61487e5760405162461bcd60e51b8152600401610f339061527d565b600054610100900460ff161580156148a0576000805461ffff19166101011790555b6148a8614c28565b6148b28383614c92565b8015611478576000805461ff0019169055505050565b600054610100900460ff16806148e1575060005460ff16155b6148fd5760405162461bcd60e51b8152600401610f339061527d565b600054610100900460ff1615801561491f576000805461ffff19166101011790555b614927614c28565b614835614d19565b6001600160a01b0382166149855760405162461bcd60e51b815260206004820152601f60248201527f45524332303a206d696e7420746f20746865207a65726f2061646472657373006044820152606401610f33565b806099600082825461499791906153c3565b90915550506001600160a01b038216600090815260976020526040812080548392906149c49084906153c3565b90915550506040518181526001600160a01b03831690600090600080516020615d8a8339815191529060200160405180910390a35050565b6000614a0882846153f8565b9392505050565b6000614a088284615354565b6000614a0882846157db565b600060018311614a495760405162461bcd60e51b8152600401610f3390615c1c565b611c8f83613dd8614a5b85600a615c10565b8790614a0f565b6000614a0882846153c3565b6001600160a01b038216614ace5760405162461bcd60e51b815260206004820152602160248201527f45524332303a206275726e2066726f6d20746865207a65726f206164647265736044820152607360f81b6064820152608401610f33565b6001600160a01b03821660009081526097602052604090205481811015614b425760405162461bcd60e51b815260206004820152602260248201527f45524332303a206275726e20616d6f756e7420657863656564732062616c616e604482015261636560f01b6064820152608401610f33565b6001600160a01b0383166000908152609760205260408120838303905560998054849290614b719084906153f8565b90915550506040518281526000906001600160a01b03851690600080516020615d8a8339815191529060200160405180910390a3505050565b6060611c8f8484600085614d79565b600054610100900460ff1680614bd2575060005460ff16155b614bee5760405162461bcd60e51b8152600401610f339061527d565b600054610100900460ff16158015614c10576000805461ffff19166101011790555b600180558015612b88576000805461ff001916905550565b600054610100900460ff1680614c41575060005460ff16155b614c5d5760405162461bcd60e51b8152600401610f339061527d565b600054610100900460ff16158015614835576000805461ffff19166101011790558015612b88576000805461ff001916905550565b600054610100900460ff1680614cab575060005460ff16155b614cc75760405162461bcd60e51b8152600401610f339061527d565b600054610100900460ff16158015614ce9576000805461ffff19166101011790555b609a614cf58482615cae565b50609b614d028382615cae565b508015611478576000805461ff0019169055505050565b600054610100900460ff1680614d32575060005460ff16155b614d4e5760405162461bcd60e51b8152600401610f339061527d565b600054610100900460ff16158015614d70576000805461ffff19166101011790555b61483533614100565b606082471015614dda5760405162461bcd60e51b815260206004820152602660248201527f416464726573733a20696e73756666696369656e742062616c616e636520666f6044820152651c8818d85b1b60d21b6064820152608401610f33565b600080866001600160a01b03168587604051614df69190615d6d565b60006040518083038185875af1925050503d8060008114614e33576040519150601f19603f3d011682016040523d82523d6000602084013e614e38565b606091505b5091509150614e4987838387614e54565b979650505050505050565b60608315614ec3578251600003614ebc576001600160a01b0385163b614ebc5760405162461bcd60e51b815260206004820152601d60248201527f416464726573733a2063616c6c20746f206e6f6e2d636f6e74726163740000006044820152606401610f33565b5081611c8f565b611c8f8383815115614ed85781518083602001fd5b8060405162461bcd60e51b8152600401610f339190615034565b828054828255906000526020600020908101928215614f47579160200282015b82811115614f4757825182546001600160a01b0319166001600160a01b03909116178255602090920191600190910190614f12565b50614f53929150614f71565b5090565b5080546000825590600052602060002090810190612b8891905b5b80821115614f535760008155600101614f72565b6001600160a01b0381168114612b8857600080fd5b8035614fa681614f86565b919050565b60008060408385031215614fbe57600080fd5b8235614fc981614f86565b91506020830135614fd981614f86565b809150509250929050565b60005b83811015614fff578181015183820152602001614fe7565b50506000910152565b60008151808452615020816020860160208601614fe4565b601f01601f19169290920160200192915050565b602081526000614a086020830184615008565b60008082840361010081121561505c57600080fd5b83356001600160401b0381111561507257600080fd5b8401610140818703121561508557600080fd5b925060e0601f198201121561509957600080fd5b506020830190509250929050565b600080604083850312156150ba57600080fd5b82356150c581614f86565b946020939093013593505050565b6001600160a01b03169052565b6001600160a01b0391909116815260200190565b60006020828403121561510657600080fd5b5035919050565b60008060006060848603121561512257600080fd5b833561512d81614f86565b9250602084013561513d81614f86565b929592945050506040919091013590565b60006020828403121561516057600080fd5b8135614a0881614f86565b600081518084526020808501945080840160005b838110156151a45781516001600160a01b03168752958201959082019060010161517f565b509495945050505050565b602081526000614a08602083018461516b565b600080604083850312156151d557600080fd5b823591506020830135614fd981614f86565b918252602082015260400190565b6020808252818101527f4f776e61626c653a2063616c6c6572206973206e6f7420746865206f776e6572604082015260600190565b60006020828403121561523c57600080fd5b5051919050565b600181811c9082168061525757607f821691505b60208210810361527757634e487b7160e01b600052602260045260246000fd5b50919050565b6020808252602e908201527f496e697469616c697a61626c653a20636f6e747261637420697320616c72656160408201526d191e481a5b9a5d1a585b1a5e995960921b606082015260800190565b6000808335601e198436030181126152e257600080fd5b8301803591506001600160401b038211156152fc57600080fd5b60200191503681900382131561531157600080fd5b9250929050565b60006020828403121561532a57600080fd5b813563ffffffff81168114614a0857600080fd5b634e487b7160e01b600052601160045260246000fd5b808202811582820484141761148e5761148e61533e565b60208082526007908201526610b5b2b2b832b960c91b604082015260600190565b6020808252601f908201527f5265656e7472616e637947756172643a207265656e7472616e742063616c6c00604082015260600190565b8082018082111561148e5761148e61533e565b6040815260006153e9604083018561516b565b90508260208301529392505050565b8181038181111561148e5761148e61533e565b600060018060a01b038088168352808716602084015260a0604084015261543560a084018761516b565b606084019590955292909216608090910152509392505050565b6000806040838503121561546257600080fd5b505080516020909101519092909150565b6001600160681b038181168382160190808211156154935761549361533e565b5092915050565b60208082526007908201526608585b5bdd5b9d60ca1b604082015260600190565b6000600182016154cd576154cd61533e565b5060010190565b6020808252600a9082015269216e756d53686172657360b01b604082015260600190565b60608152600060018060a01b03808651166060840152806020870151166080840152604086015160e060a085015261553461014085018261516b565b9050606087015160c08501528160808801511660e085015260a087015161010085015260c0870151915061556c6101208501836150d3565b6020840195909552505060400152919050565b634e487b7160e01b600052604160045260246000fd5b604051601f8201601f191681016001600160401b03811182821017156155bd576155bd61557f565b604052919050565b60006001600160401b038211156155de576155de61557f565b5060051b60200190565b8051614fa681614f86565b600082601f83011261560457600080fd5b81516020615619615614836155c5565b615595565b82815260059290921b8401810191818101908684111561563857600080fd5b8286015b84811015615653578051835291830191830161563c565b509695505050505050565b6000806000806080858703121561567457600080fd5b84516001600160401b038082111561568b57600080fd5b818701915087601f83011261569f57600080fd5b815160206156af615614836155c5565b82815260059290921b8401810191818101908b8411156156ce57600080fd5b948201945b838610156156f55785516156e681614f86565b825294820194908201906156d3565b918a015191985090935050508082111561570e57600080fd5b61571a888389016155f3565b9450604087015191508082111561573057600080fd5b5061573d878288016155f3565b92505061574c606086016155e8565b905092959194509250565b600081518084526020808501945080840160005b838110156151a45781518752958201959082019060010161576b565b60608152600061579a6060830186615757565b82810360208401526157ac8186615757565b91505060018060a01b0383166040830152949350505050565b634e487b7160e01b600052603260045260246000fd5b6000826157f857634e487b7160e01b600052601260045260246000fd5b500490565b8015158114612b8857600080fd5b60ff81168114612b8857600080fd5b66ffffffffffffff81168114612b8857600080fd5b8035614fa68161581a565b6001600160681b0381168114612b8857600080fd5b8035614fa68161583a565b6001600160a01b03898116825288811660208301528716604082015260608101869052608081018590526101c060a0820181905260009061589d83820187615008565b905082810360c08401526158b18186615008565b91505082356158bf816157fd565b151560e083015260208301356158d4816157fd565b151561010083015260408301356158ea8161580b565b60ff166101208301526158ff60608401614f9b565b61590d6101408401826150d3565b5061591a60808401614f9b565b6159286101608401826150d3565b5061593560a0840161582f565b66ffffffffffffff1661018083015261595060c0840161584f565b6001600160681b0381166101a0840152509998505050505050505050565b6000813561148e8161580b565b6000813561148e81614f86565b6000813561148e8161581a565b6000813561148e8161583a565b81356159ad816157fd565b815460ff19811691151560ff16918217835560208401356159cd816157fd565b61ffff199190911690911790151560081b61ff0016178155615a0c6159f46040840161596e565b825462ff0000191660109190911b62ff000016178255565b615a45615a1b6060840161597b565b8280546301000000600160b81b03191660189290921b6301000000600160b81b0316919091179055565b60018101615a75615a586080850161597b565b82546001600160a01b0319166001600160a01b0391909116178255565b615aae615a8460a08501615988565b828054600160a01b600160d81b03191660a09290921b600160a01b600160d81b0316919091179055565b5061112f615abe60c08401615995565b6002830180546001600160681b0319166001600160681b0392909216919091179055565b60008060008060008060c08789031215615afb57600080fd5b865195506020870151945060408701519350606087015192506080870151915060a087015190509295509295509295565b600181815b80851115615b67578160001904821115615b4d57615b4d61533e565b80851615615b5a57918102915b93841c9390800290615b31565b509250929050565b600082615b7e5750600161148e565b81615b8b5750600061148e565b8160018114615ba15760028114615bab57615bc7565b600191505061148e565b60ff841115615bbc57615bbc61533e565b50506001821b61148e565b5060208310610133831016604e8410600b8410161715615bea575081810a61148e565b615bf48383615b2c565b8060001904821115615c0857615c0861533e565b029392505050565b6000614a088383615b6f565b602080825260159082015274496e76616c6964206173736574506572536861726560581b604082015260600190565b600060208284031215615c5d57600080fd5b8151614a08816157fd565b601f82111561147857600081815260208120601f850160051c81016020861015615c8f5750805b601f850160051c820191505b818110156142fc57828155600101615c9b565b81516001600160401b03811115615cc757615cc761557f565b615cdb81615cd58454615243565b84615c68565b602080601f831160018114615d105760008415615cf85750858301515b600019600386901b1c1916600185901b1785556142fc565b600085815260208120601f198616915b82811015615d3f57888601518255948401946001909101908401615d20565b5085821015615d5d5787850151600019600388901b60f8161c191681555b5050505050600190811b01905550565b60008251615d7f818460208701614fe4565b919091019291505056feddf252ad1be2c89b69c2b068fc378daa952ba7f163c4a11628f55a4df523b3efa26469706673582212203c4ba8552103813f7739554d6e8274e2b4161eade5b91ff33a73e5313fac818464736f6c63430008110033",
  "deployedBytecode": "0x6080604052600436106103575760003560e01c8063056097ac1461035c57806306fdde031461037e578063073521ea146103a9578063095ea7b3146103c95780630cbf54c8146103f957806318160ddd1461041d5780631a92f6c2146104325780631b60612a1461047357806323b872dd146104935780632728f333146104b35780632775d01c1461055557806330630da414610575578063313ce5671461059557806333aaee5b146105c0578063355274ea146105e257806336efd16f1461060057806339509351146106205780633f23bb73146106405780633f90916a14610660578063432833a614610685578063469048401461069b57806347786d37146106bb5780634b2431d9146106db578063503c70aa146106f25780635ea8cd12146107085780636152137d14610728578063650cce8a1461073d5780636719b2ee1461077157806369b41170146107f55780636b64c7691461080a5780636c10f66c1461081f5780636f31ab341461085357806370897b231461086857806370a0823114610888578063715018a6146108a85780637a9262a2146108bd5780637e108d521461092157806383536ff31461094157806387153eb114610957578063877887821461098457806389a302711461099a5780638da5cb5b146109ce578063947061b5146109e357806395d89b4114610a0457806399530b0614610a195780639be43daa14610a2e5780639f0bf18214610a4e5780639fcc2d7514610a82578063a285c9e814610b41578063a457c2d714610b5c578063a497e67414610b7c578063a6f7f5d614610b9c578063a9059cbb14610bb2578063aced166114610bd2578063ad7a672f14610bf2578063afa6626414610c07578063b381cf4014610c27578063b4d1d79514610c5b578063b6b55f2514610c72578063ce7c2ac214610c92578063d13f1b3e14610cb2578063d164cc1514610cd2578063d5f2638214610cf2578063db006a7514610d08578063db43e86214610d28578063dd62ed3e14610d5c578063e74b981b14610da2578063ea00b1ca14610dc2578063f2fde38b14610dd7578063f3f140e214610df7578063f6326fb314610e59578063f656ba5114610e61578063f756fa2114610e8f578063f957a06714610ea4578063fba7dc6114610ec4578063fe56e23214610ee4575b600080fd5b34801561036857600080fd5b5061037c610377366004614fab565b610f04565b005b34801561038a57600080fd5b50610393611133565b6040516103a09190615034565b60405180910390f35b3480156103b557600080fd5b5061037c6103c4366004615047565b6111c5565b3480156103d557600080fd5b506103e96103e43660046150a7565b61147d565b60405190151581526020016103a0565b34801561040557600080fd5b5061040f60fc5481565b6040519081526020016103a0565b34801561042957600080fd5b5060995461040f565b34801561043e57600080fd5b506104667f000000000000000000000000000000000000000000000000000000000000000081565b6040516103a091906150e0565b34801561047f57600080fd5b5061037c61048e3660046150f4565b611494565b34801561049f57600080fd5b506103e96104ae36600461510d565b611816565b3480156104bf57600080fd5b5060cf5460d05460d15461050a9261ffff8116926001600160681b03620100008304811693600160781b909304811692908216916001600160801b03600160681b9091048116911686565b6040805161ffff90971687526001600160681b03958616602088015293851693860193909352921660608401526001600160801b0391821660808401521660a082015260c0016103a0565b34801561056157600080fd5b5061037c6105703660046150f4565b6118c0565b34801561058157600080fd5b5061037c61059036600461514e565b611a77565b3480156105a157600080fd5b5060cc5462010000900460ff1660405160ff90911681526020016103a0565b3480156105cc57600080fd5b506105d5611b14565b6040516103a091906151af565b3480156105ee57600080fd5b5060ce546001600160681b031661040f565b34801561060c57600080fd5b5061037c61061b3660046151c2565b611b78565b34801561062c57600080fd5b506103e961063b3660046150a7565b611c00565b34801561064c57600080fd5b5061040f61065b36600461514e565b611c3c565b34801561066c57600080fd5b5060d054600160681b90046001600160801b031661040f565b34801561069157600080fd5b5061040f60fd5481565b3480156106a757600080fd5b5060d654610466906001600160a01b031681565b3480156106c757600080fd5b5061037c6106d63660046150f4565b611c97565b3480156106e757600080fd5b5061040f6101005481565b3480156106fe57600080fd5b5061040f60fe5481565b34801561071457600080fd5b5061037c6107233660046150f4565b611d71565b34801561073457600080fd5b506105d5611ddc565b34801561074957600080fd5b506104667f000000000000000000000000000000000000000000000000000000000000000081565b34801561077d57600080fd5b506107c461078c36600461514e565b60c96020526000908152604090205461ffff8116906201000081046001600160681b031690600160781b90046001600160801b031683565b6040805161ffff90941684526001600160681b0390921660208401526001600160801b0316908201526060016103a0565b34801561080157600080fd5b5061040f600081565b34801561081657600080fd5b5061037c611e3f565b34801561082b57600080fd5b506104667f000000000000000000000000000000000000000000000000000000000000000081565b34801561085f57600080fd5b5061037c611e9e565b34801561087457600080fd5b5061037c6108833660046150f4565b611ed4565b34801561089457600080fd5b5061040f6108a336600461514e565b611f99565b3480156108b457600080fd5b5061037c611fb4565b3480156108c957600080fd5b506108ff6108d836600461514e565b60cb6020526000908152604090205461ffff8116906201000090046001600160801b031682565b6040805161ffff90931683526001600160801b039091166020830152016103a0565b34801561092d57600080fd5b5061037c61093c3660046150f4565b611fef565b34801561094d57600080fd5b5061040f60fa5481565b34801561096357600080fd5b5061040f6109723660046150f4565b60ca6020526000908152604090205481565b34801561099057600080fd5b5061040f60d85481565b3480156109a657600080fd5b506104667f000000000000000000000000000000000000000000000000000000000000000081565b3480156109da57600080fd5b50610466612039565b3480156109ef57600080fd5b5061010154610466906001600160a01b031681565b348015610a1057600080fd5b50610393612048565b348015610a2557600080fd5b5061040f612057565b348015610a3a57600080fd5b5061037c610a493660046150f4565b612098565b348015610a5a57600080fd5b506104667f000000000000000000000000000000000000000000000000000000000000000081565b348015610a8e57600080fd5b5060cc5460cd5460ce54610ae89260ff80821693610100830482169362010000840490921692630100000090046001600160a01b039081169290821691600160a01b900466ffffffffffffff16906001600160681b031687565b604080519715158852951515602088015260ff909416948601949094526001600160a01b03918216606086015216608084015266ffffffffffffff90911660a08301526001600160681b031660c082015260e0016103a0565b348015610b4d57600080fd5b5060d45463ffffffff1661040f565b348015610b6857600080fd5b506103e9610b773660046150a7565b612191565b348015610b8857600080fd5b5061037c610b973660046150f4565b61222a565b348015610ba857600080fd5b5061040f60d95481565b348015610bbe57600080fd5b506103e9610bcd3660046150a7565b6122e6565b348015610bde57600080fd5b5060d754610466906001600160a01b031681565b348015610bfe57600080fd5b5061040f6122f3565b348015610c1357600080fd5b5060f854610466906001600160a01b031681565b348015610c3357600080fd5b506104667f000000000000000000000000000000000000000000000000000000000000000081565b348015610c6757600080fd5b5061040f62093a8081565b348015610c7e57600080fd5b5061037c610c8d3660046150f4565b612388565b348015610c9e57600080fd5b5061040f610cad36600461514e565b6123fc565b348015610cbe57600080fd5b5061037c610ccd3660046150f4565b612419565b348015610cde57600080fd5b5061037c610ced36600461514e565b6124dd565b348015610cfe57600080fd5b5061040f60fb5481565b348015610d1457600080fd5b5061037c610d233660046150f4565b612571565b348015610d3457600080fd5b506104667f000000000000000000000000000000000000000000000000000000000000000081565b348015610d6857600080fd5b5061040f610d77366004614fab565b6001600160a01b03918216600090815260986020908152604080832093909416825291909152205490565b348015610dae57600080fd5b5061037c610dbd36600461514e565b6125c0565b348015610dce57600080fd5b5061037c6126b3565b348015610de357600080fd5b5061037c610df236600461514e565b612aeb565b348015610e0357600080fd5b5060d45460d554610e2d9163ffffffff8116916001600160a01b03600160201b9092048216911683565b6040805163ffffffff90941684526001600160a01b0392831660208501529116908201526060016103a0565b61037c612b8b565b348015610e6d57600080fd5b50610e81610e7c36600461514e565b612cdf565b6040516103a09291906151e7565b348015610e9b57600080fd5b5061037c612da3565b348015610eb057600080fd5b5060f954610466906001600160a01b031681565b348015610ed057600080fd5b5060ff54610466906001600160a01b031681565b348015610ef057600080fd5b5061037c610eff3660046150f4565b612df7565b33610f0d612039565b6001600160a01b031614610f3c5760405162461bcd60e51b8152600401610f33906151f5565b60405180910390fd5b60cc546001600160a01b036301000000909104811690831603610f9f5760405162461bcd60e51b815260206004820152601b60248201527a5661756c74206173736574206e6f74207265636f76657261626c6560281b6044820152606401610f33565b306001600160a01b03831603610ff55760405162461bcd60e51b815260206004820152601b60248201527a5661756c74207368617265206e6f74207265636f76657261626c6560281b6044820152606401610f33565b306001600160a01b038216036110495760405162461bcd60e51b8152602060048201526019602482015278149958da5c1a595b9d0818d85b9b9bdd081899481d985d5b1d603a1b6044820152606401610f33565b60d4546001600160a01b03600160201b9091048116908316036110ad5760405162461bcd60e51b815260206004820152601c60248201527b53707265616420546f6b656e206e6f74207265636f76657261626c6560201b6044820152606401610f33565b61112f81836001600160a01b03166370a08231306040518263ffffffff1660e01b81526004016110dd91906150e0565b602060405180830381865afa1580156110fa573d6000803e3d6000fd5b505050506040513d601f19601f8201168201806040525081019061111e919061522a565b6001600160a01b0385169190612edc565b5050565b6060609a805461114290615243565b80601f016020809104026020016040519081016040528092919081815260200182805461116e90615243565b80156111bb5780601f10611190576101008083540402835291602001916111bb565b820191906000526020600020905b81548152906001019060200180831161119e57829003601f168201915b5050505050905090565b600054610100900460ff16806111de575060005460ff16155b6111fa5760405162461bcd60e51b8152600401610f339061527d565b600054610100900460ff1615801561121c576000805461ffff19166101011790555b6112e161122c602085018561514e565b61123c604086016020870161514e565b61124c606087016040880161514e565b6060870135608088013561126360a08a018a6152cb565b8080601f0160208091040260200160405190810160405280939291908181526020018383808284376000920191909152506112a59250505060c08b018b6152cb565b8080601f0160208091040260200160405190810160405280939291908181526020018383808284376000920191909152508c9250612f3f915050565b60006112f4610100850160e0860161514e565b6001600160a01b03160361133e5760405162461bcd60e51b815260206004820152601160248201527010afb9ba3934b5b2a9b2b632b1ba34b7b760791b6044820152606401610f33565b600061135261012085016101008601615318565b63ffffffff16118015611386575061136c600a6064615354565b61137e61012085016101008601615318565b63ffffffff16105b6113c65760405162461bcd60e51b81526020600482015260116024820152700857dc1c995b5a5d5b511a5cd8dbdd5b9d607a1b6044820152606401610f33565b61012c83610120013510156114115760405162461bcd60e51b815260206004820152601160248201527010afb0bab1ba34b7b7223ab930ba34b7b760791b6044820152606401610f33565b611422610100840160e0850161514e565b60f980546001600160a01b0319166001600160a01b039290921691909117905561145461012084016101008501615318565b63ffffffff1660fa5561012083013560fc558015611478576000805461ff00191690555b505050565b600061148a33848461316b565b5060015b92915050565b60d7546001600160a01b031633146114be5760405162461bcd60e51b8152600401610f339061536b565b6002600154036114e05760405162461bcd60e51b8152600401610f339061538c565b60026001556101005460d05460d38054604080516020808402820181019092528281526001600160681b03909416936000939092909183018282801561154f57602002820191906000526020600020905b81546001600160a01b03168152600190910190602001808311611531575b505060cf5460d4549495506201000090046001600160681b0390811694600160201b90046001600160a01b0316935060009250829150861681036116585761159960fe548861328f565b60fe82905560d15493985091965090945092506000906115c39089906001600160801b03166153c3565b90506115ce8161371d565b60d180546001600160801b0319166001600160801b0383161790556000610100556115f885613767565b60cf805462010000600160781b031916620100006001600160681b0388160217905560405133907fa46edfc89996c30fc5a40bc6b832933b7a4b51a5e185e5be90b32c76856b8e3b9061164e90899089906153d6565b60405180910390a2505b61166b6001600160681b038716856153f8565b93505b60008811801561167e5750600084115b156117ae5760008073__$d3108057e698617f7b9bc4e765a7fad314$__63087aebc47f00000000000000000000000000000000000000000000000000000000000000007f00000000000000000000000000000000000000000000000000000000000000008a8a8a6040518663ffffffff1660e01b815260040161170595949392919061540b565b6040805180830381865af4158015611721573d6000803e3d6000fd5b505050506040513d601f19601f82011682018060405250810190611745919061544f565b909250905061175482846153c3565b925061176160018b6153f8565b60d054909a5061177b9082906001600160681b0316615473565b60d080546001600160681b0319166001600160681b03929092169190911790556117a581876153f8565b9550505061166e565b60405163140e25ad60e31b8152600481018290526001600160a01b0384169063a0712d6890602401600060405180830381600087803b1580156117f057600080fd5b505af1158015611804573d6000803e3d6000fd5b50506001805550505050505050505050565b60006118238484846137b1565b6001600160a01b0384166000908152609860209081526040808320338452909152902054828110156118a85760405162461bcd60e51b815260206004820152602860248201527f45524332303a207472616e7366657220616d6f756e74206578636565647320616044820152676c6c6f77616e636560c01b6064820152608401610f33565b6118b5853385840361316b565b506001949350505050565b6002600154036118e25760405162461bcd60e51b8152600401610f339061538c565b600260015533600090815260c96020526040902060cf5461ffff168261191a5760405162461bcd60e51b8152600401610f339061549a565b815461ffff16811461195e5760405162461bcd60e51b815260206004820152600d60248201526c125b9d985b1a59081c9bdd5b99609a1b6044820152606401610f33565b81546201000090046001600160681b0316838110156119af5760405162461bcd60e51b815260206004820152600d60248201526c115e18d9595908185b5bdd5b9d609a1b6044820152606401610f33565b6119b984826153f8565b83546001600160681b0391909116620100000262010000600160781b031990911617835560d0546119fc9085906001600160801b03600160681b909104166153f8565b60d080546001600160801b0392909216600160681b02600160681b600160e81b031990921691909117905560405133907fab2daf3c146ca6416cbccd2a86ed2ba995e171ef6319df14a38aef01403a9c9690611a5b90879086906151e7565b60405180910390a2611a6d338561396f565b5050600180555050565b33611a80612039565b6001600160a01b031614611aa65760405162461bcd60e51b8152600401610f33906151f5565b6001600160a01b038116611af25760405162461bcd60e51b815260206004820152601360248201527210b732bba9ba3934b5b2a9b2b632b1ba34b7b760691b6044820152606401610f33565b60f980546001600160a01b0319166001600160a01b0392909216919091179055565b606060d26000018054806020026020016040519081016040528092919081815260200182805480156111bb57602002820191906000526020600020905b81546001600160a01b03168152600190910190602001808311611b51575050505050905090565b600260015403611b9a5760405162461bcd60e51b8152600401610f339061538c565b600260015581611bbc5760405162461bcd60e51b8152600401610f339061549a565b6001600160a01b038116611bcf57600080fd5b611bd98282613ad0565b60cc54611bf890630100000090046001600160a01b0316333085613d6a565b505060018055565b3360008181526098602090815260408083206001600160a01b0387168452909152812054909161148a918590611c379086906153c3565b61316b565b60cc5460009060ff620100009091041681611c7a611c5960995490565b611c616122f3565b60d054600160681b90046001600160801b031685613da2565b9050611c8f611c88856123fc565b8284613de8565b949350505050565b33611ca0612039565b6001600160a01b031614611cc65760405162461bcd60e51b8152600401610f33906151f5565b60008111611d005760405162461bcd60e51b81526020600482015260076024820152660216e65774361760cc1b6044820152606401610f33565b611d0981613767565b60ce54604080516001600160681b039092168252602082018390527f5f86edbb9d92228a9edc3f0ebc0f001bda1ea345ac7335e0eeef3504b31d1a1c910160405180910390a160ce80546001600160681b0319166001600160681b0392909216919091179055565b60d7546001600160a01b03163314611d9b5760405162461bcd60e51b8152600401610f339061536b565b60008111611dd75760405162461bcd60e51b8152602060048201526009602482015268216d696e507269636560b81b6044820152606401610f33565b60fb55565b606060d26001018054806020026020016040519081016040528092919081815260200182805480156111bb576020028201919060005260206000209081546001600160a01b03168152600190910190602001808311611b51575050505050905090565b60d7546001600160a01b03163314611e695760405162461bcd60e51b8152600401610f339061536b565b600260015403611e8b5760405162461bcd60e51b8152600401610f339061538c565b6002600155611e98613e22565b60018055565b600260015403611ec05760405162461bcd60e51b8152600401610f339061538c565b6002600181905550611e9860006001613f4f565b33611edd612039565b6001600160a01b031614611f035760405162461bcd60e51b8152600401610f33906151f5565b611f11620f42406064615354565b8110611f595760405162461bcd60e51b8152602060048201526017602482015276496e76616c696420706572666f726d616e63652066656560481b6044820152606401610f33565b7f24867dfb6fcb9970a07be21024956524abe7a1837faa903ff0e99aaa40cf893e60d85482604051611f8c9291906151e7565b60405180910390a160d855565b6001600160a01b031660009081526097602052604090205490565b33611fbd612039565b6001600160a01b031614611fe35760405162461bcd60e51b8152600401610f33906151f5565b611fed6000614100565b565b6002600154036120115760405162461bcd60e51b8152600401610f339061538c565b600260015561201f81614152565b806101005461202e91906153c3565b610100555060018055565b6065546001600160a01b031690565b6060609b805461114290615243565b600061209361206560995490565b61206d6122f3565b60d05460cc54600160681b9091046001600160801b03169062010000900460ff16613da2565b905090565b6002600154036120ba5760405162461bcd60e51b8152600401610f339061538c565b6002600155806120f95760405162461bcd60e51b815260206004820152600a602482015269216e756d526f756e647360b01b6044820152606401610f33565b60cf5461ffff1660005b8281101561218857600061211782846153c3565b600081815260ca6020526040902054909150156121645760405162461bcd60e51b815260206004820152600b60248201526a125b9a5d1a585b1a5e995960aa1b6044820152606401610f33565b600090815260ca602052604090206001905580612180816154bb565b915050612103565b50506001805550565b3360009081526098602090815260408083206001600160a01b0386168452909152812054828110156122135760405162461bcd60e51b815260206004820152602560248201527f45524332303a2064656372656173656420616c6c6f77616e63652062656c6f77604482015264207a65726f60d81b6064820152608401610f33565b612220338585840361316b565b5060019392505050565b33612233612039565b6001600160a01b0316146122595760405162461bcd60e51b8152600401610f33906151f5565b61012c8110156122a65760405162461bcd60e51b815260206004820152601860248201527724b73b30b634b21030bab1ba34b7b710323ab930ba34b7b760411b6044820152606401610f33565b7f5acd982e2240ed224a69aa03dab039d3797c108e4b5f288cd7dd6ca181b275f360fc54826040516122d99291906151e7565b60405180910390a160fc55565b600061148a3384846137b1565b60cc546040516370a0823160e01b8152600091630100000090046001600160a01b0316906370a082319061232b9030906004016150e0565b602060405180830381865afa158015612348573d6000803e3d6000fd5b505050506040513d601f19601f8201168201806040525081019061236c919061522a565b60cf5461209391906201000090046001600160681b03166153c3565b6002600154036123aa5760405162461bcd60e51b8152600401610f339061538c565b6002600155806123cc5760405162461bcd60e51b8152600401610f339061549a565b6123d68133613ad0565b60cc546123f590630100000090046001600160a01b0316333084613d6a565b5060018055565b600080600061240a84612cdf565b9092509050611c8f81836153c3565b60d7546001600160a01b031633146124435760405162461bcd60e51b8152600401610f339061536b565b60008111801561245e575061245a600a6064615354565b8111155b61249d5760405162461bcd60e51b815260206004820152601060248201526f125b9d985b1a5908191a5cd8dbdd5b9d60821b6044820152606401610f33565b7f4cd657fde404967d63a338fb06c5c98751a9df57dfae6dc333a432faf8a5f65660fa54826040516124d09291906151e7565b60405180910390a160fa55565b336124e6612039565b6001600160a01b03161461250c5760405162461bcd60e51b8152600401610f33906151f5565b6001600160a01b03811661254f5760405162461bcd60e51b815260206004820152600a60248201526910b732bba5b2b2b832b960b11b6044820152606401610f33565b60d780546001600160a01b0319166001600160a01b0392909216919091179055565b6002600154036125935760405162461bcd60e51b8152600401610f339061538c565b6002600155806125b55760405162461bcd60e51b8152600401610f33906154d4565b6123f5816000613f4f565b336125c9612039565b6001600160a01b0316146125ef5760405162461bcd60e51b8152600401610f33906151f5565b6001600160a01b0381166126385760405162461bcd60e51b815260206004820152601060248201526f085b995dd19959549958da5c1a595b9d60821b6044820152606401610f33565b60d6546001600160a01b03908116908216036126915760405162461bcd60e51b8152602060048201526018602482015277135d5cdd081899481b995dc8199959549958da5c1a595b9d60421b6044820152606401610f33565b60d680546001600160a01b0319166001600160a01b0392909216919091179055565b6002600154036126d55760405162461bcd60e51b8152600401610f339061538c565b600260015560d38054604080516020808402820181019092528281526000939092909183018282801561273157602002820191906000526020600020905b81546001600160a01b03168152600190910190602001808311612713575b505060d4546040805160e0810182526001600160a01b037f0000000000000000000000000000000000000000000000000000000000000000811682527f00000000000000000000000000000000000000000000000000000000000000008116602083015281830188905260006060830181905260f9548216608084015260fa5460a08401527f0000000000000000000000000000000000000000000000000000000000000000821660c0840152925163068bb40360e41b8152979850600160201b9093049092169591945092508291508190819073__$d3108057e698617f7b9bc4e765a7fad314$__906368bb40309061283590889060cc9060cf906004016154f8565b600060405180830381865af4158015612852573d6000803e3d6000fd5b505050506040513d6000823e601f3d908101601f1916820160405261287a919081019061565e565b93509350935093507f8b2c6e7d4d72cff90224277b40c8404bbdedcede50c7449f6e4d231b5b11981b8383836040516128b593929190615787565b60405180910390a1836001815181106128d0576128d06157c5565b60200260200101516001600160a01b031663c52987cf6040518163ffffffff1660e01b8152600401602060405180830381865afa158015612915573d6000803e3d6000fd5b505050506040513d601f19601f82011682018060405250810190612939919061522a565b8460008151811061294c5761294c6157c5565b60200260200101516001600160a01b031663c52987cf6040518163ffffffff1660e01b8152600401602060405180830381865afa158015612991573d6000803e3d6000fd5b505050506040513d601f19601f820116820180604052508101906129b5919061522a565b10612a225760405162461bcd60e51b815260206004820152603760248201527f53686f727420746f6b656e206d7573742068617665206c65737320737472696b6044820152763290383934b1b2903a3432b7103637b733903a37b5b2b760491b6064820152608401610f33565b8351612a359060d2906020870190614ef2565b5060d580546001600160a01b0319166001600160a01b0383161790556000612a5d81426153c3565b905063ffffffff811115612aae5760405162461bcd60e51b81526020600482015260186024820152774f766572666c6f77206e6578744f7074696f6e526561647960401b6044820152606401610f33565b60d4805463ffffffff191663ffffffff831617905560d080546001600160681b0319169055612add8888614304565b505060018055505050505050565b33612af4612039565b6001600160a01b031614612b1a5760405162461bcd60e51b8152600401610f33906151f5565b6001600160a01b038116612b7f5760405162461bcd60e51b815260206004820152602660248201527f4f776e61626c653a206e6577206f776e657220697320746865207a65726f206160448201526564647265737360d01b6064820152608401610f33565b612b8881614100565b50565b600260015403612bad5760405162461bcd60e51b8152600401610f339061538c565b600260015560cc547f00000000000000000000000000000000000000000000000000000000000000006001600160a01b0390811663010000009092041614612c225760405162461bcd60e51b815260206004820152600860248201526721574e415449564560c01b6044820152606401610f33565b60003411612c5b5760405162461bcd60e51b81526020600482015260066024820152652176616c756560d01b6044820152606401610f33565b612c653433613ad0565b7f00000000000000000000000000000000000000000000000000000000000000006001600160a01b031663d0e30db0346040518263ffffffff1660e01b81526004016000604051808303818588803b158015612cc057600080fd5b505af1158015612cd4573d6000803e3d6000fd5b505060018055505050565b6001600160a01b038116600090815260c9602090815260408083208151606081018352905461ffff81168083526201000082046001600160681b031694830194909452600160781b90046001600160801b031691810191909152829160011115612d5757612d4c84611f99565b946000945092505050565b60cf54815161ffff908116600090815260ca602052604081205460cc549193612d8e9386939116919062010000900460ff166144d2565b9050612d9985611f99565b9590945092505050565b600260015403612dc55760405162461bcd60e51b8152600401610f339061538c565b60026001556000612dd4614543565b90508060fe54612de491906153f8565b6001600160801b031660fe555060018055565b33612e00612039565b6001600160a01b031614612e265760405162461bcd60e51b8152600401610f33906151f5565b612e34620f42406064615354565b8110612e7b5760405162461bcd60e51b8152602060048201526016602482015275496e76616c6964206d616e6167656d656e742066656560501b6044820152606401610f33565b600063031ba309612e8f620f424084615354565b612e9991906157db565b90507f4e874b007ab14f7e263baefd44951834c8266f4f224d1092e49e9c254354cc5460d95483604051612ece9291906151e7565b60405180910390a160d95550565b6040516001600160a01b03831660248201526044810182905261147890849063a9059cbb60e01b906064015b60408051601f198184030181529190526020810180516001600160e01b03166001600160e01b031990931692909217909152614704565b600054610100900460ff1680612f58575060005460ff16155b612f745760405162461bcd60e51b8152600401610f339061527d565b600054610100900460ff16158015612f96576000805461ffff19166101011790555b60405163c72733f760e01b815273__$d3108057e698617f7b9bc4e765a7fad314$__9063c72733f790612fdb908c908c908c908b908d908c908c908c9060040161585a565b60006040518083038186803b158015612ff357600080fd5b505af4158015613007573d6000803e3d6000fd5b505050506130136147d6565b61301d8484614849565b6130256148c8565b61302e89612aeb565b60d780546001600160a01b03808b166001600160a01b03199283161790925560d68054928a169290911691909117905560d885905563031ba309613075620f424088615354565b61307f91906157db565b60d9558160cc61308f82826159a2565b505060cc546040516370a0823160e01b8152600091630100000090046001600160a01b0316906370a08231906130c99030906004016150e0565b602060405180830381865afa1580156130e6573d6000803e3d6000fd5b505050506040513d601f19601f8201168201806040525081019061310a919061522a565b905061311581613767565b60cf805461ffff196001600160681b03909316600160781b029290921661ffff600160781b03600160e01b03199092169190911760011790558015613160576000805461ff00191690555b505050505050505050565b6001600160a01b0383166131cd5760405162461bcd60e51b8152602060048201526024808201527f45524332303a20617070726f76652066726f6d20746865207a65726f206164646044820152637265737360e01b6064820152608401610f33565b6001600160a01b03821661322e5760405162461bcd60e51b815260206004820152602260248201527f45524332303a20617070726f766520746f20746865207a65726f206164647265604482015261737360f01b6064820152608401610f33565b6001600160a01b0383811660008181526098602090815260408083209487168084529482529182902085905590518481527f8c5be1e5ebec7d5bd14f71427d1e84f3dd0314c0f7b2291e5b200ac8c7c3b925910160405180910390a3505050565b60d4546060906000908190819063ffffffff164210156132da5760405162461bcd60e51b815260206004820152600660248201526521726561647960d01b6044820152606401610f33565b60d280546040805160208084028201810190925282815292919083018282801561332d57602002820191906000526020600020905b81546001600160a01b0316815260019091019060200180831161330f575b505060d55484519498506001600160a01b031694506000938893508492501515905061335b5761335b6157c5565b60200260200101516001600160a01b0316036133a95760405162461bcd60e51b815260206004820152600d60248201526c0216e657874537072656164203609c1b6044820152606401610f33565b60006001600160a01b0316846001815181106133c7576133c76157c5565b60200260200101516001600160a01b0316036134155760405162461bcd60e51b815260206004820152600d60248201526c216e657874537072656164203160981b6044820152606401610f33565b6001600160a01b03811661345a5760405162461bcd60e51b815260206004820152600c60248201526b10b9b83932b0b22a37b5b2b760a11b6044820152606401610f33565b60d6546040805160e08101825260cc5460ff62010000820416825291516370a0823160e01b81526001600160a01b039384169360009384938493849373__$d3108057e698617f7b9bc4e765a7fad314$__9363c8128b659360cf93909260208401926301000000900416906370a08231906134d99030906004016150e0565b602060405180830381865afa1580156134f6573d6000803e3d6000fd5b505050506040513d601f19601f8201168201806040525081019061351a919061522a565b815260200161352860995490565b81526020018f815260200160d854815260200160d95481526020018e8152506040518363ffffffff1660e01b81526004016135b592919060006101008201905083825282516020830152602083015160408301526040830151606083015260608301516080830152608083015160a083015260a083015160c083015260c083015160e08301529392505050565b60c060405180830381865af41580156135d2573d6000803e3d6000fd5b505050506040513d601f19601f820116820180604052508101906135f69190615ae2565b8e51959d50939b50909750955090935091506136199060d39060208c0190614ef2565b5060d48054600160201b600160c01b031916600160201b6001600160a01b0389160217905560d580546001600160a01b031916905561365a60d26000614f57565b60cf5461ffff16600081815260ca602090815260409182902084905581518681529081018590529081018290526001600160a01b038716907f0a242f7ecaf711036ca770774ceffae28e60ef042ac113ddd187f2631db0c0069060600160405180910390a260d08054600160681b600160e81b03191690556136dd8160016153c3565b60cf805461ffff191661ffff92909216919091179055506137009050308461492f565b801561371057613710848261396f565b5050505092959194509250565b6001600160801b03811115612b885760405162461bcd60e51b815260206004820152601060248201526f09eeccae4ccd8deee40ead2dce86264760831b6044820152606401610f33565b6001600160681b03811115612b885760405162461bcd60e51b815260206004820152601060248201526f13dd995c999b1bddc81d5a5b9d0c4c0d60821b6044820152606401610f33565b6001600160a01b0383166138155760405162461bcd60e51b815260206004820152602560248201527f45524332303a207472616e736665722066726f6d20746865207a65726f206164604482015264647265737360d81b6064820152608401610f33565b6001600160a01b0382166138775760405162461bcd60e51b815260206004820152602360248201527f45524332303a207472616e7366657220746f20746865207a65726f206164647260448201526265737360e81b6064820152608401610f33565b6001600160a01b038316600090815260976020526040902054818110156138ef5760405162461bcd60e51b815260206004820152602660248201527f45524332303a207472616e7366657220616d6f756e7420657863656564732062604482015265616c616e636560d01b6064820152608401610f33565b6001600160a01b038085166000908152609760205260408082208585039055918516815290812080548492906139269084906153c3565b92505081905550826001600160a01b0316846001600160a01b0316600080516020615d8a8339815191528460405161396091815260200190565b60405180910390a35b50505050565b60cc546001600160a01b0363010000009091048116907f0000000000000000000000000000000000000000000000000000000000000000168103613abc57604051632e1a7d4d60e01b8152600481018390527f00000000000000000000000000000000000000000000000000000000000000006001600160a01b031690632e1a7d4d90602401600060405180830381600087803b158015613a0f57600080fd5b505af1158015613a23573d6000803e3d6000fd5b505050506000836001600160a01b03168360405160006040518083038185875af1925050503d8060008114613a74576040519150601f19603f3d011682016040523d82523d6000602084013e613a79565b606091505b50509050806139695760405162461bcd60e51b815260206004820152600f60248201526e151c985b9cd9995c8819985a5b1959608a1b6044820152606401610f33565b6114786001600160a01b0382168484612edc565b60cf5461ffff16600083613ae26122f3565b613aec91906153c3565b60ce549091506001600160681b0316811115613b375760405162461bcd60e51b815260206004820152600a6024820152690457863656564206361760b41b6044820152606401610f33565b60cd54600160a01b900466ffffffffffffff16811015613b905760405162461bcd60e51b8152602060048201526014602482015273496e73756666696369656e742062616c616e636560601b6044820152606401610f33565b826001600160a01b03167f90890809c654f11d6e72a28fa60149770a0d11ec6c92319d6ceb2bb0a4ea1a158584604051613bcb9291906151e7565b60405180910390a26001600160a01b038316600090815260c9602090815260408083208151606081018352905461ffff8116808352620100008083046001600160681b031684870152600160781b9092046001600160801b031683850152855260ca9093529083205460cc54919392613c4d928592889290910460ff166144d2565b8251909150869061ffff168503613c7d5760008784602001516001600160681b0316613c7991906153c3565b9150505b613c8681613767565b6040805160608101825261ffff80881682526001600160681b0380851660208085019182526001600160801b038089168688019081526001600160a01b038e16600090815260c990935296822095518654935197518216600160781b02600160781b600160f81b03199890951662010000026001600160781b031990941695169490941791909117949094161790915560d054613d2c918a91600160681b9004166153c3565b9050613d378161371d565b60d080546001600160801b03909216600160681b02600160681b600160e81b031990921691909117905550505050505050565b6040516001600160a01b03808516602483015283166044820152606481018290526139699085906323b872dd60e01b90608401612f08565b600080613db083600a615c10565b905060008611613dc05780613dde565b613dde86613dd8613dd188886149fc565b8490614a0f565b90614a1b565b9695505050505050565b600060018311613e0a5760405162461bcd60e51b8152600401610f3390615c1c565b611c8f613e1883600a615c10565b613dd88686614a0f565b6040805160c08101825260d4546001600160a01b03600160201b90910481168083527f000000000000000000000000000000000000000000000000000000000000000082166020840190815260cc5463010000008104841685870190815260ff62010000909204919091166060860190815260fb546080870190815260fc5460a088019081529751633baf17fd60e21b8152875187166004820152935186166024850152915190941660448301529251606482015291516084830152925160a482015290919073__$d3108057e698617f7b9bc4e765a7fad314$__9063eebc5ff49060c401602060405180830381865af4158015613f24573d6000803e3d6000fd5b505050506040513d601f19601f82011682018060405250810190613f48919061522a565b60fd555050565b33600090815260c9602090815260408083208151606081018352905461ffff808216808452620100008084046001600160681b031685880152600160781b9093046001600160801b03168486015260cf5490875260ca9095529285205460cc549295949093169392613fc99286928692910460ff166144d2565b905083613fd65784613fd8565b805b945084600003613fe9575050505050565b8085111561402d5760405162461bcd60e51b81526020600482015260116024820152704578636565647320617661696c61626c6560781b6044820152606401610f33565b825161ffff1682111561405a5733600090815260c960205260409020805462010000600160781b03191690555b6140638561371d565b61406d85826153f8565b33600081815260c960205260409081902080546001600160801b0394909416600160781b02600160781b600160f81b0319909416939093179092558451915190917fe5b754fb1abb7f01b499791d0b820ae3b6af3424ac1c59768edb53f4ec31a929916140e69189825261ffff16602082015260400190565b60405180910390a26140f93033876137b1565b5050505050565b606580546001600160a01b038381166001600160a01b0319831681179093556040519116919082907f8be0079c531659141344cd1fd0a4f28419497f9722a3daafe3b4186f6b6457e090600090a35050565b600081116141725760405162461bcd60e51b8152600401610f33906154d4565b33600090815260c960205260409020546201000090046001600160681b03161515806141bc575033600090815260c96020526040902054600160781b90046001600160801b031615155b156141cd576141cd60006001613f4f565b60cf5433600081815260cb6020526040908190208054915161ffff948516949193919092168414917f0c53c82ad07e2d592d88ece3b066777dd60f1118e2a081b380efc4358f0d9e2a9061422490879087906151e7565b60405180910390a281546201000090046001600160801b0316600082156142565761424f86836153c3565b90506142b9565b81156142985760405162461bcd60e51b81526020600482015260116024820152704578697374696e6720776974686472617760781b6044820152606401610f33565b5033600090815260cb60205260409020805461ffff191661ffff8616179055845b6142c28161371d565b33600081815260cb60205260409020805462010000600160901b031916620100006001600160801b038516021790556142fc9030886137b1565b505050505050565b60cf548251620100009091046001600160681b03169015801590614355575060006001600160a01b031683600081518110614341576143416157c5565b60200260200101516001600160a01b031614155b1561437f5760cf8054600160781b600160e01b031916600160781b6001600160681b038416021790555b60cf805462010000600160781b031916905561439d60d36000614f57565b600083511180156143db575060006001600160a01b0316836000815181106143c7576143c76157c5565b60200260200101516001600160a01b031614155b1561147857604051630499725b60e31b81526001600160a01b037f0000000000000000000000000000000000000000000000000000000000000000811660048301528316602482015260009073__$d3108057e698617f7b9bc4e765a7fad314$__906324cb92d890604401602060405180830381865af4158015614463573d6000803e3d6000fd5b505050506040513d601f19601f82011682018060405250810190614487919061522a565b9050336001600160a01b03167f2ff819b1ba3c904525d86a4f45f37f802203fabdb574cdde3081a42668e321de85836040516144c49291906153d6565b60405180910390a250505050565b835160009061ffff16158015906144ed5750845161ffff1684115b1561452f57600061450c86602001516001600160681b03168585614a27565b6040870151909150614527906001600160801b031682614a62565b915050611c8f565b50505050604001516001600160801b031690565b33600090815260cb6020526040812080546001600160801b03620100008204169061ffff16816145a55760405162461bcd60e51b815260206004820152600d60248201526c139bdd081a5b9a5d1a585d1959609a1b6044820152606401610f33565b60cf5461ffff1681106145ed5760405162461bcd60e51b815260206004820152601060248201526f149bdd5b99081b9bdd0818db1bdcd95960821b6044820152606401610f33565b33600090815260cb60205260409020805462010000600160901b031916905560d1546146239083906001600160801b03166153f8565b60d180546001600160801b0319166001600160801b0392909216919091179055600081815260ca602052604081205460cc5461466991859162010000900460ff16613de8565b9050336001600160a01b03167ff279e6a1f5e320cca91135676d9cb6e44ca8a08c0b88342bcdb1144f6511b56882856040516146a69291906151e7565b60405180910390a26146b83084614a6e565b600081116146fa5760405162461bcd60e51b815260206004820152600f60248201526e085dda5d1a191c985dd05b5bdd5b9d608a1b6044820152606401610f33565b611c8f338261396f565b6000614759826040518060400160405280602081526020017f5361666545524332303a206c6f772d6c6576656c2063616c6c206661696c6564815250856001600160a01b0316614baa9092919063ffffffff16565b80519091501561147857808060200190518101906147779190615c4b565b6114785760405162461bcd60e51b815260206004820152602a60248201527f5361666545524332303a204552433230206f7065726174696f6e20646964206e6044820152691bdd081cdd58d8d9595960b21b6064820152608401610f33565b600054610100900460ff16806147ef575060005460ff16155b61480b5760405162461bcd60e51b8152600401610f339061527d565b600054610100900460ff1615801561482d576000805461ffff19166101011790555b614835614bb9565b8015612b88576000805461ff001916905550565b600054610100900460ff1680614862575060005460ff16155b61487e5760405162461bcd60e51b8152600401610f339061527d565b600054610100900460ff161580156148a0576000805461ffff19166101011790555b6148a8614c28565b6148b28383614c92565b8015611478576000805461ff0019169055505050565b600054610100900460ff16806148e1575060005460ff16155b6148fd5760405162461bcd60e51b8152600401610f339061527d565b600054610100900460ff1615801561491f576000805461ffff19166101011790555b614927614c28565b614835614d19565b6001600160a01b0382166149855760405162461bcd60e51b815260206004820152601f60248201527f45524332303a206d696e7420746f20746865207a65726f2061646472657373006044820152606401610f33565b806099600082825461499791906153c3565b90915550506001600160a01b038216600090815260976020526040812080548392906149c49084906153c3565b90915550506040518181526001600160a01b03831690600090600080516020615d8a8339815191529060200160405180910390a35050565b6000614a0882846153f8565b9392505050565b6000614a088284615354565b6000614a0882846157db565b600060018311614a495760405162461bcd60e51b8152600401610f3390615c1c565b611c8f83613dd8614a5b85600a615c10565b8790614a0f565b6000614a0882846153c3565b6001600160a01b038216614ace5760405162461bcd60e51b815260206004820152602160248201527f45524332303a206275726e2066726f6d20746865207a65726f206164647265736044820152607360f81b6064820152608401610f33565b6001600160a01b03821660009081526097602052604090205481811015614b425760405162461bcd60e51b815260206004820152602260248201527f45524332303a206275726e20616d6f756e7420657863656564732062616c616e604482015261636560f01b6064820152608401610f33565b6001600160a01b0383166000908152609760205260408120838303905560998054849290614b719084906153f8565b90915550506040518281526000906001600160a01b03851690600080516020615d8a8339815191529060200160405180910390a3505050565b6060611c8f8484600085614d79565b600054610100900460ff1680614bd2575060005460ff16155b614bee5760405162461bcd60e51b8152600401610f339061527d565b600054610100900460ff16158015614c10576000805461ffff19166101011790555b600180558015612b88576000805461ff001916905550565b600054610100900460ff1680614c41575060005460ff16155b614c5d5760405162461bcd60e51b8152600401610f339061527d565b600054610100900460ff16158015614835576000805461ffff19166101011790558015612b88576000805461ff001916905550565b600054610100900460ff1680614cab575060005460ff16155b614cc75760405162461bcd60e51b8152600401610f339061527d565b600054610100900460ff16158015614ce9576000805461ffff19166101011790555b609a614cf58482615cae565b50609b614d028382615cae565b508015611478576000805461ff0019169055505050565b600054610100900460ff1680614d32575060005460ff16155b614d4e5760405162461bcd60e51b8152600401610f339061527d565b600054610100900460ff16158015614d70576000805461ffff19166101011790555b61483533614100565b606082471015614dda5760405162461bcd60e51b815260206004820152602660248201527f416464726573733a20696e73756666696369656e742062616c616e636520666f6044820152651c8818d85b1b60d21b6064820152608401610f33565b600080866001600160a01b03168587604051614df69190615d6d565b60006040518083038185875af1925050503d8060008114614e33576040519150601f19603f3d011682016040523d82523d6000602084013e614e38565b606091505b5091509150614e4987838387614e54565b979650505050505050565b60608315614ec3578251600003614ebc576001600160a01b0385163b614ebc5760405162461bcd60e51b815260206004820152601d60248201527f416464726573733a2063616c6c20746f206e6f6e2d636f6e74726163740000006044820152606401610f33565b5081611c8f565b611c8f8383815115614ed85781518083602001fd5b8060405162461bcd60e51b8152600401610f339190615034565b828054828255906000526020600020908101928215614f47579160200282015b82811115614f4757825182546001600160a01b0319166001600160a01b03909116178255602090920191600190910190614f12565b50614f53929150614f71565b5090565b5080546000825590600052602060002090810190612b8891905b5b80821115614f535760008155600101614f72565b6001600160a01b0381168114612b8857600080fd5b8035614fa681614f86565b919050565b60008060408385031215614fbe57600080fd5b8235614fc981614f86565b91506020830135614fd981614f86565b809150509250929050565b60005b83811015614fff578181015183820152602001614fe7565b50506000910152565b60008151808452615020816020860160208601614fe4565b601f01601f19169290920160200192915050565b602081526000614a086020830184615008565b60008082840361010081121561505c57600080fd5b83356001600160401b0381111561507257600080fd5b8401610140818703121561508557600080fd5b925060e0601f198201121561509957600080fd5b506020830190509250929050565b600080604083850312156150ba57600080fd5b82356150c581614f86565b946020939093013593505050565b6001600160a01b03169052565b6001600160a01b0391909116815260200190565b60006020828403121561510657600080fd5b5035919050565b60008060006060848603121561512257600080fd5b833561512d81614f86565b9250602084013561513d81614f86565b929592945050506040919091013590565b60006020828403121561516057600080fd5b8135614a0881614f86565b600081518084526020808501945080840160005b838110156151a45781516001600160a01b03168752958201959082019060010161517f565b509495945050505050565b602081526000614a08602083018461516b565b600080604083850312156151d557600080fd5b823591506020830135614fd981614f86565b918252602082015260400190565b6020808252818101527f4f776e61626c653a2063616c6c6572206973206e6f7420746865206f776e6572604082015260600190565b60006020828403121561523c57600080fd5b5051919050565b600181811c9082168061525757607f821691505b60208210810361527757634e487b7160e01b600052602260045260246000fd5b50919050565b6020808252602e908201527f496e697469616c697a61626c653a20636f6e747261637420697320616c72656160408201526d191e481a5b9a5d1a585b1a5e995960921b606082015260800190565b6000808335601e198436030181126152e257600080fd5b8301803591506001600160401b038211156152fc57600080fd5b60200191503681900382131561531157600080fd5b9250929050565b60006020828403121561532a57600080fd5b813563ffffffff81168114614a0857600080fd5b634e487b7160e01b600052601160045260246000fd5b808202811582820484141761148e5761148e61533e565b60208082526007908201526610b5b2b2b832b960c91b604082015260600190565b6020808252601f908201527f5265656e7472616e637947756172643a207265656e7472616e742063616c6c00604082015260600190565b8082018082111561148e5761148e61533e565b6040815260006153e9604083018561516b565b90508260208301529392505050565b8181038181111561148e5761148e61533e565b600060018060a01b038088168352808716602084015260a0604084015261543560a084018761516b565b606084019590955292909216608090910152509392505050565b6000806040838503121561546257600080fd5b505080516020909101519092909150565b6001600160681b038181168382160190808211156154935761549361533e565b5092915050565b60208082526007908201526608585b5bdd5b9d60ca1b604082015260600190565b6000600182016154cd576154cd61533e565b5060010190565b6020808252600a9082015269216e756d53686172657360b01b604082015260600190565b60608152600060018060a01b03808651166060840152806020870151166080840152604086015160e060a085015261553461014085018261516b565b9050606087015160c08501528160808801511660e085015260a087015161010085015260c0870151915061556c6101208501836150d3565b6020840195909552505060400152919050565b634e487b7160e01b600052604160045260246000fd5b604051601f8201601f191681016001600160401b03811182821017156155bd576155bd61557f565b604052919050565b60006001600160401b038211156155de576155de61557f565b5060051b60200190565b8051614fa681614f86565b600082601f83011261560457600080fd5b81516020615619615614836155c5565b615595565b82815260059290921b8401810191818101908684111561563857600080fd5b8286015b84811015615653578051835291830191830161563c565b509695505050505050565b6000806000806080858703121561567457600080fd5b84516001600160401b038082111561568b57600080fd5b818701915087601f83011261569f57600080fd5b815160206156af615614836155c5565b82815260059290921b8401810191818101908b8411156156ce57600080fd5b948201945b838610156156f55785516156e681614f86565b825294820194908201906156d3565b918a015191985090935050508082111561570e57600080fd5b61571a888389016155f3565b9450604087015191508082111561573057600080fd5b5061573d878288016155f3565b92505061574c606086016155e8565b905092959194509250565b600081518084526020808501945080840160005b838110156151a45781518752958201959082019060010161576b565b60608152600061579a6060830186615757565b82810360208401526157ac8186615757565b91505060018060a01b0383166040830152949350505050565b634e487b7160e01b600052603260045260246000fd5b6000826157f857634e487b7160e01b600052601260045260246000fd5b500490565b8015158114612b8857600080fd5b60ff81168114612b8857600080fd5b66ffffffffffffff81168114612b8857600080fd5b8035614fa68161581a565b6001600160681b0381168114612b8857600080fd5b8035614fa68161583a565b6001600160a01b03898116825288811660208301528716604082015260608101869052608081018590526101c060a0820181905260009061589d83820187615008565b905082810360c08401526158b18186615008565b91505082356158bf816157fd565b151560e083015260208301356158d4816157fd565b151561010083015260408301356158ea8161580b565b60ff166101208301526158ff60608401614f9b565b61590d6101408401826150d3565b5061591a60808401614f9b565b6159286101608401826150d3565b5061593560a0840161582f565b66ffffffffffffff1661018083015261595060c0840161584f565b6001600160681b0381166101a0840152509998505050505050505050565b6000813561148e8161580b565b6000813561148e81614f86565b6000813561148e8161581a565b6000813561148e8161583a565b81356159ad816157fd565b815460ff19811691151560ff16918217835560208401356159cd816157fd565b61ffff199190911690911790151560081b61ff0016178155615a0c6159f46040840161596e565b825462ff0000191660109190911b62ff000016178255565b615a45615a1b6060840161597b565b8280546301000000600160b81b03191660189290921b6301000000600160b81b0316919091179055565b60018101615a75615a586080850161597b565b82546001600160a01b0319166001600160a01b0391909116178255565b615aae615a8460a08501615988565b828054600160a01b600160d81b03191660a09290921b600160a01b600160d81b0316919091179055565b5061112f615abe60c08401615995565b6002830180546001600160681b0319166001600160681b0392909216919091179055565b60008060008060008060c08789031215615afb57600080fd5b865195506020870151945060408701519350606087015192506080870151915060a087015190509295509295509295565b600181815b80851115615b67578160001904821115615b4d57615b4d61533e565b80851615615b5a57918102915b93841c9390800290615b31565b509250929050565b600082615b7e5750600161148e565b81615b8b5750600061148e565b8160018114615ba15760028114615bab57615bc7565b600191505061148e565b60ff841115615bbc57615bbc61533e565b50506001821b61148e565b5060208310610133831016604e8410600b8410161715615bea575081810a61148e565b615bf48383615b2c565b8060001904821115615c0857615c0861533e565b029392505050565b6000614a088383615b6f565b602080825260159082015274496e76616c6964206173736574506572536861726560581b604082015260600190565b600060208284031215615c5d57600080fd5b8151614a08816157fd565b601f82111561147857600081815260208120601f850160051c81016020861015615c8f5750805b601f850160051c820191505b818110156142fc57828155600101615c9b565b81516001600160401b03811115615cc757615cc761557f565b615cdb81615cd58454615243565b84615c68565b602080601f831160018114615d105760008415615cf85750858301515b600019600386901b1c1916600185901b1785556142fc565b600085815260208120601f198616915b82811015615d3f57888601518255948401946001909101908401615d20565b5085821015615d5d5787850151600019600388901b60f8161c191681555b5050505050600190811b01905550565b60008251615d7f818460208701614fe4565b919091019291505056feddf252ad1be2c89b69c2b068fc378daa952ba7f163c4a11628f55a4df523b3efa26469706673582212203c4ba8552103813f7739554d6e8274e2b4161eade5b91ff33a73e5313fac818464736f6c63430008110033",
  "libraries": {
    "VaultLifecycleSpread": "0x87ccF30e94F87b3f5cD5e7ea6F683F216486206c"
  },
  "devdoc": {
    "kind": "dev",
    "methods": {
      "accountVaultBalance(address)": {
        "params": {
          "account": "is the address to lookup balance for"
        },
        "returns": {
          "_0": "the amount of `asset` custodied by the vault for the user"
        }
      },
      "allowance(address,address)": {
        "details": "See {IERC20-allowance}."
      },
      "approve(address,uint256)": {
        "details": "See {IERC20-approve}. Requirements: - `spender` cannot be the zero address."
      },
      "balanceOf(address)": {
        "details": "See {IERC20-balanceOf}."
      },
      "constructor": {
        "params": {
          "_gammaController": "is the contract address for opyn actions",
          "_gnosisEasyAuction": "is the contract address that facilitates gnosis auctions",
          "_marginPool": "is the contract address for providing collateral to opyn",
          "_oTokenFactory": "is the contract address for minting new opyn option types (strikes, asset, expiry)",
          "_spreadTokenLogic": "Spread token logic contract",
          "_usdc": "is the USDC contract",
          "_wnative": "is the Wrapped Native contract"
        }
      },
      "decreaseAllowance(address,uint256)": {
        "details": "Atomically decreases the allowance granted to `spender` by the caller. This is an alternative to {approve} that can be used as a mitigation for problems described in {IERC20-approve}. Emits an {Approval} event indicating the updated allowance. Requirements: - `spender` cannot be the zero address. - `spender` must have allowance for the caller of at least `subtractedValue`."
      },
      "deposit(uint256)": {
        "params": {
          "amount": "is the amount of `asset` to deposit"
        }
      },
      "depositFor(uint256,address)": {
        "params": {
          "amount": "is the amount of `asset` to deposit",
          "creditor": "is the address that can claim/withdraw deposited amount"
        }
      },
      "increaseAllowance(address,uint256)": {
        "details": "Atomically increases the allowance granted to `spender` by the caller. This is an alternative to {approve} that can be used as a mitigation for problems described in {IERC20-approve}. Emits an {Approval} event indicating the updated allowance. Requirements: - `spender` cannot be the zero address."
      },
      "initRounds(uint256)": {
        "params": {
          "numRounds": "is the number of rounds to initialize in the map"
        }
      },
      "initialize((address,address,address,uint256,uint256,string,string,address,uint32,uint256),(bool,bool,uint8,address,address,uint56,uint104))": {
        "params": {
          "_initParams": "is the struct with vault initialization parameters",
          "_vaultParams": "is the struct with vault general data"
        }
      },
      "initiateWithdraw(uint256)": {
        "params": {
          "numShares": "is the number of shares to withdraw"
        }
      },
      "name()": {
        "details": "Returns the name of the token."
      },
      "owner()": {
        "details": "Returns the address of the current owner."
      },
      "recoverTokens(address,address)": {
        "params": {
          "recipient": "is the recipient of the recovered tokens",
          "token": "is the ERC20 token to recover from the vault"
        }
      },
      "redeem(uint256)": {
        "params": {
          "numShares": "is the number of shares to redeem"
        }
      },
      "renounceOwnership()": {
        "details": "Leaves the contract without owner. It will not be possible to call `onlyOwner` functions anymore. Can only be called by the current owner. NOTE: Renouncing ownership will leave the contract without an owner, thereby removing any functionality that is only available to the owner."
      },
      "setAuctionDuration(uint256)": {
        "params": {
          "newAuctionDuration": "is the auction duration"
        }
      },
      "setCap(uint256)": {
        "params": {
          "newCap": "is the new cap for deposits"
        }
      },
      "setFeeRecipient(address)": {
        "params": {
          "newFeeRecipient": "is the address of the new fee recipient"
        }
      },
      "setManagementFee(uint256)": {
        "params": {
          "newManagementFee": "is the management fee (6 decimals). ex: 2 * 10 ** 6 = 2%"
        }
      },
      "setMinPrice(uint256)": {
        "params": {
          "minPrice": "is the new oToken Premium in the units of 10**18"
        }
      },
      "setNewKeeper(address)": {
        "params": {
          "newKeeper": "is the address of the new keeper"
        }
      },
      "setPerformanceFee(uint256)": {
        "params": {
          "newPerformanceFee": "is the performance fee (6 decimals). ex: 20 * 10 ** 6 = 20%"
        }
      },
      "setPremiumDiscount(uint256)": {
        "params": {
          "newPremiumDiscount": "is the premium discount"
        }
      },
      "setStrikeSelection(address)": {
        "params": {
          "newStrikeSelection": "is the address of the new strike selection contract"
        }
      },
      "shareBalances(address)": {
        "params": {
          "account": "is the account to lookup share balance for"
        },
        "returns": {
          "heldByAccount": "is the shares held by account",
          "heldByVault": "is the shares held on the vault (unredeemedShares)"
        }
      },
      "shares(address)": {
        "params": {
          "account": "is the account to lookup share balance for"
        },
        "returns": {
          "_0": "the share balance"
        }
      },
      "symbol()": {
        "details": "Returns the symbol of the token, usually a shorter version of the name."
      },
      "totalBalance()": {
        "returns": {
          "_0": "total balance of the vault, including the amounts locked in third party protocols"
        }
      },
      "totalSupply()": {
        "details": "See {IERC20-totalSupply}."
      },
      "transfer(address,uint256)": {
        "details": "See {IERC20-transfer}. Requirements: - `recipient` cannot be the zero address. - the caller must have a balance of at least `amount`."
      },
      "transferFrom(address,address,uint256)": {
        "details": "See {IERC20-transferFrom}. Emits an {Approval} event indicating the updated allowance. This is not required by the EIP. See the note at the beginning of {ERC20}. Requirements: - `sender` and `recipient` cannot be the zero address. - `sender` must have a balance of at least `amount`. - the caller must have allowance for ``sender``'s tokens of at least `amount`."
      },
      "transferOwnership(address)": {
        "details": "Transfers ownership of the contract to a new account (`newOwner`). Can only be called by the current owner."
      },
      "withdrawInstantly(uint256)": {
        "params": {
          "amount": "is the amount to withdraw"
        }
      }
    },
    "version": 1
  },
  "userdoc": {
    "kind": "user",
    "methods": {
      "DELAY()": {
        "notice": "Deprecated: 15 minute timelock between commitAndClose and rollToNexOption."
      },
      "OTOKEN_FACTORY()": {
        "notice": "oTokenFactory is the factory contract used to spawn otokens. Used to lookup otokens."
      },
      "PERIOD()": {
        "notice": "7 day period between each options sale."
      },
      "USDC()": {
        "notice": "USDC"
      },
      "WNATIVE()": {
        "notice": "Wrapped NATIVE currency "
      },
      "accountVaultBalance(address)": {
        "notice": "Returns the asset balance held on the vault for the account"
      },
      "commitAndClose()": {
        "notice": "Sets the next call spread the vault will be setting up existing the vault.         This allows all the users to withdraw if the next option is malicious."
      },
      "completeWithdraw()": {
        "notice": "Completes a scheduled withdrawal from a past round. Uses finalized pps for the round"
      },
      "constructor": {
        "notice": "Initializes the contract with immutable variables"
      },
      "decimals()": {
        "notice": "Returns the token decimals"
      },
      "deposit(uint256)": {
        "notice": "Deposits the `asset` from msg.sender."
      },
      "depositETH()": {
        "notice": "Deposits ETH into the contract and mint vault shares. Reverts if the asset is not WNATIVE."
      },
      "depositFor(uint256,address)": {
        "notice": "Deposits the `asset` from msg.sender added to `creditor`'s deposit.Used for vault -> vault deposits on the user's behalf"
      },
      "depositReceipts(address)": {
        "notice": "Stores the user's pending deposit for the round"
      },
      "feeRecipient()": {
        "notice": "Fee recipient for the performance and management fees"
      },
      "initRounds(uint256)": {
        "notice": "Helper function that helps to save gas for writing values into the roundPricePerShare map.         Writing `1` into the map makes subsequent writes warm, reducing the gas from 20k to 5k.         Having 1 initialized beforehand will not be an issue as long as we round down share calculations to 0."
      },
      "initialize((address,address,address,uint256,uint256,string,string,address,uint32,uint256),(bool,bool,uint8,address,address,uint56,uint104))": {
        "notice": "Initializes the OptionVault contract with storage variables."
      },
      "initiateWithdraw(uint256)": {
        "notice": "Initiates a withdrawal that can be processed once the round completes"
      },
      "keeper()": {
        "notice": "role in charge of weekly vault operations such as rollToNextOption and burnRemainingOTokens"
      },
      "managementFee()": {
        "notice": "Management fee charged on entire AUM in rollToNextOption. Only charged when there is no loss."
      },
      "maxRedeem()": {
        "notice": "Redeems the entire unredeemedShares balance that is owed to the account"
      },
      "performanceFee()": {
        "notice": "Performance fee charged on premiums earned in rollToNextOption. Only charged when there is no loss."
      },
      "pricePerShare()": {
        "notice": "The price of a unit of share denominated in the `asset`"
      },
      "recoverTokens(address,address)": {
        "notice": "Recovery function that returns an ERC20 token to the recipient"
      },
      "redeem(uint256)": {
        "notice": "Redeems shares that are owed to the account"
      },
      "rollToNextOption(uint256)": {
        "notice": "Rolls the vault's funds into a new short position."
      },
      "roundPricePerShare(uint256)": {
        "notice": "On every round's close, the pricePerShare value of an rTHETA token is stored This is used to determine the number of shares to be returned to a user with their DepositReceipt.depositAmount"
      },
      "setAuctionDuration(uint256)": {
        "notice": "Sets the new auction duration"
      },
      "setCap(uint256)": {
        "notice": "Sets a new cap for deposits"
      },
      "setFeeRecipient(address)": {
        "notice": "Sets the new fee recipient"
      },
      "setManagementFee(uint256)": {
        "notice": "Sets the management fee for the vault"
      },
      "setMinPrice(uint256)": {
        "notice": "Sets oToken Premium"
      },
      "setNewKeeper(address)": {
        "notice": "Sets the new keeper"
      },
      "setPerformanceFee(uint256)": {
        "notice": "Sets the performance fee for the vault"
      },
      "setPremiumDiscount(uint256)": {
        "notice": "Sets the new discount on premiums for options we are selling"
      },
      "setStrikeSelection(address)": {
        "notice": "Sets the new strike selection contract"
      },
      "shareBalances(address)": {
        "notice": "Getter for returning the account's share balance split between account and vault holdings"
      },
      "shares(address)": {
        "notice": "Getter for returning the account's share balance including unredeemed shares"
      },
      "spreadState()": {
        "notice": "Vault's state of the strategy sold"
      },
      "startAuction()": {
        "notice": "Initiate the gnosis auction."
      },
      "totalBalance()": {
        "notice": "Returns the vault's total balance, including the amounts locked into a short position"
      },
      "vaultParams()": {
        "notice": "Vault's parameters like cap, decimals"
      },
      "vaultState()": {
        "notice": "Vault's lifecycle state like round and locked amounts"
      },
      "withdrawInstantly(uint256)": {
        "notice": "Withdraws the assets on the vault using the outstanding `DepositReceipt.amount`"
      },
      "withdrawals(address)": {
        "notice": "Stores pending user withdrawals"
      }
    },
    "notice": "UPGRADEABILITY: Since we use the upgradeable proxy pattern, we must observe the inheritance chain closely. Any changes/appends in storage variable needs to happen in HimalayanCallSpreadStorage. CallSpread should not inherit from any other contract aside from HimalayanVault, HimalayanCallSpreadStorage",
    "version": 1
  },
  "storageLayout": {
    "storage": [
      {
        "astId": 176,
        "contract": "contracts/vaults/SpreadVaults/CallSpread.sol:CallSpread",
        "label": "_initialized",
        "offset": 0,
        "slot": "0",
        "type": "t_bool"
      },
      {
        "astId": 179,
        "contract": "contracts/vaults/SpreadVaults/CallSpread.sol:CallSpread",
        "label": "_initializing",
        "offset": 1,
        "slot": "0",
        "type": "t_bool"
      },
      {
        "astId": 230,
        "contract": "contracts/vaults/SpreadVaults/CallSpread.sol:CallSpread",
        "label": "_status",
        "offset": 0,
        "slot": "1",
        "type": "t_uint256"
      },
      {
        "astId": 273,
        "contract": "contracts/vaults/SpreadVaults/CallSpread.sol:CallSpread",
        "label": "__gap",
        "offset": 0,
        "slot": "2",
        "type": "t_array(t_uint256)49_storage"
      },
      {
        "astId": 993,
        "contract": "contracts/vaults/SpreadVaults/CallSpread.sol:CallSpread",
        "label": "__gap",
        "offset": 0,
        "slot": "51",
        "type": "t_array(t_uint256)50_storage"
      },
      {
        "astId": 56,
        "contract": "contracts/vaults/SpreadVaults/CallSpread.sol:CallSpread",
        "label": "_owner",
        "offset": 0,
        "slot": "101",
        "type": "t_address"
      },
      {
        "astId": 169,
        "contract": "contracts/vaults/SpreadVaults/CallSpread.sol:CallSpread",
        "label": "__gap",
        "offset": 0,
        "slot": "102",
        "type": "t_array(t_uint256)49_storage"
      },
      {
        "astId": 293,
        "contract": "contracts/vaults/SpreadVaults/CallSpread.sol:CallSpread",
        "label": "_balances",
        "offset": 0,
        "slot": "151",
        "type": "t_mapping(t_address,t_uint256)"
      },
      {
        "astId": 299,
        "contract": "contracts/vaults/SpreadVaults/CallSpread.sol:CallSpread",
        "label": "_allowances",
        "offset": 0,
        "slot": "152",
        "type": "t_mapping(t_address,t_mapping(t_address,t_uint256))"
      },
      {
        "astId": 301,
        "contract": "contracts/vaults/SpreadVaults/CallSpread.sol:CallSpread",
        "label": "_totalSupply",
        "offset": 0,
        "slot": "153",
        "type": "t_uint256"
      },
      {
        "astId": 303,
        "contract": "contracts/vaults/SpreadVaults/CallSpread.sol:CallSpread",
        "label": "_name",
        "offset": 0,
        "slot": "154",
        "type": "t_string_storage"
      },
      {
        "astId": 305,
        "contract": "contracts/vaults/SpreadVaults/CallSpread.sol:CallSpread",
        "label": "_symbol",
        "offset": 0,
        "slot": "155",
        "type": "t_string_storage"
      },
      {
        "astId": 846,
        "contract": "contracts/vaults/SpreadVaults/CallSpread.sol:CallSpread",
        "label": "__gap",
        "offset": 0,
        "slot": "156",
        "type": "t_array(t_uint256)45_storage"
      },
      {
        "astId": 24683,
        "contract": "contracts/vaults/SpreadVaults/CallSpread.sol:CallSpread",
        "label": "depositReceipts",
        "offset": 0,
        "slot": "201",
        "type": "t_mapping(t_address,t_struct(DepositReceipt)7932_storage)"
      },
      {
        "astId": 24688,
        "contract": "contracts/vaults/SpreadVaults/CallSpread.sol:CallSpread",
        "label": "roundPricePerShare",
        "offset": 0,
        "slot": "202",
        "type": "t_mapping(t_uint256,t_uint256)"
      },
      {
        "astId": 24694,
        "contract": "contracts/vaults/SpreadVaults/CallSpread.sol:CallSpread",
        "label": "withdrawals",
        "offset": 0,
        "slot": "203",
        "type": "t_mapping(t_address,t_struct(Withdrawal)7937_storage)"
      },
      {
        "astId": 24698,
        "contract": "contracts/vaults/SpreadVaults/CallSpread.sol:CallSpread",
        "label": "vaultParams",
        "offset": 0,
        "slot": "204",
        "type": "t_struct(VaultParams)7892_storage"
      },
      {
        "astId": 24702,
        "contract": "contracts/vaults/SpreadVaults/CallSpread.sol:CallSpread",
        "label": "vaultState",
        "offset": 0,
        "slot": "207",
        "type": "t_struct(VaultState)7925_storage"
      },
      {
        "astId": 24706,
        "contract": "contracts/vaults/SpreadVaults/CallSpread.sol:CallSpread",
        "label": "spreadState",
        "offset": 0,
        "slot": "210",
        "type": "t_struct(SpreadState)7912_storage"
      },
      {
        "astId": 24709,
        "contract": "contracts/vaults/SpreadVaults/CallSpread.sol:CallSpread",
        "label": "feeRecipient",
        "offset": 0,
        "slot": "214",
        "type": "t_address"
      },
      {
        "astId": 24712,
        "contract": "contracts/vaults/SpreadVaults/CallSpread.sol:CallSpread",
        "label": "keeper",
        "offset": 0,
        "slot": "215",
        "type": "t_address"
      },
      {
        "astId": 24715,
        "contract": "contracts/vaults/SpreadVaults/CallSpread.sol:CallSpread",
        "label": "performanceFee",
        "offset": 0,
        "slot": "216",
        "type": "t_uint256"
      },
      {
        "astId": 24718,
        "contract": "contracts/vaults/SpreadVaults/CallSpread.sol:CallSpread",
        "label": "managementFee",
        "offset": 0,
        "slot": "217",
        "type": "t_uint256"
      },
      {
        "astId": 24722,
        "contract": "contracts/vaults/SpreadVaults/CallSpread.sol:CallSpread",
        "label": "____gap",
        "offset": 0,
        "slot": "218",
        "type": "t_array(t_uint256)30_storage"
      },
      {
        "astId": 13928,
        "contract": "contracts/vaults/SpreadVaults/CallSpread.sol:CallSpread",
        "label": "optionsPremiumPricer",
        "offset": 0,
        "slot": "248",
        "type": "t_address"
      },
      {
        "astId": 13930,
        "contract": "contracts/vaults/SpreadVaults/CallSpread.sol:CallSpread",
        "label": "strikeSelection",
        "offset": 0,
        "slot": "249",
        "type": "t_address"
      },
      {
        "astId": 13932,
        "contract": "contracts/vaults/SpreadVaults/CallSpread.sol:CallSpread",
        "label": "premiumDiscount",
        "offset": 0,
        "slot": "250",
        "type": "t_uint256"
      },
      {
        "astId": 13934,
        "contract": "contracts/vaults/SpreadVaults/CallSpread.sol:CallSpread",
        "label": "currentOtokenPremium",
        "offset": 0,
        "slot": "251",
        "type": "t_uint256"
      },
      {
        "astId": 13936,
        "contract": "contracts/vaults/SpreadVaults/CallSpread.sol:CallSpread",
        "label": "auctionDuration",
        "offset": 0,
        "slot": "252",
        "type": "t_uint256"
      },
      {
        "astId": 13938,
        "contract": "contracts/vaults/SpreadVaults/CallSpread.sol:CallSpread",
        "label": "optionAuctionID",
        "offset": 0,
        "slot": "253",
        "type": "t_uint256"
      },
      {
        "astId": 13940,
        "contract": "contracts/vaults/SpreadVaults/CallSpread.sol:CallSpread",
        "label": "lastQueuedWithdrawAmount",
        "offset": 0,
        "slot": "254",
        "type": "t_uint256"
      },
      {
        "astId": 13942,
        "contract": "contracts/vaults/SpreadVaults/CallSpread.sol:CallSpread",
        "label": "optionsPurchaseQueue",
        "offset": 0,
        "slot": "255",
        "type": "t_address"
      },
      {
        "astId": 13944,
        "contract": "contracts/vaults/SpreadVaults/CallSpread.sol:CallSpread",
        "label": "currentQueuedWithdrawShares",
        "offset": 0,
        "slot": "256",
        "type": "t_uint256"
      },
      {
        "astId": 13946,
        "contract": "contracts/vaults/SpreadVaults/CallSpread.sol:CallSpread",
        "label": "vaultPauser",
        "offset": 0,
        "slot": "257",
        "type": "t_address"
      }
    ],
    "types": {
      "t_address": {
        "encoding": "inplace",
        "label": "address",
        "numberOfBytes": "20"
      },
      "t_array(t_address)dyn_storage": {
        "base": "t_address",
        "encoding": "dynamic_array",
        "label": "address[]",
        "numberOfBytes": "32"
      },
      "t_array(t_uint256)30_storage": {
        "base": "t_uint256",
        "encoding": "inplace",
        "label": "uint256[30]",
        "numberOfBytes": "960"
      },
      "t_array(t_uint256)45_storage": {
        "base": "t_uint256",
        "encoding": "inplace",
        "label": "uint256[45]",
        "numberOfBytes": "1440"
      },
      "t_array(t_uint256)49_storage": {
        "base": "t_uint256",
        "encoding": "inplace",
        "label": "uint256[49]",
        "numberOfBytes": "1568"
      },
      "t_array(t_uint256)50_storage": {
        "base": "t_uint256",
        "encoding": "inplace",
        "label": "uint256[50]",
        "numberOfBytes": "1600"
      },
      "t_bool": {
        "encoding": "inplace",
        "label": "bool",
        "numberOfBytes": "1"
      },
      "t_mapping(t_address,t_mapping(t_address,t_uint256))": {
        "encoding": "mapping",
        "key": "t_address",
        "label": "mapping(address => mapping(address => uint256))",
        "numberOfBytes": "32",
        "value": "t_mapping(t_address,t_uint256)"
      },
      "t_mapping(t_address,t_struct(DepositReceipt)7932_storage)": {
        "encoding": "mapping",
        "key": "t_address",
        "label": "mapping(address => struct Vault.DepositReceipt)",
        "numberOfBytes": "32",
        "value": "t_struct(DepositReceipt)7932_storage"
      },
      "t_mapping(t_address,t_struct(Withdrawal)7937_storage)": {
        "encoding": "mapping",
        "key": "t_address",
        "label": "mapping(address => struct Vault.Withdrawal)",
        "numberOfBytes": "32",
        "value": "t_struct(Withdrawal)7937_storage"
      },
      "t_mapping(t_address,t_uint256)": {
        "encoding": "mapping",
        "key": "t_address",
        "label": "mapping(address => uint256)",
        "numberOfBytes": "32",
        "value": "t_uint256"
      },
      "t_mapping(t_uint256,t_uint256)": {
        "encoding": "mapping",
        "key": "t_uint256",
        "label": "mapping(uint256 => uint256)",
        "numberOfBytes": "32",
        "value": "t_uint256"
      },
      "t_string_storage": {
        "encoding": "bytes",
        "label": "string",
        "numberOfBytes": "32"
      },
      "t_struct(DepositReceipt)7932_storage": {
        "encoding": "inplace",
        "label": "struct Vault.DepositReceipt",
        "members": [
          {
            "astId": 7927,
            "contract": "contracts/vaults/SpreadVaults/CallSpread.sol:CallSpread",
            "label": "round",
            "offset": 0,
            "slot": "0",
            "type": "t_uint16"
          },
          {
            "astId": 7929,
            "contract": "contracts/vaults/SpreadVaults/CallSpread.sol:CallSpread",
            "label": "amount",
            "offset": 2,
            "slot": "0",
            "type": "t_uint104"
          },
          {
            "astId": 7931,
            "contract": "contracts/vaults/SpreadVaults/CallSpread.sol:CallSpread",
            "label": "unredeemedShares",
            "offset": 15,
            "slot": "0",
            "type": "t_uint128"
          }
        ],
        "numberOfBytes": "32"
      },
      "t_struct(SpreadState)7912_storage": {
        "encoding": "inplace",
        "label": "struct Vault.SpreadState",
        "members": [
          {
            "astId": 7902,
            "contract": "contracts/vaults/SpreadVaults/CallSpread.sol:CallSpread",
            "label": "nextSpread",
            "offset": 0,
            "slot": "0",
            "type": "t_array(t_address)dyn_storage"
          },
          {
            "astId": 7905,
            "contract": "contracts/vaults/SpreadVaults/CallSpread.sol:CallSpread",
            "label": "currentSpread",
            "offset": 0,
            "slot": "1",
            "type": "t_array(t_address)dyn_storage"
          },
          {
            "astId": 7907,
            "contract": "contracts/vaults/SpreadVaults/CallSpread.sol:CallSpread",
            "label": "nextOptionReadyAt",
            "offset": 0,
            "slot": "2",
            "type": "t_uint32"
          },
          {
            "astId": 7909,
            "contract": "contracts/vaults/SpreadVaults/CallSpread.sol:CallSpread",
            "label": "currentSpreadToken",
            "offset": 4,
            "slot": "2",
            "type": "t_address"
          },
          {
            "astId": 7911,
            "contract": "contracts/vaults/SpreadVaults/CallSpread.sol:CallSpread",
            "label": "nextSpreadToken",
            "offset": 0,
            "slot": "3",
            "type": "t_address"
          }
        ],
        "numberOfBytes": "128"
      },
      "t_struct(VaultParams)7892_storage": {
        "encoding": "inplace",
        "label": "struct Vault.VaultParams",
        "members": [
          {
            "astId": 7879,
            "contract": "contracts/vaults/SpreadVaults/CallSpread.sol:CallSpread",
            "label": "isPut",
            "offset": 0,
            "slot": "0",
            "type": "t_bool"
          },
          {
            "astId": 7881,
            "contract": "contracts/vaults/SpreadVaults/CallSpread.sol:CallSpread",
            "label": "isSpread",
            "offset": 1,
            "slot": "0",
            "type": "t_bool"
          },
          {
            "astId": 7883,
            "contract": "contracts/vaults/SpreadVaults/CallSpread.sol:CallSpread",
            "label": "decimals",
            "offset": 2,
            "slot": "0",
            "type": "t_uint8"
          },
          {
            "astId": 7885,
            "contract": "contracts/vaults/SpreadVaults/CallSpread.sol:CallSpread",
            "label": "asset",
            "offset": 3,
            "slot": "0",
            "type": "t_address"
          },
          {
            "astId": 7887,
            "contract": "contracts/vaults/SpreadVaults/CallSpread.sol:CallSpread",
            "label": "underlying",
            "offset": 0,
            "slot": "1",
            "type": "t_address"
          },
          {
            "astId": 7889,
            "contract": "contracts/vaults/SpreadVaults/CallSpread.sol:CallSpread",
            "label": "minimumSupply",
            "offset": 20,
            "slot": "1",
            "type": "t_uint56"
          },
          {
            "astId": 7891,
            "contract": "contracts/vaults/SpreadVaults/CallSpread.sol:CallSpread",
            "label": "cap",
            "offset": 0,
            "slot": "2",
            "type": "t_uint104"
          }
        ],
        "numberOfBytes": "96"
      },
      "t_struct(VaultState)7925_storage": {
        "encoding": "inplace",
        "label": "struct Vault.VaultState",
        "members": [
          {
            "astId": 7914,
            "contract": "contracts/vaults/SpreadVaults/CallSpread.sol:CallSpread",
            "label": "round",
            "offset": 0,
            "slot": "0",
            "type": "t_uint16"
          },
          {
            "astId": 7916,
            "contract": "contracts/vaults/SpreadVaults/CallSpread.sol:CallSpread",
            "label": "lockedAmount",
            "offset": 2,
            "slot": "0",
            "type": "t_uint104"
          },
          {
            "astId": 7918,
            "contract": "contracts/vaults/SpreadVaults/CallSpread.sol:CallSpread",
            "label": "lastLockedAmount",
            "offset": 15,
            "slot": "0",
            "type": "t_uint104"
          },
          {
            "astId": 7920,
            "contract": "contracts/vaults/SpreadVaults/CallSpread.sol:CallSpread",
            "label": "lockedAmountUsed",
            "offset": 0,
            "slot": "1",
            "type": "t_uint104"
          },
          {
            "astId": 7922,
            "contract": "contracts/vaults/SpreadVaults/CallSpread.sol:CallSpread",
            "label": "totalPending",
            "offset": 13,
            "slot": "1",
            "type": "t_uint128"
          },
          {
            "astId": 7924,
            "contract": "contracts/vaults/SpreadVaults/CallSpread.sol:CallSpread",
            "label": "queuedWithdrawShares",
            "offset": 0,
            "slot": "2",
            "type": "t_uint128"
          }
        ],
        "numberOfBytes": "96"
      },
      "t_struct(Withdrawal)7937_storage": {
        "encoding": "inplace",
        "label": "struct Vault.Withdrawal",
        "members": [
          {
            "astId": 7934,
            "contract": "contracts/vaults/SpreadVaults/CallSpread.sol:CallSpread",
            "label": "round",
            "offset": 0,
            "slot": "0",
            "type": "t_uint16"
          },
          {
            "astId": 7936,
            "contract": "contracts/vaults/SpreadVaults/CallSpread.sol:CallSpread",
            "label": "shares",
            "offset": 2,
            "slot": "0",
            "type": "t_uint128"
          }
        ],
        "numberOfBytes": "32"
      },
      "t_uint104": {
        "encoding": "inplace",
        "label": "uint104",
        "numberOfBytes": "13"
      },
      "t_uint128": {
        "encoding": "inplace",
        "label": "uint128",
        "numberOfBytes": "16"
      },
      "t_uint16": {
        "encoding": "inplace",
        "label": "uint16",
        "numberOfBytes": "2"
      },
      "t_uint256": {
        "encoding": "inplace",
        "label": "uint256",
        "numberOfBytes": "32"
      },
      "t_uint32": {
        "encoding": "inplace",
        "label": "uint32",
        "numberOfBytes": "4"
      },
      "t_uint56": {
        "encoding": "inplace",
        "label": "uint56",
        "numberOfBytes": "7"
      },
      "t_uint8": {
        "encoding": "inplace",
        "label": "uint8",
        "numberOfBytes": "1"
      }
    }
  }
}