{
  "address": "0xD743d3AfBa3b2fbE17e6Cc4B68db91b8CfA84d58",
  "abi": [
    {
      "inputs": [
        {
          "internalType": "address",
          "name": "_wnative",
          "type": "address"
        },
        {
          "internalType": "address",
          "name": "_usdc",
          "type": "address"
        },
        {
          "internalType": "address",
          "name": "_oTokenFactory",
          "type": "address"
        },
        {
          "internalType": "address",
          "name": "_gammaController",
          "type": "address"
        },
        {
          "internalType": "address",
          "name": "_marginPool",
          "type": "address"
        },
        {
          "internalType": "address",
          "name": "_gnosisEasyAuction",
          "type": "address"
        },
        {
          "internalType": "address",
          "name": "_spreadTokenLogic",
          "type": "address"
        }
      ],
      "stateMutability": "nonpayable",
      "type": "constructor"
    },
    {
      "anonymous": false,
      "inputs": [
        {
          "indexed": true,
          "internalType": "address",
          "name": "owner",
          "type": "address"
        },
        {
          "indexed": true,
          "internalType": "address",
          "name": "spender",
          "type": "address"
        },
        {
          "indexed": false,
          "internalType": "uint256",
          "name": "value",
          "type": "uint256"
        }
      ],
      "name": "Approval",
      "type": "event"
    },
    {
      "anonymous": false,
      "inputs": [
        {
          "indexed": false,
          "internalType": "uint256",
          "name": "auctionDuration",
          "type": "uint256"
        },
        {
          "indexed": false,
          "internalType": "uint256",
          "name": "newAuctionDuration",
          "type": "uint256"
        }
      ],
      "name": "AuctionDurationSet",
      "type": "event"
    },
    {
      "anonymous": false,
      "inputs": [
        {
          "indexed": false,
          "internalType": "uint256",
          "name": "oldCap",
          "type": "uint256"
        },
        {
          "indexed": false,
          "internalType": "uint256",
          "name": "newCap",
          "type": "uint256"
        }
      ],
      "name": "CapSet",
      "type": "event"
    },
    {
      "anonymous": false,
      "inputs": [
        {
          "indexed": false,
          "internalType": "address[]",
          "name": "spread",
          "type": "address[]"
        },
        {
          "indexed": false,
          "internalType": "uint256",
          "name": "withdrawAmount",
          "type": "uint256"
        },
        {
          "indexed": true,
          "internalType": "address",
          "name": "manager",
          "type": "address"
        },
        {
          "indexed": true,
          "internalType": "address",
          "name": "spreadToken",
          "type": "address"
        }
      ],
      "name": "CloseSpread",
      "type": "event"
    },
    {
      "anonymous": false,
      "inputs": [
        {
          "indexed": false,
          "internalType": "uint256",
          "name": "performanceFee",
          "type": "uint256"
        },
        {
          "indexed": false,
          "internalType": "uint256",
          "name": "vaultFee",
          "type": "uint256"
        },
        {
          "indexed": false,
          "internalType": "uint256",
          "name": "round",
          "type": "uint256"
        },
        {
          "indexed": true,
          "internalType": "address",
          "name": "feeRecipient",
          "type": "address"
        }
      ],
      "name": "CollectVaultFees",
      "type": "event"
    },
    {
      "anonymous": false,
      "inputs": [
        {
          "indexed": true,
          "internalType": "address",
          "name": "account",
          "type": "address"
        },
        {
          "indexed": false,
          "internalType": "uint256",
          "name": "amount",
          "type": "uint256"
        },
        {
          "indexed": false,
          "internalType": "uint256",
          "name": "round",
          "type": "uint256"
        }
      ],
      "name": "Deposit",
      "type": "event"
    },
    {
      "anonymous": false,
      "inputs": [
        {
          "indexed": true,
          "internalType": "address",
          "name": "auctioningToken",
          "type": "address"
        },
        {
          "indexed": true,
          "internalType": "address",
          "name": "biddingToken",
          "type": "address"
        },
        {
          "indexed": false,
          "internalType": "uint256",
          "name": "auctionCounter",
          "type": "uint256"
        },
        {
          "indexed": true,
          "internalType": "address",
          "name": "manager",
          "type": "address"
        }
      ],
      "name": "InitiateGnosisAuction",
      "type": "event"
    },
    {
      "anonymous": false,
      "inputs": [
        {
          "indexed": true,
          "internalType": "address",
          "name": "account",
          "type": "address"
        },
        {
          "indexed": false,
          "internalType": "uint256",
          "name": "shares",
          "type": "uint256"
        },
        {
          "indexed": false,
          "internalType": "uint256",
          "name": "round",
          "type": "uint256"
        }
      ],
      "name": "InitiateWithdraw",
      "type": "event"
    },
    {
      "anonymous": false,
      "inputs": [
        {
          "indexed": true,
          "internalType": "address",
          "name": "account",
          "type": "address"
        },
        {
          "indexed": false,
          "internalType": "uint256",
          "name": "amount",
          "type": "uint256"
        },
        {
          "indexed": false,
          "internalType": "uint256",
          "name": "round",
          "type": "uint256"
        }
      ],
      "name": "InstantWithdraw",
      "type": "event"
    },
    {
      "anonymous": false,
      "inputs": [
        {
          "indexed": false,
          "internalType": "uint256",
          "name": "managementFee",
          "type": "uint256"
        },
        {
          "indexed": false,
          "internalType": "uint256",
          "name": "newManagementFee",
          "type": "uint256"
        }
      ],
      "name": "ManagementFeeSet",
      "type": "event"
    },
    {
      "anonymous": false,
      "inputs": [
        {
          "indexed": false,
          "internalType": "uint256[]",
          "name": "strikePrices",
          "type": "uint256[]"
        },
        {
          "indexed": false,
          "internalType": "uint256[]",
          "name": "deltas",
          "type": "uint256[]"
        },
        {
          "indexed": false,
          "internalType": "address",
          "name": "spreadToken",
          "type": "address"
        }
      ],
      "name": "NewSpreadStrikesSelected",
      "type": "event"
    },
    {
      "anonymous": false,
      "inputs": [
        {
          "indexed": false,
          "internalType": "address[]",
          "name": "spread",
          "type": "address[]"
        },
        {
          "indexed": false,
          "internalType": "uint256",
          "name": "depositAmount",
          "type": "uint256"
        },
        {
          "indexed": true,
          "internalType": "address",
          "name": "manager",
          "type": "address"
        },
        {
          "indexed": true,
          "internalType": "address",
          "name": "spreadToken",
          "type": "address"
        }
      ],
      "name": "OpenSpread",
      "type": "event"
    },
    {
      "anonymous": false,
      "inputs": [
        {
          "indexed": true,
          "internalType": "address",
          "name": "previousOwner",
          "type": "address"
        },
        {
          "indexed": true,
          "internalType": "address",
          "name": "newOwner",
          "type": "address"
        }
      ],
      "name": "OwnershipTransferred",
      "type": "event"
    },
    {
      "anonymous": false,
      "inputs": [
        {
          "indexed": false,
          "internalType": "uint256",
          "name": "performanceFee",
          "type": "uint256"
        },
        {
          "indexed": false,
          "internalType": "uint256",
          "name": "newPerformanceFee",
          "type": "uint256"
        }
      ],
      "name": "PerformanceFeeSet",
      "type": "event"
    },
    {
      "anonymous": false,
      "inputs": [
        {
          "indexed": false,
          "internalType": "uint256",
          "name": "premiumDiscount",
          "type": "uint256"
        },
        {
          "indexed": false,
          "internalType": "uint256",
          "name": "newPremiumDiscount",
          "type": "uint256"
        }
      ],
      "name": "PremiumDiscountSet",
      "type": "event"
    },
    {
      "anonymous": false,
      "inputs": [
        {
          "indexed": true,
          "internalType": "address",
          "name": "account",
          "type": "address"
        },
        {
          "indexed": false,
          "internalType": "uint256",
          "name": "share",
          "type": "uint256"
        },
        {
          "indexed": false,
          "internalType": "uint256",
          "name": "round",
          "type": "uint256"
        }
      ],
      "name": "Redeem",
      "type": "event"
    },
    {
      "anonymous": false,
      "inputs": [
        {
          "indexed": true,
          "internalType": "address",
          "name": "from",
          "type": "address"
        },
        {
          "indexed": true,
          "internalType": "address",
          "name": "to",
          "type": "address"
        },
        {
          "indexed": false,
          "internalType": "uint256",
          "name": "value",
          "type": "uint256"
        }
      ],
      "name": "Transfer",
      "type": "event"
    },
    {
      "anonymous": false,
      "inputs": [
        {
          "indexed": true,
          "internalType": "address",
          "name": "account",
          "type": "address"
        },
        {
          "indexed": false,
          "internalType": "uint256",
          "name": "amount",
          "type": "uint256"
        },
        {
          "indexed": false,
          "internalType": "uint256",
          "name": "shares",
          "type": "uint256"
        }
      ],
      "name": "Withdraw",
      "type": "event"
    },
    {
      "inputs": [],
      "name": "DELAY",
      "outputs": [
        {
          "internalType": "uint256",
          "name": "",
          "type": "uint256"
        }
      ],
      "stateMutability": "view",
      "type": "function"
    },
    {
      "inputs": [],
      "name": "GAMMA_CONTROLLER",
      "outputs": [
        {
          "internalType": "address",
          "name": "",
          "type": "address"
        }
      ],
      "stateMutability": "view",
      "type": "function"
    },
    {
      "inputs": [],
      "name": "GNOSIS_EASY_AUCTION",
      "outputs": [
        {
          "internalType": "address",
          "name": "",
          "type": "address"
        }
      ],
      "stateMutability": "view",
      "type": "function"
    },
    {
      "inputs": [],
      "name": "MARGIN_POOL",
      "outputs": [
        {
          "internalType": "address",
          "name": "",
          "type": "address"
        }
      ],
      "stateMutability": "view",
      "type": "function"
    },
    {
      "inputs": [],
      "name": "OTOKEN_FACTORY",
      "outputs": [
        {
          "internalType": "address",
          "name": "",
          "type": "address"
        }
      ],
      "stateMutability": "view",
      "type": "function"
    },
    {
      "inputs": [],
      "name": "PERIOD",
      "outputs": [
        {
          "internalType": "uint256",
          "name": "",
          "type": "uint256"
        }
      ],
      "stateMutability": "view",
      "type": "function"
    },
    {
      "inputs": [],
      "name": "SPREAD_TOKEN",
      "outputs": [
        {
          "internalType": "address",
          "name": "",
          "type": "address"
        }
      ],
      "stateMutability": "view",
      "type": "function"
    },
    {
      "inputs": [],
      "name": "USDC",
      "outputs": [
        {
          "internalType": "address",
          "name": "",
          "type": "address"
        }
      ],
      "stateMutability": "view",
      "type": "function"
    },
    {
      "inputs": [],
      "name": "WNATIVE",
      "outputs": [
        {
          "internalType": "address",
          "name": "",
          "type": "address"
        }
      ],
      "stateMutability": "view",
      "type": "function"
    },
    {
      "inputs": [
        {
          "internalType": "address",
          "name": "account",
          "type": "address"
        }
      ],
      "name": "accountVaultBalance",
      "outputs": [
        {
          "internalType": "uint256",
          "name": "",
          "type": "uint256"
        }
      ],
      "stateMutability": "view",
      "type": "function"
    },
    {
      "inputs": [
        {
          "internalType": "address",
          "name": "owner",
          "type": "address"
        },
        {
          "internalType": "address",
          "name": "spender",
          "type": "address"
        }
      ],
      "name": "allowance",
      "outputs": [
        {
          "internalType": "uint256",
          "name": "",
          "type": "uint256"
        }
      ],
      "stateMutability": "view",
      "type": "function"
    },
    {
      "inputs": [
        {
          "internalType": "address",
          "name": "spender",
          "type": "address"
        },
        {
          "internalType": "uint256",
          "name": "amount",
          "type": "uint256"
        }
      ],
      "name": "approve",
      "outputs": [
        {
          "internalType": "bool",
          "name": "",
          "type": "bool"
        }
      ],
      "stateMutability": "nonpayable",
      "type": "function"
    },
    {
      "inputs": [],
      "name": "auctionDuration",
      "outputs": [
        {
          "internalType": "uint256",
          "name": "",
          "type": "uint256"
        }
      ],
      "stateMutability": "view",
      "type": "function"
    },
    {
      "inputs": [
        {
          "internalType": "address",
          "name": "account",
          "type": "address"
        }
      ],
      "name": "balanceOf",
      "outputs": [
        {
          "internalType": "uint256",
          "name": "",
          "type": "uint256"
        }
      ],
      "stateMutability": "view",
      "type": "function"
    },
    {
      "inputs": [],
      "name": "cap",
      "outputs": [
        {
          "internalType": "uint256",
          "name": "",
          "type": "uint256"
        }
      ],
      "stateMutability": "view",
      "type": "function"
    },
    {
      "inputs": [],
      "name": "commitAndClose",
      "outputs": [],
      "stateMutability": "nonpayable",
      "type": "function"
    },
    {
      "inputs": [],
      "name": "completeWithdraw",
      "outputs": [],
      "stateMutability": "nonpayable",
      "type": "function"
    },
    {
      "inputs": [],
      "name": "currentOtokenPremium",
      "outputs": [
        {
          "internalType": "uint256",
          "name": "",
          "type": "uint256"
        }
      ],
      "stateMutability": "view",
      "type": "function"
    },
    {
      "inputs": [],
      "name": "currentQueuedWithdrawShares",
      "outputs": [
        {
          "internalType": "uint256",
          "name": "",
          "type": "uint256"
        }
      ],
      "stateMutability": "view",
      "type": "function"
    },
    {
      "inputs": [],
      "name": "currentSpread",
      "outputs": [
        {
          "internalType": "address[]",
          "name": "",
          "type": "address[]"
        }
      ],
      "stateMutability": "view",
      "type": "function"
    },
    {
      "inputs": [],
      "name": "decimals",
      "outputs": [
        {
          "internalType": "uint8",
          "name": "",
          "type": "uint8"
        }
      ],
      "stateMutability": "view",
      "type": "function"
    },
    {
      "inputs": [
        {
          "internalType": "address",
          "name": "spender",
          "type": "address"
        },
        {
          "internalType": "uint256",
          "name": "subtractedValue",
          "type": "uint256"
        }
      ],
      "name": "decreaseAllowance",
      "outputs": [
        {
          "internalType": "bool",
          "name": "",
          "type": "bool"
        }
      ],
      "stateMutability": "nonpayable",
      "type": "function"
    },
    {
      "inputs": [
        {
          "internalType": "uint256",
          "name": "amount",
          "type": "uint256"
        }
      ],
      "name": "deposit",
      "outputs": [],
      "stateMutability": "nonpayable",
      "type": "function"
    },
    {
      "inputs": [],
      "name": "depositETH",
      "outputs": [],
      "stateMutability": "payable",
      "type": "function"
    },
    {
      "inputs": [
        {
          "internalType": "uint256",
          "name": "amount",
          "type": "uint256"
        },
        {
          "internalType": "address",
          "name": "creditor",
          "type": "address"
        }
      ],
      "name": "depositFor",
      "outputs": [],
      "stateMutability": "nonpayable",
      "type": "function"
    },
    {
      "inputs": [
        {
          "internalType": "address",
          "name": "",
          "type": "address"
        }
      ],
      "name": "depositReceipts",
      "outputs": [
        {
          "internalType": "uint16",
          "name": "round",
          "type": "uint16"
        },
        {
          "internalType": "uint104",
          "name": "amount",
          "type": "uint104"
        },
        {
          "internalType": "uint128",
          "name": "unredeemedShares",
          "type": "uint128"
        }
      ],
      "stateMutability": "view",
      "type": "function"
    },
    {
      "inputs": [],
      "name": "feeRecipient",
      "outputs": [
        {
          "internalType": "address",
          "name": "",
          "type": "address"
        }
      ],
      "stateMutability": "view",
      "type": "function"
    },
    {
      "inputs": [
        {
          "internalType": "address",
          "name": "spender",
          "type": "address"
        },
        {
          "internalType": "uint256",
          "name": "addedValue",
          "type": "uint256"
        }
      ],
      "name": "increaseAllowance",
      "outputs": [
        {
          "internalType": "bool",
          "name": "",
          "type": "bool"
        }
      ],
      "stateMutability": "nonpayable",
      "type": "function"
    },
    {
      "inputs": [
        {
          "internalType": "uint256",
          "name": "numRounds",
          "type": "uint256"
        }
      ],
      "name": "initRounds",
      "outputs": [],
      "stateMutability": "nonpayable",
      "type": "function"
    },
    {
      "inputs": [
        {
          "components": [
            {
              "internalType": "address",
              "name": "_owner",
              "type": "address"
            },
            {
              "internalType": "address",
              "name": "_keeper",
              "type": "address"
            },
            {
              "internalType": "address",
              "name": "_feeRecipient",
              "type": "address"
            },
            {
              "internalType": "uint256",
              "name": "_managementFee",
              "type": "uint256"
            },
            {
              "internalType": "uint256",
              "name": "_performanceFee",
              "type": "uint256"
            },
            {
              "internalType": "string",
              "name": "_tokenName",
              "type": "string"
            },
            {
              "internalType": "string",
              "name": "_tokenSymbol",
              "type": "string"
            },
            {
              "internalType": "address",
              "name": "_optionsPremiumPricer",
              "type": "address"
            },
            {
              "internalType": "address",
              "name": "_strikeSelection",
              "type": "address"
            },
            {
              "internalType": "uint32",
              "name": "_premiumDiscount",
              "type": "uint32"
            },
            {
              "internalType": "uint256",
              "name": "_auctionDuration",
              "type": "uint256"
            }
          ],
          "internalType": "struct CallSpread.InitParams",
          "name": "_initParams",
          "type": "tuple"
        },
        {
          "components": [
            {
              "internalType": "bool",
              "name": "isPut",
              "type": "bool"
            },
            {
              "internalType": "bool",
              "name": "isSpread",
              "type": "bool"
            },
            {
              "internalType": "uint8",
              "name": "decimals",
              "type": "uint8"
            },
            {
              "internalType": "address",
              "name": "asset",
              "type": "address"
            },
            {
              "internalType": "address",
              "name": "underlying",
              "type": "address"
            },
            {
              "internalType": "uint56",
              "name": "minimumSupply",
              "type": "uint56"
            },
            {
              "internalType": "uint104",
              "name": "cap",
              "type": "uint104"
            }
          ],
          "internalType": "struct Vault.VaultParams",
          "name": "_vaultParams",
          "type": "tuple"
        }
      ],
      "name": "initialize",
      "outputs": [],
      "stateMutability": "nonpayable",
      "type": "function"
    },
    {
      "inputs": [
        {
          "internalType": "uint256",
          "name": "numShares",
          "type": "uint256"
        }
      ],
      "name": "initiateWithdraw",
      "outputs": [],
      "stateMutability": "nonpayable",
      "type": "function"
    },
    {
      "inputs": [],
      "name": "keeper",
      "outputs": [
        {
          "internalType": "address",
          "name": "",
          "type": "address"
        }
      ],
      "stateMutability": "view",
      "type": "function"
    },
    {
      "inputs": [],
      "name": "lastQueuedWithdrawAmount",
      "outputs": [
        {
          "internalType": "uint256",
          "name": "",
          "type": "uint256"
        }
      ],
      "stateMutability": "view",
      "type": "function"
    },
    {
      "inputs": [],
      "name": "managementFee",
      "outputs": [
        {
          "internalType": "uint256",
          "name": "",
          "type": "uint256"
        }
      ],
      "stateMutability": "view",
      "type": "function"
    },
    {
      "inputs": [],
      "name": "maxRedeem",
      "outputs": [],
      "stateMutability": "nonpayable",
      "type": "function"
    },
    {
      "inputs": [],
      "name": "name",
      "outputs": [
        {
          "internalType": "string",
          "name": "",
          "type": "string"
        }
      ],
      "stateMutability": "view",
      "type": "function"
    },
    {
      "inputs": [],
      "name": "nextOptionReadyAt",
      "outputs": [
        {
          "internalType": "uint256",
          "name": "",
          "type": "uint256"
        }
      ],
      "stateMutability": "view",
      "type": "function"
    },
    {
      "inputs": [],
      "name": "nextSpread",
      "outputs": [
        {
          "internalType": "address[]",
          "name": "",
          "type": "address[]"
        }
      ],
      "stateMutability": "view",
      "type": "function"
    },
    {
      "inputs": [],
      "name": "optionAuctionID",
      "outputs": [
        {
          "internalType": "uint256",
          "name": "",
          "type": "uint256"
        }
      ],
      "stateMutability": "view",
      "type": "function"
    },
    {
      "inputs": [],
      "name": "optionsPremiumPricer",
      "outputs": [
        {
          "internalType": "address",
          "name": "",
          "type": "address"
        }
      ],
      "stateMutability": "view",
      "type": "function"
    },
    {
      "inputs": [],
      "name": "optionsPurchaseQueue",
      "outputs": [
        {
          "internalType": "address",
          "name": "",
          "type": "address"
        }
      ],
      "stateMutability": "view",
      "type": "function"
    },
    {
      "inputs": [],
      "name": "owner",
      "outputs": [
        {
          "internalType": "address",
          "name": "",
          "type": "address"
        }
      ],
      "stateMutability": "view",
      "type": "function"
    },
    {
      "inputs": [],
      "name": "performanceFee",
      "outputs": [
        {
          "internalType": "uint256",
          "name": "",
          "type": "uint256"
        }
      ],
      "stateMutability": "view",
      "type": "function"
    },
    {
      "inputs": [],
      "name": "premiumDiscount",
      "outputs": [
        {
          "internalType": "uint256",
          "name": "",
          "type": "uint256"
        }
      ],
      "stateMutability": "view",
      "type": "function"
    },
    {
      "inputs": [],
      "name": "pricePerShare",
      "outputs": [
        {
          "internalType": "uint256",
          "name": "",
          "type": "uint256"
        }
      ],
      "stateMutability": "view",
      "type": "function"
    },
    {
      "inputs": [
        {
          "internalType": "address",
          "name": "token",
          "type": "address"
        },
        {
          "internalType": "address",
          "name": "recipient",
          "type": "address"
        }
      ],
      "name": "recoverTokens",
      "outputs": [],
      "stateMutability": "nonpayable",
      "type": "function"
    },
    {
      "inputs": [
        {
          "internalType": "uint256",
          "name": "numShares",
          "type": "uint256"
        }
      ],
      "name": "redeem",
      "outputs": [],
      "stateMutability": "nonpayable",
      "type": "function"
    },
    {
      "inputs": [],
      "name": "renounceOwnership",
      "outputs": [],
      "stateMutability": "nonpayable",
      "type": "function"
    },
    {
      "inputs": [
        {
          "internalType": "uint256",
          "name": "index",
          "type": "uint256"
        }
      ],
      "name": "rollToNextOption",
      "outputs": [],
      "stateMutability": "nonpayable",
      "type": "function"
    },
    {
      "inputs": [
        {
          "internalType": "uint256",
          "name": "",
          "type": "uint256"
        }
      ],
      "name": "roundPricePerShare",
      "outputs": [
        {
          "internalType": "uint256",
          "name": "",
          "type": "uint256"
        }
      ],
      "stateMutability": "view",
      "type": "function"
    },
    {
      "inputs": [
        {
          "internalType": "uint256",
          "name": "newAuctionDuration",
          "type": "uint256"
        }
      ],
      "name": "setAuctionDuration",
      "outputs": [],
      "stateMutability": "nonpayable",
      "type": "function"
    },
    {
      "inputs": [
        {
          "internalType": "uint256",
          "name": "newCap",
          "type": "uint256"
        }
      ],
      "name": "setCap",
      "outputs": [],
      "stateMutability": "nonpayable",
      "type": "function"
    },
    {
      "inputs": [
        {
          "internalType": "address",
          "name": "newFeeRecipient",
          "type": "address"
        }
      ],
      "name": "setFeeRecipient",
      "outputs": [],
      "stateMutability": "nonpayable",
      "type": "function"
    },
    {
      "inputs": [
        {
          "internalType": "uint256",
          "name": "newManagementFee",
          "type": "uint256"
        }
      ],
      "name": "setManagementFee",
      "outputs": [],
      "stateMutability": "nonpayable",
      "type": "function"
    },
    {
      "inputs": [
        {
          "internalType": "uint256",
          "name": "minPrice",
          "type": "uint256"
        }
      ],
      "name": "setMinPrice",
      "outputs": [],
      "stateMutability": "nonpayable",
      "type": "function"
    },
    {
      "inputs": [
        {
          "internalType": "address",
          "name": "newKeeper",
          "type": "address"
        }
      ],
      "name": "setNewKeeper",
      "outputs": [],
      "stateMutability": "nonpayable",
      "type": "function"
    },
    {
      "inputs": [
        {
          "internalType": "address",
          "name": "newOptionsPremiumPricer",
          "type": "address"
        }
      ],
      "name": "setOptionsPremiumPricer",
      "outputs": [],
      "stateMutability": "nonpayable",
      "type": "function"
    },
    {
      "inputs": [
        {
          "internalType": "uint256",
          "name": "newPerformanceFee",
          "type": "uint256"
        }
      ],
      "name": "setPerformanceFee",
      "outputs": [],
      "stateMutability": "nonpayable",
      "type": "function"
    },
    {
      "inputs": [
        {
          "internalType": "uint256",
          "name": "newPremiumDiscount",
          "type": "uint256"
        }
      ],
      "name": "setPremiumDiscount",
      "outputs": [],
      "stateMutability": "nonpayable",
      "type": "function"
    },
    {
      "inputs": [
        {
          "internalType": "address",
          "name": "newStrikeSelection",
          "type": "address"
        }
      ],
      "name": "setStrikeSelection",
      "outputs": [],
      "stateMutability": "nonpayable",
      "type": "function"
    },
    {
      "inputs": [
        {
          "internalType": "address",
          "name": "account",
          "type": "address"
        }
      ],
      "name": "shareBalances",
      "outputs": [
        {
          "internalType": "uint256",
          "name": "heldByAccount",
          "type": "uint256"
        },
        {
          "internalType": "uint256",
          "name": "heldByVault",
          "type": "uint256"
        }
      ],
      "stateMutability": "view",
      "type": "function"
    },
    {
      "inputs": [
        {
          "internalType": "address",
          "name": "account",
          "type": "address"
        }
      ],
      "name": "shares",
      "outputs": [
        {
          "internalType": "uint256",
          "name": "",
          "type": "uint256"
        }
      ],
      "stateMutability": "view",
      "type": "function"
    },
    {
      "inputs": [],
      "name": "spreadState",
      "outputs": [
        {
          "internalType": "uint32",
          "name": "nextOptionReadyAt",
          "type": "uint32"
        },
        {
          "internalType": "address",
          "name": "currentSpreadToken",
          "type": "address"
        },
        {
          "internalType": "address",
          "name": "nextSpreadToken",
          "type": "address"
        }
      ],
      "stateMutability": "view",
      "type": "function"
    },
    {
      "inputs": [],
      "name": "startAuction",
      "outputs": [],
      "stateMutability": "nonpayable",
      "type": "function"
    },
    {
      "inputs": [],
      "name": "strikeSelection",
      "outputs": [
        {
          "internalType": "address",
          "name": "",
          "type": "address"
        }
      ],
      "stateMutability": "view",
      "type": "function"
    },
    {
      "inputs": [],
      "name": "symbol",
      "outputs": [
        {
          "internalType": "string",
          "name": "",
          "type": "string"
        }
      ],
      "stateMutability": "view",
      "type": "function"
    },
    {
      "inputs": [],
      "name": "totalBalance",
      "outputs": [
        {
          "internalType": "uint256",
          "name": "",
          "type": "uint256"
        }
      ],
      "stateMutability": "view",
      "type": "function"
    },
    {
      "inputs": [],
      "name": "totalPending",
      "outputs": [
        {
          "internalType": "uint256",
          "name": "",
          "type": "uint256"
        }
      ],
      "stateMutability": "view",
      "type": "function"
    },
    {
      "inputs": [],
      "name": "totalSupply",
      "outputs": [
        {
          "internalType": "uint256",
          "name": "",
          "type": "uint256"
        }
      ],
      "stateMutability": "view",
      "type": "function"
    },
    {
      "inputs": [
        {
          "internalType": "address",
          "name": "recipient",
          "type": "address"
        },
        {
          "internalType": "uint256",
          "name": "amount",
          "type": "uint256"
        }
      ],
      "name": "transfer",
      "outputs": [
        {
          "internalType": "bool",
          "name": "",
          "type": "bool"
        }
      ],
      "stateMutability": "nonpayable",
      "type": "function"
    },
    {
      "inputs": [
        {
          "internalType": "address",
          "name": "sender",
          "type": "address"
        },
        {
          "internalType": "address",
          "name": "recipient",
          "type": "address"
        },
        {
          "internalType": "uint256",
          "name": "amount",
          "type": "uint256"
        }
      ],
      "name": "transferFrom",
      "outputs": [
        {
          "internalType": "bool",
          "name": "",
          "type": "bool"
        }
      ],
      "stateMutability": "nonpayable",
      "type": "function"
    },
    {
      "inputs": [
        {
          "internalType": "address",
          "name": "newOwner",
          "type": "address"
        }
      ],
      "name": "transferOwnership",
      "outputs": [],
      "stateMutability": "nonpayable",
      "type": "function"
    },
    {
      "inputs": [],
      "name": "vaultParams",
      "outputs": [
        {
          "internalType": "bool",
          "name": "isPut",
          "type": "bool"
        },
        {
          "internalType": "bool",
          "name": "isSpread",
          "type": "bool"
        },
        {
          "internalType": "uint8",
          "name": "decimals",
          "type": "uint8"
        },
        {
          "internalType": "address",
          "name": "asset",
          "type": "address"
        },
        {
          "internalType": "address",
          "name": "underlying",
          "type": "address"
        },
        {
          "internalType": "uint56",
          "name": "minimumSupply",
          "type": "uint56"
        },
        {
          "internalType": "uint104",
          "name": "cap",
          "type": "uint104"
        }
      ],
      "stateMutability": "view",
      "type": "function"
    },
    {
      "inputs": [],
      "name": "vaultPauser",
      "outputs": [
        {
          "internalType": "address",
          "name": "",
          "type": "address"
        }
      ],
      "stateMutability": "view",
      "type": "function"
    },
    {
      "inputs": [],
      "name": "vaultState",
      "outputs": [
        {
          "internalType": "uint16",
          "name": "round",
          "type": "uint16"
        },
        {
          "internalType": "uint104",
          "name": "lockedAmount",
          "type": "uint104"
        },
        {
          "internalType": "uint104",
          "name": "lastLockedAmount",
          "type": "uint104"
        },
        {
          "internalType": "uint104",
          "name": "lockedAmountUsed",
          "type": "uint104"
        },
        {
          "internalType": "uint128",
          "name": "totalPending",
          "type": "uint128"
        },
        {
          "internalType": "uint128",
          "name": "queuedWithdrawShares",
          "type": "uint128"
        }
      ],
      "stateMutability": "view",
      "type": "function"
    },
    {
      "inputs": [
        {
          "internalType": "uint256",
          "name": "amount",
          "type": "uint256"
        }
      ],
      "name": "withdrawInstantly",
      "outputs": [],
      "stateMutability": "nonpayable",
      "type": "function"
    },
    {
      "inputs": [
        {
          "internalType": "address",
          "name": "",
          "type": "address"
        }
      ],
      "name": "withdrawals",
      "outputs": [
        {
          "internalType": "uint16",
          "name": "round",
          "type": "uint16"
        },
        {
          "internalType": "uint128",
          "name": "shares",
          "type": "uint128"
        }
      ],
      "stateMutability": "view",
      "type": "function"
    }
  ],
  "transactionHash": "0xfcc9e6faca3b97eb126ced574a8ba08e2905546c0dfb5f260267e6ef74b843d3",
  "args": [
    "0x0d500b1d8e8ef31e21c99d1db9a6444d3adf1270",
    "0x2791bca1f2de4661ed88a30c99a7a9449aa84174",
    "0xedD70E045903D34fBA7302B5094D37EAceb1397c",
    "0x7a23c712bddde52b22d8ff52e4cdadb1bcb0b203",
    "0x30aE5DEBc9EdF60a23cD19494492b1ef37afA56d",
    "0x0b7fFc1f4AD541A4Ed16b40D8c37f0929158D101",
    "0xeA68dE88f092AD693f58760341DE3438ee3Ebdb7"
  ],
  "solcInputHash": "30663a347c371104617e4e825791c2a9",
  "bytecode": "0x6101606040523480156200001257600080fd5b50604051620062b3380380620062b3833981016040819052620000359162000294565b8686858585856001600160a01b038616620000835760405162461bcd60e51b8152602060048201526009602482015268215f776e617469766560b81b60448201526064015b60405180910390fd5b6001600160a01b038516620000c45760405162461bcd60e51b8152602060048201526006602482015265215f7573646360d01b60448201526064016200007a565b6001600160a01b0382166200011c5760405162461bcd60e51b815260206004820152601360248201527f215f676e6f7369734561737941756374696f6e0000000000000000000000000060448201526064016200007a565b6001600160a01b038416620001685760405162461bcd60e51b815260206004820152601160248201527010afb3b0b6b6b0a1b7b73a3937b63632b960791b60448201526064016200007a565b6001600160a01b038316620001af5760405162461bcd60e51b815260206004820152600c60248201526b0857db585c99da5b941bdbdb60a21b60448201526064016200007a565b6001600160a01b038116620001f05760405162461bcd60e51b815260206004820152600660248201526510ba37b5b2b760d11b60448201526064016200007a565b6001600160a01b0395861660805293851660a05291841660c052831660e05282166101005281166101205285166200025d5760405162461bcd60e51b815260206004820152600f60248201526e215f6f546f6b656e466163746f727960881b60448201526064016200007a565b505050506001600160a01b03166101405250620003299050565b80516001600160a01b03811681146200028f57600080fd5b919050565b600080600080600080600060e0888a031215620002b057600080fd5b620002bb8862000277565b9650620002cb6020890162000277565b9550620002db6040890162000277565b9450620002eb6060890162000277565b9350620002fb6080890162000277565b92506200030b60a0890162000277565b91506200031b60c0890162000277565b905092959891949750929550565b60805160a05160c05160e051610100516101205161014051615ee2620003d160003960008181610d6401526128b6015260008181610a8a015261292401526000818161085b0152613fb2015260008181610779015261178d01526000818161044e0152818161176c01526145630152600081816109d601526128db015260008181610c6301528181612d2301528181612dd301528181613af30152613b2f0152615ee26000f3fe6080604052600436106103615760003560e01c8062ffa9af14610366578063056097ac1461038857806306fdde03146103a8578063095ea7b3146103d35780630cbf54c81461040357806318160ddd146104275780631a92f6c21461043c5780631b60612a1461047d57806323b872dd1461049d5780632728f333146104bd5780632775d01c1461055f57806330630da41461057f578063313ce5671461059f57806333aaee5b146105ca578063355274ea146105ec57806336efd16f1461060a578063395093511461062a5780633f23bb731461064a5780633f90916a1461066a578063432833a61461068f5780634603c0aa146106a557806346904840146106c557806347786d37146106e55780634b2431d914610705578063503c70aa1461071c5780635ea8cd12146107325780636152137d14610752578063650cce8a146107675780636719b2ee1461079b57806369b411701461081f5780636b64c769146108345780636c10f66c146108495780636f31ab341461087d57806370897b231461089257806370a08231146108b2578063715018a6146108d25780637a9262a2146108e75780637e108d521461094b57806383536ff31461096b57806387153eb11461098157806387788782146109ae57806389a30271146109c45780638da5cb5b146109f8578063947061b514610a0d57806395d89b4114610a2e57806399530b0614610a435780639be43daa14610a585780639f0bf18214610a785780639fcc2d7514610aac578063a285c9e814610b6b578063a457c2d714610b86578063a497e67414610ba6578063a6f7f5d614610bc6578063a9059cbb14610bdc578063aced166114610bfc578063ad7a672f14610c1c578063afa6626414610c31578063b381cf4014610c51578063b4d1d79514610c85578063b6b55f2514610c9c578063ce7c2ac214610cbc578063d13f1b3e14610cdc578063d164cc1514610cfc578063d5f2638214610d1c578063db006a7514610d32578063db43e86214610d52578063dd62ed3e14610d86578063e74b981b14610dcc578063ea00b1ca14610dec578063f2fde38b14610e01578063f3f140e214610e21578063f6326fb314610e83578063f656ba5114610e8b578063f756fa2114610eb9578063f957a06714610ece578063fba7dc6114610eee578063fe56e23214610f0e575b600080fd5b34801561037257600080fd5b50610386610381366004615089565b610f2e565b005b34801561039457600080fd5b506103866103a336600461510e565b611284565b3480156103b457600080fd5b506103bd6114aa565b6040516103ca9190615197565b60405180910390f35b3480156103df57600080fd5b506103f36103ee3660046151aa565b61153c565b60405190151581526020016103ca565b34801561040f57600080fd5b5061041960fc5481565b6040519081526020016103ca565b34801561043357600080fd5b50609954610419565b34801561044857600080fd5b506104707f000000000000000000000000000000000000000000000000000000000000000081565b6040516103ca91906151e3565b34801561048957600080fd5b506103866104983660046151f7565b611553565b3480156104a957600080fd5b506103f36104b8366004615210565b6118e0565b3480156104c957600080fd5b5060cf5460d05460d1546105149261ffff8116926001600160681b03620100008304811693600160781b909304811692908216916001600160801b03600160681b9091048116911686565b6040805161ffff90971687526001600160681b03958616602088015293851693860193909352921660608401526001600160801b0391821660808401521660a082015260c0016103ca565b34801561056b57600080fd5b5061038661057a3660046151f7565b61198a565b34801561058b57600080fd5b5061038661059a366004615251565b611b41565b3480156105ab57600080fd5b5060cc5462010000900460ff1660405160ff90911681526020016103ca565b3480156105d657600080fd5b506105df611bde565b6040516103ca91906152b2565b3480156105f857600080fd5b5060ce546001600160681b0316610419565b34801561061657600080fd5b506103866106253660046152c5565b611c42565b34801561063657600080fd5b506103f36106453660046151aa565b611cca565b34801561065657600080fd5b50610419610665366004615251565b611d06565b34801561067657600080fd5b5060d054600160681b90046001600160801b0316610419565b34801561069b57600080fd5b5061041960fd5481565b3480156106b157600080fd5b506103866106c0366004615251565b611d61565b3480156106d157600080fd5b5060d654610470906001600160a01b031681565b3480156106f157600080fd5b506103866107003660046151f7565b611e03565b34801561071157600080fd5b506104196101005481565b34801561072857600080fd5b5061041960fe5481565b34801561073e57600080fd5b5061038661074d3660046151f7565b611edd565b34801561075e57600080fd5b506105df611f48565b34801561077357600080fd5b506104707f000000000000000000000000000000000000000000000000000000000000000081565b3480156107a757600080fd5b506107ee6107b6366004615251565b60c96020526000908152604090205461ffff8116906201000081046001600160681b031690600160781b90046001600160801b031683565b6040805161ffff90941684526001600160681b0390921660208401526001600160801b0316908201526060016103ca565b34801561082b57600080fd5b50610419600081565b34801561084057600080fd5b50610386611fab565b34801561085557600080fd5b506104707f000000000000000000000000000000000000000000000000000000000000000081565b34801561088957600080fd5b5061038661200a565b34801561089e57600080fd5b506103866108ad3660046151f7565b612040565b3480156108be57600080fd5b506104196108cd366004615251565b612105565b3480156108de57600080fd5b50610386612120565b3480156108f357600080fd5b50610929610902366004615251565b60cb6020526000908152604090205461ffff8116906201000090046001600160801b031682565b6040805161ffff90931683526001600160801b039091166020830152016103ca565b34801561095757600080fd5b506103866109663660046151f7565b61215b565b34801561097757600080fd5b5061041960fa5481565b34801561098d57600080fd5b5061041961099c3660046151f7565b60ca6020526000908152604090205481565b3480156109ba57600080fd5b5061041960d85481565b3480156109d057600080fd5b506104707f000000000000000000000000000000000000000000000000000000000000000081565b348015610a0457600080fd5b506104706121a5565b348015610a1957600080fd5b5061010154610470906001600160a01b031681565b348015610a3a57600080fd5b506103bd6121b4565b348015610a4f57600080fd5b506104196121c3565b348015610a6457600080fd5b50610386610a733660046151f7565b612204565b348015610a8457600080fd5b506104707f000000000000000000000000000000000000000000000000000000000000000081565b348015610ab857600080fd5b5060cc5460cd5460ce54610b129260ff80821693610100830482169362010000840490921692630100000090046001600160a01b039081169290821691600160a01b900466ffffffffffffff16906001600160681b031687565b604080519715158852951515602088015260ff909416948601949094526001600160a01b03918216606086015216608084015266ffffffffffffff90911660a08301526001600160681b031660c082015260e0016103ca565b348015610b7757600080fd5b5060d45463ffffffff16610419565b348015610b9257600080fd5b506103f3610ba13660046151aa565b6122fd565b348015610bb257600080fd5b50610386610bc13660046151f7565b612396565b348015610bd257600080fd5b5061041960d95481565b348015610be857600080fd5b506103f3610bf73660046151aa565b612452565b348015610c0857600080fd5b5060d754610470906001600160a01b031681565b348015610c2857600080fd5b5061041961245f565b348015610c3d57600080fd5b5060f854610470906001600160a01b031681565b348015610c5d57600080fd5b506104707f000000000000000000000000000000000000000000000000000000000000000081565b348015610c9157600080fd5b5061041962093a8081565b348015610ca857600080fd5b50610386610cb73660046151f7565b6124f4565b348015610cc857600080fd5b50610419610cd7366004615251565b612568565b348015610ce857600080fd5b50610386610cf73660046151f7565b612585565b348015610d0857600080fd5b50610386610d17366004615251565b612649565b348015610d2857600080fd5b5061041960fb5481565b348015610d3e57600080fd5b50610386610d4d3660046151f7565b6126dd565b348015610d5e57600080fd5b506104707f000000000000000000000000000000000000000000000000000000000000000081565b348015610d9257600080fd5b50610419610da136600461510e565b6001600160a01b03918216600090815260986020908152604080832093909416825291909152205490565b348015610dd857600080fd5b50610386610de7366004615251565b61272c565b348015610df857600080fd5b5061038661281f565b348015610e0d57600080fd5b50610386610e1c366004615251565b612c57565b348015610e2d57600080fd5b5060d45460d554610e579163ffffffff8116916001600160a01b03600160201b9092048216911683565b6040805163ffffffff90941684526001600160a01b0392831660208501529116908201526060016103ca565b610386612cf7565b348015610e9757600080fd5b50610eab610ea6366004615251565b612e4b565b6040516103ca9291906152ea565b348015610ec557600080fd5b50610386612f0f565b348015610eda57600080fd5b5060f954610470906001600160a01b031681565b348015610efa57600080fd5b5060ff54610470906001600160a01b031681565b348015610f1a57600080fd5b50610386610f293660046151f7565b612f63565b600054610100900460ff1680610f47575060005460ff16155b610f6c5760405162461bcd60e51b8152600401610f63906152f8565b60405180910390fd5b600054610100900460ff16158015610f8e576000805461ffff19166101011790555b611053610f9e6020850185615251565b610fae6040860160208701615251565b610fbe6060870160408801615251565b60608701356080880135610fd560a08a018a615346565b8080601f0160208091040260200160405190810160405280939291908181526020018383808284376000920191909152506110179250505060c08b018b615346565b8080601f0160208091040260200160405190810160405280939291908181526020018383808284376000920191909152508c9250613048915050565b6000611066610100850160e08601615251565b6001600160a01b0316036110b55760405162461bcd60e51b815260206004820152601660248201527510afb7b83a34b7b739a83932b6b4bab6a83934b1b2b960511b6044820152606401610f63565b60006110c961012085016101008601615251565b6001600160a01b0316036111135760405162461bcd60e51b815260206004820152601160248201527010afb9ba3934b5b2a9b2b632b1ba34b7b760791b6044820152606401610f63565b600061112761014085016101208601615393565b63ffffffff1611801561115b5750611141600a60646153cf565b61115361014085016101208601615393565b63ffffffff16105b61119b5760405162461bcd60e51b81526020600482015260116024820152700857dc1c995b5a5d5b511a5cd8dbdd5b9d607a1b6044820152606401610f63565b61012c83610140013510156111e65760405162461bcd60e51b815260206004820152601160248201527010afb0bab1ba34b7b7223ab930ba34b7b760791b6044820152606401610f63565b6111f7610100840160e08501615251565b60f880546001600160a01b0319166001600160a01b039290921691909117905561122961012084016101008501615251565b60f980546001600160a01b0319166001600160a01b039290921691909117905561125b61014084016101208501615393565b63ffffffff1660fa5561014083013560fc55801561127f576000805461ff00191690555b505050565b3361128d6121a5565b6001600160a01b0316146112b35760405162461bcd60e51b8152600401610f63906153e6565b60cc546001600160a01b0363010000009091048116908316036113165760405162461bcd60e51b815260206004820152601b60248201527a5661756c74206173736574206e6f74207265636f76657261626c6560281b6044820152606401610f63565b306001600160a01b0383160361136c5760405162461bcd60e51b815260206004820152601b60248201527a5661756c74207368617265206e6f74207265636f76657261626c6560281b6044820152606401610f63565b306001600160a01b038216036113c05760405162461bcd60e51b8152602060048201526019602482015278149958da5c1a595b9d0818d85b9b9bdd081899481d985d5b1d603a1b6044820152606401610f63565b60d4546001600160a01b03600160201b9091048116908316036114245760405162461bcd60e51b815260206004820152601c60248201527b53707265616420546f6b656e206e6f74207265636f76657261626c6560201b6044820152606401610f63565b6114a681836001600160a01b03166370a08231306040518263ffffffff1660e01b815260040161145491906151e3565b602060405180830381865afa158015611471573d6000803e3d6000fd5b505050506040513d601f19601f82011682018060405250810190611495919061541b565b6001600160a01b0385169190613274565b5050565b6060609a80546114b990615434565b80601f01602080910402602001604051908101604052809291908181526020018280546114e590615434565b80156115325780601f1061150757610100808354040283529160200191611532565b820191906000526020600020905b81548152906001019060200180831161151557829003601f168201915b5050505050905090565b60006115493384846132d7565b5060015b92915050565b60d7546001600160a01b0316331461157d5760405162461bcd60e51b8152600401610f639061546e565b60026001540361159f5760405162461bcd60e51b8152600401610f639061548f565b60026001556101005460d05460d38054604080516020808402820181019092528281526001600160681b03909416936000939092909183018282801561160e57602002820191906000526020600020905b81546001600160a01b031681526001909101906020018083116115f0575b505060cf5460d4549495506201000090046001600160681b0390811694600160201b90046001600160a01b0316935060009250829150861681036117225761165860fe54886133fb565b60fe82905560d15493985091965090945092506000906116829089906001600160801b03166154c6565b905061168d81613889565b60d180546001600160801b0319166001600160801b0383161790556000610100556116b7856138d3565b60cf805462010000600160781b031916620100006001600160681b038816021790556040516001600160a01b0385169033907fa791ce33e95f5df21d37ec5d288fe02046a80030931540eacf489b12f171251690611718908a908a906154d9565b60405180910390a3505b6117356001600160681b038716856154fb565b93505b6000881180156117485750600084115b156118785760008073684435C63770f73d9e9e7E63fC1848283aB7589463087aebc47f00000000000000000000000000000000000000000000000000000000000000007f00000000000000000000000000000000000000000000000000000000000000008a8a8a6040518663ffffffff1660e01b81526004016117cf95949392919061550e565b6040805180830381865af41580156117eb573d6000803e3d6000fd5b505050506040513d601f19601f8201168201806040525081019061180f9190615552565b909250905061181e82846154c6565b925061182b60018b6154fb565b60d054909a506118459082906001600160681b0316615576565b60d080546001600160681b0319166001600160681b039290921691909117905561186f81876154fb565b95505050611738565b60405163140e25ad60e31b8152600481018290526001600160a01b0384169063a0712d6890602401600060405180830381600087803b1580156118ba57600080fd5b505af11580156118ce573d6000803e3d6000fd5b50506001805550505050505050505050565b60006118ed84848461391d565b6001600160a01b0384166000908152609860209081526040808320338452909152902054828110156119725760405162461bcd60e51b815260206004820152602860248201527f45524332303a207472616e7366657220616d6f756e74206578636565647320616044820152676c6c6f77616e636560c01b6064820152608401610f63565b61197f85338584036132d7565b506001949350505050565b6002600154036119ac5760405162461bcd60e51b8152600401610f639061548f565b600260015533600090815260c96020526040902060cf5461ffff16826119e45760405162461bcd60e51b8152600401610f639061559d565b815461ffff168114611a285760405162461bcd60e51b815260206004820152600d60248201526c125b9d985b1a59081c9bdd5b99609a1b6044820152606401610f63565b81546201000090046001600160681b031683811015611a795760405162461bcd60e51b815260206004820152600d60248201526c115e18d9595908185b5bdd5b9d609a1b6044820152606401610f63565b611a8384826154fb565b83546001600160681b0391909116620100000262010000600160781b031990911617835560d054611ac69085906001600160801b03600160681b909104166154fb565b60d080546001600160801b0392909216600160681b02600160681b600160e81b031990921691909117905560405133907fab2daf3c146ca6416cbccd2a86ed2ba995e171ef6319df14a38aef01403a9c9690611b2590879086906152ea565b60405180910390a2611b373385613adb565b5050600180555050565b33611b4a6121a5565b6001600160a01b031614611b705760405162461bcd60e51b8152600401610f63906153e6565b6001600160a01b038116611bbc5760405162461bcd60e51b815260206004820152601360248201527210b732bba9ba3934b5b2a9b2b632b1ba34b7b760691b6044820152606401610f63565b60f980546001600160a01b0319166001600160a01b0392909216919091179055565b606060d260000180548060200260200160405190810160405280929190818152602001828054801561153257602002820191906000526020600020905b81546001600160a01b03168152600190910190602001808311611c1b575050505050905090565b600260015403611c645760405162461bcd60e51b8152600401610f639061548f565b600260015581611c865760405162461bcd60e51b8152600401610f639061559d565b6001600160a01b038116611c9957600080fd5b611ca38282613c3c565b60cc54611cc290630100000090046001600160a01b0316333085613ed6565b505060018055565b3360008181526098602090815260408083206001600160a01b03871684529091528120549091611549918590611d019086906154c6565b6132d7565b60cc5460009060ff620100009091041681611d44611d2360995490565b611d2b61245f565b60d054600160681b90046001600160801b031685613f0e565b9050611d59611d5285612568565b8284613f54565b949350505050565b33611d6a6121a5565b6001600160a01b031614611d905760405162461bcd60e51b8152600401610f63906153e6565b6001600160a01b038116611de15760405162461bcd60e51b815260206004820152601860248201527710b732bba7b83a34b7b739a83932b6b4bab6a83934b1b2b960411b6044820152606401610f63565b60f880546001600160a01b0319166001600160a01b0392909216919091179055565b33611e0c6121a5565b6001600160a01b031614611e325760405162461bcd60e51b8152600401610f63906153e6565b60008111611e6c5760405162461bcd60e51b81526020600482015260076024820152660216e65774361760cc1b6044820152606401610f63565b611e75816138d3565b60ce54604080516001600160681b039092168252602082018390527f5f86edbb9d92228a9edc3f0ebc0f001bda1ea345ac7335e0eeef3504b31d1a1c910160405180910390a160ce80546001600160681b0319166001600160681b0392909216919091179055565b60d7546001600160a01b03163314611f075760405162461bcd60e51b8152600401610f639061546e565b60008111611f435760405162461bcd60e51b8152602060048201526009602482015268216d696e507269636560b81b6044820152606401610f63565b60fb55565b606060d2600101805480602002602001604051908101604052809291908181526020018280548015611532576020028201919060005260206000209081546001600160a01b03168152600190910190602001808311611c1b575050505050905090565b60d7546001600160a01b03163314611fd55760405162461bcd60e51b8152600401610f639061546e565b600260015403611ff75760405162461bcd60e51b8152600401610f639061548f565b6002600155612004613f8e565b60018055565b60026001540361202c5760405162461bcd60e51b8152600401610f639061548f565b6002600181905550612004600060016140bb565b336120496121a5565b6001600160a01b03161461206f5760405162461bcd60e51b8152600401610f63906153e6565b61207d620f424060646153cf565b81106120c55760405162461bcd60e51b8152602060048201526017602482015276496e76616c696420706572666f726d616e63652066656560481b6044820152606401610f63565b7f24867dfb6fcb9970a07be21024956524abe7a1837faa903ff0e99aaa40cf893e60d854826040516120f89291906152ea565b60405180910390a160d855565b6001600160a01b031660009081526097602052604090205490565b336121296121a5565b6001600160a01b03161461214f5760405162461bcd60e51b8152600401610f63906153e6565b612159600061426c565b565b60026001540361217d5760405162461bcd60e51b8152600401610f639061548f565b600260015561218b816142be565b806101005461219a91906154c6565b610100555060018055565b6065546001600160a01b031690565b6060609b80546114b990615434565b60006121ff6121d160995490565b6121d961245f565b60d05460cc54600160681b9091046001600160801b03169062010000900460ff16613f0e565b905090565b6002600154036122265760405162461bcd60e51b8152600401610f639061548f565b6002600155806122655760405162461bcd60e51b815260206004820152600a602482015269216e756d526f756e647360b01b6044820152606401610f63565b60cf5461ffff1660005b828110156122f457600061228382846154c6565b600081815260ca6020526040902054909150156122d05760405162461bcd60e51b815260206004820152600b60248201526a125b9a5d1a585b1a5e995960aa1b6044820152606401610f63565b600090815260ca6020526040902060019055806122ec816155be565b91505061226f565b50506001805550565b3360009081526098602090815260408083206001600160a01b03861684529091528120548281101561237f5760405162461bcd60e51b815260206004820152602560248201527f45524332303a2064656372656173656420616c6c6f77616e63652062656c6f77604482015264207a65726f60d81b6064820152608401610f63565b61238c33858584036132d7565b5060019392505050565b3361239f6121a5565b6001600160a01b0316146123c55760405162461bcd60e51b8152600401610f63906153e6565b61012c8110156124125760405162461bcd60e51b815260206004820152601860248201527724b73b30b634b21030bab1ba34b7b710323ab930ba34b7b760411b6044820152606401610f63565b7f5acd982e2240ed224a69aa03dab039d3797c108e4b5f288cd7dd6ca181b275f360fc54826040516124459291906152ea565b60405180910390a160fc55565b600061154933848461391d565b60cc546040516370a0823160e01b8152600091630100000090046001600160a01b0316906370a08231906124979030906004016151e3565b602060405180830381865afa1580156124b4573d6000803e3d6000fd5b505050506040513d601f19601f820116820180604052508101906124d8919061541b565b60cf546121ff91906201000090046001600160681b03166154c6565b6002600154036125165760405162461bcd60e51b8152600401610f639061548f565b6002600155806125385760405162461bcd60e51b8152600401610f639061559d565b6125428133613c3c565b60cc5461256190630100000090046001600160a01b0316333084613ed6565b5060018055565b600080600061257684612e4b565b9092509050611d5981836154c6565b60d7546001600160a01b031633146125af5760405162461bcd60e51b8152600401610f639061546e565b6000811180156125ca57506125c6600a60646153cf565b8111155b6126095760405162461bcd60e51b815260206004820152601060248201526f125b9d985b1a5908191a5cd8dbdd5b9d60821b6044820152606401610f63565b7f4cd657fde404967d63a338fb06c5c98751a9df57dfae6dc333a432faf8a5f65660fa548260405161263c9291906152ea565b60405180910390a160fa55565b336126526121a5565b6001600160a01b0316146126785760405162461bcd60e51b8152600401610f63906153e6565b6001600160a01b0381166126bb5760405162461bcd60e51b815260206004820152600a60248201526910b732bba5b2b2b832b960b11b6044820152606401610f63565b60d780546001600160a01b0319166001600160a01b0392909216919091179055565b6002600154036126ff5760405162461bcd60e51b8152600401610f639061548f565b6002600155806127215760405162461bcd60e51b8152600401610f63906155d7565b6125618160006140bb565b336127356121a5565b6001600160a01b03161461275b5760405162461bcd60e51b8152600401610f63906153e6565b6001600160a01b0381166127a45760405162461bcd60e51b815260206004820152601060248201526f085b995dd19959549958da5c1a595b9d60821b6044820152606401610f63565b60d6546001600160a01b03908116908216036127fd5760405162461bcd60e51b8152602060048201526018602482015277135d5cdd081899481b995dc8199959549958da5c1a595b9d60421b6044820152606401610f63565b60d680546001600160a01b0319166001600160a01b0392909216919091179055565b6002600154036128415760405162461bcd60e51b8152600401610f639061548f565b600260015560d38054604080516020808402820181019092528281526000939092909183018282801561289d57602002820191906000526020600020905b81546001600160a01b0316815260019091019060200180831161287f575b505060d4546040805160e0810182526001600160a01b037f0000000000000000000000000000000000000000000000000000000000000000811682527f00000000000000000000000000000000000000000000000000000000000000008116602083015281830188905260006060830181905260f9548216608084015260fa5460a08401527f0000000000000000000000000000000000000000000000000000000000000000821660c0840152925163068bb40360e41b8152979850600160201b9093049092169591945092508291508190819073684435C63770f73d9e9e7E63fC1848283aB75894906368bb4030906129a190889060cc9060cf906004016155fb565b600060405180830381865af41580156129be573d6000803e3d6000fd5b505050506040513d6000823e601f3d908101601f191682016040526129e69190810190615761565b93509350935093507f8b2c6e7d4d72cff90224277b40c8404bbdedcede50c7449f6e4d231b5b11981b838383604051612a219392919061588a565b60405180910390a183600181518110612a3c57612a3c6158c8565b60200260200101516001600160a01b031663c52987cf6040518163ffffffff1660e01b8152600401602060405180830381865afa158015612a81573d6000803e3d6000fd5b505050506040513d601f19601f82011682018060405250810190612aa5919061541b565b84600081518110612ab857612ab86158c8565b60200260200101516001600160a01b031663c52987cf6040518163ffffffff1660e01b8152600401602060405180830381865afa158015612afd573d6000803e3d6000fd5b505050506040513d601f19601f82011682018060405250810190612b21919061541b565b10612b8e5760405162461bcd60e51b815260206004820152603760248201527f53686f727420746f6b656e206d7573742068617665206c65737320737472696b6044820152763290383934b1b2903a3432b7103637b733903a37b5b2b760491b6064820152608401610f63565b8351612ba19060d2906020870190614ff5565b5060d580546001600160a01b0319166001600160a01b0383161790556000612bc981426154c6565b905063ffffffff811115612c1a5760405162461bcd60e51b81526020600482015260186024820152774f766572666c6f77206e6578744f7074696f6e526561647960401b6044820152606401610f63565b60d4805463ffffffff191663ffffffff831617905560d080546001600160681b0319169055612c498888614470565b505060018055505050505050565b33612c606121a5565b6001600160a01b031614612c865760405162461bcd60e51b8152600401610f63906153e6565b6001600160a01b038116612ceb5760405162461bcd60e51b815260206004820152602660248201527f4f776e61626c653a206e6577206f776e657220697320746865207a65726f206160448201526564647265737360d01b6064820152608401610f63565b612cf48161426c565b50565b600260015403612d195760405162461bcd60e51b8152600401610f639061548f565b600260015560cc547f00000000000000000000000000000000000000000000000000000000000000006001600160a01b0390811663010000009092041614612d8e5760405162461bcd60e51b815260206004820152600860248201526721574e415449564560c01b6044820152606401610f63565b60003411612dc75760405162461bcd60e51b81526020600482015260066024820152652176616c756560d01b6044820152606401610f63565b612dd13433613c3c565b7f00000000000000000000000000000000000000000000000000000000000000006001600160a01b031663d0e30db0346040518263ffffffff1660e01b81526004016000604051808303818588803b158015612e2c57600080fd5b505af1158015612e40573d6000803e3d6000fd5b505060018055505050565b6001600160a01b038116600090815260c9602090815260408083208151606081018352905461ffff81168083526201000082046001600160681b031694830194909452600160781b90046001600160801b031691810191909152829160011115612ec357612eb884612105565b946000945092505050565b60cf54815161ffff908116600090815260ca602052604081205460cc549193612efa9386939116919062010000900460ff1661463a565b9050612f0585612105565b9590945092505050565b600260015403612f315760405162461bcd60e51b8152600401610f639061548f565b60026001556000612f406146ab565b90508060fe54612f5091906154fb565b6001600160801b031660fe555060018055565b33612f6c6121a5565b6001600160a01b031614612f925760405162461bcd60e51b8152600401610f63906153e6565b612fa0620f424060646153cf565b8110612fe75760405162461bcd60e51b8152602060048201526016602482015275496e76616c6964206d616e6167656d656e742066656560501b6044820152606401610f63565b600063031ba309612ffb620f4240846153cf565b61300591906158de565b90507f4e874b007ab14f7e263baefd44951834c8266f4f224d1092e49e9c254354cc5460d9548360405161303a9291906152ea565b60405180910390a160d95550565b600054610100900460ff1680613061575060005460ff16155b61307d5760405162461bcd60e51b8152600401610f63906152f8565b600054610100900460ff1615801561309f576000805461ffff19166101011790555b60405163c72733f760e01b815273684435C63770f73d9e9e7E63fC1848283aB758949063c72733f7906130e4908c908c908c908b908d908c908c908c9060040161595d565b60006040518083038186803b1580156130fc57600080fd5b505af4158015613110573d6000803e3d6000fd5b5050505061311c61486c565b61312684846148df565b61312e61495e565b61313789612c57565b60d780546001600160a01b03808b166001600160a01b03199283161790925560d68054928a169290911691909117905560d885905563031ba30961317e620f4240886153cf565b61318891906158de565b60d9558160cc6131988282615aa5565b505060cc546040516370a0823160e01b8152600091630100000090046001600160a01b0316906370a08231906131d29030906004016151e3565b602060405180830381865afa1580156131ef573d6000803e3d6000fd5b505050506040513d601f19601f82011682018060405250810190613213919061541b565b905061321e816138d3565b60cf805461ffff196001600160681b03909316600160781b029290921661ffff600160781b03600160e01b03199092169190911760011790558015613269576000805461ff00191690555b505050505050505050565b6040516001600160a01b03831660248201526044810182905261127f90849063a9059cbb60e01b906064015b60408051601f198184030181529190526020810180516001600160e01b03166001600160e01b0319909316929092179091526149c5565b6001600160a01b0383166133395760405162461bcd60e51b8152602060048201526024808201527f45524332303a20617070726f76652066726f6d20746865207a65726f206164646044820152637265737360e01b6064820152608401610f63565b6001600160a01b03821661339a5760405162461bcd60e51b815260206004820152602260248201527f45524332303a20617070726f766520746f20746865207a65726f206164647265604482015261737360f01b6064820152608401610f63565b6001600160a01b0383811660008181526098602090815260408083209487168084529482529182902085905590518481527f8c5be1e5ebec7d5bd14f71427d1e84f3dd0314c0f7b2291e5b200ac8c7c3b925910160405180910390a3505050565b60d4546060906000908190819063ffffffff164210156134465760405162461bcd60e51b815260206004820152600660248201526521726561647960d01b6044820152606401610f63565b60d280546040805160208084028201810190925282815292919083018282801561349957602002820191906000526020600020905b81546001600160a01b0316815260019091019060200180831161347b575b505060d55484519498506001600160a01b03169450600093889350849250151590506134c7576134c76158c8565b60200260200101516001600160a01b0316036135155760405162461bcd60e51b815260206004820152600d60248201526c0216e657874537072656164203609c1b6044820152606401610f63565b60006001600160a01b031684600181518110613533576135336158c8565b60200260200101516001600160a01b0316036135815760405162461bcd60e51b815260206004820152600d60248201526c216e657874537072656164203160981b6044820152606401610f63565b6001600160a01b0381166135c65760405162461bcd60e51b815260206004820152600c60248201526b10b9b83932b0b22a37b5b2b760a11b6044820152606401610f63565b60d6546040805160e08101825260cc5460ff62010000820416825291516370a0823160e01b81526001600160a01b039384169360009384938493849373684435C63770f73d9e9e7E63fC1848283aB758949363c8128b659360cf93909260208401926301000000900416906370a08231906136459030906004016151e3565b602060405180830381865afa158015613662573d6000803e3d6000fd5b505050506040513d601f19601f82011682018060405250810190613686919061541b565b815260200161369460995490565b81526020018f815260200160d854815260200160d95481526020018e8152506040518363ffffffff1660e01b815260040161372192919060006101008201905083825282516020830152602083015160408301526040830151606083015260608301516080830152608083015160a083015260a083015160c083015260c083015160e08301529392505050565b60c060405180830381865af415801561373e573d6000803e3d6000fd5b505050506040513d601f19601f820116820180604052508101906137629190615be5565b8e51959d50939b50909750955090935091506137859060d39060208c0190614ff5565b5060d48054600160201b600160c01b031916600160201b6001600160a01b0389160217905560d580546001600160a01b03191690556137c660d2600061505a565b60cf5461ffff16600081815260ca602090815260409182902084905581518681529081018590529081018290526001600160a01b038716907f0a242f7ecaf711036ca770774ceffae28e60ef042ac113ddd187f2631db0c0069060600160405180910390a260d08054600160681b600160e81b03191690556138498160016154c6565b60cf805461ffff191661ffff929092169190911790555061386c90503084614a97565b801561387c5761387c8482613adb565b5050505092959194509250565b6001600160801b03811115612cf45760405162461bcd60e51b815260206004820152601060248201526f09eeccae4ccd8deee40ead2dce86264760831b6044820152606401610f63565b6001600160681b03811115612cf45760405162461bcd60e51b815260206004820152601060248201526f13dd995c999b1bddc81d5a5b9d0c4c0d60821b6044820152606401610f63565b6001600160a01b0383166139815760405162461bcd60e51b815260206004820152602560248201527f45524332303a207472616e736665722066726f6d20746865207a65726f206164604482015264647265737360d81b6064820152608401610f63565b6001600160a01b0382166139e35760405162461bcd60e51b815260206004820152602360248201527f45524332303a207472616e7366657220746f20746865207a65726f206164647260448201526265737360e81b6064820152608401610f63565b6001600160a01b03831660009081526097602052604090205481811015613a5b5760405162461bcd60e51b815260206004820152602660248201527f45524332303a207472616e7366657220616d6f756e7420657863656564732062604482015265616c616e636560d01b6064820152608401610f63565b6001600160a01b03808516600090815260976020526040808220858503905591851681529081208054849290613a929084906154c6565b92505081905550826001600160a01b0316846001600160a01b0316600080516020615e8d83398151915284604051613acc91815260200190565b60405180910390a35b50505050565b60cc546001600160a01b0363010000009091048116907f0000000000000000000000000000000000000000000000000000000000000000168103613c2857604051632e1a7d4d60e01b8152600481018390527f00000000000000000000000000000000000000000000000000000000000000006001600160a01b031690632e1a7d4d90602401600060405180830381600087803b158015613b7b57600080fd5b505af1158015613b8f573d6000803e3d6000fd5b505050506000836001600160a01b03168360405160006040518083038185875af1925050503d8060008114613be0576040519150601f19603f3d011682016040523d82523d6000602084013e613be5565b606091505b5050905080613ad55760405162461bcd60e51b815260206004820152600f60248201526e151c985b9cd9995c8819985a5b1959608a1b6044820152606401610f63565b61127f6001600160a01b0382168484613274565b60cf5461ffff16600083613c4e61245f565b613c5891906154c6565b60ce549091506001600160681b0316811115613ca35760405162461bcd60e51b815260206004820152600a6024820152690457863656564206361760b41b6044820152606401610f63565b60cd54600160a01b900466ffffffffffffff16811015613cfc5760405162461bcd60e51b8152602060048201526014602482015273496e73756666696369656e742062616c616e636560601b6044820152606401610f63565b826001600160a01b03167f90890809c654f11d6e72a28fa60149770a0d11ec6c92319d6ceb2bb0a4ea1a158584604051613d379291906152ea565b60405180910390a26001600160a01b038316600090815260c9602090815260408083208151606081018352905461ffff8116808352620100008083046001600160681b031684870152600160781b9092046001600160801b031683850152855260ca9093529083205460cc54919392613db9928592889290910460ff1661463a565b8251909150869061ffff168503613de95760008784602001516001600160681b0316613de591906154c6565b9150505b613df2816138d3565b6040805160608101825261ffff80881682526001600160681b0380851660208085019182526001600160801b038089168688019081526001600160a01b038e16600090815260c990935296822095518654935197518216600160781b02600160781b600160f81b03199890951662010000026001600160781b031990941695169490941791909117949094161790915560d054613e98918a91600160681b9004166154c6565b9050613ea381613889565b60d080546001600160801b03909216600160681b02600160681b600160e81b031990921691909117905550505050505050565b6040516001600160a01b0380851660248301528316604482015260648101829052613ad59085906323b872dd60e01b906084016132a0565b600080613f1c83600a615d13565b905060008611613f2c5780613f4a565b613f4a86613f44613f3d8888614b64565b8490614b77565b90614b83565b9695505050505050565b600060018311613f765760405162461bcd60e51b8152600401610f6390615d1f565b611d59613f8483600a615d13565b613f448686614b77565b6040805160c08101825260d4546001600160a01b03600160201b90910481168083527f000000000000000000000000000000000000000000000000000000000000000082166020840190815260cc5463010000008104841685870190815260ff62010000909204919091166060860190815260fb546080870190815260fc5460a088019081529751633baf17fd60e21b8152875187166004820152935186166024850152915190941660448301529251606482015291516084830152925160a482015290919073684435C63770f73d9e9e7E63fC1848283aB758949063eebc5ff49060c401602060405180830381865af4158015614090573d6000803e3d6000fd5b505050506040513d601f19601f820116820180604052508101906140b4919061541b565b60fd555050565b33600090815260c9602090815260408083208151606081018352905461ffff808216808452620100008084046001600160681b031685880152600160781b9093046001600160801b03168486015260cf5490875260ca9095529285205460cc5492959490931693926141359286928692910460ff1661463a565b9050836141425784614144565b805b945084600003614155575050505050565b808511156141995760405162461bcd60e51b81526020600482015260116024820152704578636565647320617661696c61626c6560781b6044820152606401610f63565b825161ffff168211156141c65733600090815260c960205260409020805462010000600160781b03191690555b6141cf85613889565b6141d985826154fb565b33600081815260c960205260409081902080546001600160801b0394909416600160781b02600160781b600160f81b0319909416939093179092558451915190917fe5b754fb1abb7f01b499791d0b820ae3b6af3424ac1c59768edb53f4ec31a929916142529189825261ffff16602082015260400190565b60405180910390a261426530338761391d565b5050505050565b606580546001600160a01b038381166001600160a01b0319831681179093556040519116919082907f8be0079c531659141344cd1fd0a4f28419497f9722a3daafe3b4186f6b6457e090600090a35050565b600081116142de5760405162461bcd60e51b8152600401610f63906155d7565b33600090815260c960205260409020546201000090046001600160681b0316151580614328575033600090815260c96020526040902054600160781b90046001600160801b031615155b1561433957614339600060016140bb565b60cf5433600081815260cb6020526040908190208054915161ffff948516949193919092168414917f0c53c82ad07e2d592d88ece3b066777dd60f1118e2a081b380efc4358f0d9e2a9061439090879087906152ea565b60405180910390a281546201000090046001600160801b0316600082156143c2576143bb86836154c6565b9050614425565b81156144045760405162461bcd60e51b81526020600482015260116024820152704578697374696e6720776974686472617760781b6044820152606401610f63565b5033600090815260cb60205260409020805461ffff191661ffff8616179055845b61442e81613889565b33600081815260cb60205260409020805462010000600160901b031916620100006001600160801b0385160217905561446890308861391d565b505050505050565b60cf548251620100009091046001600160681b031690158015906144c1575060006001600160a01b0316836000815181106144ad576144ad6158c8565b60200260200101516001600160a01b031614155b156144eb5760cf8054600160781b600160e01b031916600160781b6001600160681b038416021790555b60cf805462010000600160781b031916905561450960d3600061505a565b60008351118015614547575060006001600160a01b031683600081518110614533576145336158c8565b60200260200101516001600160a01b031614155b1561127f57604051630499725b60e31b81526001600160a01b037f0000000000000000000000000000000000000000000000000000000000000000811660048301528316602482015260009073684435C63770f73d9e9e7E63fC1848283aB75894906324cb92d890604401602060405180830381865af41580156145cf573d6000803e3d6000fd5b505050506040513d601f19601f820116820180604052508101906145f3919061541b565b9050826001600160a01b0316336001600160a01b03167f9b8941400c12b7c3e5e1346cc27f63b2067832b71616b00a9abb91526b75fb7b8684604051613acc9291906154d9565b835160009061ffff16158015906146555750845161ffff1684115b1561469757600061467486602001516001600160681b03168585614b8f565b604087015190915061468f906001600160801b031682614bca565b915050611d59565b50505050604001516001600160801b031690565b33600090815260cb6020526040812080546001600160801b03620100008204169061ffff168161470d5760405162461bcd60e51b815260206004820152600d60248201526c139bdd081a5b9a5d1a585d1959609a1b6044820152606401610f63565b60cf5461ffff1681106147555760405162461bcd60e51b815260206004820152601060248201526f149bdd5b99081b9bdd0818db1bdcd95960821b6044820152606401610f63565b33600090815260cb60205260409020805462010000600160901b031916905560d15461478b9083906001600160801b03166154fb565b60d180546001600160801b0319166001600160801b0392909216919091179055600081815260ca602052604081205460cc546147d191859162010000900460ff16613f54565b9050336001600160a01b03167ff279e6a1f5e320cca91135676d9cb6e44ca8a08c0b88342bcdb1144f6511b568828560405161480e9291906152ea565b60405180910390a26148203084614bd6565b600081116148625760405162461bcd60e51b815260206004820152600f60248201526e085dda5d1a191c985dd05b5bdd5b9d608a1b6044820152606401610f63565b611d593382613adb565b600054610100900460ff1680614885575060005460ff16155b6148a15760405162461bcd60e51b8152600401610f63906152f8565b600054610100900460ff161580156148c3576000805461ffff19166101011790555b6148cb614d12565b8015612cf4576000805461ff001916905550565b600054610100900460ff16806148f8575060005460ff16155b6149145760405162461bcd60e51b8152600401610f63906152f8565b600054610100900460ff16158015614936576000805461ffff19166101011790555b61493e614d81565b6149488383614deb565b801561127f576000805461ff0019169055505050565b600054610100900460ff1680614977575060005460ff16155b6149935760405162461bcd60e51b8152600401610f63906152f8565b600054610100900460ff161580156149b5576000805461ffff19166101011790555b6149bd614d81565b6148cb614e72565b6000614a1a826040518060400160405280602081526020017f5361666545524332303a206c6f772d6c6576656c2063616c6c206661696c6564815250856001600160a01b0316614ed29092919063ffffffff16565b80519091501561127f5780806020019051810190614a389190615d4e565b61127f5760405162461bcd60e51b815260206004820152602a60248201527f5361666545524332303a204552433230206f7065726174696f6e20646964206e6044820152691bdd081cdd58d8d9595960b21b6064820152608401610f63565b6001600160a01b038216614aed5760405162461bcd60e51b815260206004820152601f60248201527f45524332303a206d696e7420746f20746865207a65726f2061646472657373006044820152606401610f63565b8060996000828254614aff91906154c6565b90915550506001600160a01b03821660009081526097602052604081208054839290614b2c9084906154c6565b90915550506040518181526001600160a01b03831690600090600080516020615e8d8339815191529060200160405180910390a35050565b6000614b7082846154fb565b9392505050565b6000614b7082846153cf565b6000614b7082846158de565b600060018311614bb15760405162461bcd60e51b8152600401610f6390615d1f565b611d5983613f44614bc385600a615d13565b8790614b77565b6000614b7082846154c6565b6001600160a01b038216614c365760405162461bcd60e51b815260206004820152602160248201527f45524332303a206275726e2066726f6d20746865207a65726f206164647265736044820152607360f81b6064820152608401610f63565b6001600160a01b03821660009081526097602052604090205481811015614caa5760405162461bcd60e51b815260206004820152602260248201527f45524332303a206275726e20616d6f756e7420657863656564732062616c616e604482015261636560f01b6064820152608401610f63565b6001600160a01b0383166000908152609760205260408120838303905560998054849290614cd99084906154fb565b90915550506040518281526000906001600160a01b03851690600080516020615e8d8339815191529060200160405180910390a3505050565b600054610100900460ff1680614d2b575060005460ff16155b614d475760405162461bcd60e51b8152600401610f63906152f8565b600054610100900460ff16158015614d69576000805461ffff19166101011790555b600180558015612cf4576000805461ff001916905550565b600054610100900460ff1680614d9a575060005460ff16155b614db65760405162461bcd60e51b8152600401610f63906152f8565b600054610100900460ff161580156148cb576000805461ffff19166101011790558015612cf4576000805461ff001916905550565b600054610100900460ff1680614e04575060005460ff16155b614e205760405162461bcd60e51b8152600401610f63906152f8565b600054610100900460ff16158015614e42576000805461ffff19166101011790555b609a614e4e8482615db1565b50609b614e5b8382615db1565b50801561127f576000805461ff0019169055505050565b600054610100900460ff1680614e8b575060005460ff16155b614ea75760405162461bcd60e51b8152600401610f63906152f8565b600054610100900460ff16158015614ec9576000805461ffff19166101011790555b6148cb3361426c565b6060611d59848460008585600080866001600160a01b03168587604051614ef99190615e70565b60006040518083038185875af1925050503d8060008114614f36576040519150601f19603f3d011682016040523d82523d6000602084013e614f3b565b606091505b5091509150614f4c87838387614f57565b979650505050505050565b60608315614fc6578251600003614fbf576001600160a01b0385163b614fbf5760405162461bcd60e51b815260206004820152601d60248201527f416464726573733a2063616c6c20746f206e6f6e2d636f6e74726163740000006044820152606401610f63565b5081611d59565b611d598383815115614fdb5781518083602001fd5b8060405162461bcd60e51b8152600401610f639190615197565b82805482825590600052602060002090810192821561504a579160200282015b8281111561504a57825182546001600160a01b0319166001600160a01b03909116178255602090920191600190910190615015565b50615056929150615074565b5090565b5080546000825590600052602060002090810190612cf491905b5b808211156150565760008155600101615075565b60008082840361010081121561509e57600080fd5b83356001600160401b038111156150b457600080fd5b840161016081870312156150c757600080fd5b925060e0601f19820112156150db57600080fd5b506020830190509250929050565b6001600160a01b0381168114612cf457600080fd5b8035615109816150e9565b919050565b6000806040838503121561512157600080fd5b823561512c816150e9565b9150602083013561513c816150e9565b809150509250929050565b60005b8381101561516257818101518382015260200161514a565b50506000910152565b60008151808452615183816020860160208601615147565b601f01601f19169290920160200192915050565b602081526000614b70602083018461516b565b600080604083850312156151bd57600080fd5b82356151c8816150e9565b946020939093013593505050565b6001600160a01b03169052565b6001600160a01b0391909116815260200190565b60006020828403121561520957600080fd5b5035919050565b60008060006060848603121561522557600080fd5b8335615230816150e9565b92506020840135615240816150e9565b929592945050506040919091013590565b60006020828403121561526357600080fd5b8135614b70816150e9565b600081518084526020808501945080840160005b838110156152a75781516001600160a01b031687529582019590820190600101615282565b509495945050505050565b602081526000614b70602083018461526e565b600080604083850312156152d857600080fd5b82359150602083013561513c816150e9565b918252602082015260400190565b6020808252602e908201527f496e697469616c697a61626c653a20636f6e747261637420697320616c72656160408201526d191e481a5b9a5d1a585b1a5e995960921b606082015260800190565b6000808335601e1984360301811261535d57600080fd5b8301803591506001600160401b0382111561537757600080fd5b60200191503681900382131561538c57600080fd5b9250929050565b6000602082840312156153a557600080fd5b813563ffffffff81168114614b7057600080fd5b634e487b7160e01b600052601160045260246000fd5b808202811582820484141761154d5761154d6153b9565b6020808252818101527f4f776e61626c653a2063616c6c6572206973206e6f7420746865206f776e6572604082015260600190565b60006020828403121561542d57600080fd5b5051919050565b600181811c9082168061544857607f821691505b60208210810361546857634e487b7160e01b600052602260045260246000fd5b50919050565b60208082526007908201526610b5b2b2b832b960c91b604082015260600190565b6020808252601f908201527f5265656e7472616e637947756172643a207265656e7472616e742063616c6c00604082015260600190565b8082018082111561154d5761154d6153b9565b6040815260006154ec604083018561526e565b90508260208301529392505050565b8181038181111561154d5761154d6153b9565b600060018060a01b038088168352808716602084015260a0604084015261553860a084018761526e565b606084019590955292909216608090910152509392505050565b6000806040838503121561556557600080fd5b505080516020909101519092909150565b6001600160681b03818116838216019080821115615596576155966153b9565b5092915050565b60208082526007908201526608585b5bdd5b9d60ca1b604082015260600190565b6000600182016155d0576155d06153b9565b5060010190565b6020808252600a9082015269216e756d53686172657360b01b604082015260600190565b60608152600060018060a01b03808651166060840152806020870151166080840152604086015160e060a085015261563761014085018261526e565b9050606087015160c08501528160808801511660e085015260a087015161010085015260c0870151915061566f6101208501836151d6565b6020840195909552505060400152919050565b634e487b7160e01b600052604160045260246000fd5b604051601f8201601f191681016001600160401b03811182821017156156c0576156c0615682565b604052919050565b60006001600160401b038211156156e1576156e1615682565b5060051b60200190565b8051615109816150e9565b600082601f83011261570757600080fd5b8151602061571c615717836156c8565b615698565b82815260059290921b8401810191818101908684111561573b57600080fd5b8286015b84811015615756578051835291830191830161573f565b509695505050505050565b6000806000806080858703121561577757600080fd5b84516001600160401b038082111561578e57600080fd5b818701915087601f8301126157a257600080fd5b815160206157b2615717836156c8565b82815260059290921b8401810191818101908b8411156157d157600080fd5b948201945b838610156157f85785516157e9816150e9565b825294820194908201906157d6565b918a015191985090935050508082111561581157600080fd5b61581d888389016156f6565b9450604087015191508082111561583357600080fd5b50615840878288016156f6565b92505061584f606086016156eb565b905092959194509250565b600081518084526020808501945080840160005b838110156152a75781518752958201959082019060010161586e565b60608152600061589d606083018661585a565b82810360208401526158af818661585a565b91505060018060a01b0383166040830152949350505050565b634e487b7160e01b600052603260045260246000fd5b6000826158fb57634e487b7160e01b600052601260045260246000fd5b500490565b8015158114612cf457600080fd5b60ff81168114612cf457600080fd5b66ffffffffffffff81168114612cf457600080fd5b80356151098161591d565b6001600160681b0381168114612cf457600080fd5b80356151098161593d565b6001600160a01b03898116825288811660208301528716604082015260608101869052608081018590526101c060a082018190526000906159a08382018761516b565b905082810360c08401526159b4818661516b565b91505082356159c281615900565b151560e083015260208301356159d781615900565b151561010083015260408301356159ed8161590e565b60ff16610120830152615a02606084016150fe565b615a106101408401826151d6565b50615a1d608084016150fe565b615a2b6101608401826151d6565b50615a3860a08401615932565b66ffffffffffffff16610180830152615a5360c08401615952565b6001600160681b0381166101a0840152509998505050505050505050565b6000813561154d8161590e565b6000813561154d816150e9565b6000813561154d8161591d565b6000813561154d8161593d565b8135615ab081615900565b815460ff19811691151560ff1691821783556020840135615ad081615900565b61ffff199190911690911790151560081b61ff0016178155615b0f615af760408401615a71565b825462ff0000191660109190911b62ff000016178255565b615b48615b1e60608401615a7e565b8280546301000000600160b81b03191660189290921b6301000000600160b81b0316919091179055565b60018101615b78615b5b60808501615a7e565b82546001600160a01b0319166001600160a01b0391909116178255565b615bb1615b8760a08501615a8b565b828054600160a01b600160d81b03191660a09290921b600160a01b600160d81b0316919091179055565b506114a6615bc160c08401615a98565b6002830180546001600160681b0319166001600160681b0392909216919091179055565b60008060008060008060c08789031215615bfe57600080fd5b865195506020870151945060408701519350606087015192506080870151915060a087015190509295509295509295565b600181815b80851115615c6a578160001904821115615c5057615c506153b9565b80851615615c5d57918102915b93841c9390800290615c34565b509250929050565b600082615c815750600161154d565b81615c8e5750600061154d565b8160018114615ca45760028114615cae57615cca565b600191505061154d565b60ff841115615cbf57615cbf6153b9565b50506001821b61154d565b5060208310610133831016604e8410600b8410161715615ced575081810a61154d565b615cf78383615c2f565b8060001904821115615d0b57615d0b6153b9565b029392505050565b6000614b708383615c72565b602080825260159082015274496e76616c6964206173736574506572536861726560581b604082015260600190565b600060208284031215615d6057600080fd5b8151614b7081615900565b601f82111561127f57600081815260208120601f850160051c81016020861015615d925750805b601f850160051c820191505b8181101561446857828155600101615d9e565b81516001600160401b03811115615dca57615dca615682565b615dde81615dd88454615434565b84615d6b565b602080601f831160018114615e135760008415615dfb5750858301515b600019600386901b1c1916600185901b178555614468565b600085815260208120601f198616915b82811015615e4257888601518255948401946001909101908401615e23565b5085821015615e605787850151600019600388901b60f8161c191681555b5050505050600190811b01905550565b60008251615e82818460208701615147565b919091019291505056feddf252ad1be2c89b69c2b068fc378daa952ba7f163c4a11628f55a4df523b3efa264697066735822122041c9f4afcabac9c3e28684e420bd48257a4f060a4e2d73c33922b5b81c4bab1b64736f6c63430008110033",
  "deployedBytecode": "0x6080604052600436106103615760003560e01c8062ffa9af14610366578063056097ac1461038857806306fdde03146103a8578063095ea7b3146103d35780630cbf54c81461040357806318160ddd146104275780631a92f6c21461043c5780631b60612a1461047d57806323b872dd1461049d5780632728f333146104bd5780632775d01c1461055f57806330630da41461057f578063313ce5671461059f57806333aaee5b146105ca578063355274ea146105ec57806336efd16f1461060a578063395093511461062a5780633f23bb731461064a5780633f90916a1461066a578063432833a61461068f5780634603c0aa146106a557806346904840146106c557806347786d37146106e55780634b2431d914610705578063503c70aa1461071c5780635ea8cd12146107325780636152137d14610752578063650cce8a146107675780636719b2ee1461079b57806369b411701461081f5780636b64c769146108345780636c10f66c146108495780636f31ab341461087d57806370897b231461089257806370a08231146108b2578063715018a6146108d25780637a9262a2146108e75780637e108d521461094b57806383536ff31461096b57806387153eb11461098157806387788782146109ae57806389a30271146109c45780638da5cb5b146109f8578063947061b514610a0d57806395d89b4114610a2e57806399530b0614610a435780639be43daa14610a585780639f0bf18214610a785780639fcc2d7514610aac578063a285c9e814610b6b578063a457c2d714610b86578063a497e67414610ba6578063a6f7f5d614610bc6578063a9059cbb14610bdc578063aced166114610bfc578063ad7a672f14610c1c578063afa6626414610c31578063b381cf4014610c51578063b4d1d79514610c85578063b6b55f2514610c9c578063ce7c2ac214610cbc578063d13f1b3e14610cdc578063d164cc1514610cfc578063d5f2638214610d1c578063db006a7514610d32578063db43e86214610d52578063dd62ed3e14610d86578063e74b981b14610dcc578063ea00b1ca14610dec578063f2fde38b14610e01578063f3f140e214610e21578063f6326fb314610e83578063f656ba5114610e8b578063f756fa2114610eb9578063f957a06714610ece578063fba7dc6114610eee578063fe56e23214610f0e575b600080fd5b34801561037257600080fd5b50610386610381366004615089565b610f2e565b005b34801561039457600080fd5b506103866103a336600461510e565b611284565b3480156103b457600080fd5b506103bd6114aa565b6040516103ca9190615197565b60405180910390f35b3480156103df57600080fd5b506103f36103ee3660046151aa565b61153c565b60405190151581526020016103ca565b34801561040f57600080fd5b5061041960fc5481565b6040519081526020016103ca565b34801561043357600080fd5b50609954610419565b34801561044857600080fd5b506104707f000000000000000000000000000000000000000000000000000000000000000081565b6040516103ca91906151e3565b34801561048957600080fd5b506103866104983660046151f7565b611553565b3480156104a957600080fd5b506103f36104b8366004615210565b6118e0565b3480156104c957600080fd5b5060cf5460d05460d1546105149261ffff8116926001600160681b03620100008304811693600160781b909304811692908216916001600160801b03600160681b9091048116911686565b6040805161ffff90971687526001600160681b03958616602088015293851693860193909352921660608401526001600160801b0391821660808401521660a082015260c0016103ca565b34801561056b57600080fd5b5061038661057a3660046151f7565b61198a565b34801561058b57600080fd5b5061038661059a366004615251565b611b41565b3480156105ab57600080fd5b5060cc5462010000900460ff1660405160ff90911681526020016103ca565b3480156105d657600080fd5b506105df611bde565b6040516103ca91906152b2565b3480156105f857600080fd5b5060ce546001600160681b0316610419565b34801561061657600080fd5b506103866106253660046152c5565b611c42565b34801561063657600080fd5b506103f36106453660046151aa565b611cca565b34801561065657600080fd5b50610419610665366004615251565b611d06565b34801561067657600080fd5b5060d054600160681b90046001600160801b0316610419565b34801561069b57600080fd5b5061041960fd5481565b3480156106b157600080fd5b506103866106c0366004615251565b611d61565b3480156106d157600080fd5b5060d654610470906001600160a01b031681565b3480156106f157600080fd5b506103866107003660046151f7565b611e03565b34801561071157600080fd5b506104196101005481565b34801561072857600080fd5b5061041960fe5481565b34801561073e57600080fd5b5061038661074d3660046151f7565b611edd565b34801561075e57600080fd5b506105df611f48565b34801561077357600080fd5b506104707f000000000000000000000000000000000000000000000000000000000000000081565b3480156107a757600080fd5b506107ee6107b6366004615251565b60c96020526000908152604090205461ffff8116906201000081046001600160681b031690600160781b90046001600160801b031683565b6040805161ffff90941684526001600160681b0390921660208401526001600160801b0316908201526060016103ca565b34801561082b57600080fd5b50610419600081565b34801561084057600080fd5b50610386611fab565b34801561085557600080fd5b506104707f000000000000000000000000000000000000000000000000000000000000000081565b34801561088957600080fd5b5061038661200a565b34801561089e57600080fd5b506103866108ad3660046151f7565b612040565b3480156108be57600080fd5b506104196108cd366004615251565b612105565b3480156108de57600080fd5b50610386612120565b3480156108f357600080fd5b50610929610902366004615251565b60cb6020526000908152604090205461ffff8116906201000090046001600160801b031682565b6040805161ffff90931683526001600160801b039091166020830152016103ca565b34801561095757600080fd5b506103866109663660046151f7565b61215b565b34801561097757600080fd5b5061041960fa5481565b34801561098d57600080fd5b5061041961099c3660046151f7565b60ca6020526000908152604090205481565b3480156109ba57600080fd5b5061041960d85481565b3480156109d057600080fd5b506104707f000000000000000000000000000000000000000000000000000000000000000081565b348015610a0457600080fd5b506104706121a5565b348015610a1957600080fd5b5061010154610470906001600160a01b031681565b348015610a3a57600080fd5b506103bd6121b4565b348015610a4f57600080fd5b506104196121c3565b348015610a6457600080fd5b50610386610a733660046151f7565b612204565b348015610a8457600080fd5b506104707f000000000000000000000000000000000000000000000000000000000000000081565b348015610ab857600080fd5b5060cc5460cd5460ce54610b129260ff80821693610100830482169362010000840490921692630100000090046001600160a01b039081169290821691600160a01b900466ffffffffffffff16906001600160681b031687565b604080519715158852951515602088015260ff909416948601949094526001600160a01b03918216606086015216608084015266ffffffffffffff90911660a08301526001600160681b031660c082015260e0016103ca565b348015610b7757600080fd5b5060d45463ffffffff16610419565b348015610b9257600080fd5b506103f3610ba13660046151aa565b6122fd565b348015610bb257600080fd5b50610386610bc13660046151f7565b612396565b348015610bd257600080fd5b5061041960d95481565b348015610be857600080fd5b506103f3610bf73660046151aa565b612452565b348015610c0857600080fd5b5060d754610470906001600160a01b031681565b348015610c2857600080fd5b5061041961245f565b348015610c3d57600080fd5b5060f854610470906001600160a01b031681565b348015610c5d57600080fd5b506104707f000000000000000000000000000000000000000000000000000000000000000081565b348015610c9157600080fd5b5061041962093a8081565b348015610ca857600080fd5b50610386610cb73660046151f7565b6124f4565b348015610cc857600080fd5b50610419610cd7366004615251565b612568565b348015610ce857600080fd5b50610386610cf73660046151f7565b612585565b348015610d0857600080fd5b50610386610d17366004615251565b612649565b348015610d2857600080fd5b5061041960fb5481565b348015610d3e57600080fd5b50610386610d4d3660046151f7565b6126dd565b348015610d5e57600080fd5b506104707f000000000000000000000000000000000000000000000000000000000000000081565b348015610d9257600080fd5b50610419610da136600461510e565b6001600160a01b03918216600090815260986020908152604080832093909416825291909152205490565b348015610dd857600080fd5b50610386610de7366004615251565b61272c565b348015610df857600080fd5b5061038661281f565b348015610e0d57600080fd5b50610386610e1c366004615251565b612c57565b348015610e2d57600080fd5b5060d45460d554610e579163ffffffff8116916001600160a01b03600160201b9092048216911683565b6040805163ffffffff90941684526001600160a01b0392831660208501529116908201526060016103ca565b610386612cf7565b348015610e9757600080fd5b50610eab610ea6366004615251565b612e4b565b6040516103ca9291906152ea565b348015610ec557600080fd5b50610386612f0f565b348015610eda57600080fd5b5060f954610470906001600160a01b031681565b348015610efa57600080fd5b5060ff54610470906001600160a01b031681565b348015610f1a57600080fd5b50610386610f293660046151f7565b612f63565b600054610100900460ff1680610f47575060005460ff16155b610f6c5760405162461bcd60e51b8152600401610f63906152f8565b60405180910390fd5b600054610100900460ff16158015610f8e576000805461ffff19166101011790555b611053610f9e6020850185615251565b610fae6040860160208701615251565b610fbe6060870160408801615251565b60608701356080880135610fd560a08a018a615346565b8080601f0160208091040260200160405190810160405280939291908181526020018383808284376000920191909152506110179250505060c08b018b615346565b8080601f0160208091040260200160405190810160405280939291908181526020018383808284376000920191909152508c9250613048915050565b6000611066610100850160e08601615251565b6001600160a01b0316036110b55760405162461bcd60e51b815260206004820152601660248201527510afb7b83a34b7b739a83932b6b4bab6a83934b1b2b960511b6044820152606401610f63565b60006110c961012085016101008601615251565b6001600160a01b0316036111135760405162461bcd60e51b815260206004820152601160248201527010afb9ba3934b5b2a9b2b632b1ba34b7b760791b6044820152606401610f63565b600061112761014085016101208601615393565b63ffffffff1611801561115b5750611141600a60646153cf565b61115361014085016101208601615393565b63ffffffff16105b61119b5760405162461bcd60e51b81526020600482015260116024820152700857dc1c995b5a5d5b511a5cd8dbdd5b9d607a1b6044820152606401610f63565b61012c83610140013510156111e65760405162461bcd60e51b815260206004820152601160248201527010afb0bab1ba34b7b7223ab930ba34b7b760791b6044820152606401610f63565b6111f7610100840160e08501615251565b60f880546001600160a01b0319166001600160a01b039290921691909117905561122961012084016101008501615251565b60f980546001600160a01b0319166001600160a01b039290921691909117905561125b61014084016101208501615393565b63ffffffff1660fa5561014083013560fc55801561127f576000805461ff00191690555b505050565b3361128d6121a5565b6001600160a01b0316146112b35760405162461bcd60e51b8152600401610f63906153e6565b60cc546001600160a01b0363010000009091048116908316036113165760405162461bcd60e51b815260206004820152601b60248201527a5661756c74206173736574206e6f74207265636f76657261626c6560281b6044820152606401610f63565b306001600160a01b0383160361136c5760405162461bcd60e51b815260206004820152601b60248201527a5661756c74207368617265206e6f74207265636f76657261626c6560281b6044820152606401610f63565b306001600160a01b038216036113c05760405162461bcd60e51b8152602060048201526019602482015278149958da5c1a595b9d0818d85b9b9bdd081899481d985d5b1d603a1b6044820152606401610f63565b60d4546001600160a01b03600160201b9091048116908316036114245760405162461bcd60e51b815260206004820152601c60248201527b53707265616420546f6b656e206e6f74207265636f76657261626c6560201b6044820152606401610f63565b6114a681836001600160a01b03166370a08231306040518263ffffffff1660e01b815260040161145491906151e3565b602060405180830381865afa158015611471573d6000803e3d6000fd5b505050506040513d601f19601f82011682018060405250810190611495919061541b565b6001600160a01b0385169190613274565b5050565b6060609a80546114b990615434565b80601f01602080910402602001604051908101604052809291908181526020018280546114e590615434565b80156115325780601f1061150757610100808354040283529160200191611532565b820191906000526020600020905b81548152906001019060200180831161151557829003601f168201915b5050505050905090565b60006115493384846132d7565b5060015b92915050565b60d7546001600160a01b0316331461157d5760405162461bcd60e51b8152600401610f639061546e565b60026001540361159f5760405162461bcd60e51b8152600401610f639061548f565b60026001556101005460d05460d38054604080516020808402820181019092528281526001600160681b03909416936000939092909183018282801561160e57602002820191906000526020600020905b81546001600160a01b031681526001909101906020018083116115f0575b505060cf5460d4549495506201000090046001600160681b0390811694600160201b90046001600160a01b0316935060009250829150861681036117225761165860fe54886133fb565b60fe82905560d15493985091965090945092506000906116829089906001600160801b03166154c6565b905061168d81613889565b60d180546001600160801b0319166001600160801b0383161790556000610100556116b7856138d3565b60cf805462010000600160781b031916620100006001600160681b038816021790556040516001600160a01b0385169033907fa791ce33e95f5df21d37ec5d288fe02046a80030931540eacf489b12f171251690611718908a908a906154d9565b60405180910390a3505b6117356001600160681b038716856154fb565b93505b6000881180156117485750600084115b156118785760008073__$d3108057e698617f7b9bc4e765a7fad314$__63087aebc47f00000000000000000000000000000000000000000000000000000000000000007f00000000000000000000000000000000000000000000000000000000000000008a8a8a6040518663ffffffff1660e01b81526004016117cf95949392919061550e565b6040805180830381865af41580156117eb573d6000803e3d6000fd5b505050506040513d601f19601f8201168201806040525081019061180f9190615552565b909250905061181e82846154c6565b925061182b60018b6154fb565b60d054909a506118459082906001600160681b0316615576565b60d080546001600160681b0319166001600160681b039290921691909117905561186f81876154fb565b95505050611738565b60405163140e25ad60e31b8152600481018290526001600160a01b0384169063a0712d6890602401600060405180830381600087803b1580156118ba57600080fd5b505af11580156118ce573d6000803e3d6000fd5b50506001805550505050505050505050565b60006118ed84848461391d565b6001600160a01b0384166000908152609860209081526040808320338452909152902054828110156119725760405162461bcd60e51b815260206004820152602860248201527f45524332303a207472616e7366657220616d6f756e74206578636565647320616044820152676c6c6f77616e636560c01b6064820152608401610f63565b61197f85338584036132d7565b506001949350505050565b6002600154036119ac5760405162461bcd60e51b8152600401610f639061548f565b600260015533600090815260c96020526040902060cf5461ffff16826119e45760405162461bcd60e51b8152600401610f639061559d565b815461ffff168114611a285760405162461bcd60e51b815260206004820152600d60248201526c125b9d985b1a59081c9bdd5b99609a1b6044820152606401610f63565b81546201000090046001600160681b031683811015611a795760405162461bcd60e51b815260206004820152600d60248201526c115e18d9595908185b5bdd5b9d609a1b6044820152606401610f63565b611a8384826154fb565b83546001600160681b0391909116620100000262010000600160781b031990911617835560d054611ac69085906001600160801b03600160681b909104166154fb565b60d080546001600160801b0392909216600160681b02600160681b600160e81b031990921691909117905560405133907fab2daf3c146ca6416cbccd2a86ed2ba995e171ef6319df14a38aef01403a9c9690611b2590879086906152ea565b60405180910390a2611b373385613adb565b5050600180555050565b33611b4a6121a5565b6001600160a01b031614611b705760405162461bcd60e51b8152600401610f63906153e6565b6001600160a01b038116611bbc5760405162461bcd60e51b815260206004820152601360248201527210b732bba9ba3934b5b2a9b2b632b1ba34b7b760691b6044820152606401610f63565b60f980546001600160a01b0319166001600160a01b0392909216919091179055565b606060d260000180548060200260200160405190810160405280929190818152602001828054801561153257602002820191906000526020600020905b81546001600160a01b03168152600190910190602001808311611c1b575050505050905090565b600260015403611c645760405162461bcd60e51b8152600401610f639061548f565b600260015581611c865760405162461bcd60e51b8152600401610f639061559d565b6001600160a01b038116611c9957600080fd5b611ca38282613c3c565b60cc54611cc290630100000090046001600160a01b0316333085613ed6565b505060018055565b3360008181526098602090815260408083206001600160a01b03871684529091528120549091611549918590611d019086906154c6565b6132d7565b60cc5460009060ff620100009091041681611d44611d2360995490565b611d2b61245f565b60d054600160681b90046001600160801b031685613f0e565b9050611d59611d5285612568565b8284613f54565b949350505050565b33611d6a6121a5565b6001600160a01b031614611d905760405162461bcd60e51b8152600401610f63906153e6565b6001600160a01b038116611de15760405162461bcd60e51b815260206004820152601860248201527710b732bba7b83a34b7b739a83932b6b4bab6a83934b1b2b960411b6044820152606401610f63565b60f880546001600160a01b0319166001600160a01b0392909216919091179055565b33611e0c6121a5565b6001600160a01b031614611e325760405162461bcd60e51b8152600401610f63906153e6565b60008111611e6c5760405162461bcd60e51b81526020600482015260076024820152660216e65774361760cc1b6044820152606401610f63565b611e75816138d3565b60ce54604080516001600160681b039092168252602082018390527f5f86edbb9d92228a9edc3f0ebc0f001bda1ea345ac7335e0eeef3504b31d1a1c910160405180910390a160ce80546001600160681b0319166001600160681b0392909216919091179055565b60d7546001600160a01b03163314611f075760405162461bcd60e51b8152600401610f639061546e565b60008111611f435760405162461bcd60e51b8152602060048201526009602482015268216d696e507269636560b81b6044820152606401610f63565b60fb55565b606060d2600101805480602002602001604051908101604052809291908181526020018280548015611532576020028201919060005260206000209081546001600160a01b03168152600190910190602001808311611c1b575050505050905090565b60d7546001600160a01b03163314611fd55760405162461bcd60e51b8152600401610f639061546e565b600260015403611ff75760405162461bcd60e51b8152600401610f639061548f565b6002600155612004613f8e565b60018055565b60026001540361202c5760405162461bcd60e51b8152600401610f639061548f565b6002600181905550612004600060016140bb565b336120496121a5565b6001600160a01b03161461206f5760405162461bcd60e51b8152600401610f63906153e6565b61207d620f424060646153cf565b81106120c55760405162461bcd60e51b8152602060048201526017602482015276496e76616c696420706572666f726d616e63652066656560481b6044820152606401610f63565b7f24867dfb6fcb9970a07be21024956524abe7a1837faa903ff0e99aaa40cf893e60d854826040516120f89291906152ea565b60405180910390a160d855565b6001600160a01b031660009081526097602052604090205490565b336121296121a5565b6001600160a01b03161461214f5760405162461bcd60e51b8152600401610f63906153e6565b612159600061426c565b565b60026001540361217d5760405162461bcd60e51b8152600401610f639061548f565b600260015561218b816142be565b806101005461219a91906154c6565b610100555060018055565b6065546001600160a01b031690565b6060609b80546114b990615434565b60006121ff6121d160995490565b6121d961245f565b60d05460cc54600160681b9091046001600160801b03169062010000900460ff16613f0e565b905090565b6002600154036122265760405162461bcd60e51b8152600401610f639061548f565b6002600155806122655760405162461bcd60e51b815260206004820152600a602482015269216e756d526f756e647360b01b6044820152606401610f63565b60cf5461ffff1660005b828110156122f457600061228382846154c6565b600081815260ca6020526040902054909150156122d05760405162461bcd60e51b815260206004820152600b60248201526a125b9a5d1a585b1a5e995960aa1b6044820152606401610f63565b600090815260ca6020526040902060019055806122ec816155be565b91505061226f565b50506001805550565b3360009081526098602090815260408083206001600160a01b03861684529091528120548281101561237f5760405162461bcd60e51b815260206004820152602560248201527f45524332303a2064656372656173656420616c6c6f77616e63652062656c6f77604482015264207a65726f60d81b6064820152608401610f63565b61238c33858584036132d7565b5060019392505050565b3361239f6121a5565b6001600160a01b0316146123c55760405162461bcd60e51b8152600401610f63906153e6565b61012c8110156124125760405162461bcd60e51b815260206004820152601860248201527724b73b30b634b21030bab1ba34b7b710323ab930ba34b7b760411b6044820152606401610f63565b7f5acd982e2240ed224a69aa03dab039d3797c108e4b5f288cd7dd6ca181b275f360fc54826040516124459291906152ea565b60405180910390a160fc55565b600061154933848461391d565b60cc546040516370a0823160e01b8152600091630100000090046001600160a01b0316906370a08231906124979030906004016151e3565b602060405180830381865afa1580156124b4573d6000803e3d6000fd5b505050506040513d601f19601f820116820180604052508101906124d8919061541b565b60cf546121ff91906201000090046001600160681b03166154c6565b6002600154036125165760405162461bcd60e51b8152600401610f639061548f565b6002600155806125385760405162461bcd60e51b8152600401610f639061559d565b6125428133613c3c565b60cc5461256190630100000090046001600160a01b0316333084613ed6565b5060018055565b600080600061257684612e4b565b9092509050611d5981836154c6565b60d7546001600160a01b031633146125af5760405162461bcd60e51b8152600401610f639061546e565b6000811180156125ca57506125c6600a60646153cf565b8111155b6126095760405162461bcd60e51b815260206004820152601060248201526f125b9d985b1a5908191a5cd8dbdd5b9d60821b6044820152606401610f63565b7f4cd657fde404967d63a338fb06c5c98751a9df57dfae6dc333a432faf8a5f65660fa548260405161263c9291906152ea565b60405180910390a160fa55565b336126526121a5565b6001600160a01b0316146126785760405162461bcd60e51b8152600401610f63906153e6565b6001600160a01b0381166126bb5760405162461bcd60e51b815260206004820152600a60248201526910b732bba5b2b2b832b960b11b6044820152606401610f63565b60d780546001600160a01b0319166001600160a01b0392909216919091179055565b6002600154036126ff5760405162461bcd60e51b8152600401610f639061548f565b6002600155806127215760405162461bcd60e51b8152600401610f63906155d7565b6125618160006140bb565b336127356121a5565b6001600160a01b03161461275b5760405162461bcd60e51b8152600401610f63906153e6565b6001600160a01b0381166127a45760405162461bcd60e51b815260206004820152601060248201526f085b995dd19959549958da5c1a595b9d60821b6044820152606401610f63565b60d6546001600160a01b03908116908216036127fd5760405162461bcd60e51b8152602060048201526018602482015277135d5cdd081899481b995dc8199959549958da5c1a595b9d60421b6044820152606401610f63565b60d680546001600160a01b0319166001600160a01b0392909216919091179055565b6002600154036128415760405162461bcd60e51b8152600401610f639061548f565b600260015560d38054604080516020808402820181019092528281526000939092909183018282801561289d57602002820191906000526020600020905b81546001600160a01b0316815260019091019060200180831161287f575b505060d4546040805160e0810182526001600160a01b037f0000000000000000000000000000000000000000000000000000000000000000811682527f00000000000000000000000000000000000000000000000000000000000000008116602083015281830188905260006060830181905260f9548216608084015260fa5460a08401527f0000000000000000000000000000000000000000000000000000000000000000821660c0840152925163068bb40360e41b8152979850600160201b9093049092169591945092508291508190819073__$d3108057e698617f7b9bc4e765a7fad314$__906368bb4030906129a190889060cc9060cf906004016155fb565b600060405180830381865af41580156129be573d6000803e3d6000fd5b505050506040513d6000823e601f3d908101601f191682016040526129e69190810190615761565b93509350935093507f8b2c6e7d4d72cff90224277b40c8404bbdedcede50c7449f6e4d231b5b11981b838383604051612a219392919061588a565b60405180910390a183600181518110612a3c57612a3c6158c8565b60200260200101516001600160a01b031663c52987cf6040518163ffffffff1660e01b8152600401602060405180830381865afa158015612a81573d6000803e3d6000fd5b505050506040513d601f19601f82011682018060405250810190612aa5919061541b565b84600081518110612ab857612ab86158c8565b60200260200101516001600160a01b031663c52987cf6040518163ffffffff1660e01b8152600401602060405180830381865afa158015612afd573d6000803e3d6000fd5b505050506040513d601f19601f82011682018060405250810190612b21919061541b565b10612b8e5760405162461bcd60e51b815260206004820152603760248201527f53686f727420746f6b656e206d7573742068617665206c65737320737472696b6044820152763290383934b1b2903a3432b7103637b733903a37b5b2b760491b6064820152608401610f63565b8351612ba19060d2906020870190614ff5565b5060d580546001600160a01b0319166001600160a01b0383161790556000612bc981426154c6565b905063ffffffff811115612c1a5760405162461bcd60e51b81526020600482015260186024820152774f766572666c6f77206e6578744f7074696f6e526561647960401b6044820152606401610f63565b60d4805463ffffffff191663ffffffff831617905560d080546001600160681b0319169055612c498888614470565b505060018055505050505050565b33612c606121a5565b6001600160a01b031614612c865760405162461bcd60e51b8152600401610f63906153e6565b6001600160a01b038116612ceb5760405162461bcd60e51b815260206004820152602660248201527f4f776e61626c653a206e6577206f776e657220697320746865207a65726f206160448201526564647265737360d01b6064820152608401610f63565b612cf48161426c565b50565b600260015403612d195760405162461bcd60e51b8152600401610f639061548f565b600260015560cc547f00000000000000000000000000000000000000000000000000000000000000006001600160a01b0390811663010000009092041614612d8e5760405162461bcd60e51b815260206004820152600860248201526721574e415449564560c01b6044820152606401610f63565b60003411612dc75760405162461bcd60e51b81526020600482015260066024820152652176616c756560d01b6044820152606401610f63565b612dd13433613c3c565b7f00000000000000000000000000000000000000000000000000000000000000006001600160a01b031663d0e30db0346040518263ffffffff1660e01b81526004016000604051808303818588803b158015612e2c57600080fd5b505af1158015612e40573d6000803e3d6000fd5b505060018055505050565b6001600160a01b038116600090815260c9602090815260408083208151606081018352905461ffff81168083526201000082046001600160681b031694830194909452600160781b90046001600160801b031691810191909152829160011115612ec357612eb884612105565b946000945092505050565b60cf54815161ffff908116600090815260ca602052604081205460cc549193612efa9386939116919062010000900460ff1661463a565b9050612f0585612105565b9590945092505050565b600260015403612f315760405162461bcd60e51b8152600401610f639061548f565b60026001556000612f406146ab565b90508060fe54612f5091906154fb565b6001600160801b031660fe555060018055565b33612f6c6121a5565b6001600160a01b031614612f925760405162461bcd60e51b8152600401610f63906153e6565b612fa0620f424060646153cf565b8110612fe75760405162461bcd60e51b8152602060048201526016602482015275496e76616c6964206d616e6167656d656e742066656560501b6044820152606401610f63565b600063031ba309612ffb620f4240846153cf565b61300591906158de565b90507f4e874b007ab14f7e263baefd44951834c8266f4f224d1092e49e9c254354cc5460d9548360405161303a9291906152ea565b60405180910390a160d95550565b600054610100900460ff1680613061575060005460ff16155b61307d5760405162461bcd60e51b8152600401610f63906152f8565b600054610100900460ff1615801561309f576000805461ffff19166101011790555b60405163c72733f760e01b815273__$d3108057e698617f7b9bc4e765a7fad314$__9063c72733f7906130e4908c908c908c908b908d908c908c908c9060040161595d565b60006040518083038186803b1580156130fc57600080fd5b505af4158015613110573d6000803e3d6000fd5b5050505061311c61486c565b61312684846148df565b61312e61495e565b61313789612c57565b60d780546001600160a01b03808b166001600160a01b03199283161790925560d68054928a169290911691909117905560d885905563031ba30961317e620f4240886153cf565b61318891906158de565b60d9558160cc6131988282615aa5565b505060cc546040516370a0823160e01b8152600091630100000090046001600160a01b0316906370a08231906131d29030906004016151e3565b602060405180830381865afa1580156131ef573d6000803e3d6000fd5b505050506040513d601f19601f82011682018060405250810190613213919061541b565b905061321e816138d3565b60cf805461ffff196001600160681b03909316600160781b029290921661ffff600160781b03600160e01b03199092169190911760011790558015613269576000805461ff00191690555b505050505050505050565b6040516001600160a01b03831660248201526044810182905261127f90849063a9059cbb60e01b906064015b60408051601f198184030181529190526020810180516001600160e01b03166001600160e01b0319909316929092179091526149c5565b6001600160a01b0383166133395760405162461bcd60e51b8152602060048201526024808201527f45524332303a20617070726f76652066726f6d20746865207a65726f206164646044820152637265737360e01b6064820152608401610f63565b6001600160a01b03821661339a5760405162461bcd60e51b815260206004820152602260248201527f45524332303a20617070726f766520746f20746865207a65726f206164647265604482015261737360f01b6064820152608401610f63565b6001600160a01b0383811660008181526098602090815260408083209487168084529482529182902085905590518481527f8c5be1e5ebec7d5bd14f71427d1e84f3dd0314c0f7b2291e5b200ac8c7c3b925910160405180910390a3505050565b60d4546060906000908190819063ffffffff164210156134465760405162461bcd60e51b815260206004820152600660248201526521726561647960d01b6044820152606401610f63565b60d280546040805160208084028201810190925282815292919083018282801561349957602002820191906000526020600020905b81546001600160a01b0316815260019091019060200180831161347b575b505060d55484519498506001600160a01b03169450600093889350849250151590506134c7576134c76158c8565b60200260200101516001600160a01b0316036135155760405162461bcd60e51b815260206004820152600d60248201526c0216e657874537072656164203609c1b6044820152606401610f63565b60006001600160a01b031684600181518110613533576135336158c8565b60200260200101516001600160a01b0316036135815760405162461bcd60e51b815260206004820152600d60248201526c216e657874537072656164203160981b6044820152606401610f63565b6001600160a01b0381166135c65760405162461bcd60e51b815260206004820152600c60248201526b10b9b83932b0b22a37b5b2b760a11b6044820152606401610f63565b60d6546040805160e08101825260cc5460ff62010000820416825291516370a0823160e01b81526001600160a01b039384169360009384938493849373__$d3108057e698617f7b9bc4e765a7fad314$__9363c8128b659360cf93909260208401926301000000900416906370a08231906136459030906004016151e3565b602060405180830381865afa158015613662573d6000803e3d6000fd5b505050506040513d601f19601f82011682018060405250810190613686919061541b565b815260200161369460995490565b81526020018f815260200160d854815260200160d95481526020018e8152506040518363ffffffff1660e01b815260040161372192919060006101008201905083825282516020830152602083015160408301526040830151606083015260608301516080830152608083015160a083015260a083015160c083015260c083015160e08301529392505050565b60c060405180830381865af415801561373e573d6000803e3d6000fd5b505050506040513d601f19601f820116820180604052508101906137629190615be5565b8e51959d50939b50909750955090935091506137859060d39060208c0190614ff5565b5060d48054600160201b600160c01b031916600160201b6001600160a01b0389160217905560d580546001600160a01b03191690556137c660d2600061505a565b60cf5461ffff16600081815260ca602090815260409182902084905581518681529081018590529081018290526001600160a01b038716907f0a242f7ecaf711036ca770774ceffae28e60ef042ac113ddd187f2631db0c0069060600160405180910390a260d08054600160681b600160e81b03191690556138498160016154c6565b60cf805461ffff191661ffff929092169190911790555061386c90503084614a97565b801561387c5761387c8482613adb565b5050505092959194509250565b6001600160801b03811115612cf45760405162461bcd60e51b815260206004820152601060248201526f09eeccae4ccd8deee40ead2dce86264760831b6044820152606401610f63565b6001600160681b03811115612cf45760405162461bcd60e51b815260206004820152601060248201526f13dd995c999b1bddc81d5a5b9d0c4c0d60821b6044820152606401610f63565b6001600160a01b0383166139815760405162461bcd60e51b815260206004820152602560248201527f45524332303a207472616e736665722066726f6d20746865207a65726f206164604482015264647265737360d81b6064820152608401610f63565b6001600160a01b0382166139e35760405162461bcd60e51b815260206004820152602360248201527f45524332303a207472616e7366657220746f20746865207a65726f206164647260448201526265737360e81b6064820152608401610f63565b6001600160a01b03831660009081526097602052604090205481811015613a5b5760405162461bcd60e51b815260206004820152602660248201527f45524332303a207472616e7366657220616d6f756e7420657863656564732062604482015265616c616e636560d01b6064820152608401610f63565b6001600160a01b03808516600090815260976020526040808220858503905591851681529081208054849290613a929084906154c6565b92505081905550826001600160a01b0316846001600160a01b0316600080516020615e8d83398151915284604051613acc91815260200190565b60405180910390a35b50505050565b60cc546001600160a01b0363010000009091048116907f0000000000000000000000000000000000000000000000000000000000000000168103613c2857604051632e1a7d4d60e01b8152600481018390527f00000000000000000000000000000000000000000000000000000000000000006001600160a01b031690632e1a7d4d90602401600060405180830381600087803b158015613b7b57600080fd5b505af1158015613b8f573d6000803e3d6000fd5b505050506000836001600160a01b03168360405160006040518083038185875af1925050503d8060008114613be0576040519150601f19603f3d011682016040523d82523d6000602084013e613be5565b606091505b5050905080613ad55760405162461bcd60e51b815260206004820152600f60248201526e151c985b9cd9995c8819985a5b1959608a1b6044820152606401610f63565b61127f6001600160a01b0382168484613274565b60cf5461ffff16600083613c4e61245f565b613c5891906154c6565b60ce549091506001600160681b0316811115613ca35760405162461bcd60e51b815260206004820152600a6024820152690457863656564206361760b41b6044820152606401610f63565b60cd54600160a01b900466ffffffffffffff16811015613cfc5760405162461bcd60e51b8152602060048201526014602482015273496e73756666696369656e742062616c616e636560601b6044820152606401610f63565b826001600160a01b03167f90890809c654f11d6e72a28fa60149770a0d11ec6c92319d6ceb2bb0a4ea1a158584604051613d379291906152ea565b60405180910390a26001600160a01b038316600090815260c9602090815260408083208151606081018352905461ffff8116808352620100008083046001600160681b031684870152600160781b9092046001600160801b031683850152855260ca9093529083205460cc54919392613db9928592889290910460ff1661463a565b8251909150869061ffff168503613de95760008784602001516001600160681b0316613de591906154c6565b9150505b613df2816138d3565b6040805160608101825261ffff80881682526001600160681b0380851660208085019182526001600160801b038089168688019081526001600160a01b038e16600090815260c990935296822095518654935197518216600160781b02600160781b600160f81b03199890951662010000026001600160781b031990941695169490941791909117949094161790915560d054613e98918a91600160681b9004166154c6565b9050613ea381613889565b60d080546001600160801b03909216600160681b02600160681b600160e81b031990921691909117905550505050505050565b6040516001600160a01b0380851660248301528316604482015260648101829052613ad59085906323b872dd60e01b906084016132a0565b600080613f1c83600a615d13565b905060008611613f2c5780613f4a565b613f4a86613f44613f3d8888614b64565b8490614b77565b90614b83565b9695505050505050565b600060018311613f765760405162461bcd60e51b8152600401610f6390615d1f565b611d59613f8483600a615d13565b613f448686614b77565b6040805160c08101825260d4546001600160a01b03600160201b90910481168083527f000000000000000000000000000000000000000000000000000000000000000082166020840190815260cc5463010000008104841685870190815260ff62010000909204919091166060860190815260fb546080870190815260fc5460a088019081529751633baf17fd60e21b8152875187166004820152935186166024850152915190941660448301529251606482015291516084830152925160a482015290919073__$d3108057e698617f7b9bc4e765a7fad314$__9063eebc5ff49060c401602060405180830381865af4158015614090573d6000803e3d6000fd5b505050506040513d601f19601f820116820180604052508101906140b4919061541b565b60fd555050565b33600090815260c9602090815260408083208151606081018352905461ffff808216808452620100008084046001600160681b031685880152600160781b9093046001600160801b03168486015260cf5490875260ca9095529285205460cc5492959490931693926141359286928692910460ff1661463a565b9050836141425784614144565b805b945084600003614155575050505050565b808511156141995760405162461bcd60e51b81526020600482015260116024820152704578636565647320617661696c61626c6560781b6044820152606401610f63565b825161ffff168211156141c65733600090815260c960205260409020805462010000600160781b03191690555b6141cf85613889565b6141d985826154fb565b33600081815260c960205260409081902080546001600160801b0394909416600160781b02600160781b600160f81b0319909416939093179092558451915190917fe5b754fb1abb7f01b499791d0b820ae3b6af3424ac1c59768edb53f4ec31a929916142529189825261ffff16602082015260400190565b60405180910390a261426530338761391d565b5050505050565b606580546001600160a01b038381166001600160a01b0319831681179093556040519116919082907f8be0079c531659141344cd1fd0a4f28419497f9722a3daafe3b4186f6b6457e090600090a35050565b600081116142de5760405162461bcd60e51b8152600401610f63906155d7565b33600090815260c960205260409020546201000090046001600160681b0316151580614328575033600090815260c96020526040902054600160781b90046001600160801b031615155b1561433957614339600060016140bb565b60cf5433600081815260cb6020526040908190208054915161ffff948516949193919092168414917f0c53c82ad07e2d592d88ece3b066777dd60f1118e2a081b380efc4358f0d9e2a9061439090879087906152ea565b60405180910390a281546201000090046001600160801b0316600082156143c2576143bb86836154c6565b9050614425565b81156144045760405162461bcd60e51b81526020600482015260116024820152704578697374696e6720776974686472617760781b6044820152606401610f63565b5033600090815260cb60205260409020805461ffff191661ffff8616179055845b61442e81613889565b33600081815260cb60205260409020805462010000600160901b031916620100006001600160801b0385160217905561446890308861391d565b505050505050565b60cf548251620100009091046001600160681b031690158015906144c1575060006001600160a01b0316836000815181106144ad576144ad6158c8565b60200260200101516001600160a01b031614155b156144eb5760cf8054600160781b600160e01b031916600160781b6001600160681b038416021790555b60cf805462010000600160781b031916905561450960d3600061505a565b60008351118015614547575060006001600160a01b031683600081518110614533576145336158c8565b60200260200101516001600160a01b031614155b1561127f57604051630499725b60e31b81526001600160a01b037f0000000000000000000000000000000000000000000000000000000000000000811660048301528316602482015260009073__$d3108057e698617f7b9bc4e765a7fad314$__906324cb92d890604401602060405180830381865af41580156145cf573d6000803e3d6000fd5b505050506040513d601f19601f820116820180604052508101906145f3919061541b565b9050826001600160a01b0316336001600160a01b03167f9b8941400c12b7c3e5e1346cc27f63b2067832b71616b00a9abb91526b75fb7b8684604051613acc9291906154d9565b835160009061ffff16158015906146555750845161ffff1684115b1561469757600061467486602001516001600160681b03168585614b8f565b604087015190915061468f906001600160801b031682614bca565b915050611d59565b50505050604001516001600160801b031690565b33600090815260cb6020526040812080546001600160801b03620100008204169061ffff168161470d5760405162461bcd60e51b815260206004820152600d60248201526c139bdd081a5b9a5d1a585d1959609a1b6044820152606401610f63565b60cf5461ffff1681106147555760405162461bcd60e51b815260206004820152601060248201526f149bdd5b99081b9bdd0818db1bdcd95960821b6044820152606401610f63565b33600090815260cb60205260409020805462010000600160901b031916905560d15461478b9083906001600160801b03166154fb565b60d180546001600160801b0319166001600160801b0392909216919091179055600081815260ca602052604081205460cc546147d191859162010000900460ff16613f54565b9050336001600160a01b03167ff279e6a1f5e320cca91135676d9cb6e44ca8a08c0b88342bcdb1144f6511b568828560405161480e9291906152ea565b60405180910390a26148203084614bd6565b600081116148625760405162461bcd60e51b815260206004820152600f60248201526e085dda5d1a191c985dd05b5bdd5b9d608a1b6044820152606401610f63565b611d593382613adb565b600054610100900460ff1680614885575060005460ff16155b6148a15760405162461bcd60e51b8152600401610f63906152f8565b600054610100900460ff161580156148c3576000805461ffff19166101011790555b6148cb614d12565b8015612cf4576000805461ff001916905550565b600054610100900460ff16806148f8575060005460ff16155b6149145760405162461bcd60e51b8152600401610f63906152f8565b600054610100900460ff16158015614936576000805461ffff19166101011790555b61493e614d81565b6149488383614deb565b801561127f576000805461ff0019169055505050565b600054610100900460ff1680614977575060005460ff16155b6149935760405162461bcd60e51b8152600401610f63906152f8565b600054610100900460ff161580156149b5576000805461ffff19166101011790555b6149bd614d81565b6148cb614e72565b6000614a1a826040518060400160405280602081526020017f5361666545524332303a206c6f772d6c6576656c2063616c6c206661696c6564815250856001600160a01b0316614ed29092919063ffffffff16565b80519091501561127f5780806020019051810190614a389190615d4e565b61127f5760405162461bcd60e51b815260206004820152602a60248201527f5361666545524332303a204552433230206f7065726174696f6e20646964206e6044820152691bdd081cdd58d8d9595960b21b6064820152608401610f63565b6001600160a01b038216614aed5760405162461bcd60e51b815260206004820152601f60248201527f45524332303a206d696e7420746f20746865207a65726f2061646472657373006044820152606401610f63565b8060996000828254614aff91906154c6565b90915550506001600160a01b03821660009081526097602052604081208054839290614b2c9084906154c6565b90915550506040518181526001600160a01b03831690600090600080516020615e8d8339815191529060200160405180910390a35050565b6000614b7082846154fb565b9392505050565b6000614b7082846153cf565b6000614b7082846158de565b600060018311614bb15760405162461bcd60e51b8152600401610f6390615d1f565b611d5983613f44614bc385600a615d13565b8790614b77565b6000614b7082846154c6565b6001600160a01b038216614c365760405162461bcd60e51b815260206004820152602160248201527f45524332303a206275726e2066726f6d20746865207a65726f206164647265736044820152607360f81b6064820152608401610f63565b6001600160a01b03821660009081526097602052604090205481811015614caa5760405162461bcd60e51b815260206004820152602260248201527f45524332303a206275726e20616d6f756e7420657863656564732062616c616e604482015261636560f01b6064820152608401610f63565b6001600160a01b0383166000908152609760205260408120838303905560998054849290614cd99084906154fb565b90915550506040518281526000906001600160a01b03851690600080516020615e8d8339815191529060200160405180910390a3505050565b600054610100900460ff1680614d2b575060005460ff16155b614d475760405162461bcd60e51b8152600401610f63906152f8565b600054610100900460ff16158015614d69576000805461ffff19166101011790555b600180558015612cf4576000805461ff001916905550565b600054610100900460ff1680614d9a575060005460ff16155b614db65760405162461bcd60e51b8152600401610f63906152f8565b600054610100900460ff161580156148cb576000805461ffff19166101011790558015612cf4576000805461ff001916905550565b600054610100900460ff1680614e04575060005460ff16155b614e205760405162461bcd60e51b8152600401610f63906152f8565b600054610100900460ff16158015614e42576000805461ffff19166101011790555b609a614e4e8482615db1565b50609b614e5b8382615db1565b50801561127f576000805461ff0019169055505050565b600054610100900460ff1680614e8b575060005460ff16155b614ea75760405162461bcd60e51b8152600401610f63906152f8565b600054610100900460ff16158015614ec9576000805461ffff19166101011790555b6148cb3361426c565b6060611d59848460008585600080866001600160a01b03168587604051614ef99190615e70565b60006040518083038185875af1925050503d8060008114614f36576040519150601f19603f3d011682016040523d82523d6000602084013e614f3b565b606091505b5091509150614f4c87838387614f57565b979650505050505050565b60608315614fc6578251600003614fbf576001600160a01b0385163b614fbf5760405162461bcd60e51b815260206004820152601d60248201527f416464726573733a2063616c6c20746f206e6f6e2d636f6e74726163740000006044820152606401610f63565b5081611d59565b611d598383815115614fdb5781518083602001fd5b8060405162461bcd60e51b8152600401610f639190615197565b82805482825590600052602060002090810192821561504a579160200282015b8281111561504a57825182546001600160a01b0319166001600160a01b03909116178255602090920191600190910190615015565b50615056929150615074565b5090565b5080546000825590600052602060002090810190612cf491905b5b808211156150565760008155600101615075565b60008082840361010081121561509e57600080fd5b83356001600160401b038111156150b457600080fd5b840161016081870312156150c757600080fd5b925060e0601f19820112156150db57600080fd5b506020830190509250929050565b6001600160a01b0381168114612cf457600080fd5b8035615109816150e9565b919050565b6000806040838503121561512157600080fd5b823561512c816150e9565b9150602083013561513c816150e9565b809150509250929050565b60005b8381101561516257818101518382015260200161514a565b50506000910152565b60008151808452615183816020860160208601615147565b601f01601f19169290920160200192915050565b602081526000614b70602083018461516b565b600080604083850312156151bd57600080fd5b82356151c8816150e9565b946020939093013593505050565b6001600160a01b03169052565b6001600160a01b0391909116815260200190565b60006020828403121561520957600080fd5b5035919050565b60008060006060848603121561522557600080fd5b8335615230816150e9565b92506020840135615240816150e9565b929592945050506040919091013590565b60006020828403121561526357600080fd5b8135614b70816150e9565b600081518084526020808501945080840160005b838110156152a75781516001600160a01b031687529582019590820190600101615282565b509495945050505050565b602081526000614b70602083018461526e565b600080604083850312156152d857600080fd5b82359150602083013561513c816150e9565b918252602082015260400190565b6020808252602e908201527f496e697469616c697a61626c653a20636f6e747261637420697320616c72656160408201526d191e481a5b9a5d1a585b1a5e995960921b606082015260800190565b6000808335601e1984360301811261535d57600080fd5b8301803591506001600160401b0382111561537757600080fd5b60200191503681900382131561538c57600080fd5b9250929050565b6000602082840312156153a557600080fd5b813563ffffffff81168114614b7057600080fd5b634e487b7160e01b600052601160045260246000fd5b808202811582820484141761154d5761154d6153b9565b6020808252818101527f4f776e61626c653a2063616c6c6572206973206e6f7420746865206f776e6572604082015260600190565b60006020828403121561542d57600080fd5b5051919050565b600181811c9082168061544857607f821691505b60208210810361546857634e487b7160e01b600052602260045260246000fd5b50919050565b60208082526007908201526610b5b2b2b832b960c91b604082015260600190565b6020808252601f908201527f5265656e7472616e637947756172643a207265656e7472616e742063616c6c00604082015260600190565b8082018082111561154d5761154d6153b9565b6040815260006154ec604083018561526e565b90508260208301529392505050565b8181038181111561154d5761154d6153b9565b600060018060a01b038088168352808716602084015260a0604084015261553860a084018761526e565b606084019590955292909216608090910152509392505050565b6000806040838503121561556557600080fd5b505080516020909101519092909150565b6001600160681b03818116838216019080821115615596576155966153b9565b5092915050565b60208082526007908201526608585b5bdd5b9d60ca1b604082015260600190565b6000600182016155d0576155d06153b9565b5060010190565b6020808252600a9082015269216e756d53686172657360b01b604082015260600190565b60608152600060018060a01b03808651166060840152806020870151166080840152604086015160e060a085015261563761014085018261526e565b9050606087015160c08501528160808801511660e085015260a087015161010085015260c0870151915061566f6101208501836151d6565b6020840195909552505060400152919050565b634e487b7160e01b600052604160045260246000fd5b604051601f8201601f191681016001600160401b03811182821017156156c0576156c0615682565b604052919050565b60006001600160401b038211156156e1576156e1615682565b5060051b60200190565b8051615109816150e9565b600082601f83011261570757600080fd5b8151602061571c615717836156c8565b615698565b82815260059290921b8401810191818101908684111561573b57600080fd5b8286015b84811015615756578051835291830191830161573f565b509695505050505050565b6000806000806080858703121561577757600080fd5b84516001600160401b038082111561578e57600080fd5b818701915087601f8301126157a257600080fd5b815160206157b2615717836156c8565b82815260059290921b8401810191818101908b8411156157d157600080fd5b948201945b838610156157f85785516157e9816150e9565b825294820194908201906157d6565b918a015191985090935050508082111561581157600080fd5b61581d888389016156f6565b9450604087015191508082111561583357600080fd5b50615840878288016156f6565b92505061584f606086016156eb565b905092959194509250565b600081518084526020808501945080840160005b838110156152a75781518752958201959082019060010161586e565b60608152600061589d606083018661585a565b82810360208401526158af818661585a565b91505060018060a01b0383166040830152949350505050565b634e487b7160e01b600052603260045260246000fd5b6000826158fb57634e487b7160e01b600052601260045260246000fd5b500490565b8015158114612cf457600080fd5b60ff81168114612cf457600080fd5b66ffffffffffffff81168114612cf457600080fd5b80356151098161591d565b6001600160681b0381168114612cf457600080fd5b80356151098161593d565b6001600160a01b03898116825288811660208301528716604082015260608101869052608081018590526101c060a082018190526000906159a08382018761516b565b905082810360c08401526159b4818661516b565b91505082356159c281615900565b151560e083015260208301356159d781615900565b151561010083015260408301356159ed8161590e565b60ff16610120830152615a02606084016150fe565b615a106101408401826151d6565b50615a1d608084016150fe565b615a2b6101608401826151d6565b50615a3860a08401615932565b66ffffffffffffff16610180830152615a5360c08401615952565b6001600160681b0381166101a0840152509998505050505050505050565b6000813561154d8161590e565b6000813561154d816150e9565b6000813561154d8161591d565b6000813561154d8161593d565b8135615ab081615900565b815460ff19811691151560ff1691821783556020840135615ad081615900565b61ffff199190911690911790151560081b61ff0016178155615b0f615af760408401615a71565b825462ff0000191660109190911b62ff000016178255565b615b48615b1e60608401615a7e565b8280546301000000600160b81b03191660189290921b6301000000600160b81b0316919091179055565b60018101615b78615b5b60808501615a7e565b82546001600160a01b0319166001600160a01b0391909116178255565b615bb1615b8760a08501615a8b565b828054600160a01b600160d81b03191660a09290921b600160a01b600160d81b0316919091179055565b506114a6615bc160c08401615a98565b6002830180546001600160681b0319166001600160681b0392909216919091179055565b60008060008060008060c08789031215615bfe57600080fd5b865195506020870151945060408701519350606087015192506080870151915060a087015190509295509295509295565b600181815b80851115615c6a578160001904821115615c5057615c506153b9565b80851615615c5d57918102915b93841c9390800290615c34565b509250929050565b600082615c815750600161154d565b81615c8e5750600061154d565b8160018114615ca45760028114615cae57615cca565b600191505061154d565b60ff841115615cbf57615cbf6153b9565b50506001821b61154d565b5060208310610133831016604e8410600b8410161715615ced575081810a61154d565b615cf78383615c2f565b8060001904821115615d0b57615d0b6153b9565b029392505050565b6000614b708383615c72565b602080825260159082015274496e76616c6964206173736574506572536861726560581b604082015260600190565b600060208284031215615d6057600080fd5b8151614b7081615900565b601f82111561127f57600081815260208120601f850160051c81016020861015615d925750805b601f850160051c820191505b8181101561446857828155600101615d9e565b81516001600160401b03811115615dca57615dca615682565b615dde81615dd88454615434565b84615d6b565b602080601f831160018114615e135760008415615dfb5750858301515b600019600386901b1c1916600185901b178555614468565b600085815260208120601f198616915b82811015615e4257888601518255948401946001909101908401615e23565b5085821015615e605787850151600019600388901b60f8161c191681555b5050505050600190811b01905550565b60008251615e82818460208701615147565b919091019291505056feddf252ad1be2c89b69c2b068fc378daa952ba7f163c4a11628f55a4df523b3efa264697066735822122041c9f4afcabac9c3e28684e420bd48257a4f060a4e2d73c33922b5b81c4bab1b64736f6c63430008110033",
  "libraries": {
    "VaultLifecycleSpread": "0x684435C63770f73d9e9e7E63fC1848283aB75894"
  },
  "devdoc": {
    "kind": "dev",
    "methods": {
      "accountVaultBalance(address)": {
        "params": {
          "account": "is the address to lookup balance for"
        },
        "returns": {
          "_0": "the amount of `asset` custodied by the vault for the user"
        }
      },
      "allowance(address,address)": {
        "details": "See {IERC20-allowance}."
      },
      "approve(address,uint256)": {
        "details": "See {IERC20-approve}. Requirements: - `spender` cannot be the zero address."
      },
      "balanceOf(address)": {
        "details": "See {IERC20-balanceOf}."
      },
      "constructor": {
        "params": {
          "_gammaController": "is the contract address for opyn actions",
          "_gnosisEasyAuction": "is the contract address that facilitates gnosis auctions",
          "_marginPool": "is the contract address for providing collateral to opyn",
          "_oTokenFactory": "is the contract address for minting new opyn option types (strikes, asset, expiry)",
          "_spreadTokenLogic": "Spread token logic contract",
          "_usdc": "is the USDC contract",
          "_wnative": "is the Wrapped Native contract"
        }
      },
      "decreaseAllowance(address,uint256)": {
        "details": "Atomically decreases the allowance granted to `spender` by the caller. This is an alternative to {approve} that can be used as a mitigation for problems described in {IERC20-approve}. Emits an {Approval} event indicating the updated allowance. Requirements: - `spender` cannot be the zero address. - `spender` must have allowance for the caller of at least `subtractedValue`."
      },
      "deposit(uint256)": {
        "params": {
          "amount": "is the amount of `asset` to deposit"
        }
      },
      "depositFor(uint256,address)": {
        "params": {
          "amount": "is the amount of `asset` to deposit",
          "creditor": "is the address that can claim/withdraw deposited amount"
        }
      },
      "increaseAllowance(address,uint256)": {
        "details": "Atomically increases the allowance granted to `spender` by the caller. This is an alternative to {approve} that can be used as a mitigation for problems described in {IERC20-approve}. Emits an {Approval} event indicating the updated allowance. Requirements: - `spender` cannot be the zero address."
      },
      "initRounds(uint256)": {
        "params": {
          "numRounds": "is the number of rounds to initialize in the map"
        }
      },
      "initialize((address,address,address,uint256,uint256,string,string,address,address,uint32,uint256),(bool,bool,uint8,address,address,uint56,uint104))": {
        "params": {
          "_initParams": "is the struct with vault initialization parameters",
          "_vaultParams": "is the struct with vault general data"
        }
      },
      "initiateWithdraw(uint256)": {
        "params": {
          "numShares": "is the number of shares to withdraw"
        }
      },
      "name()": {
        "details": "Returns the name of the token."
      },
      "owner()": {
        "details": "Returns the address of the current owner."
      },
      "recoverTokens(address,address)": {
        "params": {
          "recipient": "is the recipient of the recovered tokens",
          "token": "is the ERC20 token to recover from the vault"
        }
      },
      "redeem(uint256)": {
        "params": {
          "numShares": "is the number of shares to redeem"
        }
      },
      "renounceOwnership()": {
        "details": "Leaves the contract without owner. It will not be possible to call `onlyOwner` functions anymore. Can only be called by the current owner. NOTE: Renouncing ownership will leave the contract without an owner, thereby removing any functionality that is only available to the owner."
      },
      "setAuctionDuration(uint256)": {
        "params": {
          "newAuctionDuration": "is the auction duration"
        }
      },
      "setCap(uint256)": {
        "params": {
          "newCap": "is the new cap for deposits"
        }
      },
      "setFeeRecipient(address)": {
        "params": {
          "newFeeRecipient": "is the address of the new fee recipient"
        }
      },
      "setManagementFee(uint256)": {
        "params": {
          "newManagementFee": "is the management fee (6 decimals). ex: 2 * 10 ** 6 = 2%"
        }
      },
      "setMinPrice(uint256)": {
        "params": {
          "minPrice": "is the new oToken Premium in the units of 10**18"
        }
      },
      "setNewKeeper(address)": {
        "params": {
          "newKeeper": "is the address of the new keeper"
        }
      },
      "setOptionsPremiumPricer(address)": {
        "params": {
          "newOptionsPremiumPricer": "is the address of the new strike selection contract"
        }
      },
      "setPerformanceFee(uint256)": {
        "params": {
          "newPerformanceFee": "is the performance fee (6 decimals). ex: 20 * 10 ** 6 = 20%"
        }
      },
      "setPremiumDiscount(uint256)": {
        "params": {
          "newPremiumDiscount": "is the premium discount"
        }
      },
      "setStrikeSelection(address)": {
        "params": {
          "newStrikeSelection": "is the address of the new strike selection contract"
        }
      },
      "shareBalances(address)": {
        "params": {
          "account": "is the account to lookup share balance for"
        },
        "returns": {
          "heldByAccount": "is the shares held by account",
          "heldByVault": "is the shares held on the vault (unredeemedShares)"
        }
      },
      "shares(address)": {
        "params": {
          "account": "is the account to lookup share balance for"
        },
        "returns": {
          "_0": "the share balance"
        }
      },
      "symbol()": {
        "details": "Returns the symbol of the token, usually a shorter version of the name."
      },
      "totalBalance()": {
        "returns": {
          "_0": "total balance of the vault, including the amounts locked in third party protocols"
        }
      },
      "totalSupply()": {
        "details": "See {IERC20-totalSupply}."
      },
      "transfer(address,uint256)": {
        "details": "See {IERC20-transfer}. Requirements: - `recipient` cannot be the zero address. - the caller must have a balance of at least `amount`."
      },
      "transferFrom(address,address,uint256)": {
        "details": "See {IERC20-transferFrom}. Emits an {Approval} event indicating the updated allowance. This is not required by the EIP. See the note at the beginning of {ERC20}. Requirements: - `sender` and `recipient` cannot be the zero address. - `sender` must have a balance of at least `amount`. - the caller must have allowance for ``sender``'s tokens of at least `amount`."
      },
      "transferOwnership(address)": {
        "details": "Transfers ownership of the contract to a new account (`newOwner`). Can only be called by the current owner."
      },
      "withdrawInstantly(uint256)": {
        "params": {
          "amount": "is the amount to withdraw"
        }
      }
    },
    "version": 1
  },
  "userdoc": {
    "kind": "user",
    "methods": {
      "DELAY()": {
        "notice": "Deprecated: 15 minute timelock between commitAndClose and rollToNexOption."
      },
      "OTOKEN_FACTORY()": {
        "notice": "oTokenFactory is the factory contract used to spawn otokens. Used to lookup otokens."
      },
      "PERIOD()": {
        "notice": "7 day period between each options sale."
      },
      "USDC()": {
        "notice": "USDC"
      },
      "WNATIVE()": {
        "notice": "Wrapped NATIVE currency "
      },
      "accountVaultBalance(address)": {
        "notice": "Returns the asset balance held on the vault for the account"
      },
      "commitAndClose()": {
        "notice": "Sets the next call spread the vault will be setting up existing the vault.         This allows all the users to withdraw if the next option is malicious."
      },
      "completeWithdraw()": {
        "notice": "Completes a scheduled withdrawal from a past round. Uses finalized pps for the round"
      },
      "constructor": {
        "notice": "Initializes the contract with immutable variables"
      },
      "decimals()": {
        "notice": "Returns the token decimals"
      },
      "deposit(uint256)": {
        "notice": "Deposits the `asset` from msg.sender."
      },
      "depositETH()": {
        "notice": "Deposits ETH into the contract and mint vault shares. Reverts if the asset is not WNATIVE."
      },
      "depositFor(uint256,address)": {
        "notice": "Deposits the `asset` from msg.sender added to `creditor`'s deposit.Used for vault -> vault deposits on the user's behalf"
      },
      "depositReceipts(address)": {
        "notice": "Stores the user's pending deposit for the round"
      },
      "feeRecipient()": {
        "notice": "Fee recipient for the performance and management fees"
      },
      "initRounds(uint256)": {
        "notice": "Helper function that helps to save gas for writing values into the roundPricePerShare map.         Writing `1` into the map makes subsequent writes warm, reducing the gas from 20k to 5k.         Having 1 initialized beforehand will not be an issue as long as we round down share calculations to 0."
      },
      "initialize((address,address,address,uint256,uint256,string,string,address,address,uint32,uint256),(bool,bool,uint8,address,address,uint56,uint104))": {
        "notice": "Initializes the OptionVault contract with storage variables."
      },
      "initiateWithdraw(uint256)": {
        "notice": "Initiates a withdrawal that can be processed once the round completes"
      },
      "keeper()": {
        "notice": "role in charge of weekly vault operations such as rollToNextOption and burnRemainingOTokens"
      },
      "managementFee()": {
        "notice": "Management fee charged on entire AUM in rollToNextOption. Only charged when there is no loss."
      },
      "maxRedeem()": {
        "notice": "Redeems the entire unredeemedShares balance that is owed to the account"
      },
      "performanceFee()": {
        "notice": "Performance fee charged on premiums earned in rollToNextOption. Only charged when there is no loss."
      },
      "pricePerShare()": {
        "notice": "The price of a unit of share denominated in the `asset`"
      },
      "recoverTokens(address,address)": {
        "notice": "Recovery function that returns an ERC20 token to the recipient"
      },
      "redeem(uint256)": {
        "notice": "Redeems shares that are owed to the account"
      },
      "rollToNextOption(uint256)": {
        "notice": "Rolls the vault's funds into a new short position."
      },
      "roundPricePerShare(uint256)": {
        "notice": "On every round's close, the pricePerShare value of an rTHETA token is stored This is used to determine the number of shares to be returned to a user with their DepositReceipt.depositAmount"
      },
      "setAuctionDuration(uint256)": {
        "notice": "Sets the new auction duration"
      },
      "setCap(uint256)": {
        "notice": "Sets a new cap for deposits"
      },
      "setFeeRecipient(address)": {
        "notice": "Sets the new fee recipient"
      },
      "setManagementFee(uint256)": {
        "notice": "Sets the management fee for the vault"
      },
      "setMinPrice(uint256)": {
        "notice": "Sets oToken Premium"
      },
      "setNewKeeper(address)": {
        "notice": "Sets the new keeper"
      },
      "setOptionsPremiumPricer(address)": {
        "notice": "Sets the new options premium pricer contract"
      },
      "setPerformanceFee(uint256)": {
        "notice": "Sets the performance fee for the vault"
      },
      "setPremiumDiscount(uint256)": {
        "notice": "Sets the new discount on premiums for options we are selling"
      },
      "setStrikeSelection(address)": {
        "notice": "Sets the new strike selection contract"
      },
      "shareBalances(address)": {
        "notice": "Getter for returning the account's share balance split between account and vault holdings"
      },
      "shares(address)": {
        "notice": "Getter for returning the account's share balance including unredeemed shares"
      },
      "spreadState()": {
        "notice": "Vault's state of the strategy sold"
      },
      "startAuction()": {
        "notice": "Initiate the gnosis auction."
      },
      "totalBalance()": {
        "notice": "Returns the vault's total balance, including the amounts locked into a short position"
      },
      "vaultParams()": {
        "notice": "Vault's parameters like cap, decimals"
      },
      "vaultState()": {
        "notice": "Vault's lifecycle state like round and locked amounts"
      },
      "withdrawInstantly(uint256)": {
        "notice": "Withdraws the assets on the vault using the outstanding `DepositReceipt.amount`"
      },
      "withdrawals(address)": {
        "notice": "Stores pending user withdrawals"
      }
    },
    "notice": "UPGRADEABILITY: Since we use the upgradeable proxy pattern, we must observe the inheritance chain closely. Any changes/appends in storage variable needs to happen in HimalayanCallSpreadStorage. CallSpread should not inherit from any other contract aside from HimalayanVault, HimalayanCallSpreadStorage",
    "version": 1
  },
  "storageLayout": {
    "storage": [
      {
        "astId": 176,
        "contract": "contracts/vaults/SpreadVaults/CallSpread.sol:CallSpread",
        "label": "_initialized",
        "offset": 0,
        "slot": "0",
        "type": "t_bool"
      },
      {
        "astId": 179,
        "contract": "contracts/vaults/SpreadVaults/CallSpread.sol:CallSpread",
        "label": "_initializing",
        "offset": 1,
        "slot": "0",
        "type": "t_bool"
      },
      {
        "astId": 230,
        "contract": "contracts/vaults/SpreadVaults/CallSpread.sol:CallSpread",
        "label": "_status",
        "offset": 0,
        "slot": "1",
        "type": "t_uint256"
      },
      {
        "astId": 273,
        "contract": "contracts/vaults/SpreadVaults/CallSpread.sol:CallSpread",
        "label": "__gap",
        "offset": 0,
        "slot": "2",
        "type": "t_array(t_uint256)49_storage"
      },
      {
        "astId": 993,
        "contract": "contracts/vaults/SpreadVaults/CallSpread.sol:CallSpread",
        "label": "__gap",
        "offset": 0,
        "slot": "51",
        "type": "t_array(t_uint256)50_storage"
      },
      {
        "astId": 56,
        "contract": "contracts/vaults/SpreadVaults/CallSpread.sol:CallSpread",
        "label": "_owner",
        "offset": 0,
        "slot": "101",
        "type": "t_address"
      },
      {
        "astId": 169,
        "contract": "contracts/vaults/SpreadVaults/CallSpread.sol:CallSpread",
        "label": "__gap",
        "offset": 0,
        "slot": "102",
        "type": "t_array(t_uint256)49_storage"
      },
      {
        "astId": 293,
        "contract": "contracts/vaults/SpreadVaults/CallSpread.sol:CallSpread",
        "label": "_balances",
        "offset": 0,
        "slot": "151",
        "type": "t_mapping(t_address,t_uint256)"
      },
      {
        "astId": 299,
        "contract": "contracts/vaults/SpreadVaults/CallSpread.sol:CallSpread",
        "label": "_allowances",
        "offset": 0,
        "slot": "152",
        "type": "t_mapping(t_address,t_mapping(t_address,t_uint256))"
      },
      {
        "astId": 301,
        "contract": "contracts/vaults/SpreadVaults/CallSpread.sol:CallSpread",
        "label": "_totalSupply",
        "offset": 0,
        "slot": "153",
        "type": "t_uint256"
      },
      {
        "astId": 303,
        "contract": "contracts/vaults/SpreadVaults/CallSpread.sol:CallSpread",
        "label": "_name",
        "offset": 0,
        "slot": "154",
        "type": "t_string_storage"
      },
      {
        "astId": 305,
        "contract": "contracts/vaults/SpreadVaults/CallSpread.sol:CallSpread",
        "label": "_symbol",
        "offset": 0,
        "slot": "155",
        "type": "t_string_storage"
      },
      {
        "astId": 846,
        "contract": "contracts/vaults/SpreadVaults/CallSpread.sol:CallSpread",
        "label": "__gap",
        "offset": 0,
        "slot": "156",
        "type": "t_array(t_uint256)45_storage"
      },
      {
        "astId": 26494,
        "contract": "contracts/vaults/SpreadVaults/CallSpread.sol:CallSpread",
        "label": "depositReceipts",
        "offset": 0,
        "slot": "201",
        "type": "t_mapping(t_address,t_struct(DepositReceipt)9401_storage)"
      },
      {
        "astId": 26499,
        "contract": "contracts/vaults/SpreadVaults/CallSpread.sol:CallSpread",
        "label": "roundPricePerShare",
        "offset": 0,
        "slot": "202",
        "type": "t_mapping(t_uint256,t_uint256)"
      },
      {
        "astId": 26505,
        "contract": "contracts/vaults/SpreadVaults/CallSpread.sol:CallSpread",
        "label": "withdrawals",
        "offset": 0,
        "slot": "203",
        "type": "t_mapping(t_address,t_struct(Withdrawal)9406_storage)"
      },
      {
        "astId": 26509,
        "contract": "contracts/vaults/SpreadVaults/CallSpread.sol:CallSpread",
        "label": "vaultParams",
        "offset": 0,
        "slot": "204",
        "type": "t_struct(VaultParams)9361_storage"
      },
      {
        "astId": 26513,
        "contract": "contracts/vaults/SpreadVaults/CallSpread.sol:CallSpread",
        "label": "vaultState",
        "offset": 0,
        "slot": "207",
        "type": "t_struct(VaultState)9394_storage"
      },
      {
        "astId": 26517,
        "contract": "contracts/vaults/SpreadVaults/CallSpread.sol:CallSpread",
        "label": "spreadState",
        "offset": 0,
        "slot": "210",
        "type": "t_struct(SpreadState)9381_storage"
      },
      {
        "astId": 26520,
        "contract": "contracts/vaults/SpreadVaults/CallSpread.sol:CallSpread",
        "label": "feeRecipient",
        "offset": 0,
        "slot": "214",
        "type": "t_address"
      },
      {
        "astId": 26523,
        "contract": "contracts/vaults/SpreadVaults/CallSpread.sol:CallSpread",
        "label": "keeper",
        "offset": 0,
        "slot": "215",
        "type": "t_address"
      },
      {
        "astId": 26526,
        "contract": "contracts/vaults/SpreadVaults/CallSpread.sol:CallSpread",
        "label": "performanceFee",
        "offset": 0,
        "slot": "216",
        "type": "t_uint256"
      },
      {
        "astId": 26529,
        "contract": "contracts/vaults/SpreadVaults/CallSpread.sol:CallSpread",
        "label": "managementFee",
        "offset": 0,
        "slot": "217",
        "type": "t_uint256"
      },
      {
        "astId": 26533,
        "contract": "contracts/vaults/SpreadVaults/CallSpread.sol:CallSpread",
        "label": "____gap",
        "offset": 0,
        "slot": "218",
        "type": "t_array(t_uint256)30_storage"
      },
      {
        "astId": 15664,
        "contract": "contracts/vaults/SpreadVaults/CallSpread.sol:CallSpread",
        "label": "optionsPremiumPricer",
        "offset": 0,
        "slot": "248",
        "type": "t_address"
      },
      {
        "astId": 15666,
        "contract": "contracts/vaults/SpreadVaults/CallSpread.sol:CallSpread",
        "label": "strikeSelection",
        "offset": 0,
        "slot": "249",
        "type": "t_address"
      },
      {
        "astId": 15668,
        "contract": "contracts/vaults/SpreadVaults/CallSpread.sol:CallSpread",
        "label": "premiumDiscount",
        "offset": 0,
        "slot": "250",
        "type": "t_uint256"
      },
      {
        "astId": 15670,
        "contract": "contracts/vaults/SpreadVaults/CallSpread.sol:CallSpread",
        "label": "currentOtokenPremium",
        "offset": 0,
        "slot": "251",
        "type": "t_uint256"
      },
      {
        "astId": 15672,
        "contract": "contracts/vaults/SpreadVaults/CallSpread.sol:CallSpread",
        "label": "auctionDuration",
        "offset": 0,
        "slot": "252",
        "type": "t_uint256"
      },
      {
        "astId": 15674,
        "contract": "contracts/vaults/SpreadVaults/CallSpread.sol:CallSpread",
        "label": "optionAuctionID",
        "offset": 0,
        "slot": "253",
        "type": "t_uint256"
      },
      {
        "astId": 15676,
        "contract": "contracts/vaults/SpreadVaults/CallSpread.sol:CallSpread",
        "label": "lastQueuedWithdrawAmount",
        "offset": 0,
        "slot": "254",
        "type": "t_uint256"
      },
      {
        "astId": 15678,
        "contract": "contracts/vaults/SpreadVaults/CallSpread.sol:CallSpread",
        "label": "optionsPurchaseQueue",
        "offset": 0,
        "slot": "255",
        "type": "t_address"
      },
      {
        "astId": 15680,
        "contract": "contracts/vaults/SpreadVaults/CallSpread.sol:CallSpread",
        "label": "currentQueuedWithdrawShares",
        "offset": 0,
        "slot": "256",
        "type": "t_uint256"
      },
      {
        "astId": 15682,
        "contract": "contracts/vaults/SpreadVaults/CallSpread.sol:CallSpread",
        "label": "vaultPauser",
        "offset": 0,
        "slot": "257",
        "type": "t_address"
      }
    ],
    "types": {
      "t_address": {
        "encoding": "inplace",
        "label": "address",
        "numberOfBytes": "20"
      },
      "t_array(t_address)dyn_storage": {
        "base": "t_address",
        "encoding": "dynamic_array",
        "label": "address[]",
        "numberOfBytes": "32"
      },
      "t_array(t_uint256)30_storage": {
        "base": "t_uint256",
        "encoding": "inplace",
        "label": "uint256[30]",
        "numberOfBytes": "960"
      },
      "t_array(t_uint256)45_storage": {
        "base": "t_uint256",
        "encoding": "inplace",
        "label": "uint256[45]",
        "numberOfBytes": "1440"
      },
      "t_array(t_uint256)49_storage": {
        "base": "t_uint256",
        "encoding": "inplace",
        "label": "uint256[49]",
        "numberOfBytes": "1568"
      },
      "t_array(t_uint256)50_storage": {
        "base": "t_uint256",
        "encoding": "inplace",
        "label": "uint256[50]",
        "numberOfBytes": "1600"
      },
      "t_bool": {
        "encoding": "inplace",
        "label": "bool",
        "numberOfBytes": "1"
      },
      "t_mapping(t_address,t_mapping(t_address,t_uint256))": {
        "encoding": "mapping",
        "key": "t_address",
        "label": "mapping(address => mapping(address => uint256))",
        "numberOfBytes": "32",
        "value": "t_mapping(t_address,t_uint256)"
      },
      "t_mapping(t_address,t_struct(DepositReceipt)9401_storage)": {
        "encoding": "mapping",
        "key": "t_address",
        "label": "mapping(address => struct Vault.DepositReceipt)",
        "numberOfBytes": "32",
        "value": "t_struct(DepositReceipt)9401_storage"
      },
      "t_mapping(t_address,t_struct(Withdrawal)9406_storage)": {
        "encoding": "mapping",
        "key": "t_address",
        "label": "mapping(address => struct Vault.Withdrawal)",
        "numberOfBytes": "32",
        "value": "t_struct(Withdrawal)9406_storage"
      },
      "t_mapping(t_address,t_uint256)": {
        "encoding": "mapping",
        "key": "t_address",
        "label": "mapping(address => uint256)",
        "numberOfBytes": "32",
        "value": "t_uint256"
      },
      "t_mapping(t_uint256,t_uint256)": {
        "encoding": "mapping",
        "key": "t_uint256",
        "label": "mapping(uint256 => uint256)",
        "numberOfBytes": "32",
        "value": "t_uint256"
      },
      "t_string_storage": {
        "encoding": "bytes",
        "label": "string",
        "numberOfBytes": "32"
      },
      "t_struct(DepositReceipt)9401_storage": {
        "encoding": "inplace",
        "label": "struct Vault.DepositReceipt",
        "members": [
          {
            "astId": 9396,
            "contract": "contracts/vaults/SpreadVaults/CallSpread.sol:CallSpread",
            "label": "round",
            "offset": 0,
            "slot": "0",
            "type": "t_uint16"
          },
          {
            "astId": 9398,
            "contract": "contracts/vaults/SpreadVaults/CallSpread.sol:CallSpread",
            "label": "amount",
            "offset": 2,
            "slot": "0",
            "type": "t_uint104"
          },
          {
            "astId": 9400,
            "contract": "contracts/vaults/SpreadVaults/CallSpread.sol:CallSpread",
            "label": "unredeemedShares",
            "offset": 15,
            "slot": "0",
            "type": "t_uint128"
          }
        ],
        "numberOfBytes": "32"
      },
      "t_struct(SpreadState)9381_storage": {
        "encoding": "inplace",
        "label": "struct Vault.SpreadState",
        "members": [
          {
            "astId": 9371,
            "contract": "contracts/vaults/SpreadVaults/CallSpread.sol:CallSpread",
            "label": "nextSpread",
            "offset": 0,
            "slot": "0",
            "type": "t_array(t_address)dyn_storage"
          },
          {
            "astId": 9374,
            "contract": "contracts/vaults/SpreadVaults/CallSpread.sol:CallSpread",
            "label": "currentSpread",
            "offset": 0,
            "slot": "1",
            "type": "t_array(t_address)dyn_storage"
          },
          {
            "astId": 9376,
            "contract": "contracts/vaults/SpreadVaults/CallSpread.sol:CallSpread",
            "label": "nextOptionReadyAt",
            "offset": 0,
            "slot": "2",
            "type": "t_uint32"
          },
          {
            "astId": 9378,
            "contract": "contracts/vaults/SpreadVaults/CallSpread.sol:CallSpread",
            "label": "currentSpreadToken",
            "offset": 4,
            "slot": "2",
            "type": "t_address"
          },
          {
            "astId": 9380,
            "contract": "contracts/vaults/SpreadVaults/CallSpread.sol:CallSpread",
            "label": "nextSpreadToken",
            "offset": 0,
            "slot": "3",
            "type": "t_address"
          }
        ],
        "numberOfBytes": "128"
      },
      "t_struct(VaultParams)9361_storage": {
        "encoding": "inplace",
        "label": "struct Vault.VaultParams",
        "members": [
          {
            "astId": 9348,
            "contract": "contracts/vaults/SpreadVaults/CallSpread.sol:CallSpread",
            "label": "isPut",
            "offset": 0,
            "slot": "0",
            "type": "t_bool"
          },
          {
            "astId": 9350,
            "contract": "contracts/vaults/SpreadVaults/CallSpread.sol:CallSpread",
            "label": "isSpread",
            "offset": 1,
            "slot": "0",
            "type": "t_bool"
          },
          {
            "astId": 9352,
            "contract": "contracts/vaults/SpreadVaults/CallSpread.sol:CallSpread",
            "label": "decimals",
            "offset": 2,
            "slot": "0",
            "type": "t_uint8"
          },
          {
            "astId": 9354,
            "contract": "contracts/vaults/SpreadVaults/CallSpread.sol:CallSpread",
            "label": "asset",
            "offset": 3,
            "slot": "0",
            "type": "t_address"
          },
          {
            "astId": 9356,
            "contract": "contracts/vaults/SpreadVaults/CallSpread.sol:CallSpread",
            "label": "underlying",
            "offset": 0,
            "slot": "1",
            "type": "t_address"
          },
          {
            "astId": 9358,
            "contract": "contracts/vaults/SpreadVaults/CallSpread.sol:CallSpread",
            "label": "minimumSupply",
            "offset": 20,
            "slot": "1",
            "type": "t_uint56"
          },
          {
            "astId": 9360,
            "contract": "contracts/vaults/SpreadVaults/CallSpread.sol:CallSpread",
            "label": "cap",
            "offset": 0,
            "slot": "2",
            "type": "t_uint104"
          }
        ],
        "numberOfBytes": "96"
      },
      "t_struct(VaultState)9394_storage": {
        "encoding": "inplace",
        "label": "struct Vault.VaultState",
        "members": [
          {
            "astId": 9383,
            "contract": "contracts/vaults/SpreadVaults/CallSpread.sol:CallSpread",
            "label": "round",
            "offset": 0,
            "slot": "0",
            "type": "t_uint16"
          },
          {
            "astId": 9385,
            "contract": "contracts/vaults/SpreadVaults/CallSpread.sol:CallSpread",
            "label": "lockedAmount",
            "offset": 2,
            "slot": "0",
            "type": "t_uint104"
          },
          {
            "astId": 9387,
            "contract": "contracts/vaults/SpreadVaults/CallSpread.sol:CallSpread",
            "label": "lastLockedAmount",
            "offset": 15,
            "slot": "0",
            "type": "t_uint104"
          },
          {
            "astId": 9389,
            "contract": "contracts/vaults/SpreadVaults/CallSpread.sol:CallSpread",
            "label": "lockedAmountUsed",
            "offset": 0,
            "slot": "1",
            "type": "t_uint104"
          },
          {
            "astId": 9391,
            "contract": "contracts/vaults/SpreadVaults/CallSpread.sol:CallSpread",
            "label": "totalPending",
            "offset": 13,
            "slot": "1",
            "type": "t_uint128"
          },
          {
            "astId": 9393,
            "contract": "contracts/vaults/SpreadVaults/CallSpread.sol:CallSpread",
            "label": "queuedWithdrawShares",
            "offset": 0,
            "slot": "2",
            "type": "t_uint128"
          }
        ],
        "numberOfBytes": "96"
      },
      "t_struct(Withdrawal)9406_storage": {
        "encoding": "inplace",
        "label": "struct Vault.Withdrawal",
        "members": [
          {
            "astId": 9403,
            "contract": "contracts/vaults/SpreadVaults/CallSpread.sol:CallSpread",
            "label": "round",
            "offset": 0,
            "slot": "0",
            "type": "t_uint16"
          },
          {
            "astId": 9405,
            "contract": "contracts/vaults/SpreadVaults/CallSpread.sol:CallSpread",
            "label": "shares",
            "offset": 2,
            "slot": "0",
            "type": "t_uint128"
          }
        ],
        "numberOfBytes": "32"
      },
      "t_uint104": {
        "encoding": "inplace",
        "label": "uint104",
        "numberOfBytes": "13"
      },
      "t_uint128": {
        "encoding": "inplace",
        "label": "uint128",
        "numberOfBytes": "16"
      },
      "t_uint16": {
        "encoding": "inplace",
        "label": "uint16",
        "numberOfBytes": "2"
      },
      "t_uint256": {
        "encoding": "inplace",
        "label": "uint256",
        "numberOfBytes": "32"
      },
      "t_uint32": {
        "encoding": "inplace",
        "label": "uint32",
        "numberOfBytes": "4"
      },
      "t_uint56": {
        "encoding": "inplace",
        "label": "uint56",
        "numberOfBytes": "7"
      },
      "t_uint8": {
        "encoding": "inplace",
        "label": "uint8",
        "numberOfBytes": "1"
      }
    }
  }
}