{
  "address": "0xD9F0Ca4b85a1f5729B8E53F13d4105d3CBAcC36b",
  "abi": [
    {
      "inputs": [
        {
          "internalType": "address",
          "name": "_admin",
          "type": "address"
        }
      ],
      "stateMutability": "nonpayable",
      "type": "constructor"
    },
    {
      "anonymous": false,
      "inputs": [
        {
          "indexed": true,
          "internalType": "bytes32",
          "name": "role",
          "type": "bytes32"
        },
        {
          "indexed": true,
          "internalType": "bytes32",
          "name": "previousAdminRole",
          "type": "bytes32"
        },
        {
          "indexed": true,
          "internalType": "bytes32",
          "name": "newAdminRole",
          "type": "bytes32"
        }
      ],
      "name": "RoleAdminChanged",
      "type": "event"
    },
    {
      "anonymous": false,
      "inputs": [
        {
          "indexed": true,
          "internalType": "bytes32",
          "name": "role",
          "type": "bytes32"
        },
        {
          "indexed": true,
          "internalType": "address",
          "name": "account",
          "type": "address"
        },
        {
          "indexed": true,
          "internalType": "address",
          "name": "sender",
          "type": "address"
        }
      ],
      "name": "RoleGranted",
      "type": "event"
    },
    {
      "anonymous": false,
      "inputs": [
        {
          "indexed": true,
          "internalType": "bytes32",
          "name": "role",
          "type": "bytes32"
        },
        {
          "indexed": true,
          "internalType": "address",
          "name": "account",
          "type": "address"
        },
        {
          "indexed": true,
          "internalType": "address",
          "name": "sender",
          "type": "address"
        }
      ],
      "name": "RoleRevoked",
      "type": "event"
    },
    {
      "inputs": [],
      "name": "ADMIN_ROLE",
      "outputs": [
        {
          "internalType": "bytes32",
          "name": "",
          "type": "bytes32"
        }
      ],
      "stateMutability": "view",
      "type": "function"
    },
    {
      "inputs": [],
      "name": "DEFAULT_ADMIN_ROLE",
      "outputs": [
        {
          "internalType": "bytes32",
          "name": "",
          "type": "bytes32"
        }
      ],
      "stateMutability": "view",
      "type": "function"
    },
    {
      "inputs": [
        {
          "internalType": "bytes32",
          "name": "optionId",
          "type": "bytes32"
        }
      ],
      "name": "annualizedVol",
      "outputs": [
        {
          "internalType": "uint256",
          "name": "annualStdev",
          "type": "uint256"
        }
      ],
      "stateMutability": "view",
      "type": "function"
    },
    {
      "inputs": [
        {
          "internalType": "uint256",
          "name": "delta",
          "type": "uint256"
        },
        {
          "internalType": "address",
          "name": "underlying",
          "type": "address"
        },
        {
          "internalType": "address",
          "name": "collateralAsset",
          "type": "address"
        },
        {
          "internalType": "bool",
          "name": "isPut",
          "type": "bool"
        }
      ],
      "name": "annualizedVol",
      "outputs": [
        {
          "internalType": "uint256",
          "name": "annualStdev",
          "type": "uint256"
        }
      ],
      "stateMutability": "view",
      "type": "function"
    },
    {
      "inputs": [
        {
          "internalType": "uint256",
          "name": "delta",
          "type": "uint256"
        },
        {
          "internalType": "address",
          "name": "underlying",
          "type": "address"
        },
        {
          "internalType": "address",
          "name": "collateralAsset",
          "type": "address"
        },
        {
          "internalType": "bool",
          "name": "isPut",
          "type": "bool"
        }
      ],
      "name": "getOptionId",
      "outputs": [
        {
          "internalType": "bytes32",
          "name": "",
          "type": "bytes32"
        }
      ],
      "stateMutability": "pure",
      "type": "function"
    },
    {
      "inputs": [
        {
          "internalType": "bytes32",
          "name": "role",
          "type": "bytes32"
        }
      ],
      "name": "getRoleAdmin",
      "outputs": [
        {
          "internalType": "bytes32",
          "name": "",
          "type": "bytes32"
        }
      ],
      "stateMutability": "view",
      "type": "function"
    },
    {
      "inputs": [
        {
          "internalType": "bytes32",
          "name": "role",
          "type": "bytes32"
        },
        {
          "internalType": "address",
          "name": "account",
          "type": "address"
        }
      ],
      "name": "grantRole",
      "outputs": [],
      "stateMutability": "nonpayable",
      "type": "function"
    },
    {
      "inputs": [
        {
          "internalType": "bytes32",
          "name": "role",
          "type": "bytes32"
        },
        {
          "internalType": "address",
          "name": "account",
          "type": "address"
        }
      ],
      "name": "hasRole",
      "outputs": [
        {
          "internalType": "bool",
          "name": "",
          "type": "bool"
        }
      ],
      "stateMutability": "view",
      "type": "function"
    },
    {
      "inputs": [
        {
          "internalType": "bytes32",
          "name": "role",
          "type": "bytes32"
        },
        {
          "internalType": "address",
          "name": "account",
          "type": "address"
        }
      ],
      "name": "renounceRole",
      "outputs": [],
      "stateMutability": "nonpayable",
      "type": "function"
    },
    {
      "inputs": [
        {
          "internalType": "bytes32",
          "name": "role",
          "type": "bytes32"
        },
        {
          "internalType": "address",
          "name": "account",
          "type": "address"
        }
      ],
      "name": "revokeRole",
      "outputs": [],
      "stateMutability": "nonpayable",
      "type": "function"
    },
    {
      "inputs": [
        {
          "internalType": "bytes32[]",
          "name": "optionIds",
          "type": "bytes32[]"
        },
        {
          "internalType": "uint256[]",
          "name": "newAnnualizedVols",
          "type": "uint256[]"
        }
      ],
      "name": "setAnnualizedVol",
      "outputs": [],
      "stateMutability": "nonpayable",
      "type": "function"
    },
    {
      "inputs": [
        {
          "internalType": "bytes4",
          "name": "interfaceId",
          "type": "bytes4"
        }
      ],
      "name": "supportsInterface",
      "outputs": [
        {
          "internalType": "bool",
          "name": "",
          "type": "bool"
        }
      ],
      "stateMutability": "view",
      "type": "function"
    },
    {
      "inputs": [
        {
          "internalType": "bytes32",
          "name": "",
          "type": "bytes32"
        }
      ],
      "name": "vol",
      "outputs": [
        {
          "internalType": "uint256",
          "name": "standardDeviation",
          "type": "uint256"
        }
      ],
      "stateMutability": "pure",
      "type": "function"
    }
  ],
  "transactionHash": "0x2d867925ef78782c6f4812aa6557f02c7aff9f405b7441421a62fcc3c171b9ed",
  "args": [
    "0x84a9Ea1F5F2F4D0685147B1cD1374f470FcB76dB"
  ],
  "solcInputHash": "0b661045502b2db7c75b11c9ab995e96",
  "bytecode": "0x608060405234801561001057600080fd5b50604051610d0e380380610d0e83398101604081905261002f9161015a565b6001600160a01b0381166100735760405162461bcd60e51b815260206004820152600760248201526610afb0b236b4b760c91b604482015260640160405180910390fd5b61009d7fdf8b4c520ffe197c5343c6f5aec59570151ef9a492f2c624fd45ddde6135ec42826100ae565b6100a86000826100ae565b5061018a565b6100b882826100bc565b5050565b6000828152602081815260408083206001600160a01b038516845290915290205460ff166100b8576000828152602081815260408083206001600160a01b03851684529091529020805460ff191660011790556101163390565b6001600160a01b0316816001600160a01b0316837f2f8788117e7eff1d82e926ec794901d17c78024a50270940304540a733656f0d60405160405180910390a45050565b60006020828403121561016c57600080fd5b81516001600160a01b038116811461018357600080fd5b9392505050565b610b75806101996000396000f3fe608060405234801561001057600080fd5b50600436106100af5760003560e01c806301ffc9a7146100b4578063248a9ca3146100dc57806327e8de0c146100fd5780632f2ff15d1461011157806336568abe146101265780635ecfdf1e1461013957806363acb03e1461015957806375b238fc1461016c5780638b7a6e3a1461018157806391d1485414610194578063a217fddf146101a7578063d547741f146101af578063fa4511a8146101c2575b600080fd5b6100c76100c2366004610828565b6101d5565b60405190151581526020015b60405180910390f35b6100ef6100ea366004610852565b61020c565b6040519081526020016100d3565b6100ef61010b366004610852565b50600090565b61012461011f366004610887565b610221565b005b610124610134366004610887565b610242565b6100ef610147366004610852565b60009081526001602052604090205490565b6100ef6101673660046108b3565b6102c5565b6100ef600080516020610b2083398151915281565b6100ef61018f3660046108b3565b6102f0565b6100c76101a2366004610887565b610340565b6100ef600081565b6101246101bd366004610887565b610369565b6101246101d0366004610952565b610385565b60006001600160e01b03198216637965db0b60e01b148061020657506301ffc9a760e01b6001600160e01b03198316145b92915050565b60009081526020819052604090206001015490565b61022a8261020c565b61023381610525565b61023d8383610532565b505050565b6001600160a01b03811633146102b75760405162461bcd60e51b815260206004820152602f60248201527f416363657373436f6e74726f6c3a2063616e206f6e6c792072656e6f756e636560448201526e103937b632b9903337b91039b2b63360891b60648201526084015b60405180910390fd5b6102c182826105b6565b5050565b6000600160006102d7878787876102f0565b8152602001908152602001600020549050949350505050565b604080516020808201969096526001600160601b0319606095861b8116828401529390941b9092166054840152151560f81b60688301528051808303604901815260699092019052805191012090565b6000918252602082815260408084206001600160a01b0393909316845291905290205460ff1690565b6103728261020c565b61037b81610525565b61023d83836105b6565b61039d600080516020610b2083398151915233610340565b6103d25760405162461bcd60e51b815260206004820152600660248201526510b0b236b4b760d11b60448201526064016102ae565b82811461041c5760405162461bcd60e51b8152602060048201526018602482015277125b9c1d5d081b195b99dd1a1cc81b5a5cdb585d18da195960421b60448201526064016102ae565b60005b8381101561051e57600085858381811061043b5761043b6109bd565b9050602002013590506000848484818110610458576104586109bd565b9050602002013590506302faf08081116104ae5760405162461bcd60e51b815260206004820152601760248201527643616e6e6f74206265206c657373207468616e2035302560481b60448201526064016102ae565b6317d7840081106104fc5760405162461bcd60e51b815260206004820152601860248201527743616e6e6f74206265206d6f7265207468616e203430302560401b60448201526064016102ae565b6000918252600160205260409091205580610516816109e9565b91505061041f565b5050505050565b61052f813361061b565b50565b61053c8282610340565b6102c1576000828152602081815260408083206001600160a01b03851684529091529020805460ff191660011790556105723390565b6001600160a01b0316816001600160a01b0316837f2f8788117e7eff1d82e926ec794901d17c78024a50270940304540a733656f0d60405160405180910390a45050565b6105c08282610340565b156102c1576000828152602081815260408083206001600160a01b0385168085529252808320805460ff1916905551339285917ff6391f5c32d9c69d2a47ea670b442974b53935d1edc7fd64eb21e047a839171b9190a45050565b6106258282610340565b6102c15761063281610674565b61063d836020610686565b60405160200161064e929190610a26565b60408051601f198184030181529082905262461bcd60e51b82526102ae91600401610a95565b60606102066001600160a01b03831660145b60606000610695836002610ac8565b6106a0906002610adf565b6001600160401b038111156106b7576106b7610af2565b6040519080825280601f01601f1916602001820160405280156106e1576020820181803683370190505b509050600360fc1b816000815181106106fc576106fc6109bd565b60200101906001600160f81b031916908160001a905350600f60fb1b8160018151811061072b5761072b6109bd565b60200101906001600160f81b031916908160001a905350600061074f846002610ac8565b61075a906001610adf565b90505b60018111156107d2576f181899199a1a9b1b9c1cb0b131b232b360811b85600f166010811061078e5761078e6109bd565b1a60f81b8282815181106107a4576107a46109bd565b60200101906001600160f81b031916908160001a90535060049490941c936107cb81610b08565b905061075d565b5083156108215760405162461bcd60e51b815260206004820181905260248201527f537472696e67733a20686578206c656e67746820696e73756666696369656e7460448201526064016102ae565b9392505050565b60006020828403121561083a57600080fd5b81356001600160e01b03198116811461082157600080fd5b60006020828403121561086457600080fd5b5035919050565b80356001600160a01b038116811461088257600080fd5b919050565b6000806040838503121561089a57600080fd5b823591506108aa6020840161086b565b90509250929050565b600080600080608085870312156108c957600080fd5b843593506108d96020860161086b565b92506108e76040860161086b565b9150606085013580151581146108fc57600080fd5b939692955090935050565b60008083601f84011261091957600080fd5b5081356001600160401b0381111561093057600080fd5b6020830191508360208260051b850101111561094b57600080fd5b9250929050565b6000806000806040858703121561096857600080fd5b84356001600160401b038082111561097f57600080fd5b61098b88838901610907565b909650945060208701359150808211156109a457600080fd5b506109b187828801610907565b95989497509550505050565b634e487b7160e01b600052603260045260246000fd5b634e487b7160e01b600052601160045260246000fd5b6000600182016109fb576109fb6109d3565b5060010190565b60005b83811015610a1d578181015183820152602001610a05565b50506000910152565b76020b1b1b2b9b9a1b7b73a3937b61d1030b1b1b7bab73a1604d1b815260008351610a58816017850160208801610a02565b7001034b99036b4b9b9b4b733903937b6329607d1b6017918401918201528351610a89816028840160208801610a02565b01602801949350505050565b6020815260008251806020840152610ab4816040850160208701610a02565b601f01601f19169190910160400192915050565b8082028115828204841417610206576102066109d3565b80820180821115610206576102066109d3565b634e487b7160e01b600052604160045260246000fd5b600081610b1757610b176109d3565b50600019019056fedf8b4c520ffe197c5343c6f5aec59570151ef9a492f2c624fd45ddde6135ec42a264697066735822122098dbb1bedaec9284168397e18d47df29e936ac9de9d58c6164d16d834d3ed7b764736f6c63430008110033",
  "devdoc": {
    "kind": "dev",
    "methods": {
      "annualizedVol(bytes32)": {
        "params": {
          "optionId": "is the encoded id for the option struct"
        },
        "returns": {
          "annualStdev": "is the annualized standard deviation of the asset"
        }
      },
      "annualizedVol(uint256,address,address,bool)": {
        "params": {
          "collateralAsset": "is the collateral used to collateralize the option",
          "delta": "is the option's delta, in units of 10**8. E.g. 105% = 1.05 * 10**8",
          "isPut": "is the flag used to determine if an option is a put or call",
          "underlying": "is the underlying of the option"
        },
        "returns": {
          "annualStdev": "is the annualized standard deviation of the asset"
        }
      },
      "constructor": {
        "params": {
          "_admin": "is the admin"
        }
      },
      "getOptionId(uint256,address,address,bool)": {
        "params": {
          "collateralAsset": "is the collateral used to collateralize the option",
          "delta": "is the option's delta, in units of 10**4. E.g. 0.1d = 0.1 * 10**4",
          "isPut": "is the flag used to determine if an option is a put or call",
          "underlying": "is the underlying of the option"
        }
      },
      "getRoleAdmin(bytes32)": {
        "details": "Returns the admin role that controls `role`. See {grantRole} and {revokeRole}. To change a role's admin, use {_setRoleAdmin}."
      },
      "grantRole(bytes32,address)": {
        "details": "Grants `role` to `account`. If `account` had not been already granted `role`, emits a {RoleGranted} event. Requirements: - the caller must have ``role``'s admin role. May emit a {RoleGranted} event."
      },
      "hasRole(bytes32,address)": {
        "details": "Returns `true` if `account` has been granted `role`."
      },
      "renounceRole(bytes32,address)": {
        "details": "Revokes `role` from the calling account. Roles are often managed via {grantRole} and {revokeRole}: this function's purpose is to provide a mechanism for accounts to lose their privileges if they are compromised (such as when a trusted device is misplaced). If the calling account had been revoked `role`, emits a {RoleRevoked} event. Requirements: - the caller must be `account`. May emit a {RoleRevoked} event."
      },
      "revokeRole(bytes32,address)": {
        "details": "Revokes `role` from `account`. If `account` had been granted `role`, emits a {RoleRevoked} event. Requirements: - the caller must have ``role``'s admin role. May emit a {RoleRevoked} event."
      },
      "setAnnualizedVol(bytes32[],uint256[])": {
        "params": {
          "newAnnualizedVols": "is an array of the annualized volatility with 10**8 decimals i.e. 1*10**8 = 100%",
          "optionIds": "is an array of Option IDs encoded and hashed with optionId"
        }
      },
      "supportsInterface(bytes4)": {
        "details": "See {IERC165-supportsInterface}."
      },
      "vol(bytes32)": {
        "returns": {
          "standardDeviation": "is the standard deviation of the asset"
        }
      }
    },
    "stateVariables": {
      "ADMIN_ROLE": {
        "details": "The identifier of the role which maintains other roles."
      },
      "annualizedVols": {
        "details": "Map of option id to IV"
      }
    },
    "version": 1
  },
  "userdoc": {
    "kind": "user",
    "methods": {
      "annualizedVol(bytes32)": {
        "notice": "Returns the annualized standard deviation of the base currency in 10**8 i.e. 1*10**8 = 100%"
      },
      "annualizedVol(uint256,address,address,bool)": {
        "notice": "Returns the annualized standard deviation of the base currency in 10**8 i.e. 1*10**8 = 100%"
      },
      "constructor": {
        "notice": "Creates an volatility oracle for a pool"
      },
      "getOptionId(uint256,address,address,bool)": {
        "notice": "Computes the option id for a given Option struct"
      },
      "setAnnualizedVol(bytes32[],uint256[])": {
        "notice": "Sets the annualized standard deviation of the base currency of one or more `pool(s)`"
      },
      "vol(bytes32)": {
        "notice": "Returns the standard deviation of the base currency in 10**8 i.e. 1*10**8 = 100%"
      }
    },
    "version": 1
  },
  "storageLayout": {
    "storage": [
      {
        "astId": 1019,
        "contract": "contracts/oracles/ManualVolOracle.sol:ManualVolOracle",
        "label": "_roles",
        "offset": 0,
        "slot": "0",
        "type": "t_mapping(t_bytes32,t_struct(RoleData)1014_storage)"
      },
      {
        "astId": 14800,
        "contract": "contracts/oracles/ManualVolOracle.sol:ManualVolOracle",
        "label": "annualizedVols",
        "offset": 0,
        "slot": "1",
        "type": "t_mapping(t_bytes32,t_uint256)"
      }
    ],
    "types": {
      "t_address": {
        "encoding": "inplace",
        "label": "address",
        "numberOfBytes": "20"
      },
      "t_bool": {
        "encoding": "inplace",
        "label": "bool",
        "numberOfBytes": "1"
      },
      "t_bytes32": {
        "encoding": "inplace",
        "label": "bytes32",
        "numberOfBytes": "32"
      },
      "t_mapping(t_address,t_bool)": {
        "encoding": "mapping",
        "key": "t_address",
        "label": "mapping(address => bool)",
        "numberOfBytes": "32",
        "value": "t_bool"
      },
      "t_mapping(t_bytes32,t_struct(RoleData)1014_storage)": {
        "encoding": "mapping",
        "key": "t_bytes32",
        "label": "mapping(bytes32 => struct AccessControl.RoleData)",
        "numberOfBytes": "32",
        "value": "t_struct(RoleData)1014_storage"
      },
      "t_mapping(t_bytes32,t_uint256)": {
        "encoding": "mapping",
        "key": "t_bytes32",
        "label": "mapping(bytes32 => uint256)",
        "numberOfBytes": "32",
        "value": "t_uint256"
      },
      "t_struct(RoleData)1014_storage": {
        "encoding": "inplace",
        "label": "struct AccessControl.RoleData",
        "members": [
          {
            "astId": 1011,
            "contract": "contracts/oracles/ManualVolOracle.sol:ManualVolOracle",
            "label": "members",
            "offset": 0,
            "slot": "0",
            "type": "t_mapping(t_address,t_bool)"
          },
          {
            "astId": 1013,
            "contract": "contracts/oracles/ManualVolOracle.sol:ManualVolOracle",
            "label": "adminRole",
            "offset": 0,
            "slot": "1",
            "type": "t_bytes32"
          }
        ],
        "numberOfBytes": "64"
      },
      "t_uint256": {
        "encoding": "inplace",
        "label": "uint256",
        "numberOfBytes": "32"
      }
    }
  }
}