{
  "address": "0xBbF10A487A206aC54cb69f79dfbFE60D2c8AC31F",
  "abi": [
    {
      "inputs": [
        {
          "internalType": "address",
          "name": "_wnative",
          "type": "address"
        },
        {
          "internalType": "address",
          "name": "_usdc",
          "type": "address"
        },
        {
          "internalType": "address",
          "name": "_oTokenFactory",
          "type": "address"
        },
        {
          "internalType": "address",
          "name": "_gammaController",
          "type": "address"
        },
        {
          "internalType": "address",
          "name": "_marginPool",
          "type": "address"
        },
        {
          "internalType": "address",
          "name": "_gnosisEasyAuction",
          "type": "address"
        },
        {
          "internalType": "address",
          "name": "_spreadTokenLogic",
          "type": "address"
        }
      ],
      "stateMutability": "nonpayable",
      "type": "constructor"
    },
    {
      "anonymous": false,
      "inputs": [
        {
          "indexed": true,
          "internalType": "address",
          "name": "owner",
          "type": "address"
        },
        {
          "indexed": true,
          "internalType": "address",
          "name": "spender",
          "type": "address"
        },
        {
          "indexed": false,
          "internalType": "uint256",
          "name": "value",
          "type": "uint256"
        }
      ],
      "name": "Approval",
      "type": "event"
    },
    {
      "anonymous": false,
      "inputs": [
        {
          "indexed": false,
          "internalType": "uint256",
          "name": "auctionDuration",
          "type": "uint256"
        },
        {
          "indexed": false,
          "internalType": "uint256",
          "name": "newAuctionDuration",
          "type": "uint256"
        }
      ],
      "name": "AuctionDurationSet",
      "type": "event"
    },
    {
      "anonymous": false,
      "inputs": [
        {
          "indexed": false,
          "internalType": "uint256",
          "name": "oldCap",
          "type": "uint256"
        },
        {
          "indexed": false,
          "internalType": "uint256",
          "name": "newCap",
          "type": "uint256"
        }
      ],
      "name": "CapSet",
      "type": "event"
    },
    {
      "anonymous": false,
      "inputs": [
        {
          "indexed": false,
          "internalType": "address[]",
          "name": "spread",
          "type": "address[]"
        },
        {
          "indexed": false,
          "internalType": "uint256",
          "name": "withdrawAmount",
          "type": "uint256"
        },
        {
          "indexed": true,
          "internalType": "address",
          "name": "manager",
          "type": "address"
        },
        {
          "indexed": true,
          "internalType": "address",
          "name": "spreadToken",
          "type": "address"
        }
      ],
      "name": "CloseSpread",
      "type": "event"
    },
    {
      "anonymous": false,
      "inputs": [
        {
          "indexed": false,
          "internalType": "uint256",
          "name": "performanceFee",
          "type": "uint256"
        },
        {
          "indexed": false,
          "internalType": "uint256",
          "name": "vaultFee",
          "type": "uint256"
        },
        {
          "indexed": false,
          "internalType": "uint256",
          "name": "round",
          "type": "uint256"
        },
        {
          "indexed": true,
          "internalType": "address",
          "name": "feeRecipient",
          "type": "address"
        }
      ],
      "name": "CollectVaultFees",
      "type": "event"
    },
    {
      "anonymous": false,
      "inputs": [
        {
          "indexed": true,
          "internalType": "address",
          "name": "account",
          "type": "address"
        },
        {
          "indexed": false,
          "internalType": "uint256",
          "name": "amount",
          "type": "uint256"
        },
        {
          "indexed": false,
          "internalType": "uint256",
          "name": "round",
          "type": "uint256"
        }
      ],
      "name": "Deposit",
      "type": "event"
    },
    {
      "anonymous": false,
      "inputs": [
        {
          "indexed": true,
          "internalType": "address",
          "name": "account",
          "type": "address"
        },
        {
          "indexed": false,
          "internalType": "uint256",
          "name": "shares",
          "type": "uint256"
        },
        {
          "indexed": false,
          "internalType": "uint256",
          "name": "round",
          "type": "uint256"
        }
      ],
      "name": "InitiateWithdraw",
      "type": "event"
    },
    {
      "anonymous": false,
      "inputs": [
        {
          "indexed": true,
          "internalType": "address",
          "name": "account",
          "type": "address"
        },
        {
          "indexed": false,
          "internalType": "uint256",
          "name": "amount",
          "type": "uint256"
        },
        {
          "indexed": false,
          "internalType": "uint256",
          "name": "round",
          "type": "uint256"
        }
      ],
      "name": "InstantWithdraw",
      "type": "event"
    },
    {
      "anonymous": false,
      "inputs": [
        {
          "indexed": false,
          "internalType": "uint256",
          "name": "managementFee",
          "type": "uint256"
        },
        {
          "indexed": false,
          "internalType": "uint256",
          "name": "newManagementFee",
          "type": "uint256"
        }
      ],
      "name": "ManagementFeeSet",
      "type": "event"
    },
    {
      "anonymous": false,
      "inputs": [
        {
          "indexed": false,
          "internalType": "uint256[]",
          "name": "strikePrices",
          "type": "uint256[]"
        },
        {
          "indexed": false,
          "internalType": "uint256[]",
          "name": "deltas",
          "type": "uint256[]"
        },
        {
          "indexed": false,
          "internalType": "address",
          "name": "spreadToken",
          "type": "address"
        }
      ],
      "name": "NewSpreadStrikesSelected",
      "type": "event"
    },
    {
      "anonymous": false,
      "inputs": [
        {
          "indexed": false,
          "internalType": "address[]",
          "name": "spread",
          "type": "address[]"
        },
        {
          "indexed": false,
          "internalType": "uint256",
          "name": "depositAmount",
          "type": "uint256"
        },
        {
          "indexed": true,
          "internalType": "address",
          "name": "manager",
          "type": "address"
        },
        {
          "indexed": true,
          "internalType": "address",
          "name": "spreadToken",
          "type": "address"
        }
      ],
      "name": "OpenSpread",
      "type": "event"
    },
    {
      "anonymous": false,
      "inputs": [
        {
          "indexed": true,
          "internalType": "address",
          "name": "previousOwner",
          "type": "address"
        },
        {
          "indexed": true,
          "internalType": "address",
          "name": "newOwner",
          "type": "address"
        }
      ],
      "name": "OwnershipTransferred",
      "type": "event"
    },
    {
      "anonymous": false,
      "inputs": [
        {
          "indexed": false,
          "internalType": "uint256",
          "name": "performanceFee",
          "type": "uint256"
        },
        {
          "indexed": false,
          "internalType": "uint256",
          "name": "newPerformanceFee",
          "type": "uint256"
        }
      ],
      "name": "PerformanceFeeSet",
      "type": "event"
    },
    {
      "anonymous": false,
      "inputs": [
        {
          "indexed": false,
          "internalType": "uint256",
          "name": "premiumDiscount",
          "type": "uint256"
        },
        {
          "indexed": false,
          "internalType": "uint256",
          "name": "newPremiumDiscount",
          "type": "uint256"
        }
      ],
      "name": "PremiumDiscountSet",
      "type": "event"
    },
    {
      "anonymous": false,
      "inputs": [
        {
          "indexed": true,
          "internalType": "address",
          "name": "account",
          "type": "address"
        },
        {
          "indexed": false,
          "internalType": "uint256",
          "name": "share",
          "type": "uint256"
        },
        {
          "indexed": false,
          "internalType": "uint256",
          "name": "round",
          "type": "uint256"
        }
      ],
      "name": "Redeem",
      "type": "event"
    },
    {
      "anonymous": false,
      "inputs": [
        {
          "indexed": true,
          "internalType": "address",
          "name": "from",
          "type": "address"
        },
        {
          "indexed": true,
          "internalType": "address",
          "name": "to",
          "type": "address"
        },
        {
          "indexed": false,
          "internalType": "uint256",
          "name": "value",
          "type": "uint256"
        }
      ],
      "name": "Transfer",
      "type": "event"
    },
    {
      "anonymous": false,
      "inputs": [
        {
          "indexed": true,
          "internalType": "address",
          "name": "account",
          "type": "address"
        },
        {
          "indexed": false,
          "internalType": "uint256",
          "name": "amount",
          "type": "uint256"
        },
        {
          "indexed": false,
          "internalType": "uint256",
          "name": "shares",
          "type": "uint256"
        }
      ],
      "name": "Withdraw",
      "type": "event"
    },
    {
      "inputs": [],
      "name": "GAMMA_CONTROLLER",
      "outputs": [
        {
          "internalType": "address",
          "name": "",
          "type": "address"
        }
      ],
      "stateMutability": "view",
      "type": "function"
    },
    {
      "inputs": [],
      "name": "GNOSIS_EASY_AUCTION",
      "outputs": [
        {
          "internalType": "address",
          "name": "",
          "type": "address"
        }
      ],
      "stateMutability": "view",
      "type": "function"
    },
    {
      "inputs": [],
      "name": "MARGIN_POOL",
      "outputs": [
        {
          "internalType": "address",
          "name": "",
          "type": "address"
        }
      ],
      "stateMutability": "view",
      "type": "function"
    },
    {
      "inputs": [],
      "name": "OTOKEN_FACTORY",
      "outputs": [
        {
          "internalType": "address",
          "name": "",
          "type": "address"
        }
      ],
      "stateMutability": "view",
      "type": "function"
    },
    {
      "inputs": [],
      "name": "SPREAD_TOKEN",
      "outputs": [
        {
          "internalType": "address",
          "name": "",
          "type": "address"
        }
      ],
      "stateMutability": "view",
      "type": "function"
    },
    {
      "inputs": [],
      "name": "USDC",
      "outputs": [
        {
          "internalType": "address",
          "name": "",
          "type": "address"
        }
      ],
      "stateMutability": "view",
      "type": "function"
    },
    {
      "inputs": [],
      "name": "WNATIVE",
      "outputs": [
        {
          "internalType": "address",
          "name": "",
          "type": "address"
        }
      ],
      "stateMutability": "view",
      "type": "function"
    },
    {
      "inputs": [
        {
          "internalType": "address",
          "name": "account",
          "type": "address"
        }
      ],
      "name": "accountVaultBalance",
      "outputs": [
        {
          "internalType": "uint256",
          "name": "",
          "type": "uint256"
        }
      ],
      "stateMutability": "view",
      "type": "function"
    },
    {
      "inputs": [
        {
          "internalType": "address",
          "name": "owner",
          "type": "address"
        },
        {
          "internalType": "address",
          "name": "spender",
          "type": "address"
        }
      ],
      "name": "allowance",
      "outputs": [
        {
          "internalType": "uint256",
          "name": "",
          "type": "uint256"
        }
      ],
      "stateMutability": "view",
      "type": "function"
    },
    {
      "inputs": [
        {
          "internalType": "address",
          "name": "spender",
          "type": "address"
        },
        {
          "internalType": "uint256",
          "name": "amount",
          "type": "uint256"
        }
      ],
      "name": "approve",
      "outputs": [
        {
          "internalType": "bool",
          "name": "",
          "type": "bool"
        }
      ],
      "stateMutability": "nonpayable",
      "type": "function"
    },
    {
      "inputs": [],
      "name": "auctionDuration",
      "outputs": [
        {
          "internalType": "uint256",
          "name": "",
          "type": "uint256"
        }
      ],
      "stateMutability": "view",
      "type": "function"
    },
    {
      "inputs": [
        {
          "internalType": "address",
          "name": "account",
          "type": "address"
        }
      ],
      "name": "balanceOf",
      "outputs": [
        {
          "internalType": "uint256",
          "name": "",
          "type": "uint256"
        }
      ],
      "stateMutability": "view",
      "type": "function"
    },
    {
      "inputs": [],
      "name": "cap",
      "outputs": [
        {
          "internalType": "uint256",
          "name": "",
          "type": "uint256"
        }
      ],
      "stateMutability": "view",
      "type": "function"
    },
    {
      "inputs": [],
      "name": "commitAndClose",
      "outputs": [],
      "stateMutability": "nonpayable",
      "type": "function"
    },
    {
      "inputs": [],
      "name": "completeWithdraw",
      "outputs": [],
      "stateMutability": "nonpayable",
      "type": "function"
    },
    {
      "inputs": [],
      "name": "currentQueuedWithdrawShares",
      "outputs": [
        {
          "internalType": "uint256",
          "name": "",
          "type": "uint256"
        }
      ],
      "stateMutability": "view",
      "type": "function"
    },
    {
      "inputs": [],
      "name": "currentSpread",
      "outputs": [
        {
          "internalType": "address[]",
          "name": "",
          "type": "address[]"
        }
      ],
      "stateMutability": "view",
      "type": "function"
    },
    {
      "inputs": [],
      "name": "currentSpreadPremium",
      "outputs": [
        {
          "internalType": "uint256",
          "name": "",
          "type": "uint256"
        }
      ],
      "stateMutability": "view",
      "type": "function"
    },
    {
      "inputs": [],
      "name": "decimals",
      "outputs": [
        {
          "internalType": "uint8",
          "name": "",
          "type": "uint8"
        }
      ],
      "stateMutability": "view",
      "type": "function"
    },
    {
      "inputs": [
        {
          "internalType": "address",
          "name": "spender",
          "type": "address"
        },
        {
          "internalType": "uint256",
          "name": "subtractedValue",
          "type": "uint256"
        }
      ],
      "name": "decreaseAllowance",
      "outputs": [
        {
          "internalType": "bool",
          "name": "",
          "type": "bool"
        }
      ],
      "stateMutability": "nonpayable",
      "type": "function"
    },
    {
      "inputs": [
        {
          "internalType": "uint256",
          "name": "amount",
          "type": "uint256"
        }
      ],
      "name": "deposit",
      "outputs": [],
      "stateMutability": "nonpayable",
      "type": "function"
    },
    {
      "inputs": [],
      "name": "depositETH",
      "outputs": [],
      "stateMutability": "payable",
      "type": "function"
    },
    {
      "inputs": [
        {
          "internalType": "uint256",
          "name": "amount",
          "type": "uint256"
        },
        {
          "internalType": "address",
          "name": "creditor",
          "type": "address"
        }
      ],
      "name": "depositFor",
      "outputs": [],
      "stateMutability": "nonpayable",
      "type": "function"
    },
    {
      "inputs": [
        {
          "internalType": "address",
          "name": "",
          "type": "address"
        }
      ],
      "name": "depositReceipts",
      "outputs": [
        {
          "internalType": "uint16",
          "name": "round",
          "type": "uint16"
        },
        {
          "internalType": "uint104",
          "name": "amount",
          "type": "uint104"
        },
        {
          "internalType": "uint128",
          "name": "unredeemedShares",
          "type": "uint128"
        }
      ],
      "stateMutability": "view",
      "type": "function"
    },
    {
      "inputs": [],
      "name": "feeRecipient",
      "outputs": [
        {
          "internalType": "address",
          "name": "",
          "type": "address"
        }
      ],
      "stateMutability": "view",
      "type": "function"
    },
    {
      "inputs": [
        {
          "internalType": "address",
          "name": "spender",
          "type": "address"
        },
        {
          "internalType": "uint256",
          "name": "addedValue",
          "type": "uint256"
        }
      ],
      "name": "increaseAllowance",
      "outputs": [
        {
          "internalType": "bool",
          "name": "",
          "type": "bool"
        }
      ],
      "stateMutability": "nonpayable",
      "type": "function"
    },
    {
      "inputs": [
        {
          "internalType": "uint256",
          "name": "numRounds",
          "type": "uint256"
        }
      ],
      "name": "initRounds",
      "outputs": [],
      "stateMutability": "nonpayable",
      "type": "function"
    },
    {
      "inputs": [
        {
          "components": [
            {
              "internalType": "address",
              "name": "_owner",
              "type": "address"
            },
            {
              "internalType": "address",
              "name": "_keeper",
              "type": "address"
            },
            {
              "internalType": "address",
              "name": "_feeRecipient",
              "type": "address"
            },
            {
              "internalType": "uint256",
              "name": "_managementFee",
              "type": "uint256"
            },
            {
              "internalType": "uint256",
              "name": "_performanceFee",
              "type": "uint256"
            },
            {
              "internalType": "string",
              "name": "_tokenName",
              "type": "string"
            },
            {
              "internalType": "string",
              "name": "_tokenSymbol",
              "type": "string"
            },
            {
              "internalType": "address",
              "name": "_optionsPremiumPricer",
              "type": "address"
            },
            {
              "internalType": "address",
              "name": "_strikeSelection",
              "type": "address"
            },
            {
              "internalType": "uint32",
              "name": "_premiumDiscount",
              "type": "uint32"
            },
            {
              "internalType": "uint256",
              "name": "_auctionDuration",
              "type": "uint256"
            }
          ],
          "internalType": "struct SpreadVault.InitParams",
          "name": "_initParams",
          "type": "tuple"
        },
        {
          "components": [
            {
              "internalType": "bool",
              "name": "isPut",
              "type": "bool"
            },
            {
              "internalType": "bool",
              "name": "isSpread",
              "type": "bool"
            },
            {
              "internalType": "uint8",
              "name": "decimals",
              "type": "uint8"
            },
            {
              "internalType": "address",
              "name": "asset",
              "type": "address"
            },
            {
              "internalType": "address",
              "name": "underlying",
              "type": "address"
            },
            {
              "internalType": "uint56",
              "name": "minimumSupply",
              "type": "uint56"
            },
            {
              "internalType": "uint104",
              "name": "cap",
              "type": "uint104"
            }
          ],
          "internalType": "struct Vault.VaultParams",
          "name": "_vaultParams",
          "type": "tuple"
        }
      ],
      "name": "initialize",
      "outputs": [],
      "stateMutability": "nonpayable",
      "type": "function"
    },
    {
      "inputs": [
        {
          "internalType": "uint256",
          "name": "numShares",
          "type": "uint256"
        }
      ],
      "name": "initiateWithdraw",
      "outputs": [],
      "stateMutability": "nonpayable",
      "type": "function"
    },
    {
      "inputs": [],
      "name": "keeper",
      "outputs": [
        {
          "internalType": "address",
          "name": "",
          "type": "address"
        }
      ],
      "stateMutability": "view",
      "type": "function"
    },
    {
      "inputs": [],
      "name": "lastQueuedWithdrawAmount",
      "outputs": [
        {
          "internalType": "uint256",
          "name": "",
          "type": "uint256"
        }
      ],
      "stateMutability": "view",
      "type": "function"
    },
    {
      "inputs": [],
      "name": "managementFee",
      "outputs": [
        {
          "internalType": "uint256",
          "name": "",
          "type": "uint256"
        }
      ],
      "stateMutability": "view",
      "type": "function"
    },
    {
      "inputs": [],
      "name": "name",
      "outputs": [
        {
          "internalType": "string",
          "name": "",
          "type": "string"
        }
      ],
      "stateMutability": "view",
      "type": "function"
    },
    {
      "inputs": [],
      "name": "nextOptionReadyAt",
      "outputs": [
        {
          "internalType": "uint256",
          "name": "",
          "type": "uint256"
        }
      ],
      "stateMutability": "view",
      "type": "function"
    },
    {
      "inputs": [],
      "name": "nextSpread",
      "outputs": [
        {
          "internalType": "address[]",
          "name": "",
          "type": "address[]"
        }
      ],
      "stateMutability": "view",
      "type": "function"
    },
    {
      "inputs": [],
      "name": "optionAuctionID",
      "outputs": [
        {
          "internalType": "uint256",
          "name": "",
          "type": "uint256"
        }
      ],
      "stateMutability": "view",
      "type": "function"
    },
    {
      "inputs": [],
      "name": "optionsPremiumPricer",
      "outputs": [
        {
          "internalType": "address",
          "name": "",
          "type": "address"
        }
      ],
      "stateMutability": "view",
      "type": "function"
    },
    {
      "inputs": [],
      "name": "owner",
      "outputs": [
        {
          "internalType": "address",
          "name": "",
          "type": "address"
        }
      ],
      "stateMutability": "view",
      "type": "function"
    },
    {
      "inputs": [],
      "name": "performanceFee",
      "outputs": [
        {
          "internalType": "uint256",
          "name": "",
          "type": "uint256"
        }
      ],
      "stateMutability": "view",
      "type": "function"
    },
    {
      "inputs": [],
      "name": "premiumDiscount",
      "outputs": [
        {
          "internalType": "uint256",
          "name": "",
          "type": "uint256"
        }
      ],
      "stateMutability": "view",
      "type": "function"
    },
    {
      "inputs": [],
      "name": "pricePerShare",
      "outputs": [
        {
          "internalType": "uint256",
          "name": "",
          "type": "uint256"
        }
      ],
      "stateMutability": "view",
      "type": "function"
    },
    {
      "inputs": [
        {
          "internalType": "address",
          "name": "token",
          "type": "address"
        },
        {
          "internalType": "address",
          "name": "recipient",
          "type": "address"
        }
      ],
      "name": "recoverTokens",
      "outputs": [],
      "stateMutability": "nonpayable",
      "type": "function"
    },
    {
      "inputs": [
        {
          "internalType": "uint256",
          "name": "numShares",
          "type": "uint256"
        },
        {
          "internalType": "bool",
          "name": "isMax",
          "type": "bool"
        }
      ],
      "name": "redeem",
      "outputs": [],
      "stateMutability": "nonpayable",
      "type": "function"
    },
    {
      "inputs": [],
      "name": "renounceOwnership",
      "outputs": [],
      "stateMutability": "nonpayable",
      "type": "function"
    },
    {
      "inputs": [
        {
          "internalType": "uint256",
          "name": "index",
          "type": "uint256"
        }
      ],
      "name": "rollToNextOption",
      "outputs": [],
      "stateMutability": "nonpayable",
      "type": "function"
    },
    {
      "inputs": [
        {
          "internalType": "uint256",
          "name": "",
          "type": "uint256"
        }
      ],
      "name": "roundPricePerShare",
      "outputs": [
        {
          "internalType": "uint256",
          "name": "",
          "type": "uint256"
        }
      ],
      "stateMutability": "view",
      "type": "function"
    },
    {
      "inputs": [
        {
          "internalType": "uint256",
          "name": "newAuctionDuration",
          "type": "uint256"
        }
      ],
      "name": "setAuctionDuration",
      "outputs": [],
      "stateMutability": "nonpayable",
      "type": "function"
    },
    {
      "inputs": [
        {
          "internalType": "uint256",
          "name": "newCap",
          "type": "uint256"
        }
      ],
      "name": "setCap",
      "outputs": [],
      "stateMutability": "nonpayable",
      "type": "function"
    },
    {
      "inputs": [
        {
          "internalType": "address",
          "name": "newFeeRecipient",
          "type": "address"
        }
      ],
      "name": "setFeeRecipient",
      "outputs": [],
      "stateMutability": "nonpayable",
      "type": "function"
    },
    {
      "inputs": [
        {
          "internalType": "uint256",
          "name": "newManagementFee",
          "type": "uint256"
        }
      ],
      "name": "setManagementFee",
      "outputs": [],
      "stateMutability": "nonpayable",
      "type": "function"
    },
    {
      "inputs": [
        {
          "internalType": "uint256",
          "name": "minPrice",
          "type": "uint256"
        }
      ],
      "name": "setMinPrice",
      "outputs": [],
      "stateMutability": "nonpayable",
      "type": "function"
    },
    {
      "inputs": [
        {
          "internalType": "address",
          "name": "newKeeper",
          "type": "address"
        }
      ],
      "name": "setNewKeeper",
      "outputs": [],
      "stateMutability": "nonpayable",
      "type": "function"
    },
    {
      "inputs": [
        {
          "internalType": "address",
          "name": "newOptionsPremiumPricer",
          "type": "address"
        }
      ],
      "name": "setOptionsPremiumPricer",
      "outputs": [],
      "stateMutability": "nonpayable",
      "type": "function"
    },
    {
      "inputs": [
        {
          "internalType": "uint256",
          "name": "newPerformanceFee",
          "type": "uint256"
        }
      ],
      "name": "setPerformanceFee",
      "outputs": [],
      "stateMutability": "nonpayable",
      "type": "function"
    },
    {
      "inputs": [
        {
          "internalType": "uint256",
          "name": "newPremiumDiscount",
          "type": "uint256"
        }
      ],
      "name": "setPremiumDiscount",
      "outputs": [],
      "stateMutability": "nonpayable",
      "type": "function"
    },
    {
      "inputs": [
        {
          "internalType": "address",
          "name": "newStrikeSelection",
          "type": "address"
        }
      ],
      "name": "setStrikeSelection",
      "outputs": [],
      "stateMutability": "nonpayable",
      "type": "function"
    },
    {
      "inputs": [
        {
          "internalType": "address",
          "name": "account",
          "type": "address"
        }
      ],
      "name": "shareBalances",
      "outputs": [
        {
          "internalType": "uint256",
          "name": "heldByAccount",
          "type": "uint256"
        },
        {
          "internalType": "uint256",
          "name": "heldByVault",
          "type": "uint256"
        }
      ],
      "stateMutability": "view",
      "type": "function"
    },
    {
      "inputs": [
        {
          "internalType": "address",
          "name": "account",
          "type": "address"
        }
      ],
      "name": "shares",
      "outputs": [
        {
          "internalType": "uint256",
          "name": "",
          "type": "uint256"
        }
      ],
      "stateMutability": "view",
      "type": "function"
    },
    {
      "inputs": [],
      "name": "spreadState",
      "outputs": [
        {
          "internalType": "uint32",
          "name": "nextOptionReadyAt",
          "type": "uint32"
        },
        {
          "internalType": "address",
          "name": "currentSpreadToken",
          "type": "address"
        },
        {
          "internalType": "address",
          "name": "nextSpreadToken",
          "type": "address"
        }
      ],
      "stateMutability": "view",
      "type": "function"
    },
    {
      "inputs": [],
      "name": "startAuction",
      "outputs": [],
      "stateMutability": "nonpayable",
      "type": "function"
    },
    {
      "inputs": [],
      "name": "strikeSelection",
      "outputs": [
        {
          "internalType": "address",
          "name": "",
          "type": "address"
        }
      ],
      "stateMutability": "view",
      "type": "function"
    },
    {
      "inputs": [],
      "name": "symbol",
      "outputs": [
        {
          "internalType": "string",
          "name": "",
          "type": "string"
        }
      ],
      "stateMutability": "view",
      "type": "function"
    },
    {
      "inputs": [],
      "name": "totalBalance",
      "outputs": [
        {
          "internalType": "uint256",
          "name": "",
          "type": "uint256"
        }
      ],
      "stateMutability": "view",
      "type": "function"
    },
    {
      "inputs": [],
      "name": "totalPending",
      "outputs": [
        {
          "internalType": "uint256",
          "name": "",
          "type": "uint256"
        }
      ],
      "stateMutability": "view",
      "type": "function"
    },
    {
      "inputs": [],
      "name": "totalSupply",
      "outputs": [
        {
          "internalType": "uint256",
          "name": "",
          "type": "uint256"
        }
      ],
      "stateMutability": "view",
      "type": "function"
    },
    {
      "inputs": [
        {
          "internalType": "address",
          "name": "recipient",
          "type": "address"
        },
        {
          "internalType": "uint256",
          "name": "amount",
          "type": "uint256"
        }
      ],
      "name": "transfer",
      "outputs": [
        {
          "internalType": "bool",
          "name": "",
          "type": "bool"
        }
      ],
      "stateMutability": "nonpayable",
      "type": "function"
    },
    {
      "inputs": [
        {
          "internalType": "address",
          "name": "sender",
          "type": "address"
        },
        {
          "internalType": "address",
          "name": "recipient",
          "type": "address"
        },
        {
          "internalType": "uint256",
          "name": "amount",
          "type": "uint256"
        }
      ],
      "name": "transferFrom",
      "outputs": [
        {
          "internalType": "bool",
          "name": "",
          "type": "bool"
        }
      ],
      "stateMutability": "nonpayable",
      "type": "function"
    },
    {
      "inputs": [
        {
          "internalType": "address",
          "name": "newOwner",
          "type": "address"
        }
      ],
      "name": "transferOwnership",
      "outputs": [],
      "stateMutability": "nonpayable",
      "type": "function"
    },
    {
      "inputs": [],
      "name": "vaultParams",
      "outputs": [
        {
          "internalType": "bool",
          "name": "isPut",
          "type": "bool"
        },
        {
          "internalType": "bool",
          "name": "isSpread",
          "type": "bool"
        },
        {
          "internalType": "uint8",
          "name": "decimals",
          "type": "uint8"
        },
        {
          "internalType": "address",
          "name": "asset",
          "type": "address"
        },
        {
          "internalType": "address",
          "name": "underlying",
          "type": "address"
        },
        {
          "internalType": "uint56",
          "name": "minimumSupply",
          "type": "uint56"
        },
        {
          "internalType": "uint104",
          "name": "cap",
          "type": "uint104"
        }
      ],
      "stateMutability": "view",
      "type": "function"
    },
    {
      "inputs": [],
      "name": "vaultState",
      "outputs": [
        {
          "internalType": "uint16",
          "name": "round",
          "type": "uint16"
        },
        {
          "internalType": "uint104",
          "name": "lockedAmount",
          "type": "uint104"
        },
        {
          "internalType": "uint104",
          "name": "lastLockedAmount",
          "type": "uint104"
        },
        {
          "internalType": "uint104",
          "name": "lockedAmountUsed",
          "type": "uint104"
        },
        {
          "internalType": "uint128",
          "name": "totalPending",
          "type": "uint128"
        },
        {
          "internalType": "uint128",
          "name": "queuedWithdrawShares",
          "type": "uint128"
        }
      ],
      "stateMutability": "view",
      "type": "function"
    },
    {
      "inputs": [
        {
          "internalType": "uint256",
          "name": "amount",
          "type": "uint256"
        }
      ],
      "name": "withdrawInstantly",
      "outputs": [],
      "stateMutability": "nonpayable",
      "type": "function"
    },
    {
      "inputs": [
        {
          "internalType": "address",
          "name": "",
          "type": "address"
        }
      ],
      "name": "withdrawals",
      "outputs": [
        {
          "internalType": "uint16",
          "name": "round",
          "type": "uint16"
        },
        {
          "internalType": "uint128",
          "name": "shares",
          "type": "uint128"
        }
      ],
      "stateMutability": "view",
      "type": "function"
    }
  ],
  "transactionHash": "0xc872788896cc716cacf065493f6a04c71df0e96d71ff2317f038b2d58400d316",
  "args": [
    "0x0d500b1d8e8ef31e21c99d1db9a6444d3adf1270",
    "0x2791bca1f2de4661ed88a30c99a7a9449aa84174",
    "0xedD70E045903D34fBA7302B5094D37EAceb1397c",
    "0x7a23c712bddde52b22d8ff52e4cdadb1bcb0b203",
    "0x30aE5DEBc9EdF60a23cD19494492b1ef37afA56d",
    "0x0b7fFc1f4AD541A4Ed16b40D8c37f0929158D101",
    "0xe0D48fd91464F891Db4196e13BFf1d161fab2312"
  ],
  "solcInputHash": "1e7360f9a20aa13077364a8143378e40",
  "bytecode": "0x6101606040523480156200001257600080fd5b506040516200634b3803806200634b833981016040819052620000359162000294565b8686858585856001600160a01b038616620000835760405162461bcd60e51b8152602060048201526009602482015268215f776e617469766560b81b60448201526064015b60405180910390fd5b6001600160a01b038516620000c45760405162461bcd60e51b8152602060048201526006602482015265215f7573646360d01b60448201526064016200007a565b6001600160a01b0382166200011c5760405162461bcd60e51b815260206004820152601360248201527f215f676e6f7369734561737941756374696f6e0000000000000000000000000060448201526064016200007a565b6001600160a01b038416620001685760405162461bcd60e51b815260206004820152601160248201527010afb3b0b6b6b0a1b7b73a3937b63632b960791b60448201526064016200007a565b6001600160a01b038316620001af5760405162461bcd60e51b815260206004820152600c60248201526b0857db585c99da5b941bdbdb60a21b60448201526064016200007a565b6001600160a01b038116620001f05760405162461bcd60e51b815260206004820152600660248201526510ba37b5b2b760d11b60448201526064016200007a565b6001600160a01b0395861660805293851660a05291841660c052831660e05282166101005281166101205285166200025d5760405162461bcd60e51b815260206004820152600f60248201526e215f6f546f6b656e466163746f727960881b60448201526064016200007a565b505050506001600160a01b03166101405250620003299050565b80516001600160a01b03811681146200028f57600080fd5b919050565b600080600080600080600060e0888a031215620002b057600080fd5b620002bb8862000277565b9650620002cb6020890162000277565b9550620002db6040890162000277565b9450620002eb6060890162000277565b9350620002fb6080890162000277565b92506200030b60a0890162000277565b91506200031b60c0890162000277565b905092959891949750929550565b60805160a05160c05160e051610100516101205161014051615f7a620003d160003960008181610cca0152612a82015260008181610a070152612af001526000818161080e0152611f7d01526000818161074101526116d1015260008181610417015281816116b0015261463f0152600081816109740152612aa7015260008181610be00152818161305c0152818161310c01528181613e2c0152613e680152615f7a6000f3fe60806040526004361061032a5760003560e01c8062ffa9af1461032f578063056097ac1461035157806306fdde0314610371578063095ea7b31461039c5780630cbf54c8146103cc57806318160ddd146103f05780631a92f6c2146104055780631b60612a1461044657806323b872dd146104665780632728f333146104865780632775d01c1461052857806330630da414610548578063313ce5671461056857806333aaee5b14610593578063355274ea146105b557806336efd16f146105d357806339509351146105f35780633f23bb73146106135780633f90916a14610633578063432833a6146106585780634603c0aa1461066e578063469048401461068e57806347786d37146106ae5780634b2431d9146106ce578063503c70aa146106e45780635ea8cd12146106fa5780636152137d1461071a578063650cce8a1461072f5780636719b2ee146107635780636b64c769146107e75780636c10f66c146107fc57806370897b231461083057806370a0823114610850578063715018a6146108705780637a9262a2146108855780637e108d52146108e957806383536ff31461090957806387153eb11461091f578063877887821461094c57806389a30271146109625780638da5cb5b1461099657806395d89b41146109ab57806399530b06146109c05780639be43daa146109d55780639f0bf182146109f55780639fcc2d7514610a29578063a285c9e814610ae8578063a457c2d714610b03578063a497e67414610b23578063a6f7f5d614610b43578063a9059cbb14610b59578063aced166114610b79578063ad7a672f14610b99578063afa6626414610bae578063b381cf4014610bce578063b6b55f2514610c02578063ce7c2ac214610c22578063d13f1b3e14610c42578063d164cc1514610c62578063d65a06b014610c82578063db3c9bde14610ca2578063db43e86214610cb8578063dd62ed3e14610cec578063e74b981b14610d32578063ea00b1ca14610d52578063f2fde38b14610d67578063f3f140e214610d87578063f6326fb314610de9578063f656ba5114610df1578063f756fa2114610e1f578063f957a06714610e34578063fe56e23214610e54575b600080fd5b34801561033b57600080fd5b5061034f61034a3660046150f4565b610e74565b005b34801561035d57600080fd5b5061034f61036c366004615179565b6111ca565b34801561037d57600080fd5b506103866113f0565b6040516103939190615202565b60405180910390f35b3480156103a857600080fd5b506103bc6103b7366004615215565b611482565b6040519015158152602001610393565b3480156103d857600080fd5b506103e260fc5481565b604051908152602001610393565b3480156103fc57600080fd5b506099546103e2565b34801561041157600080fd5b506104397f000000000000000000000000000000000000000000000000000000000000000081565b604051610393919061524e565b34801561045257600080fd5b5061034f610461366004615262565b611499565b34801561047257600080fd5b506103bc61048136600461527b565b61183d565b34801561049257600080fd5b5060cf5460d05460d1546104dd9261ffff8116926001600160681b03620100008304811693600160781b909304811692908216916001600160801b03600160681b9091048116911686565b6040805161ffff90971687526001600160681b03958616602088015293851693860193909352921660608401526001600160801b0391821660808401521660a082015260c001610393565b34801561053457600080fd5b5061034f610543366004615262565b6118e7565b34801561055457600080fd5b5061034f6105633660046152bc565b611a9e565b34801561057457600080fd5b5060cc5462010000900460ff1660405160ff9091168152602001610393565b34801561059f57600080fd5b506105a8611b3b565b604051610393919061531d565b3480156105c157600080fd5b5060ce546001600160681b03166103e2565b3480156105df57600080fd5b5061034f6105ee366004615330565b611b9f565b3480156105ff57600080fd5b506103bc61060e366004615215565b611c27565b34801561061f57600080fd5b506103e261062e3660046152bc565b611c63565b34801561063f57600080fd5b5060d054600160681b90046001600160801b03166103e2565b34801561066457600080fd5b506103e260fd5481565b34801561067a57600080fd5b5061034f6106893660046152bc565b611cbe565b34801561069a57600080fd5b5060d654610439906001600160a01b031681565b3480156106ba57600080fd5b5061034f6106c9366004615262565b611d60565b3480156106da57600080fd5b506103e260ff5481565b3480156106f057600080fd5b506103e260fe5481565b34801561070657600080fd5b5061034f610715366004615262565b611e3a565b34801561072657600080fd5b506105a8611ea5565b34801561073b57600080fd5b506104397f000000000000000000000000000000000000000000000000000000000000000081565b34801561076f57600080fd5b506107b661077e3660046152bc565b60c96020526000908152604090205461ffff8116906201000081046001600160681b031690600160781b90046001600160801b031683565b6040805161ffff90941684526001600160681b0390921660208401526001600160801b031690820152606001610393565b3480156107f357600080fd5b5061034f611f08565b34801561080857600080fd5b506104397f000000000000000000000000000000000000000000000000000000000000000081565b34801561083c57600080fd5b5061034f61084b366004615262565b61208a565b34801561085c57600080fd5b506103e261086b3660046152bc565b61214f565b34801561087c57600080fd5b5061034f61216a565b34801561089157600080fd5b506108c76108a03660046152bc565b60cb6020526000908152604090205461ffff8116906201000090046001600160801b031682565b6040805161ffff90931683526001600160801b03909116602083015201610393565b3480156108f557600080fd5b5061034f610904366004615262565b6121a5565b34801561091557600080fd5b506103e260fa5481565b34801561092b57600080fd5b506103e261093a366004615262565b60ca6020526000908152604090205481565b34801561095857600080fd5b506103e260d85481565b34801561096e57600080fd5b506104397f000000000000000000000000000000000000000000000000000000000000000081565b3480156109a257600080fd5b506104396121ed565b3480156109b757600080fd5b506103866121fc565b3480156109cc57600080fd5b506103e261220b565b3480156109e157600080fd5b5061034f6109f0366004615262565b61224c565b348015610a0157600080fd5b506104397f000000000000000000000000000000000000000000000000000000000000000081565b348015610a3557600080fd5b5060cc5460cd5460ce54610a8f9260ff80821693610100830482169362010000840490921692630100000090046001600160a01b039081169290821691600160a01b900466ffffffffffffff16906001600160681b031687565b604080519715158852951515602088015260ff909416948601949094526001600160a01b03918216606086015216608084015266ffffffffffffff90911660a08301526001600160681b031660c082015260e001610393565b348015610af457600080fd5b5060d45463ffffffff166103e2565b348015610b0f57600080fd5b506103bc610b1e366004615215565b612345565b348015610b2f57600080fd5b5061034f610b3e366004615262565b6123de565b348015610b4f57600080fd5b506103e260d95481565b348015610b6557600080fd5b506103bc610b74366004615215565b61249a565b348015610b8557600080fd5b5060d754610439906001600160a01b031681565b348015610ba557600080fd5b506103e26124a7565b348015610bba57600080fd5b5060f854610439906001600160a01b031681565b348015610bda57600080fd5b506104397f000000000000000000000000000000000000000000000000000000000000000081565b348015610c0e57600080fd5b5061034f610c1d366004615262565b612536565b348015610c2e57600080fd5b506103e2610c3d3660046152bc565b6125aa565b348015610c4e57600080fd5b5061034f610c5d366004615262565b6125c7565b348015610c6e57600080fd5b5061034f610c7d3660046152bc565b61268b565b348015610c8e57600080fd5b5061034f610c9d366004615363565b61271f565b348015610cae57600080fd5b506103e260fb5481565b348015610cc457600080fd5b506104397f000000000000000000000000000000000000000000000000000000000000000081565b348015610cf857600080fd5b506103e2610d07366004615179565b6001600160a01b03918216600090815260986020908152604080832093909416825291909152205490565b348015610d3e57600080fd5b5061034f610d4d3660046152bc565b6128f8565b348015610d5e57600080fd5b5061034f6129eb565b348015610d7357600080fd5b5061034f610d823660046152bc565b612f90565b348015610d9357600080fd5b5060d45460d554610dbd9163ffffffff8116916001600160a01b03600160201b9092048216911683565b6040805163ffffffff90941684526001600160a01b039283166020850152911690820152606001610393565b61034f613030565b348015610dfd57600080fd5b50610e11610e0c3660046152bc565b613184565b604051610393929190615388565b348015610e2b57600080fd5b5061034f613248565b348015610e4057600080fd5b5060f954610439906001600160a01b031681565b348015610e6057600080fd5b5061034f610e6f366004615262565b61329c565b600054610100900460ff1680610e8d575060005460ff16155b610eb25760405162461bcd60e51b8152600401610ea990615396565b60405180910390fd5b600054610100900460ff16158015610ed4576000805461ffff19166101011790555b610f99610ee460208501856152bc565b610ef460408601602087016152bc565b610f0460608701604088016152bc565b60608701356080880135610f1b60a08a018a6153e4565b8080601f016020809104026020016040519081016040528093929190818152602001838380828437600092019190915250610f5d9250505060c08b018b6153e4565b8080601f0160208091040260200160405190810160405280939291908181526020018383808284376000920191909152508c9250613381915050565b6000610fac610100850160e086016152bc565b6001600160a01b031603610ffb5760405162461bcd60e51b815260206004820152601660248201527510afb7b83a34b7b739a83932b6b4bab6a83934b1b2b960511b6044820152606401610ea9565b600061100f610120850161010086016152bc565b6001600160a01b0316036110595760405162461bcd60e51b815260206004820152601160248201527010afb9ba3934b5b2a9b2b632b1ba34b7b760791b6044820152606401610ea9565b600061106d61014085016101208601615431565b63ffffffff161180156110a15750611087600a606461546d565b61109961014085016101208601615431565b63ffffffff16105b6110e15760405162461bcd60e51b81526020600482015260116024820152700857dc1c995b5a5d5b511a5cd8dbdd5b9d607a1b6044820152606401610ea9565b61012c836101400135101561112c5760405162461bcd60e51b815260206004820152601160248201527010afb0bab1ba34b7b7223ab930ba34b7b760791b6044820152606401610ea9565b61113d610100840160e085016152bc565b60f880546001600160a01b0319166001600160a01b039290921691909117905561116f610120840161010085016152bc565b60f980546001600160a01b0319166001600160a01b03929092169190911790556111a161014084016101208501615431565b63ffffffff1660fa5561014083013560fc5580156111c5576000805461ff00191690555b505050565b336111d36121ed565b6001600160a01b0316146111f95760405162461bcd60e51b8152600401610ea990615484565b60cc546001600160a01b03630100000090910481169083160361125c5760405162461bcd60e51b815260206004820152601b60248201527a5661756c74206173736574206e6f74207265636f76657261626c6560281b6044820152606401610ea9565b306001600160a01b038316036112b25760405162461bcd60e51b815260206004820152601b60248201527a5661756c74207368617265206e6f74207265636f76657261626c6560281b6044820152606401610ea9565b306001600160a01b038216036113065760405162461bcd60e51b8152602060048201526019602482015278149958da5c1a595b9d0818d85b9b9bdd081899481d985d5b1d603a1b6044820152606401610ea9565b60d4546001600160a01b03600160201b90910481169083160361136a5760405162461bcd60e51b815260206004820152601c60248201527b53707265616420546f6b656e206e6f74207265636f76657261626c6560201b6044820152606401610ea9565b6113ec81836001600160a01b03166370a08231306040518263ffffffff1660e01b815260040161139a919061524e565b602060405180830381865afa1580156113b7573d6000803e3d6000fd5b505050506040513d601f19601f820116820180604052508101906113db91906154b9565b6001600160a01b03851691906135ad565b5050565b6060609a80546113ff906154d2565b80601f016020809104026020016040519081016040528092919081815260200182805461142b906154d2565b80156114785780601f1061144d57610100808354040283529160200191611478565b820191906000526020600020905b81548152906001019060200180831161145b57829003601f168201915b5050505050905090565b600061148f338484613610565b5060015b92915050565b60d7546001600160a01b031633146114c35760405162461bcd60e51b8152600401610ea99061550c565b6002600154036114e55760405162461bcd60e51b8152600401610ea99061552d565b600260015560ff5460d05460d38054604080516020808402820181019092528281526001600160681b03909416936000939092909183018282801561155357602002820191906000526020600020905b81546001600160a01b03168152600190910190602001808311611535575b505060cf5460d4549495506201000090046001600160681b0390811694600160201b90046001600160a01b0316935060009250829150861681036116665761159d60fe5488613734565b60fe82905560d15493985091965090945092506000906115c79089906001600160801b0316615564565b90506115d281613bc2565b60d180546001600160801b0319166001600160801b038316179055600060ff556115fb85613c0c565b60cf805462010000600160781b031916620100006001600160681b038816021790556040516001600160a01b0385169033907fa791ce33e95f5df21d37ec5d288fe02046a80030931540eacf489b12f17125169061165c908a908a90615577565b60405180910390a3505b6116796001600160681b03871685615599565b93505b60008811801561168c5750600084115b1561179e576000807372e607Ae0aBa103e091F1EE9D34386Eb741659B5630aa045e87f00000000000000000000000000000000000000000000000000000000000000007f00000000000000000000000000000000000000000000000000000000000000008a8a8a8e6001600160681b03166000146040518763ffffffff1660e01b8152600401611721969594939291906155ac565b6040805180830381865af415801561173d573d6000803e3d6000fd5b505050506040513d601f19601f8201168201806040525081019061176191906155f8565b90925090506117708284615564565b925061177d60018b615599565b9950611789818961561c565b97506117958187615599565b9550505061167c565b60d0546117b59087906001600160681b031661561c565b60d080546001600160681b0319166001600160681b039290921691909117905560405163140e25ad60e31b8152600481018290526001600160a01b0384169063a0712d6890602401600060405180830381600087803b15801561181757600080fd5b505af115801561182b573d6000803e3d6000fd5b50506001805550505050505050505050565b600061184a848484613c56565b6001600160a01b0384166000908152609860209081526040808320338452909152902054828110156118cf5760405162461bcd60e51b815260206004820152602860248201527f45524332303a207472616e7366657220616d6f756e74206578636565647320616044820152676c6c6f77616e636560c01b6064820152608401610ea9565b6118dc8533858403613610565b506001949350505050565b6002600154036119095760405162461bcd60e51b8152600401610ea99061552d565b600260015533600090815260c96020526040902060cf5461ffff16826119415760405162461bcd60e51b8152600401610ea990615643565b815461ffff1681146119855760405162461bcd60e51b815260206004820152600d60248201526c125b9d985b1a59081c9bdd5b99609a1b6044820152606401610ea9565b81546201000090046001600160681b0316838110156119d65760405162461bcd60e51b815260206004820152600d60248201526c115e18d9595908185b5bdd5b9d609a1b6044820152606401610ea9565b6119e08482615599565b83546001600160681b0391909116620100000262010000600160781b031990911617835560d054611a239085906001600160801b03600160681b90910416615599565b60d080546001600160801b0392909216600160681b02600160681b600160e81b031990921691909117905560405133907fab2daf3c146ca6416cbccd2a86ed2ba995e171ef6319df14a38aef01403a9c9690611a829087908690615388565b60405180910390a2611a943385613e14565b5050600180555050565b33611aa76121ed565b6001600160a01b031614611acd5760405162461bcd60e51b8152600401610ea990615484565b6001600160a01b038116611b195760405162461bcd60e51b815260206004820152601360248201527210b732bba9ba3934b5b2a9b2b632b1ba34b7b760691b6044820152606401610ea9565b60f980546001600160a01b0319166001600160a01b0392909216919091179055565b606060d260000180548060200260200160405190810160405280929190818152602001828054801561147857602002820191906000526020600020905b81546001600160a01b03168152600190910190602001808311611b78575050505050905090565b600260015403611bc15760405162461bcd60e51b8152600401610ea99061552d565b600260015581611be35760405162461bcd60e51b8152600401610ea990615643565b6001600160a01b038116611bf657600080fd5b611c008282613f75565b60cc54611c1f90630100000090046001600160a01b031633308561420f565b505060018055565b3360008181526098602090815260408083206001600160a01b0387168452909152812054909161148f918590611c5e908690615564565b613610565b60cc5460009060ff620100009091041681611ca1611c8060995490565b611c886124a7565b60d054600160681b90046001600160801b031685614247565b9050611cb6611caf856125aa565b828461428d565b949350505050565b33611cc76121ed565b6001600160a01b031614611ced5760405162461bcd60e51b8152600401610ea990615484565b6001600160a01b038116611d3e5760405162461bcd60e51b815260206004820152601860248201527710b732bba7b83a34b7b739a83932b6b4bab6a83934b1b2b960411b6044820152606401610ea9565b60f880546001600160a01b0319166001600160a01b0392909216919091179055565b33611d696121ed565b6001600160a01b031614611d8f5760405162461bcd60e51b8152600401610ea990615484565b60008111611dc95760405162461bcd60e51b81526020600482015260076024820152660216e65774361760cc1b6044820152606401610ea9565b611dd281613c0c565b60ce54604080516001600160681b039092168252602082018390527f5f86edbb9d92228a9edc3f0ebc0f001bda1ea345ac7335e0eeef3504b31d1a1c910160405180910390a160ce80546001600160681b0319166001600160681b0392909216919091179055565b60d7546001600160a01b03163314611e645760405162461bcd60e51b8152600401610ea99061550c565b60008111611ea05760405162461bcd60e51b8152602060048201526009602482015268216d696e507269636560b81b6044820152606401610ea9565b60fb55565b606060d2600101805480602002602001604051908101604052809291908181526020018280548015611478576020028201919060005260206000209081546001600160a01b03168152600190910190602001808311611b78575050505050905090565b60d7546001600160a01b03163314611f325760405162461bcd60e51b8152600401610ea99061550c565b600260015403611f545760405162461bcd60e51b8152600401610ea99061552d565b60026001556040805160c08101825260d4546001600160a01b03600160201b90910481168083527f000000000000000000000000000000000000000000000000000000000000000082166020840190815260cc5463010000008104841685870190815260ff62010000909204919091166060860190815260fb546080870190815260fc5460a088019081529751633baf17fd60e21b8152875187166004820152935186166024850152915190941660448301529251606482015291516084830152925160a48201529091907372e607Ae0aBa103e091F1EE9D34386Eb741659B59063eebc5ff49060c401602060405180830381865af415801561205b573d6000803e3d6000fd5b505050506040513d601f19601f8201168201806040525081019061207f91906154b9565b60fd55505060018055565b336120936121ed565b6001600160a01b0316146120b95760405162461bcd60e51b8152600401610ea990615484565b6120c7620f4240606461546d565b811061210f5760405162461bcd60e51b8152602060048201526017602482015276496e76616c696420706572666f726d616e63652066656560481b6044820152606401610ea9565b7f24867dfb6fcb9970a07be21024956524abe7a1837faa903ff0e99aaa40cf893e60d85482604051612142929190615388565b60405180910390a160d855565b6001600160a01b031660009081526097602052604090205490565b336121736121ed565b6001600160a01b0316146121995760405162461bcd60e51b8152600401610ea990615484565b6121a360006142c7565b565b6002600154036121c75760405162461bcd60e51b8152600401610ea99061552d565b60026001556121d581614319565b8060ff546121e39190615564565b60ff555060018055565b6065546001600160a01b031690565b6060609b80546113ff906154d2565b600061224761221960995490565b6122216124a7565b60d05460cc54600160681b9091046001600160801b03169062010000900460ff16614247565b905090565b60026001540361226e5760405162461bcd60e51b8152600401610ea99061552d565b6002600155806122ad5760405162461bcd60e51b815260206004820152600a602482015269216e756d526f756e647360b01b6044820152606401610ea9565b60cf5461ffff1660005b8281101561233c5760006122cb8284615564565b600081815260ca6020526040902054909150156123185760405162461bcd60e51b815260206004820152600b60248201526a125b9a5d1a585b1a5e995960aa1b6044820152606401610ea9565b600090815260ca60205260409020600190558061233481615664565b9150506122b7565b50506001805550565b3360009081526098602090815260408083206001600160a01b0386168452909152812054828110156123c75760405162461bcd60e51b815260206004820152602560248201527f45524332303a2064656372656173656420616c6c6f77616e63652062656c6f77604482015264207a65726f60d81b6064820152608401610ea9565b6123d43385858403613610565b5060019392505050565b336123e76121ed565b6001600160a01b03161461240d5760405162461bcd60e51b8152600401610ea990615484565b61012c81101561245a5760405162461bcd60e51b815260206004820152601860248201527724b73b30b634b21030bab1ba34b7b710323ab930ba34b7b760411b6044820152606401610ea9565b7f5acd982e2240ed224a69aa03dab039d3797c108e4b5f288cd7dd6ca181b275f360fc548260405161248d929190615388565b60405180910390a160fc55565b600061148f338484613c56565b60cc546040516370a0823160e01b8152600091630100000090046001600160a01b0316906370a08231906124df90309060040161524e565b602060405180830381865afa1580156124fc573d6000803e3d6000fd5b505050506040513d601f19601f8201168201806040525081019061252091906154b9565b60d05461224791906001600160681b0316615564565b6002600154036125585760405162461bcd60e51b8152600401610ea99061552d565b60026001558061257a5760405162461bcd60e51b8152600401610ea990615643565b6125848133613f75565b60cc546125a390630100000090046001600160a01b031633308461420f565b5060018055565b60008060006125b884613184565b9092509050611cb68183615564565b60d7546001600160a01b031633146125f15760405162461bcd60e51b8152600401610ea99061550c565b60008111801561260c5750612608600a606461546d565b8111155b61264b5760405162461bcd60e51b815260206004820152601060248201526f125b9d985b1a5908191a5cd8dbdd5b9d60821b6044820152606401610ea9565b7f4cd657fde404967d63a338fb06c5c98751a9df57dfae6dc333a432faf8a5f65660fa548260405161267e929190615388565b60405180910390a160fa55565b336126946121ed565b6001600160a01b0316146126ba5760405162461bcd60e51b8152600401610ea990615484565b6001600160a01b0381166126fd5760405162461bcd60e51b815260206004820152600a60248201526910b732bba5b2b2b832b960b11b6044820152606401610ea9565b60d780546001600160a01b0319166001600160a01b0392909216919091179055565b600082118061272b5750805b6127475760405162461bcd60e51b8152600401610ea99061567d565b33600090815260c9602090815260408083208151606081018352905461ffff808216808452620100008084046001600160681b031685880152600160781b9093046001600160801b03168486015260cf5490875260ca9095529285205460cc5492959490931693926127c19286928692910460ff166144cb565b9050836127ce57846127d0565b805b9450846000036127e1575050505050565b808511156128255760405162461bcd60e51b81526020600482015260116024820152704578636565647320617661696c61626c6560781b6044820152606401610ea9565b825161ffff168211156128525733600090815260c960205260409020805462010000600160781b03191690555b61285b85613bc2565b6128658582615599565b33600081815260c960205260409081902080546001600160801b0394909416600160781b02600160781b600160f81b0319909416939093179092558451915190917fe5b754fb1abb7f01b499791d0b820ae3b6af3424ac1c59768edb53f4ec31a929916128de9189825261ffff16602082015260400190565b60405180910390a26128f1303387613c56565b5050505050565b336129016121ed565b6001600160a01b0316146129275760405162461bcd60e51b8152600401610ea990615484565b6001600160a01b0381166129705760405162461bcd60e51b815260206004820152601060248201526f085b995dd19959549958da5c1a595b9d60821b6044820152606401610ea9565b60d6546001600160a01b03908116908216036129c95760405162461bcd60e51b8152602060048201526018602482015277135d5cdd081899481b995dc8199959549958da5c1a595b9d60421b6044820152606401610ea9565b60d680546001600160a01b0319166001600160a01b0392909216919091179055565b600260015403612a0d5760405162461bcd60e51b8152600401610ea99061552d565b600260015560d380546040805160208084028201810190925282815260009390929091830182828015612a6957602002820191906000526020600020905b81546001600160a01b03168152600190910190602001808311612a4b575b505060d4546040805160e0810182526001600160a01b037f0000000000000000000000000000000000000000000000000000000000000000811682527f00000000000000000000000000000000000000000000000000000000000000008116602083015281830188905260006060830181905260f9548216608084015260fa5460a08401527f0000000000000000000000000000000000000000000000000000000000000000821660c0840152925163068bb40360e41b8152979850600160201b909304909216959194509250829150819081907372e607Ae0aBa103e091F1EE9D34386Eb741659B5906368bb403090612b6d90889060cc9060cf906004016156a1565b600060405180830381865af4158015612b8a573d6000803e3d6000fd5b505050506040513d6000823e601f3d908101601f19168201604052612bb29190810190615807565b93509350935093507f8b2c6e7d4d72cff90224277b40c8404bbdedcede50c7449f6e4d231b5b11981b838383604051612bed93929190615930565b60405180910390a160cc5460ff168015612d7d5784600181518110612c1457612c1461596e565b60200260200101516001600160a01b031663c52987cf6040518163ffffffff1660e01b8152600401602060405180830381865afa158015612c59573d6000803e3d6000fd5b505050506040513d601f19601f82011682018060405250810190612c7d91906154b9565b85600081518110612c9057612c9061596e565b60200260200101516001600160a01b031663c52987cf6040518163ffffffff1660e01b8152600401602060405180830381865afa158015612cd5573d6000803e3d6000fd5b505050506040513d601f19601f82011682018060405250810190612cf991906154b9565b11612d785760405162461bcd60e51b815260206004820152604360248201527f53686f727420707574206f746f6b656e206d757374206861766520686967686560448201527f7220737472696b65207072696365207468656e206c6f6e6720707574206f746f60648201526235b2b760e91b608482015260a401610ea9565b612ee3565b84600181518110612d9057612d9061596e565b60200260200101516001600160a01b031663c52987cf6040518163ffffffff1660e01b8152600401602060405180830381865afa158015612dd5573d6000803e3d6000fd5b505050506040513d601f19601f82011682018060405250810190612df991906154b9565b85600081518110612e0c57612e0c61596e565b60200260200101516001600160a01b031663c52987cf6040518163ffffffff1660e01b8152600401602060405180830381865afa158015612e51573d6000803e3d6000fd5b505050506040513d601f19601f82011682018060405250810190612e7591906154b9565b10612ee35760405162461bcd60e51b815260206004820152603860248201527f53686f7274206f746f6b656e206d7573742068617665206c657373207374726960448201527735b290383934b1b2903a3432b7103637b733903a37b5b2b760411b6064820152608401610ea9565b8451612ef69060d2906020880190615060565b5060d580546001600160a01b0319166001600160a01b0384161790554263ffffffff811115612f625760405162461bcd60e51b81526020600482015260186024820152774f766572666c6f77206e6578744f7074696f6e526561647960401b6044820152606401610ea9565b60d4805463ffffffff191663ffffffff8316179055612f81898961453c565b50506001805550505050505050565b33612f996121ed565b6001600160a01b031614612fbf5760405162461bcd60e51b8152600401610ea990615484565b6001600160a01b0381166130245760405162461bcd60e51b815260206004820152602660248201527f4f776e61626c653a206e6577206f776e657220697320746865207a65726f206160448201526564647265737360d01b6064820152608401610ea9565b61302d816142c7565b50565b6002600154036130525760405162461bcd60e51b8152600401610ea99061552d565b600260015560cc547f00000000000000000000000000000000000000000000000000000000000000006001600160a01b03908116630100000090920416146130c75760405162461bcd60e51b815260206004820152600860248201526721574e415449564560c01b6044820152606401610ea9565b600034116131005760405162461bcd60e51b81526020600482015260066024820152652176616c756560d01b6044820152606401610ea9565b61310a3433613f75565b7f00000000000000000000000000000000000000000000000000000000000000006001600160a01b031663d0e30db0346040518263ffffffff1660e01b81526004016000604051808303818588803b15801561316557600080fd5b505af1158015613179573d6000803e3d6000fd5b505060018055505050565b6001600160a01b038116600090815260c9602090815260408083208151606081018352905461ffff81168083526201000082046001600160681b031694830194909452600160781b90046001600160801b0316918101919091528291600111156131fc576131f18461214f565b946000945092505050565b60cf54815161ffff908116600090815260ca602052604081205460cc5491936132339386939116919062010000900460ff166144cb565b905061323e8561214f565b9590945092505050565b60026001540361326a5760405162461bcd60e51b8152600401610ea99061552d565b60026001556000613279614716565b90508060fe546132899190615599565b6001600160801b031660fe555060018055565b336132a56121ed565b6001600160a01b0316146132cb5760405162461bcd60e51b8152600401610ea990615484565b6132d9620f4240606461546d565b81106133205760405162461bcd60e51b8152602060048201526016602482015275496e76616c6964206d616e6167656d656e742066656560501b6044820152606401610ea9565b600063031ba309613334620f42408461546d565b61333e9190615984565b90507f4e874b007ab14f7e263baefd44951834c8266f4f224d1092e49e9c254354cc5460d95483604051613373929190615388565b60405180910390a160d95550565b600054610100900460ff168061339a575060005460ff16155b6133b65760405162461bcd60e51b8152600401610ea990615396565b600054610100900460ff161580156133d8576000805461ffff19166101011790555b60405163c72733f760e01b81527372e607Ae0aBa103e091F1EE9D34386Eb741659B59063c72733f79061341d908c908c908c908b908d908c908c908c906004016159f5565b60006040518083038186803b15801561343557600080fd5b505af4158015613449573d6000803e3d6000fd5b505050506134556148d7565b61345f848461494a565b6134676149c9565b61347089612f90565b60d780546001600160a01b03808b166001600160a01b03199283161790925560d68054928a169290911691909117905560d885905563031ba3096134b7620f42408861546d565b6134c19190615984565b60d9558160cc6134d18282615b3d565b505060cc546040516370a0823160e01b8152600091630100000090046001600160a01b0316906370a082319061350b90309060040161524e565b602060405180830381865afa158015613528573d6000803e3d6000fd5b505050506040513d601f19601f8201168201806040525081019061354c91906154b9565b905061355781613c0c565b60cf805461ffff196001600160681b03909316600160781b029290921661ffff600160781b03600160e01b031990921691909117600117905580156135a2576000805461ff00191690555b505050505050505050565b6040516001600160a01b0383166024820152604481018290526111c590849063a9059cbb60e01b906064015b60408051601f198184030181529190526020810180516001600160e01b03166001600160e01b031990931692909217909152614a30565b6001600160a01b0383166136725760405162461bcd60e51b8152602060048201526024808201527f45524332303a20617070726f76652066726f6d20746865207a65726f206164646044820152637265737360e01b6064820152608401610ea9565b6001600160a01b0382166136d35760405162461bcd60e51b815260206004820152602260248201527f45524332303a20617070726f766520746f20746865207a65726f206164647265604482015261737360f01b6064820152608401610ea9565b6001600160a01b0383811660008181526098602090815260408083209487168084529482529182902085905590518481527f8c5be1e5ebec7d5bd14f71427d1e84f3dd0314c0f7b2291e5b200ac8c7c3b925910160405180910390a3505050565b60d4546060906000908190819063ffffffff1642101561377f5760405162461bcd60e51b815260206004820152600660248201526521726561647960d01b6044820152606401610ea9565b60d28054604080516020808402820181019092528281529291908301828280156137d257602002820191906000526020600020905b81546001600160a01b031681526001909101906020018083116137b4575b505060d55484519498506001600160a01b03169450600093889350849250151590506138005761380061596e565b60200260200101516001600160a01b03160361384e5760405162461bcd60e51b815260206004820152600d60248201526c0216e657874537072656164203609c1b6044820152606401610ea9565b60006001600160a01b03168460018151811061386c5761386c61596e565b60200260200101516001600160a01b0316036138ba5760405162461bcd60e51b815260206004820152600d60248201526c216e657874537072656164203160981b6044820152606401610ea9565b6001600160a01b0381166138ff5760405162461bcd60e51b815260206004820152600c60248201526b10b9b83932b0b22a37b5b2b760a11b6044820152606401610ea9565b60d6546040805160e08101825260cc5460ff62010000820416825291516370a0823160e01b81526001600160a01b03938416936000938493849384937372e607Ae0aBa103e091F1EE9D34386Eb741659B59363c8128b659360cf93909260208401926301000000900416906370a082319061397e90309060040161524e565b602060405180830381865afa15801561399b573d6000803e3d6000fd5b505050506040513d601f19601f820116820180604052508101906139bf91906154b9565b81526020016139cd60995490565b81526020018f815260200160d854815260200160d95481526020018e8152506040518363ffffffff1660e01b8152600401613a5a92919060006101008201905083825282516020830152602083015160408301526040830151606083015260608301516080830152608083015160a083015260a083015160c083015260c083015160e08301529392505050565b60c060405180830381865af4158015613a77573d6000803e3d6000fd5b505050506040513d601f19601f82011682018060405250810190613a9b9190615c7d565b8e51959d50939b5090975095509093509150613abe9060d39060208c0190615060565b5060d48054600160201b600160c01b031916600160201b6001600160a01b0389160217905560d580546001600160a01b0319169055613aff60d260006150c5565b60cf5461ffff16600081815260ca602090815260409182902084905581518681529081018590529081018290526001600160a01b038716907f0a242f7ecaf711036ca770774ceffae28e60ef042ac113ddd187f2631db0c0069060600160405180910390a260d08054600160681b600160e81b0319169055613b82816001615564565b60cf805461ffff191661ffff9290921691909117905550613ba590503084614b02565b8015613bb557613bb58482613e14565b5050505092959194509250565b6001600160801b0381111561302d5760405162461bcd60e51b815260206004820152601060248201526f09eeccae4ccd8deee40ead2dce86264760831b6044820152606401610ea9565b6001600160681b0381111561302d5760405162461bcd60e51b815260206004820152601060248201526f13dd995c999b1bddc81d5a5b9d0c4c0d60821b6044820152606401610ea9565b6001600160a01b038316613cba5760405162461bcd60e51b815260206004820152602560248201527f45524332303a207472616e736665722066726f6d20746865207a65726f206164604482015264647265737360d81b6064820152608401610ea9565b6001600160a01b038216613d1c5760405162461bcd60e51b815260206004820152602360248201527f45524332303a207472616e7366657220746f20746865207a65726f206164647260448201526265737360e81b6064820152608401610ea9565b6001600160a01b03831660009081526097602052604090205481811015613d945760405162461bcd60e51b815260206004820152602660248201527f45524332303a207472616e7366657220616d6f756e7420657863656564732062604482015265616c616e636560d01b6064820152608401610ea9565b6001600160a01b03808516600090815260976020526040808220858503905591851681529081208054849290613dcb908490615564565b92505081905550826001600160a01b0316846001600160a01b0316600080516020615f2583398151915284604051613e0591815260200190565b60405180910390a35b50505050565b60cc546001600160a01b0363010000009091048116907f0000000000000000000000000000000000000000000000000000000000000000168103613f6157604051632e1a7d4d60e01b8152600481018390527f00000000000000000000000000000000000000000000000000000000000000006001600160a01b031690632e1a7d4d90602401600060405180830381600087803b158015613eb457600080fd5b505af1158015613ec8573d6000803e3d6000fd5b505050506000836001600160a01b03168360405160006040518083038185875af1925050503d8060008114613f19576040519150601f19603f3d011682016040523d82523d6000602084013e613f1e565b606091505b5050905080613e0e5760405162461bcd60e51b815260206004820152600f60248201526e151c985b9cd9995c8819985a5b1959608a1b6044820152606401610ea9565b6111c56001600160a01b03821684846135ad565b60cf5461ffff16600083613f876124a7565b613f919190615564565b60ce549091506001600160681b0316811115613fdc5760405162461bcd60e51b815260206004820152600a6024820152690457863656564206361760b41b6044820152606401610ea9565b60cd54600160a01b900466ffffffffffffff168110156140355760405162461bcd60e51b8152602060048201526014602482015273496e73756666696369656e742062616c616e636560601b6044820152606401610ea9565b826001600160a01b03167f90890809c654f11d6e72a28fa60149770a0d11ec6c92319d6ceb2bb0a4ea1a158584604051614070929190615388565b60405180910390a26001600160a01b038316600090815260c9602090815260408083208151606081018352905461ffff8116808352620100008083046001600160681b031684870152600160781b9092046001600160801b031683850152855260ca9093529083205460cc549193926140f2928592889290910460ff166144cb565b8251909150869061ffff1685036141225760008784602001516001600160681b031661411e9190615564565b9150505b61412b81613c0c565b6040805160608101825261ffff80881682526001600160681b0380851660208085019182526001600160801b038089168688019081526001600160a01b038e16600090815260c990935296822095518654935197518216600160781b02600160781b600160f81b03199890951662010000026001600160781b031990941695169490941791909117949094161790915560d0546141d1918a91600160681b900416615564565b90506141dc81613bc2565b60d080546001600160801b03909216600160681b02600160681b600160e81b031990921691909117905550505050505050565b6040516001600160a01b0380851660248301528316604482015260648101829052613e0e9085906323b872dd60e01b906084016135d9565b60008061425583600a615dab565b9050600086116142655780614283565b6142838661427d6142768888614bcf565b8490614be2565b90614bee565b9695505050505050565b6000600183116142af5760405162461bcd60e51b8152600401610ea990615db7565b611cb66142bd83600a615dab565b61427d8686614be2565b606580546001600160a01b038381166001600160a01b0319831681179093556040519116919082907f8be0079c531659141344cd1fd0a4f28419497f9722a3daafe3b4186f6b6457e090600090a35050565b600081116143395760405162461bcd60e51b8152600401610ea99061567d565b33600090815260c960205260409020546201000090046001600160681b0316151580614383575033600090815260c96020526040902054600160781b90046001600160801b031615155b15614394576143946000600161271f565b60cf5433600081815260cb6020526040908190208054915161ffff948516949193919092168414917f0c53c82ad07e2d592d88ece3b066777dd60f1118e2a081b380efc4358f0d9e2a906143eb9087908790615388565b60405180910390a281546201000090046001600160801b03166000821561441d576144168683615564565b9050614480565b811561445f5760405162461bcd60e51b81526020600482015260116024820152704578697374696e6720776974686472617760781b6044820152606401610ea9565b5033600090815260cb60205260409020805461ffff191661ffff8616179055845b61448981613bc2565b33600081815260cb60205260409020805462010000600160901b031916620100006001600160801b038516021790556144c3903088613c56565b505050505050565b835160009061ffff16158015906144e65750845161ffff1684115b1561452857600061450586602001516001600160681b03168585614bfa565b6040870151909150614520906001600160801b031682614c35565b915050611cb6565b50505050604001516001600160801b031690565b60cf548251620100009091046001600160681b0316901580159061458d575060006001600160a01b0316836000815181106145795761457961596e565b60200260200101516001600160a01b031614155b156145b75760cf8054600160781b600160e01b031916600160781b6001600160681b038416021790555b60cf805462010000600160781b031916905560d080546001600160681b03191690556145e560d360006150c5565b60008351118015614623575060006001600160a01b03168360008151811061460f5761460f61596e565b60200260200101516001600160a01b031614155b156111c55760405163666efabd60e11b81526001600160a01b037f000000000000000000000000000000000000000000000000000000000000000081166004830152831660248201526000907372e607Ae0aBa103e091F1EE9D34386Eb741659B59063ccddf57a90604401602060405180830381865af41580156146ab573d6000803e3d6000fd5b505050506040513d601f19601f820116820180604052508101906146cf91906154b9565b9050826001600160a01b0316336001600160a01b03167f9b8941400c12b7c3e5e1346cc27f63b2067832b71616b00a9abb91526b75fb7b8684604051613e05929190615577565b33600090815260cb6020526040812080546001600160801b03620100008204169061ffff16816147785760405162461bcd60e51b815260206004820152600d60248201526c139bdd081a5b9a5d1a585d1959609a1b6044820152606401610ea9565b60cf5461ffff1681106147c05760405162461bcd60e51b815260206004820152601060248201526f149bdd5b99081b9bdd0818db1bdcd95960821b6044820152606401610ea9565b33600090815260cb60205260409020805462010000600160901b031916905560d1546147f69083906001600160801b0316615599565b60d180546001600160801b0319166001600160801b0392909216919091179055600081815260ca602052604081205460cc5461483c91859162010000900460ff1661428d565b9050336001600160a01b03167ff279e6a1f5e320cca91135676d9cb6e44ca8a08c0b88342bcdb1144f6511b5688285604051614879929190615388565b60405180910390a261488b3084614c41565b600081116148cd5760405162461bcd60e51b815260206004820152600f60248201526e085dda5d1a191c985dd05b5bdd5b9d608a1b6044820152606401610ea9565b611cb63382613e14565b600054610100900460ff16806148f0575060005460ff16155b61490c5760405162461bcd60e51b8152600401610ea990615396565b600054610100900460ff1615801561492e576000805461ffff19166101011790555b614936614d7d565b801561302d576000805461ff001916905550565b600054610100900460ff1680614963575060005460ff16155b61497f5760405162461bcd60e51b8152600401610ea990615396565b600054610100900460ff161580156149a1576000805461ffff19166101011790555b6149a9614dec565b6149b38383614e56565b80156111c5576000805461ff0019169055505050565b600054610100900460ff16806149e2575060005460ff16155b6149fe5760405162461bcd60e51b8152600401610ea990615396565b600054610100900460ff16158015614a20576000805461ffff19166101011790555b614a28614dec565b614936614edd565b6000614a85826040518060400160405280602081526020017f5361666545524332303a206c6f772d6c6576656c2063616c6c206661696c6564815250856001600160a01b0316614f3d9092919063ffffffff16565b8051909150156111c55780806020019051810190614aa39190615de6565b6111c55760405162461bcd60e51b815260206004820152602a60248201527f5361666545524332303a204552433230206f7065726174696f6e20646964206e6044820152691bdd081cdd58d8d9595960b21b6064820152608401610ea9565b6001600160a01b038216614b585760405162461bcd60e51b815260206004820152601f60248201527f45524332303a206d696e7420746f20746865207a65726f2061646472657373006044820152606401610ea9565b8060996000828254614b6a9190615564565b90915550506001600160a01b03821660009081526097602052604081208054839290614b97908490615564565b90915550506040518181526001600160a01b03831690600090600080516020615f258339815191529060200160405180910390a35050565b6000614bdb8284615599565b9392505050565b6000614bdb828461546d565b6000614bdb8284615984565b600060018311614c1c5760405162461bcd60e51b8152600401610ea990615db7565b611cb68361427d614c2e85600a615dab565b8790614be2565b6000614bdb8284615564565b6001600160a01b038216614ca15760405162461bcd60e51b815260206004820152602160248201527f45524332303a206275726e2066726f6d20746865207a65726f206164647265736044820152607360f81b6064820152608401610ea9565b6001600160a01b03821660009081526097602052604090205481811015614d155760405162461bcd60e51b815260206004820152602260248201527f45524332303a206275726e20616d6f756e7420657863656564732062616c616e604482015261636560f01b6064820152608401610ea9565b6001600160a01b0383166000908152609760205260408120838303905560998054849290614d44908490615599565b90915550506040518281526000906001600160a01b03851690600080516020615f258339815191529060200160405180910390a3505050565b600054610100900460ff1680614d96575060005460ff16155b614db25760405162461bcd60e51b8152600401610ea990615396565b600054610100900460ff16158015614dd4576000805461ffff19166101011790555b60018055801561302d576000805461ff001916905550565b600054610100900460ff1680614e05575060005460ff16155b614e215760405162461bcd60e51b8152600401610ea990615396565b600054610100900460ff16158015614936576000805461ffff1916610101179055801561302d576000805461ff001916905550565b600054610100900460ff1680614e6f575060005460ff16155b614e8b5760405162461bcd60e51b8152600401610ea990615396565b600054610100900460ff16158015614ead576000805461ffff19166101011790555b609a614eb98482615e49565b50609b614ec68382615e49565b5080156111c5576000805461ff0019169055505050565b600054610100900460ff1680614ef6575060005460ff16155b614f125760405162461bcd60e51b8152600401610ea990615396565b600054610100900460ff16158015614f34576000805461ffff19166101011790555b614936336142c7565b6060611cb6848460008585600080866001600160a01b03168587604051614f649190615f08565b60006040518083038185875af1925050503d8060008114614fa1576040519150601f19603f3d011682016040523d82523d6000602084013e614fa6565b606091505b5091509150614fb787838387614fc2565b979650505050505050565b6060831561503157825160000361502a576001600160a01b0385163b61502a5760405162461bcd60e51b815260206004820152601d60248201527f416464726573733a2063616c6c20746f206e6f6e2d636f6e74726163740000006044820152606401610ea9565b5081611cb6565b611cb683838151156150465781518083602001fd5b8060405162461bcd60e51b8152600401610ea99190615202565b8280548282559060005260206000209081019282156150b5579160200282015b828111156150b557825182546001600160a01b0319166001600160a01b03909116178255602090920191600190910190615080565b506150c19291506150df565b5090565b508054600082559060005260206000209081019061302d91905b5b808211156150c157600081556001016150e0565b60008082840361010081121561510957600080fd5b83356001600160401b0381111561511f57600080fd5b8401610160818703121561513257600080fd5b925060e0601f198201121561514657600080fd5b506020830190509250929050565b6001600160a01b038116811461302d57600080fd5b803561517481615154565b919050565b6000806040838503121561518c57600080fd5b823561519781615154565b915060208301356151a781615154565b809150509250929050565b60005b838110156151cd5781810151838201526020016151b5565b50506000910152565b600081518084526151ee8160208601602086016151b2565b601f01601f19169290920160200192915050565b602081526000614bdb60208301846151d6565b6000806040838503121561522857600080fd5b823561523381615154565b946020939093013593505050565b6001600160a01b03169052565b6001600160a01b0391909116815260200190565b60006020828403121561527457600080fd5b5035919050565b60008060006060848603121561529057600080fd5b833561529b81615154565b925060208401356152ab81615154565b929592945050506040919091013590565b6000602082840312156152ce57600080fd5b8135614bdb81615154565b600081518084526020808501945080840160005b838110156153125781516001600160a01b0316875295820195908201906001016152ed565b509495945050505050565b602081526000614bdb60208301846152d9565b6000806040838503121561534357600080fd5b8235915060208301356151a781615154565b801515811461302d57600080fd5b6000806040838503121561537657600080fd5b8235915060208301356151a781615355565b918252602082015260400190565b6020808252602e908201527f496e697469616c697a61626c653a20636f6e747261637420697320616c72656160408201526d191e481a5b9a5d1a585b1a5e995960921b606082015260800190565b6000808335601e198436030181126153fb57600080fd5b8301803591506001600160401b0382111561541557600080fd5b60200191503681900382131561542a57600080fd5b9250929050565b60006020828403121561544357600080fd5b813563ffffffff81168114614bdb57600080fd5b634e487b7160e01b600052601160045260246000fd5b808202811582820484141761149357611493615457565b6020808252818101527f4f776e61626c653a2063616c6c6572206973206e6f7420746865206f776e6572604082015260600190565b6000602082840312156154cb57600080fd5b5051919050565b600181811c908216806154e657607f821691505b60208210810361550657634e487b7160e01b600052602260045260246000fd5b50919050565b60208082526007908201526610b5b2b2b832b960c91b604082015260600190565b6020808252601f908201527f5265656e7472616e637947756172643a207265656e7472616e742063616c6c00604082015260600190565b8082018082111561149357611493615457565b60408152600061558a60408301856152d9565b90508260208301529392505050565b8181038181111561149357611493615457565b600060018060a01b038089168352808816602084015260c060408401526155d660c08401886152d9565b606084019690965293909316608082015290151560a090910152509392505050565b6000806040838503121561560b57600080fd5b505080516020909101519092909150565b6001600160681b0381811683821601908082111561563c5761563c615457565b5092915050565b60208082526007908201526608585b5bdd5b9d60ca1b604082015260600190565b60006001820161567657615676615457565b5060010190565b6020808252600a9082015269216e756d53686172657360b01b604082015260600190565b60608152600060018060a01b03808651166060840152806020870151166080840152604086015160e060a08501526156dd6101408501826152d9565b9050606087015160c08501528160808801511660e085015260a087015161010085015260c08701519150615715610120850183615241565b6020840195909552505060400152919050565b634e487b7160e01b600052604160045260246000fd5b604051601f8201601f191681016001600160401b038111828210171561576657615766615728565b604052919050565b60006001600160401b0382111561578757615787615728565b5060051b60200190565b805161517481615154565b600082601f8301126157ad57600080fd5b815160206157c26157bd8361576e565b61573e565b82815260059290921b840181019181810190868411156157e157600080fd5b8286015b848110156157fc57805183529183019183016157e5565b509695505050505050565b6000806000806080858703121561581d57600080fd5b84516001600160401b038082111561583457600080fd5b818701915087601f83011261584857600080fd5b815160206158586157bd8361576e565b82815260059290921b8401810191818101908b84111561587757600080fd5b948201945b8386101561589e57855161588f81615154565b8252948201949082019061587c565b918a01519198509093505050808211156158b757600080fd5b6158c38883890161579c565b945060408701519150808211156158d957600080fd5b506158e68782880161579c565b9250506158f560608601615791565b905092959194509250565b600081518084526020808501945080840160005b8381101561531257815187529582019590820190600101615914565b6060815260006159436060830186615900565b82810360208401526159558186615900565b91505060018060a01b0383166040830152949350505050565b634e487b7160e01b600052603260045260246000fd5b6000826159a157634e487b7160e01b600052601260045260246000fd5b500490565b60ff8116811461302d57600080fd5b66ffffffffffffff8116811461302d57600080fd5b8035615174816159b5565b6001600160681b038116811461302d57600080fd5b8035615174816159d5565b6001600160a01b03898116825288811660208301528716604082015260608101869052608081018590526101c060a08201819052600090615a38838201876151d6565b905082810360c0840152615a4c81866151d6565b9150508235615a5a81615355565b151560e08301526020830135615a6f81615355565b15156101008301526040830135615a85816159a6565b60ff16610120830152615a9a60608401615169565b615aa8610140840182615241565b50615ab560808401615169565b615ac3610160840182615241565b50615ad060a084016159ca565b66ffffffffffffff16610180830152615aeb60c084016159ea565b6001600160681b0381166101a0840152509998505050505050505050565b60008135611493816159a6565b6000813561149381615154565b60008135611493816159b5565b60008135611493816159d5565b8135615b4881615355565b815460ff19811691151560ff1691821783556020840135615b6881615355565b61ffff199190911690911790151560081b61ff0016178155615ba7615b8f60408401615b09565b825462ff0000191660109190911b62ff000016178255565b615be0615bb660608401615b16565b8280546301000000600160b81b03191660189290921b6301000000600160b81b0316919091179055565b60018101615c10615bf360808501615b16565b82546001600160a01b0319166001600160a01b0391909116178255565b615c49615c1f60a08501615b23565b828054600160a01b600160d81b03191660a09290921b600160a01b600160d81b0316919091179055565b506113ec615c5960c08401615b30565b6002830180546001600160681b0319166001600160681b0392909216919091179055565b60008060008060008060c08789031215615c9657600080fd5b865195506020870151945060408701519350606087015192506080870151915060a087015190509295509295509295565b600181815b80851115615d02578160001904821115615ce857615ce8615457565b80851615615cf557918102915b93841c9390800290615ccc565b509250929050565b600082615d1957506001611493565b81615d2657506000611493565b8160018114615d3c5760028114615d4657615d62565b6001915050611493565b60ff841115615d5757615d57615457565b50506001821b611493565b5060208310610133831016604e8410600b8410161715615d85575081810a611493565b615d8f8383615cc7565b8060001904821115615da357615da3615457565b029392505050565b6000614bdb8383615d0a565b602080825260159082015274496e76616c6964206173736574506572536861726560581b604082015260600190565b600060208284031215615df857600080fd5b8151614bdb81615355565b601f8211156111c557600081815260208120601f850160051c81016020861015615e2a5750805b601f850160051c820191505b818110156144c357828155600101615e36565b81516001600160401b03811115615e6257615e62615728565b615e7681615e7084546154d2565b84615e03565b602080601f831160018114615eab5760008415615e935750858301515b600019600386901b1c1916600185901b1785556144c3565b600085815260208120601f198616915b82811015615eda57888601518255948401946001909101908401615ebb565b5085821015615ef85787850151600019600388901b60f8161c191681555b5050505050600190811b01905550565b60008251615f1a8184602087016151b2565b919091019291505056feddf252ad1be2c89b69c2b068fc378daa952ba7f163c4a11628f55a4df523b3efa26469706673582212208b248d06c4bd55a46a2d4239c7c79966759f9ef4610836d6dc543dfb52917e7064736f6c63430008110033",
  "deployedBytecode": "0x60806040526004361061032a5760003560e01c8062ffa9af1461032f578063056097ac1461035157806306fdde0314610371578063095ea7b31461039c5780630cbf54c8146103cc57806318160ddd146103f05780631a92f6c2146104055780631b60612a1461044657806323b872dd146104665780632728f333146104865780632775d01c1461052857806330630da414610548578063313ce5671461056857806333aaee5b14610593578063355274ea146105b557806336efd16f146105d357806339509351146105f35780633f23bb73146106135780633f90916a14610633578063432833a6146106585780634603c0aa1461066e578063469048401461068e57806347786d37146106ae5780634b2431d9146106ce578063503c70aa146106e45780635ea8cd12146106fa5780636152137d1461071a578063650cce8a1461072f5780636719b2ee146107635780636b64c769146107e75780636c10f66c146107fc57806370897b231461083057806370a0823114610850578063715018a6146108705780637a9262a2146108855780637e108d52146108e957806383536ff31461090957806387153eb11461091f578063877887821461094c57806389a30271146109625780638da5cb5b1461099657806395d89b41146109ab57806399530b06146109c05780639be43daa146109d55780639f0bf182146109f55780639fcc2d7514610a29578063a285c9e814610ae8578063a457c2d714610b03578063a497e67414610b23578063a6f7f5d614610b43578063a9059cbb14610b59578063aced166114610b79578063ad7a672f14610b99578063afa6626414610bae578063b381cf4014610bce578063b6b55f2514610c02578063ce7c2ac214610c22578063d13f1b3e14610c42578063d164cc1514610c62578063d65a06b014610c82578063db3c9bde14610ca2578063db43e86214610cb8578063dd62ed3e14610cec578063e74b981b14610d32578063ea00b1ca14610d52578063f2fde38b14610d67578063f3f140e214610d87578063f6326fb314610de9578063f656ba5114610df1578063f756fa2114610e1f578063f957a06714610e34578063fe56e23214610e54575b600080fd5b34801561033b57600080fd5b5061034f61034a3660046150f4565b610e74565b005b34801561035d57600080fd5b5061034f61036c366004615179565b6111ca565b34801561037d57600080fd5b506103866113f0565b6040516103939190615202565b60405180910390f35b3480156103a857600080fd5b506103bc6103b7366004615215565b611482565b6040519015158152602001610393565b3480156103d857600080fd5b506103e260fc5481565b604051908152602001610393565b3480156103fc57600080fd5b506099546103e2565b34801561041157600080fd5b506104397f000000000000000000000000000000000000000000000000000000000000000081565b604051610393919061524e565b34801561045257600080fd5b5061034f610461366004615262565b611499565b34801561047257600080fd5b506103bc61048136600461527b565b61183d565b34801561049257600080fd5b5060cf5460d05460d1546104dd9261ffff8116926001600160681b03620100008304811693600160781b909304811692908216916001600160801b03600160681b9091048116911686565b6040805161ffff90971687526001600160681b03958616602088015293851693860193909352921660608401526001600160801b0391821660808401521660a082015260c001610393565b34801561053457600080fd5b5061034f610543366004615262565b6118e7565b34801561055457600080fd5b5061034f6105633660046152bc565b611a9e565b34801561057457600080fd5b5060cc5462010000900460ff1660405160ff9091168152602001610393565b34801561059f57600080fd5b506105a8611b3b565b604051610393919061531d565b3480156105c157600080fd5b5060ce546001600160681b03166103e2565b3480156105df57600080fd5b5061034f6105ee366004615330565b611b9f565b3480156105ff57600080fd5b506103bc61060e366004615215565b611c27565b34801561061f57600080fd5b506103e261062e3660046152bc565b611c63565b34801561063f57600080fd5b5060d054600160681b90046001600160801b03166103e2565b34801561066457600080fd5b506103e260fd5481565b34801561067a57600080fd5b5061034f6106893660046152bc565b611cbe565b34801561069a57600080fd5b5060d654610439906001600160a01b031681565b3480156106ba57600080fd5b5061034f6106c9366004615262565b611d60565b3480156106da57600080fd5b506103e260ff5481565b3480156106f057600080fd5b506103e260fe5481565b34801561070657600080fd5b5061034f610715366004615262565b611e3a565b34801561072657600080fd5b506105a8611ea5565b34801561073b57600080fd5b506104397f000000000000000000000000000000000000000000000000000000000000000081565b34801561076f57600080fd5b506107b661077e3660046152bc565b60c96020526000908152604090205461ffff8116906201000081046001600160681b031690600160781b90046001600160801b031683565b6040805161ffff90941684526001600160681b0390921660208401526001600160801b031690820152606001610393565b3480156107f357600080fd5b5061034f611f08565b34801561080857600080fd5b506104397f000000000000000000000000000000000000000000000000000000000000000081565b34801561083c57600080fd5b5061034f61084b366004615262565b61208a565b34801561085c57600080fd5b506103e261086b3660046152bc565b61214f565b34801561087c57600080fd5b5061034f61216a565b34801561089157600080fd5b506108c76108a03660046152bc565b60cb6020526000908152604090205461ffff8116906201000090046001600160801b031682565b6040805161ffff90931683526001600160801b03909116602083015201610393565b3480156108f557600080fd5b5061034f610904366004615262565b6121a5565b34801561091557600080fd5b506103e260fa5481565b34801561092b57600080fd5b506103e261093a366004615262565b60ca6020526000908152604090205481565b34801561095857600080fd5b506103e260d85481565b34801561096e57600080fd5b506104397f000000000000000000000000000000000000000000000000000000000000000081565b3480156109a257600080fd5b506104396121ed565b3480156109b757600080fd5b506103866121fc565b3480156109cc57600080fd5b506103e261220b565b3480156109e157600080fd5b5061034f6109f0366004615262565b61224c565b348015610a0157600080fd5b506104397f000000000000000000000000000000000000000000000000000000000000000081565b348015610a3557600080fd5b5060cc5460cd5460ce54610a8f9260ff80821693610100830482169362010000840490921692630100000090046001600160a01b039081169290821691600160a01b900466ffffffffffffff16906001600160681b031687565b604080519715158852951515602088015260ff909416948601949094526001600160a01b03918216606086015216608084015266ffffffffffffff90911660a08301526001600160681b031660c082015260e001610393565b348015610af457600080fd5b5060d45463ffffffff166103e2565b348015610b0f57600080fd5b506103bc610b1e366004615215565b612345565b348015610b2f57600080fd5b5061034f610b3e366004615262565b6123de565b348015610b4f57600080fd5b506103e260d95481565b348015610b6557600080fd5b506103bc610b74366004615215565b61249a565b348015610b8557600080fd5b5060d754610439906001600160a01b031681565b348015610ba557600080fd5b506103e26124a7565b348015610bba57600080fd5b5060f854610439906001600160a01b031681565b348015610bda57600080fd5b506104397f000000000000000000000000000000000000000000000000000000000000000081565b348015610c0e57600080fd5b5061034f610c1d366004615262565b612536565b348015610c2e57600080fd5b506103e2610c3d3660046152bc565b6125aa565b348015610c4e57600080fd5b5061034f610c5d366004615262565b6125c7565b348015610c6e57600080fd5b5061034f610c7d3660046152bc565b61268b565b348015610c8e57600080fd5b5061034f610c9d366004615363565b61271f565b348015610cae57600080fd5b506103e260fb5481565b348015610cc457600080fd5b506104397f000000000000000000000000000000000000000000000000000000000000000081565b348015610cf857600080fd5b506103e2610d07366004615179565b6001600160a01b03918216600090815260986020908152604080832093909416825291909152205490565b348015610d3e57600080fd5b5061034f610d4d3660046152bc565b6128f8565b348015610d5e57600080fd5b5061034f6129eb565b348015610d7357600080fd5b5061034f610d823660046152bc565b612f90565b348015610d9357600080fd5b5060d45460d554610dbd9163ffffffff8116916001600160a01b03600160201b9092048216911683565b6040805163ffffffff90941684526001600160a01b039283166020850152911690820152606001610393565b61034f613030565b348015610dfd57600080fd5b50610e11610e0c3660046152bc565b613184565b604051610393929190615388565b348015610e2b57600080fd5b5061034f613248565b348015610e4057600080fd5b5060f954610439906001600160a01b031681565b348015610e6057600080fd5b5061034f610e6f366004615262565b61329c565b600054610100900460ff1680610e8d575060005460ff16155b610eb25760405162461bcd60e51b8152600401610ea990615396565b60405180910390fd5b600054610100900460ff16158015610ed4576000805461ffff19166101011790555b610f99610ee460208501856152bc565b610ef460408601602087016152bc565b610f0460608701604088016152bc565b60608701356080880135610f1b60a08a018a6153e4565b8080601f016020809104026020016040519081016040528093929190818152602001838380828437600092019190915250610f5d9250505060c08b018b6153e4565b8080601f0160208091040260200160405190810160405280939291908181526020018383808284376000920191909152508c9250613381915050565b6000610fac610100850160e086016152bc565b6001600160a01b031603610ffb5760405162461bcd60e51b815260206004820152601660248201527510afb7b83a34b7b739a83932b6b4bab6a83934b1b2b960511b6044820152606401610ea9565b600061100f610120850161010086016152bc565b6001600160a01b0316036110595760405162461bcd60e51b815260206004820152601160248201527010afb9ba3934b5b2a9b2b632b1ba34b7b760791b6044820152606401610ea9565b600061106d61014085016101208601615431565b63ffffffff161180156110a15750611087600a606461546d565b61109961014085016101208601615431565b63ffffffff16105b6110e15760405162461bcd60e51b81526020600482015260116024820152700857dc1c995b5a5d5b511a5cd8dbdd5b9d607a1b6044820152606401610ea9565b61012c836101400135101561112c5760405162461bcd60e51b815260206004820152601160248201527010afb0bab1ba34b7b7223ab930ba34b7b760791b6044820152606401610ea9565b61113d610100840160e085016152bc565b60f880546001600160a01b0319166001600160a01b039290921691909117905561116f610120840161010085016152bc565b60f980546001600160a01b0319166001600160a01b03929092169190911790556111a161014084016101208501615431565b63ffffffff1660fa5561014083013560fc5580156111c5576000805461ff00191690555b505050565b336111d36121ed565b6001600160a01b0316146111f95760405162461bcd60e51b8152600401610ea990615484565b60cc546001600160a01b03630100000090910481169083160361125c5760405162461bcd60e51b815260206004820152601b60248201527a5661756c74206173736574206e6f74207265636f76657261626c6560281b6044820152606401610ea9565b306001600160a01b038316036112b25760405162461bcd60e51b815260206004820152601b60248201527a5661756c74207368617265206e6f74207265636f76657261626c6560281b6044820152606401610ea9565b306001600160a01b038216036113065760405162461bcd60e51b8152602060048201526019602482015278149958da5c1a595b9d0818d85b9b9bdd081899481d985d5b1d603a1b6044820152606401610ea9565b60d4546001600160a01b03600160201b90910481169083160361136a5760405162461bcd60e51b815260206004820152601c60248201527b53707265616420546f6b656e206e6f74207265636f76657261626c6560201b6044820152606401610ea9565b6113ec81836001600160a01b03166370a08231306040518263ffffffff1660e01b815260040161139a919061524e565b602060405180830381865afa1580156113b7573d6000803e3d6000fd5b505050506040513d601f19601f820116820180604052508101906113db91906154b9565b6001600160a01b03851691906135ad565b5050565b6060609a80546113ff906154d2565b80601f016020809104026020016040519081016040528092919081815260200182805461142b906154d2565b80156114785780601f1061144d57610100808354040283529160200191611478565b820191906000526020600020905b81548152906001019060200180831161145b57829003601f168201915b5050505050905090565b600061148f338484613610565b5060015b92915050565b60d7546001600160a01b031633146114c35760405162461bcd60e51b8152600401610ea99061550c565b6002600154036114e55760405162461bcd60e51b8152600401610ea99061552d565b600260015560ff5460d05460d38054604080516020808402820181019092528281526001600160681b03909416936000939092909183018282801561155357602002820191906000526020600020905b81546001600160a01b03168152600190910190602001808311611535575b505060cf5460d4549495506201000090046001600160681b0390811694600160201b90046001600160a01b0316935060009250829150861681036116665761159d60fe5488613734565b60fe82905560d15493985091965090945092506000906115c79089906001600160801b0316615564565b90506115d281613bc2565b60d180546001600160801b0319166001600160801b038316179055600060ff556115fb85613c0c565b60cf805462010000600160781b031916620100006001600160681b038816021790556040516001600160a01b0385169033907fa791ce33e95f5df21d37ec5d288fe02046a80030931540eacf489b12f17125169061165c908a908a90615577565b60405180910390a3505b6116796001600160681b03871685615599565b93505b60008811801561168c5750600084115b1561179e5760008073__$d3108057e698617f7b9bc4e765a7fad314$__630aa045e87f00000000000000000000000000000000000000000000000000000000000000007f00000000000000000000000000000000000000000000000000000000000000008a8a8a8e6001600160681b03166000146040518763ffffffff1660e01b8152600401611721969594939291906155ac565b6040805180830381865af415801561173d573d6000803e3d6000fd5b505050506040513d601f19601f8201168201806040525081019061176191906155f8565b90925090506117708284615564565b925061177d60018b615599565b9950611789818961561c565b97506117958187615599565b9550505061167c565b60d0546117b59087906001600160681b031661561c565b60d080546001600160681b0319166001600160681b039290921691909117905560405163140e25ad60e31b8152600481018290526001600160a01b0384169063a0712d6890602401600060405180830381600087803b15801561181757600080fd5b505af115801561182b573d6000803e3d6000fd5b50506001805550505050505050505050565b600061184a848484613c56565b6001600160a01b0384166000908152609860209081526040808320338452909152902054828110156118cf5760405162461bcd60e51b815260206004820152602860248201527f45524332303a207472616e7366657220616d6f756e74206578636565647320616044820152676c6c6f77616e636560c01b6064820152608401610ea9565b6118dc8533858403613610565b506001949350505050565b6002600154036119095760405162461bcd60e51b8152600401610ea99061552d565b600260015533600090815260c96020526040902060cf5461ffff16826119415760405162461bcd60e51b8152600401610ea990615643565b815461ffff1681146119855760405162461bcd60e51b815260206004820152600d60248201526c125b9d985b1a59081c9bdd5b99609a1b6044820152606401610ea9565b81546201000090046001600160681b0316838110156119d65760405162461bcd60e51b815260206004820152600d60248201526c115e18d9595908185b5bdd5b9d609a1b6044820152606401610ea9565b6119e08482615599565b83546001600160681b0391909116620100000262010000600160781b031990911617835560d054611a239085906001600160801b03600160681b90910416615599565b60d080546001600160801b0392909216600160681b02600160681b600160e81b031990921691909117905560405133907fab2daf3c146ca6416cbccd2a86ed2ba995e171ef6319df14a38aef01403a9c9690611a829087908690615388565b60405180910390a2611a943385613e14565b5050600180555050565b33611aa76121ed565b6001600160a01b031614611acd5760405162461bcd60e51b8152600401610ea990615484565b6001600160a01b038116611b195760405162461bcd60e51b815260206004820152601360248201527210b732bba9ba3934b5b2a9b2b632b1ba34b7b760691b6044820152606401610ea9565b60f980546001600160a01b0319166001600160a01b0392909216919091179055565b606060d260000180548060200260200160405190810160405280929190818152602001828054801561147857602002820191906000526020600020905b81546001600160a01b03168152600190910190602001808311611b78575050505050905090565b600260015403611bc15760405162461bcd60e51b8152600401610ea99061552d565b600260015581611be35760405162461bcd60e51b8152600401610ea990615643565b6001600160a01b038116611bf657600080fd5b611c008282613f75565b60cc54611c1f90630100000090046001600160a01b031633308561420f565b505060018055565b3360008181526098602090815260408083206001600160a01b0387168452909152812054909161148f918590611c5e908690615564565b613610565b60cc5460009060ff620100009091041681611ca1611c8060995490565b611c886124a7565b60d054600160681b90046001600160801b031685614247565b9050611cb6611caf856125aa565b828461428d565b949350505050565b33611cc76121ed565b6001600160a01b031614611ced5760405162461bcd60e51b8152600401610ea990615484565b6001600160a01b038116611d3e5760405162461bcd60e51b815260206004820152601860248201527710b732bba7b83a34b7b739a83932b6b4bab6a83934b1b2b960411b6044820152606401610ea9565b60f880546001600160a01b0319166001600160a01b0392909216919091179055565b33611d696121ed565b6001600160a01b031614611d8f5760405162461bcd60e51b8152600401610ea990615484565b60008111611dc95760405162461bcd60e51b81526020600482015260076024820152660216e65774361760cc1b6044820152606401610ea9565b611dd281613c0c565b60ce54604080516001600160681b039092168252602082018390527f5f86edbb9d92228a9edc3f0ebc0f001bda1ea345ac7335e0eeef3504b31d1a1c910160405180910390a160ce80546001600160681b0319166001600160681b0392909216919091179055565b60d7546001600160a01b03163314611e645760405162461bcd60e51b8152600401610ea99061550c565b60008111611ea05760405162461bcd60e51b8152602060048201526009602482015268216d696e507269636560b81b6044820152606401610ea9565b60fb55565b606060d2600101805480602002602001604051908101604052809291908181526020018280548015611478576020028201919060005260206000209081546001600160a01b03168152600190910190602001808311611b78575050505050905090565b60d7546001600160a01b03163314611f325760405162461bcd60e51b8152600401610ea99061550c565b600260015403611f545760405162461bcd60e51b8152600401610ea99061552d565b60026001556040805160c08101825260d4546001600160a01b03600160201b90910481168083527f000000000000000000000000000000000000000000000000000000000000000082166020840190815260cc5463010000008104841685870190815260ff62010000909204919091166060860190815260fb546080870190815260fc5460a088019081529751633baf17fd60e21b8152875187166004820152935186166024850152915190941660448301529251606482015291516084830152925160a482015290919073__$d3108057e698617f7b9bc4e765a7fad314$__9063eebc5ff49060c401602060405180830381865af415801561205b573d6000803e3d6000fd5b505050506040513d601f19601f8201168201806040525081019061207f91906154b9565b60fd55505060018055565b336120936121ed565b6001600160a01b0316146120b95760405162461bcd60e51b8152600401610ea990615484565b6120c7620f4240606461546d565b811061210f5760405162461bcd60e51b8152602060048201526017602482015276496e76616c696420706572666f726d616e63652066656560481b6044820152606401610ea9565b7f24867dfb6fcb9970a07be21024956524abe7a1837faa903ff0e99aaa40cf893e60d85482604051612142929190615388565b60405180910390a160d855565b6001600160a01b031660009081526097602052604090205490565b336121736121ed565b6001600160a01b0316146121995760405162461bcd60e51b8152600401610ea990615484565b6121a360006142c7565b565b6002600154036121c75760405162461bcd60e51b8152600401610ea99061552d565b60026001556121d581614319565b8060ff546121e39190615564565b60ff555060018055565b6065546001600160a01b031690565b6060609b80546113ff906154d2565b600061224761221960995490565b6122216124a7565b60d05460cc54600160681b9091046001600160801b03169062010000900460ff16614247565b905090565b60026001540361226e5760405162461bcd60e51b8152600401610ea99061552d565b6002600155806122ad5760405162461bcd60e51b815260206004820152600a602482015269216e756d526f756e647360b01b6044820152606401610ea9565b60cf5461ffff1660005b8281101561233c5760006122cb8284615564565b600081815260ca6020526040902054909150156123185760405162461bcd60e51b815260206004820152600b60248201526a125b9a5d1a585b1a5e995960aa1b6044820152606401610ea9565b600090815260ca60205260409020600190558061233481615664565b9150506122b7565b50506001805550565b3360009081526098602090815260408083206001600160a01b0386168452909152812054828110156123c75760405162461bcd60e51b815260206004820152602560248201527f45524332303a2064656372656173656420616c6c6f77616e63652062656c6f77604482015264207a65726f60d81b6064820152608401610ea9565b6123d43385858403613610565b5060019392505050565b336123e76121ed565b6001600160a01b03161461240d5760405162461bcd60e51b8152600401610ea990615484565b61012c81101561245a5760405162461bcd60e51b815260206004820152601860248201527724b73b30b634b21030bab1ba34b7b710323ab930ba34b7b760411b6044820152606401610ea9565b7f5acd982e2240ed224a69aa03dab039d3797c108e4b5f288cd7dd6ca181b275f360fc548260405161248d929190615388565b60405180910390a160fc55565b600061148f338484613c56565b60cc546040516370a0823160e01b8152600091630100000090046001600160a01b0316906370a08231906124df90309060040161524e565b602060405180830381865afa1580156124fc573d6000803e3d6000fd5b505050506040513d601f19601f8201168201806040525081019061252091906154b9565b60d05461224791906001600160681b0316615564565b6002600154036125585760405162461bcd60e51b8152600401610ea99061552d565b60026001558061257a5760405162461bcd60e51b8152600401610ea990615643565b6125848133613f75565b60cc546125a390630100000090046001600160a01b031633308461420f565b5060018055565b60008060006125b884613184565b9092509050611cb68183615564565b60d7546001600160a01b031633146125f15760405162461bcd60e51b8152600401610ea99061550c565b60008111801561260c5750612608600a606461546d565b8111155b61264b5760405162461bcd60e51b815260206004820152601060248201526f125b9d985b1a5908191a5cd8dbdd5b9d60821b6044820152606401610ea9565b7f4cd657fde404967d63a338fb06c5c98751a9df57dfae6dc333a432faf8a5f65660fa548260405161267e929190615388565b60405180910390a160fa55565b336126946121ed565b6001600160a01b0316146126ba5760405162461bcd60e51b8152600401610ea990615484565b6001600160a01b0381166126fd5760405162461bcd60e51b815260206004820152600a60248201526910b732bba5b2b2b832b960b11b6044820152606401610ea9565b60d780546001600160a01b0319166001600160a01b0392909216919091179055565b600082118061272b5750805b6127475760405162461bcd60e51b8152600401610ea99061567d565b33600090815260c9602090815260408083208151606081018352905461ffff808216808452620100008084046001600160681b031685880152600160781b9093046001600160801b03168486015260cf5490875260ca9095529285205460cc5492959490931693926127c19286928692910460ff166144cb565b9050836127ce57846127d0565b805b9450846000036127e1575050505050565b808511156128255760405162461bcd60e51b81526020600482015260116024820152704578636565647320617661696c61626c6560781b6044820152606401610ea9565b825161ffff168211156128525733600090815260c960205260409020805462010000600160781b03191690555b61285b85613bc2565b6128658582615599565b33600081815260c960205260409081902080546001600160801b0394909416600160781b02600160781b600160f81b0319909416939093179092558451915190917fe5b754fb1abb7f01b499791d0b820ae3b6af3424ac1c59768edb53f4ec31a929916128de9189825261ffff16602082015260400190565b60405180910390a26128f1303387613c56565b5050505050565b336129016121ed565b6001600160a01b0316146129275760405162461bcd60e51b8152600401610ea990615484565b6001600160a01b0381166129705760405162461bcd60e51b815260206004820152601060248201526f085b995dd19959549958da5c1a595b9d60821b6044820152606401610ea9565b60d6546001600160a01b03908116908216036129c95760405162461bcd60e51b8152602060048201526018602482015277135d5cdd081899481b995dc8199959549958da5c1a595b9d60421b6044820152606401610ea9565b60d680546001600160a01b0319166001600160a01b0392909216919091179055565b600260015403612a0d5760405162461bcd60e51b8152600401610ea99061552d565b600260015560d380546040805160208084028201810190925282815260009390929091830182828015612a6957602002820191906000526020600020905b81546001600160a01b03168152600190910190602001808311612a4b575b505060d4546040805160e0810182526001600160a01b037f0000000000000000000000000000000000000000000000000000000000000000811682527f00000000000000000000000000000000000000000000000000000000000000008116602083015281830188905260006060830181905260f9548216608084015260fa5460a08401527f0000000000000000000000000000000000000000000000000000000000000000821660c0840152925163068bb40360e41b8152979850600160201b9093049092169591945092508291508190819073__$d3108057e698617f7b9bc4e765a7fad314$__906368bb403090612b6d90889060cc9060cf906004016156a1565b600060405180830381865af4158015612b8a573d6000803e3d6000fd5b505050506040513d6000823e601f3d908101601f19168201604052612bb29190810190615807565b93509350935093507f8b2c6e7d4d72cff90224277b40c8404bbdedcede50c7449f6e4d231b5b11981b838383604051612bed93929190615930565b60405180910390a160cc5460ff168015612d7d5784600181518110612c1457612c1461596e565b60200260200101516001600160a01b031663c52987cf6040518163ffffffff1660e01b8152600401602060405180830381865afa158015612c59573d6000803e3d6000fd5b505050506040513d601f19601f82011682018060405250810190612c7d91906154b9565b85600081518110612c9057612c9061596e565b60200260200101516001600160a01b031663c52987cf6040518163ffffffff1660e01b8152600401602060405180830381865afa158015612cd5573d6000803e3d6000fd5b505050506040513d601f19601f82011682018060405250810190612cf991906154b9565b11612d785760405162461bcd60e51b815260206004820152604360248201527f53686f727420707574206f746f6b656e206d757374206861766520686967686560448201527f7220737472696b65207072696365207468656e206c6f6e6720707574206f746f60648201526235b2b760e91b608482015260a401610ea9565b612ee3565b84600181518110612d9057612d9061596e565b60200260200101516001600160a01b031663c52987cf6040518163ffffffff1660e01b8152600401602060405180830381865afa158015612dd5573d6000803e3d6000fd5b505050506040513d601f19601f82011682018060405250810190612df991906154b9565b85600081518110612e0c57612e0c61596e565b60200260200101516001600160a01b031663c52987cf6040518163ffffffff1660e01b8152600401602060405180830381865afa158015612e51573d6000803e3d6000fd5b505050506040513d601f19601f82011682018060405250810190612e7591906154b9565b10612ee35760405162461bcd60e51b815260206004820152603860248201527f53686f7274206f746f6b656e206d7573742068617665206c657373207374726960448201527735b290383934b1b2903a3432b7103637b733903a37b5b2b760411b6064820152608401610ea9565b8451612ef69060d2906020880190615060565b5060d580546001600160a01b0319166001600160a01b0384161790554263ffffffff811115612f625760405162461bcd60e51b81526020600482015260186024820152774f766572666c6f77206e6578744f7074696f6e526561647960401b6044820152606401610ea9565b60d4805463ffffffff191663ffffffff8316179055612f81898961453c565b50506001805550505050505050565b33612f996121ed565b6001600160a01b031614612fbf5760405162461bcd60e51b8152600401610ea990615484565b6001600160a01b0381166130245760405162461bcd60e51b815260206004820152602660248201527f4f776e61626c653a206e6577206f776e657220697320746865207a65726f206160448201526564647265737360d01b6064820152608401610ea9565b61302d816142c7565b50565b6002600154036130525760405162461bcd60e51b8152600401610ea99061552d565b600260015560cc547f00000000000000000000000000000000000000000000000000000000000000006001600160a01b03908116630100000090920416146130c75760405162461bcd60e51b815260206004820152600860248201526721574e415449564560c01b6044820152606401610ea9565b600034116131005760405162461bcd60e51b81526020600482015260066024820152652176616c756560d01b6044820152606401610ea9565b61310a3433613f75565b7f00000000000000000000000000000000000000000000000000000000000000006001600160a01b031663d0e30db0346040518263ffffffff1660e01b81526004016000604051808303818588803b15801561316557600080fd5b505af1158015613179573d6000803e3d6000fd5b505060018055505050565b6001600160a01b038116600090815260c9602090815260408083208151606081018352905461ffff81168083526201000082046001600160681b031694830194909452600160781b90046001600160801b0316918101919091528291600111156131fc576131f18461214f565b946000945092505050565b60cf54815161ffff908116600090815260ca602052604081205460cc5491936132339386939116919062010000900460ff166144cb565b905061323e8561214f565b9590945092505050565b60026001540361326a5760405162461bcd60e51b8152600401610ea99061552d565b60026001556000613279614716565b90508060fe546132899190615599565b6001600160801b031660fe555060018055565b336132a56121ed565b6001600160a01b0316146132cb5760405162461bcd60e51b8152600401610ea990615484565b6132d9620f4240606461546d565b81106133205760405162461bcd60e51b8152602060048201526016602482015275496e76616c6964206d616e6167656d656e742066656560501b6044820152606401610ea9565b600063031ba309613334620f42408461546d565b61333e9190615984565b90507f4e874b007ab14f7e263baefd44951834c8266f4f224d1092e49e9c254354cc5460d95483604051613373929190615388565b60405180910390a160d95550565b600054610100900460ff168061339a575060005460ff16155b6133b65760405162461bcd60e51b8152600401610ea990615396565b600054610100900460ff161580156133d8576000805461ffff19166101011790555b60405163c72733f760e01b815273__$d3108057e698617f7b9bc4e765a7fad314$__9063c72733f79061341d908c908c908c908b908d908c908c908c906004016159f5565b60006040518083038186803b15801561343557600080fd5b505af4158015613449573d6000803e3d6000fd5b505050506134556148d7565b61345f848461494a565b6134676149c9565b61347089612f90565b60d780546001600160a01b03808b166001600160a01b03199283161790925560d68054928a169290911691909117905560d885905563031ba3096134b7620f42408861546d565b6134c19190615984565b60d9558160cc6134d18282615b3d565b505060cc546040516370a0823160e01b8152600091630100000090046001600160a01b0316906370a082319061350b90309060040161524e565b602060405180830381865afa158015613528573d6000803e3d6000fd5b505050506040513d601f19601f8201168201806040525081019061354c91906154b9565b905061355781613c0c565b60cf805461ffff196001600160681b03909316600160781b029290921661ffff600160781b03600160e01b031990921691909117600117905580156135a2576000805461ff00191690555b505050505050505050565b6040516001600160a01b0383166024820152604481018290526111c590849063a9059cbb60e01b906064015b60408051601f198184030181529190526020810180516001600160e01b03166001600160e01b031990931692909217909152614a30565b6001600160a01b0383166136725760405162461bcd60e51b8152602060048201526024808201527f45524332303a20617070726f76652066726f6d20746865207a65726f206164646044820152637265737360e01b6064820152608401610ea9565b6001600160a01b0382166136d35760405162461bcd60e51b815260206004820152602260248201527f45524332303a20617070726f766520746f20746865207a65726f206164647265604482015261737360f01b6064820152608401610ea9565b6001600160a01b0383811660008181526098602090815260408083209487168084529482529182902085905590518481527f8c5be1e5ebec7d5bd14f71427d1e84f3dd0314c0f7b2291e5b200ac8c7c3b925910160405180910390a3505050565b60d4546060906000908190819063ffffffff1642101561377f5760405162461bcd60e51b815260206004820152600660248201526521726561647960d01b6044820152606401610ea9565b60d28054604080516020808402820181019092528281529291908301828280156137d257602002820191906000526020600020905b81546001600160a01b031681526001909101906020018083116137b4575b505060d55484519498506001600160a01b03169450600093889350849250151590506138005761380061596e565b60200260200101516001600160a01b03160361384e5760405162461bcd60e51b815260206004820152600d60248201526c0216e657874537072656164203609c1b6044820152606401610ea9565b60006001600160a01b03168460018151811061386c5761386c61596e565b60200260200101516001600160a01b0316036138ba5760405162461bcd60e51b815260206004820152600d60248201526c216e657874537072656164203160981b6044820152606401610ea9565b6001600160a01b0381166138ff5760405162461bcd60e51b815260206004820152600c60248201526b10b9b83932b0b22a37b5b2b760a11b6044820152606401610ea9565b60d6546040805160e08101825260cc5460ff62010000820416825291516370a0823160e01b81526001600160a01b039384169360009384938493849373__$d3108057e698617f7b9bc4e765a7fad314$__9363c8128b659360cf93909260208401926301000000900416906370a082319061397e90309060040161524e565b602060405180830381865afa15801561399b573d6000803e3d6000fd5b505050506040513d601f19601f820116820180604052508101906139bf91906154b9565b81526020016139cd60995490565b81526020018f815260200160d854815260200160d95481526020018e8152506040518363ffffffff1660e01b8152600401613a5a92919060006101008201905083825282516020830152602083015160408301526040830151606083015260608301516080830152608083015160a083015260a083015160c083015260c083015160e08301529392505050565b60c060405180830381865af4158015613a77573d6000803e3d6000fd5b505050506040513d601f19601f82011682018060405250810190613a9b9190615c7d565b8e51959d50939b5090975095509093509150613abe9060d39060208c0190615060565b5060d48054600160201b600160c01b031916600160201b6001600160a01b0389160217905560d580546001600160a01b0319169055613aff60d260006150c5565b60cf5461ffff16600081815260ca602090815260409182902084905581518681529081018590529081018290526001600160a01b038716907f0a242f7ecaf711036ca770774ceffae28e60ef042ac113ddd187f2631db0c0069060600160405180910390a260d08054600160681b600160e81b0319169055613b82816001615564565b60cf805461ffff191661ffff9290921691909117905550613ba590503084614b02565b8015613bb557613bb58482613e14565b5050505092959194509250565b6001600160801b0381111561302d5760405162461bcd60e51b815260206004820152601060248201526f09eeccae4ccd8deee40ead2dce86264760831b6044820152606401610ea9565b6001600160681b0381111561302d5760405162461bcd60e51b815260206004820152601060248201526f13dd995c999b1bddc81d5a5b9d0c4c0d60821b6044820152606401610ea9565b6001600160a01b038316613cba5760405162461bcd60e51b815260206004820152602560248201527f45524332303a207472616e736665722066726f6d20746865207a65726f206164604482015264647265737360d81b6064820152608401610ea9565b6001600160a01b038216613d1c5760405162461bcd60e51b815260206004820152602360248201527f45524332303a207472616e7366657220746f20746865207a65726f206164647260448201526265737360e81b6064820152608401610ea9565b6001600160a01b03831660009081526097602052604090205481811015613d945760405162461bcd60e51b815260206004820152602660248201527f45524332303a207472616e7366657220616d6f756e7420657863656564732062604482015265616c616e636560d01b6064820152608401610ea9565b6001600160a01b03808516600090815260976020526040808220858503905591851681529081208054849290613dcb908490615564565b92505081905550826001600160a01b0316846001600160a01b0316600080516020615f2583398151915284604051613e0591815260200190565b60405180910390a35b50505050565b60cc546001600160a01b0363010000009091048116907f0000000000000000000000000000000000000000000000000000000000000000168103613f6157604051632e1a7d4d60e01b8152600481018390527f00000000000000000000000000000000000000000000000000000000000000006001600160a01b031690632e1a7d4d90602401600060405180830381600087803b158015613eb457600080fd5b505af1158015613ec8573d6000803e3d6000fd5b505050506000836001600160a01b03168360405160006040518083038185875af1925050503d8060008114613f19576040519150601f19603f3d011682016040523d82523d6000602084013e613f1e565b606091505b5050905080613e0e5760405162461bcd60e51b815260206004820152600f60248201526e151c985b9cd9995c8819985a5b1959608a1b6044820152606401610ea9565b6111c56001600160a01b03821684846135ad565b60cf5461ffff16600083613f876124a7565b613f919190615564565b60ce549091506001600160681b0316811115613fdc5760405162461bcd60e51b815260206004820152600a6024820152690457863656564206361760b41b6044820152606401610ea9565b60cd54600160a01b900466ffffffffffffff168110156140355760405162461bcd60e51b8152602060048201526014602482015273496e73756666696369656e742062616c616e636560601b6044820152606401610ea9565b826001600160a01b03167f90890809c654f11d6e72a28fa60149770a0d11ec6c92319d6ceb2bb0a4ea1a158584604051614070929190615388565b60405180910390a26001600160a01b038316600090815260c9602090815260408083208151606081018352905461ffff8116808352620100008083046001600160681b031684870152600160781b9092046001600160801b031683850152855260ca9093529083205460cc549193926140f2928592889290910460ff166144cb565b8251909150869061ffff1685036141225760008784602001516001600160681b031661411e9190615564565b9150505b61412b81613c0c565b6040805160608101825261ffff80881682526001600160681b0380851660208085019182526001600160801b038089168688019081526001600160a01b038e16600090815260c990935296822095518654935197518216600160781b02600160781b600160f81b03199890951662010000026001600160781b031990941695169490941791909117949094161790915560d0546141d1918a91600160681b900416615564565b90506141dc81613bc2565b60d080546001600160801b03909216600160681b02600160681b600160e81b031990921691909117905550505050505050565b6040516001600160a01b0380851660248301528316604482015260648101829052613e0e9085906323b872dd60e01b906084016135d9565b60008061425583600a615dab565b9050600086116142655780614283565b6142838661427d6142768888614bcf565b8490614be2565b90614bee565b9695505050505050565b6000600183116142af5760405162461bcd60e51b8152600401610ea990615db7565b611cb66142bd83600a615dab565b61427d8686614be2565b606580546001600160a01b038381166001600160a01b0319831681179093556040519116919082907f8be0079c531659141344cd1fd0a4f28419497f9722a3daafe3b4186f6b6457e090600090a35050565b600081116143395760405162461bcd60e51b8152600401610ea99061567d565b33600090815260c960205260409020546201000090046001600160681b0316151580614383575033600090815260c96020526040902054600160781b90046001600160801b031615155b15614394576143946000600161271f565b60cf5433600081815260cb6020526040908190208054915161ffff948516949193919092168414917f0c53c82ad07e2d592d88ece3b066777dd60f1118e2a081b380efc4358f0d9e2a906143eb9087908790615388565b60405180910390a281546201000090046001600160801b03166000821561441d576144168683615564565b9050614480565b811561445f5760405162461bcd60e51b81526020600482015260116024820152704578697374696e6720776974686472617760781b6044820152606401610ea9565b5033600090815260cb60205260409020805461ffff191661ffff8616179055845b61448981613bc2565b33600081815260cb60205260409020805462010000600160901b031916620100006001600160801b038516021790556144c3903088613c56565b505050505050565b835160009061ffff16158015906144e65750845161ffff1684115b1561452857600061450586602001516001600160681b03168585614bfa565b6040870151909150614520906001600160801b031682614c35565b915050611cb6565b50505050604001516001600160801b031690565b60cf548251620100009091046001600160681b0316901580159061458d575060006001600160a01b0316836000815181106145795761457961596e565b60200260200101516001600160a01b031614155b156145b75760cf8054600160781b600160e01b031916600160781b6001600160681b038416021790555b60cf805462010000600160781b031916905560d080546001600160681b03191690556145e560d360006150c5565b60008351118015614623575060006001600160a01b03168360008151811061460f5761460f61596e565b60200260200101516001600160a01b031614155b156111c55760405163666efabd60e11b81526001600160a01b037f0000000000000000000000000000000000000000000000000000000000000000811660048301528316602482015260009073__$d3108057e698617f7b9bc4e765a7fad314$__9063ccddf57a90604401602060405180830381865af41580156146ab573d6000803e3d6000fd5b505050506040513d601f19601f820116820180604052508101906146cf91906154b9565b9050826001600160a01b0316336001600160a01b03167f9b8941400c12b7c3e5e1346cc27f63b2067832b71616b00a9abb91526b75fb7b8684604051613e05929190615577565b33600090815260cb6020526040812080546001600160801b03620100008204169061ffff16816147785760405162461bcd60e51b815260206004820152600d60248201526c139bdd081a5b9a5d1a585d1959609a1b6044820152606401610ea9565b60cf5461ffff1681106147c05760405162461bcd60e51b815260206004820152601060248201526f149bdd5b99081b9bdd0818db1bdcd95960821b6044820152606401610ea9565b33600090815260cb60205260409020805462010000600160901b031916905560d1546147f69083906001600160801b0316615599565b60d180546001600160801b0319166001600160801b0392909216919091179055600081815260ca602052604081205460cc5461483c91859162010000900460ff1661428d565b9050336001600160a01b03167ff279e6a1f5e320cca91135676d9cb6e44ca8a08c0b88342bcdb1144f6511b5688285604051614879929190615388565b60405180910390a261488b3084614c41565b600081116148cd5760405162461bcd60e51b815260206004820152600f60248201526e085dda5d1a191c985dd05b5bdd5b9d608a1b6044820152606401610ea9565b611cb63382613e14565b600054610100900460ff16806148f0575060005460ff16155b61490c5760405162461bcd60e51b8152600401610ea990615396565b600054610100900460ff1615801561492e576000805461ffff19166101011790555b614936614d7d565b801561302d576000805461ff001916905550565b600054610100900460ff1680614963575060005460ff16155b61497f5760405162461bcd60e51b8152600401610ea990615396565b600054610100900460ff161580156149a1576000805461ffff19166101011790555b6149a9614dec565b6149b38383614e56565b80156111c5576000805461ff0019169055505050565b600054610100900460ff16806149e2575060005460ff16155b6149fe5760405162461bcd60e51b8152600401610ea990615396565b600054610100900460ff16158015614a20576000805461ffff19166101011790555b614a28614dec565b614936614edd565b6000614a85826040518060400160405280602081526020017f5361666545524332303a206c6f772d6c6576656c2063616c6c206661696c6564815250856001600160a01b0316614f3d9092919063ffffffff16565b8051909150156111c55780806020019051810190614aa39190615de6565b6111c55760405162461bcd60e51b815260206004820152602a60248201527f5361666545524332303a204552433230206f7065726174696f6e20646964206e6044820152691bdd081cdd58d8d9595960b21b6064820152608401610ea9565b6001600160a01b038216614b585760405162461bcd60e51b815260206004820152601f60248201527f45524332303a206d696e7420746f20746865207a65726f2061646472657373006044820152606401610ea9565b8060996000828254614b6a9190615564565b90915550506001600160a01b03821660009081526097602052604081208054839290614b97908490615564565b90915550506040518181526001600160a01b03831690600090600080516020615f258339815191529060200160405180910390a35050565b6000614bdb8284615599565b9392505050565b6000614bdb828461546d565b6000614bdb8284615984565b600060018311614c1c5760405162461bcd60e51b8152600401610ea990615db7565b611cb68361427d614c2e85600a615dab565b8790614be2565b6000614bdb8284615564565b6001600160a01b038216614ca15760405162461bcd60e51b815260206004820152602160248201527f45524332303a206275726e2066726f6d20746865207a65726f206164647265736044820152607360f81b6064820152608401610ea9565b6001600160a01b03821660009081526097602052604090205481811015614d155760405162461bcd60e51b815260206004820152602260248201527f45524332303a206275726e20616d6f756e7420657863656564732062616c616e604482015261636560f01b6064820152608401610ea9565b6001600160a01b0383166000908152609760205260408120838303905560998054849290614d44908490615599565b90915550506040518281526000906001600160a01b03851690600080516020615f258339815191529060200160405180910390a3505050565b600054610100900460ff1680614d96575060005460ff16155b614db25760405162461bcd60e51b8152600401610ea990615396565b600054610100900460ff16158015614dd4576000805461ffff19166101011790555b60018055801561302d576000805461ff001916905550565b600054610100900460ff1680614e05575060005460ff16155b614e215760405162461bcd60e51b8152600401610ea990615396565b600054610100900460ff16158015614936576000805461ffff1916610101179055801561302d576000805461ff001916905550565b600054610100900460ff1680614e6f575060005460ff16155b614e8b5760405162461bcd60e51b8152600401610ea990615396565b600054610100900460ff16158015614ead576000805461ffff19166101011790555b609a614eb98482615e49565b50609b614ec68382615e49565b5080156111c5576000805461ff0019169055505050565b600054610100900460ff1680614ef6575060005460ff16155b614f125760405162461bcd60e51b8152600401610ea990615396565b600054610100900460ff16158015614f34576000805461ffff19166101011790555b614936336142c7565b6060611cb6848460008585600080866001600160a01b03168587604051614f649190615f08565b60006040518083038185875af1925050503d8060008114614fa1576040519150601f19603f3d011682016040523d82523d6000602084013e614fa6565b606091505b5091509150614fb787838387614fc2565b979650505050505050565b6060831561503157825160000361502a576001600160a01b0385163b61502a5760405162461bcd60e51b815260206004820152601d60248201527f416464726573733a2063616c6c20746f206e6f6e2d636f6e74726163740000006044820152606401610ea9565b5081611cb6565b611cb683838151156150465781518083602001fd5b8060405162461bcd60e51b8152600401610ea99190615202565b8280548282559060005260206000209081019282156150b5579160200282015b828111156150b557825182546001600160a01b0319166001600160a01b03909116178255602090920191600190910190615080565b506150c19291506150df565b5090565b508054600082559060005260206000209081019061302d91905b5b808211156150c157600081556001016150e0565b60008082840361010081121561510957600080fd5b83356001600160401b0381111561511f57600080fd5b8401610160818703121561513257600080fd5b925060e0601f198201121561514657600080fd5b506020830190509250929050565b6001600160a01b038116811461302d57600080fd5b803561517481615154565b919050565b6000806040838503121561518c57600080fd5b823561519781615154565b915060208301356151a781615154565b809150509250929050565b60005b838110156151cd5781810151838201526020016151b5565b50506000910152565b600081518084526151ee8160208601602086016151b2565b601f01601f19169290920160200192915050565b602081526000614bdb60208301846151d6565b6000806040838503121561522857600080fd5b823561523381615154565b946020939093013593505050565b6001600160a01b03169052565b6001600160a01b0391909116815260200190565b60006020828403121561527457600080fd5b5035919050565b60008060006060848603121561529057600080fd5b833561529b81615154565b925060208401356152ab81615154565b929592945050506040919091013590565b6000602082840312156152ce57600080fd5b8135614bdb81615154565b600081518084526020808501945080840160005b838110156153125781516001600160a01b0316875295820195908201906001016152ed565b509495945050505050565b602081526000614bdb60208301846152d9565b6000806040838503121561534357600080fd5b8235915060208301356151a781615154565b801515811461302d57600080fd5b6000806040838503121561537657600080fd5b8235915060208301356151a781615355565b918252602082015260400190565b6020808252602e908201527f496e697469616c697a61626c653a20636f6e747261637420697320616c72656160408201526d191e481a5b9a5d1a585b1a5e995960921b606082015260800190565b6000808335601e198436030181126153fb57600080fd5b8301803591506001600160401b0382111561541557600080fd5b60200191503681900382131561542a57600080fd5b9250929050565b60006020828403121561544357600080fd5b813563ffffffff81168114614bdb57600080fd5b634e487b7160e01b600052601160045260246000fd5b808202811582820484141761149357611493615457565b6020808252818101527f4f776e61626c653a2063616c6c6572206973206e6f7420746865206f776e6572604082015260600190565b6000602082840312156154cb57600080fd5b5051919050565b600181811c908216806154e657607f821691505b60208210810361550657634e487b7160e01b600052602260045260246000fd5b50919050565b60208082526007908201526610b5b2b2b832b960c91b604082015260600190565b6020808252601f908201527f5265656e7472616e637947756172643a207265656e7472616e742063616c6c00604082015260600190565b8082018082111561149357611493615457565b60408152600061558a60408301856152d9565b90508260208301529392505050565b8181038181111561149357611493615457565b600060018060a01b038089168352808816602084015260c060408401526155d660c08401886152d9565b606084019690965293909316608082015290151560a090910152509392505050565b6000806040838503121561560b57600080fd5b505080516020909101519092909150565b6001600160681b0381811683821601908082111561563c5761563c615457565b5092915050565b60208082526007908201526608585b5bdd5b9d60ca1b604082015260600190565b60006001820161567657615676615457565b5060010190565b6020808252600a9082015269216e756d53686172657360b01b604082015260600190565b60608152600060018060a01b03808651166060840152806020870151166080840152604086015160e060a08501526156dd6101408501826152d9565b9050606087015160c08501528160808801511660e085015260a087015161010085015260c08701519150615715610120850183615241565b6020840195909552505060400152919050565b634e487b7160e01b600052604160045260246000fd5b604051601f8201601f191681016001600160401b038111828210171561576657615766615728565b604052919050565b60006001600160401b0382111561578757615787615728565b5060051b60200190565b805161517481615154565b600082601f8301126157ad57600080fd5b815160206157c26157bd8361576e565b61573e565b82815260059290921b840181019181810190868411156157e157600080fd5b8286015b848110156157fc57805183529183019183016157e5565b509695505050505050565b6000806000806080858703121561581d57600080fd5b84516001600160401b038082111561583457600080fd5b818701915087601f83011261584857600080fd5b815160206158586157bd8361576e565b82815260059290921b8401810191818101908b84111561587757600080fd5b948201945b8386101561589e57855161588f81615154565b8252948201949082019061587c565b918a01519198509093505050808211156158b757600080fd5b6158c38883890161579c565b945060408701519150808211156158d957600080fd5b506158e68782880161579c565b9250506158f560608601615791565b905092959194509250565b600081518084526020808501945080840160005b8381101561531257815187529582019590820190600101615914565b6060815260006159436060830186615900565b82810360208401526159558186615900565b91505060018060a01b0383166040830152949350505050565b634e487b7160e01b600052603260045260246000fd5b6000826159a157634e487b7160e01b600052601260045260246000fd5b500490565b60ff8116811461302d57600080fd5b66ffffffffffffff8116811461302d57600080fd5b8035615174816159b5565b6001600160681b038116811461302d57600080fd5b8035615174816159d5565b6001600160a01b03898116825288811660208301528716604082015260608101869052608081018590526101c060a08201819052600090615a38838201876151d6565b905082810360c0840152615a4c81866151d6565b9150508235615a5a81615355565b151560e08301526020830135615a6f81615355565b15156101008301526040830135615a85816159a6565b60ff16610120830152615a9a60608401615169565b615aa8610140840182615241565b50615ab560808401615169565b615ac3610160840182615241565b50615ad060a084016159ca565b66ffffffffffffff16610180830152615aeb60c084016159ea565b6001600160681b0381166101a0840152509998505050505050505050565b60008135611493816159a6565b6000813561149381615154565b60008135611493816159b5565b60008135611493816159d5565b8135615b4881615355565b815460ff19811691151560ff1691821783556020840135615b6881615355565b61ffff199190911690911790151560081b61ff0016178155615ba7615b8f60408401615b09565b825462ff0000191660109190911b62ff000016178255565b615be0615bb660608401615b16565b8280546301000000600160b81b03191660189290921b6301000000600160b81b0316919091179055565b60018101615c10615bf360808501615b16565b82546001600160a01b0319166001600160a01b0391909116178255565b615c49615c1f60a08501615b23565b828054600160a01b600160d81b03191660a09290921b600160a01b600160d81b0316919091179055565b506113ec615c5960c08401615b30565b6002830180546001600160681b0319166001600160681b0392909216919091179055565b60008060008060008060c08789031215615c9657600080fd5b865195506020870151945060408701519350606087015192506080870151915060a087015190509295509295509295565b600181815b80851115615d02578160001904821115615ce857615ce8615457565b80851615615cf557918102915b93841c9390800290615ccc565b509250929050565b600082615d1957506001611493565b81615d2657506000611493565b8160018114615d3c5760028114615d4657615d62565b6001915050611493565b60ff841115615d5757615d57615457565b50506001821b611493565b5060208310610133831016604e8410600b8410161715615d85575081810a611493565b615d8f8383615cc7565b8060001904821115615da357615da3615457565b029392505050565b6000614bdb8383615d0a565b602080825260159082015274496e76616c6964206173736574506572536861726560581b604082015260600190565b600060208284031215615df857600080fd5b8151614bdb81615355565b601f8211156111c557600081815260208120601f850160051c81016020861015615e2a5750805b601f850160051c820191505b818110156144c357828155600101615e36565b81516001600160401b03811115615e6257615e62615728565b615e7681615e7084546154d2565b84615e03565b602080601f831160018114615eab5760008415615e935750858301515b600019600386901b1c1916600185901b1785556144c3565b600085815260208120601f198616915b82811015615eda57888601518255948401946001909101908401615ebb565b5085821015615ef85787850151600019600388901b60f8161c191681555b5050505050600190811b01905550565b60008251615f1a8184602087016151b2565b919091019291505056feddf252ad1be2c89b69c2b068fc378daa952ba7f163c4a11628f55a4df523b3efa26469706673582212208b248d06c4bd55a46a2d4239c7c79966759f9ef4610836d6dc543dfb52917e7064736f6c63430008110033",
  "libraries": {
    "VaultLifecycleSpread": "0x72e607Ae0aBa103e091F1EE9D34386Eb741659B5"
  },
  "devdoc": {
    "kind": "dev",
    "methods": {
      "accountVaultBalance(address)": {
        "params": {
          "account": "is the address to lookup balance for"
        },
        "returns": {
          "_0": "the amount of `asset` custodied by the vault for the user"
        }
      },
      "allowance(address,address)": {
        "details": "See {IERC20-allowance}."
      },
      "approve(address,uint256)": {
        "details": "See {IERC20-approve}. Requirements: - `spender` cannot be the zero address."
      },
      "balanceOf(address)": {
        "details": "See {IERC20-balanceOf}."
      },
      "constructor": {
        "params": {
          "_gammaController": "is the contract address for opyn actions",
          "_gnosisEasyAuction": "is the contract address that facilitates gnosis auctions",
          "_marginPool": "is the contract address for providing collateral to opyn",
          "_oTokenFactory": "is the contract address for minting new opyn option types (strikes, asset, expiry)",
          "_spreadTokenLogic": "Spread token logic contract",
          "_usdc": "is the USDC contract",
          "_wnative": "is the Wrapped Native contract"
        }
      },
      "decreaseAllowance(address,uint256)": {
        "details": "Atomically decreases the allowance granted to `spender` by the caller. This is an alternative to {approve} that can be used as a mitigation for problems described in {IERC20-approve}. Emits an {Approval} event indicating the updated allowance. Requirements: - `spender` cannot be the zero address. - `spender` must have allowance for the caller of at least `subtractedValue`."
      },
      "deposit(uint256)": {
        "params": {
          "amount": "is the amount of `asset` to deposit"
        }
      },
      "depositFor(uint256,address)": {
        "params": {
          "amount": "is the amount of `asset` to deposit",
          "creditor": "is the address that can claim/withdraw deposited amount"
        }
      },
      "increaseAllowance(address,uint256)": {
        "details": "Atomically increases the allowance granted to `spender` by the caller. This is an alternative to {approve} that can be used as a mitigation for problems described in {IERC20-approve}. Emits an {Approval} event indicating the updated allowance. Requirements: - `spender` cannot be the zero address."
      },
      "initRounds(uint256)": {
        "params": {
          "numRounds": "is the number of rounds to initialize in the map"
        }
      },
      "initialize((address,address,address,uint256,uint256,string,string,address,address,uint32,uint256),(bool,bool,uint8,address,address,uint56,uint104))": {
        "params": {
          "_initParams": "is the struct with vault initialization parameters",
          "_vaultParams": "is the struct with vault general data"
        }
      },
      "initiateWithdraw(uint256)": {
        "params": {
          "numShares": "is the number of shares to withdraw"
        }
      },
      "name()": {
        "details": "Returns the name of the token."
      },
      "owner()": {
        "details": "Returns the address of the current owner."
      },
      "recoverTokens(address,address)": {
        "params": {
          "recipient": "is the recipient of the recovered tokens",
          "token": "is the ERC20 token to recover from the vault"
        }
      },
      "redeem(uint256,bool)": {
        "params": {
          "isMax": "is flag for when callers do a max redemption",
          "numShares": "is the number of shares to redeem, could be 0 when isMax=true"
        }
      },
      "renounceOwnership()": {
        "details": "Leaves the contract without owner. It will not be possible to call `onlyOwner` functions anymore. Can only be called by the current owner. NOTE: Renouncing ownership will leave the contract without an owner, thereby removing any functionality that is only available to the owner."
      },
      "setAuctionDuration(uint256)": {
        "params": {
          "newAuctionDuration": "is the auction duration"
        }
      },
      "setCap(uint256)": {
        "params": {
          "newCap": "is the new cap for deposits"
        }
      },
      "setFeeRecipient(address)": {
        "params": {
          "newFeeRecipient": "is the address of the new fee recipient"
        }
      },
      "setManagementFee(uint256)": {
        "params": {
          "newManagementFee": "is the management fee (6 decimals). ex: 2 * 10 ** 6 = 2%"
        }
      },
      "setMinPrice(uint256)": {
        "params": {
          "minPrice": "is the new oToken Premium in the units of 10**18"
        }
      },
      "setNewKeeper(address)": {
        "params": {
          "newKeeper": "is the address of the new keeper"
        }
      },
      "setOptionsPremiumPricer(address)": {
        "params": {
          "newOptionsPremiumPricer": "is the address of the new strike selection contract"
        }
      },
      "setPerformanceFee(uint256)": {
        "params": {
          "newPerformanceFee": "is the performance fee (6 decimals). ex: 20 * 10 ** 6 = 20%"
        }
      },
      "setPremiumDiscount(uint256)": {
        "params": {
          "newPremiumDiscount": "is the premium discount"
        }
      },
      "setStrikeSelection(address)": {
        "params": {
          "newStrikeSelection": "is the address of the new strike selection contract"
        }
      },
      "shareBalances(address)": {
        "params": {
          "account": "is the account to lookup share balance for"
        },
        "returns": {
          "heldByAccount": "is the shares held by account",
          "heldByVault": "is the shares held on the vault (unredeemedShares)"
        }
      },
      "shares(address)": {
        "params": {
          "account": "is the account to lookup share balance for"
        },
        "returns": {
          "_0": "the share balance"
        }
      },
      "symbol()": {
        "details": "Returns the symbol of the token, usually a shorter version of the name."
      },
      "totalBalance()": {
        "returns": {
          "_0": "total balance of the vault, including the amounts locked in third party protocols"
        }
      },
      "totalSupply()": {
        "details": "See {IERC20-totalSupply}."
      },
      "transfer(address,uint256)": {
        "details": "See {IERC20-transfer}. Requirements: - `recipient` cannot be the zero address. - the caller must have a balance of at least `amount`."
      },
      "transferFrom(address,address,uint256)": {
        "details": "See {IERC20-transferFrom}. Emits an {Approval} event indicating the updated allowance. This is not required by the EIP. See the note at the beginning of {ERC20}. Requirements: - `sender` and `recipient` cannot be the zero address. - `sender` must have a balance of at least `amount`. - the caller must have allowance for ``sender``'s tokens of at least `amount`."
      },
      "transferOwnership(address)": {
        "details": "Transfers ownership of the contract to a new account (`newOwner`). Can only be called by the current owner."
      },
      "withdrawInstantly(uint256)": {
        "params": {
          "amount": "is the amount to withdraw"
        }
      }
    },
    "version": 1
  },
  "userdoc": {
    "kind": "user",
    "methods": {
      "OTOKEN_FACTORY()": {
        "notice": "oTokenFactory is the factory contract used to spawn otokens. Used to lookup otokens."
      },
      "USDC()": {
        "notice": "USDC"
      },
      "WNATIVE()": {
        "notice": "Wrapped NATIVE currency "
      },
      "accountVaultBalance(address)": {
        "notice": "Returns the asset balance held on the vault for the account"
      },
      "commitAndClose()": {
        "notice": "Sets the next call spread the vault will be setting up existing the vault.         This allows all the users to withdraw if the next option is malicious."
      },
      "completeWithdraw()": {
        "notice": "Completes a scheduled withdrawal from a past round. Uses finalized pps for the round"
      },
      "constructor": {
        "notice": "Initializes the contract with immutable variables"
      },
      "decimals()": {
        "notice": "Returns the token decimals"
      },
      "deposit(uint256)": {
        "notice": "Deposits the `asset` from msg.sender."
      },
      "depositETH()": {
        "notice": "Deposits ETH into the contract and mint vault shares. Reverts if the asset is not WNATIVE."
      },
      "depositFor(uint256,address)": {
        "notice": "Deposits the `asset` from msg.sender added to `creditor`'s deposit.Used for vault -> vault deposits on the user's behalf"
      },
      "depositReceipts(address)": {
        "notice": "Stores the user's pending deposit for the round"
      },
      "feeRecipient()": {
        "notice": "Fee recipient for the performance and management fees"
      },
      "initRounds(uint256)": {
        "notice": "Helper function that helps to save gas for writing values into the roundPricePerShare map.         Writing `1` into the map makes subsequent writes warm, reducing the gas from 20k to 5k.         Having 1 initialized beforehand will not be an issue as long as we round down share calculations to 0."
      },
      "initialize((address,address,address,uint256,uint256,string,string,address,address,uint32,uint256),(bool,bool,uint8,address,address,uint56,uint104))": {
        "notice": "Initializes the OptionVault contract with storage variables."
      },
      "initiateWithdraw(uint256)": {
        "notice": "Initiates a withdrawal that can be processed once the round completes"
      },
      "keeper()": {
        "notice": "role in charge of weekly vault operations such as rollToNextOption and burnRemainingOTokens"
      },
      "managementFee()": {
        "notice": "Management fee charged on entire AUM in rollToNextOption. Only charged when there is no loss."
      },
      "performanceFee()": {
        "notice": "Performance fee charged on premiums earned in rollToNextOption. Only charged when there is no loss."
      },
      "pricePerShare()": {
        "notice": "The price of a unit of share denominated in the `asset`"
      },
      "recoverTokens(address,address)": {
        "notice": "Recovery function that returns an ERC20 token to the recipient"
      },
      "redeem(uint256,bool)": {
        "notice": "Redeems shares that are owed to the account"
      },
      "rollToNextOption(uint256)": {
        "notice": "Rolls the vault's funds into a new short position."
      },
      "roundPricePerShare(uint256)": {
        "notice": "On every round's close, the pricePerShare value of an rTHETA token is stored This is used to determine the number of shares to be returned to a user with their DepositReceipt.depositAmount"
      },
      "setAuctionDuration(uint256)": {
        "notice": "Sets the new auction duration"
      },
      "setCap(uint256)": {
        "notice": "Sets a new cap for deposits"
      },
      "setFeeRecipient(address)": {
        "notice": "Sets the new fee recipient"
      },
      "setManagementFee(uint256)": {
        "notice": "Sets the management fee for the vault"
      },
      "setMinPrice(uint256)": {
        "notice": "Sets oToken Premium"
      },
      "setNewKeeper(address)": {
        "notice": "Sets the new keeper"
      },
      "setOptionsPremiumPricer(address)": {
        "notice": "Sets the new options premium pricer contract"
      },
      "setPerformanceFee(uint256)": {
        "notice": "Sets the performance fee for the vault"
      },
      "setPremiumDiscount(uint256)": {
        "notice": "Sets the new discount on premiums for options we are selling"
      },
      "setStrikeSelection(address)": {
        "notice": "Sets the new strike selection contract"
      },
      "shareBalances(address)": {
        "notice": "Getter for returning the account's share balance split between account and vault holdings"
      },
      "shares(address)": {
        "notice": "Getter for returning the account's share balance including unredeemed shares"
      },
      "spreadState()": {
        "notice": "Vault's state of the strategy sold"
      },
      "startAuction()": {
        "notice": "Initiate the gnosis auction."
      },
      "totalBalance()": {
        "notice": "Returns the vault's total balance, including the amounts locked into a short position"
      },
      "vaultParams()": {
        "notice": "Vault's parameters like cap, decimals"
      },
      "vaultState()": {
        "notice": "Vault's lifecycle state like round and locked amounts"
      },
      "withdrawInstantly(uint256)": {
        "notice": "Withdraws the assets on the vault using the outstanding `DepositReceipt.amount`"
      },
      "withdrawals(address)": {
        "notice": "Stores pending user withdrawals"
      }
    },
    "notice": "UPGRADEABILITY: Since we use the upgradeable proxy pattern, we must observe the inheritance chain closely. Any changes/appends in storage variable needs to happen in HimalayanCallSpreadStorage. CallSpread should not inherit from any other contract aside from HimalayanVault, HimalayanCallSpreadStorage",
    "version": 1
  },
  "storageLayout": {
    "storage": [
      {
        "astId": 176,
        "contract": "contracts/vaults/SpreadVaults/SpreadVault.sol:SpreadVault",
        "label": "_initialized",
        "offset": 0,
        "slot": "0",
        "type": "t_bool"
      },
      {
        "astId": 179,
        "contract": "contracts/vaults/SpreadVaults/SpreadVault.sol:SpreadVault",
        "label": "_initializing",
        "offset": 1,
        "slot": "0",
        "type": "t_bool"
      },
      {
        "astId": 230,
        "contract": "contracts/vaults/SpreadVaults/SpreadVault.sol:SpreadVault",
        "label": "_status",
        "offset": 0,
        "slot": "1",
        "type": "t_uint256"
      },
      {
        "astId": 273,
        "contract": "contracts/vaults/SpreadVaults/SpreadVault.sol:SpreadVault",
        "label": "__gap",
        "offset": 0,
        "slot": "2",
        "type": "t_array(t_uint256)49_storage"
      },
      {
        "astId": 993,
        "contract": "contracts/vaults/SpreadVaults/SpreadVault.sol:SpreadVault",
        "label": "__gap",
        "offset": 0,
        "slot": "51",
        "type": "t_array(t_uint256)50_storage"
      },
      {
        "astId": 56,
        "contract": "contracts/vaults/SpreadVaults/SpreadVault.sol:SpreadVault",
        "label": "_owner",
        "offset": 0,
        "slot": "101",
        "type": "t_address"
      },
      {
        "astId": 169,
        "contract": "contracts/vaults/SpreadVaults/SpreadVault.sol:SpreadVault",
        "label": "__gap",
        "offset": 0,
        "slot": "102",
        "type": "t_array(t_uint256)49_storage"
      },
      {
        "astId": 293,
        "contract": "contracts/vaults/SpreadVaults/SpreadVault.sol:SpreadVault",
        "label": "_balances",
        "offset": 0,
        "slot": "151",
        "type": "t_mapping(t_address,t_uint256)"
      },
      {
        "astId": 299,
        "contract": "contracts/vaults/SpreadVaults/SpreadVault.sol:SpreadVault",
        "label": "_allowances",
        "offset": 0,
        "slot": "152",
        "type": "t_mapping(t_address,t_mapping(t_address,t_uint256))"
      },
      {
        "astId": 301,
        "contract": "contracts/vaults/SpreadVaults/SpreadVault.sol:SpreadVault",
        "label": "_totalSupply",
        "offset": 0,
        "slot": "153",
        "type": "t_uint256"
      },
      {
        "astId": 303,
        "contract": "contracts/vaults/SpreadVaults/SpreadVault.sol:SpreadVault",
        "label": "_name",
        "offset": 0,
        "slot": "154",
        "type": "t_string_storage"
      },
      {
        "astId": 305,
        "contract": "contracts/vaults/SpreadVaults/SpreadVault.sol:SpreadVault",
        "label": "_symbol",
        "offset": 0,
        "slot": "155",
        "type": "t_string_storage"
      },
      {
        "astId": 846,
        "contract": "contracts/vaults/SpreadVaults/SpreadVault.sol:SpreadVault",
        "label": "__gap",
        "offset": 0,
        "slot": "156",
        "type": "t_array(t_uint256)45_storage"
      },
      {
        "astId": 26063,
        "contract": "contracts/vaults/SpreadVaults/SpreadVault.sol:SpreadVault",
        "label": "depositReceipts",
        "offset": 0,
        "slot": "201",
        "type": "t_mapping(t_address,t_struct(DepositReceipt)9351_storage)"
      },
      {
        "astId": 26068,
        "contract": "contracts/vaults/SpreadVaults/SpreadVault.sol:SpreadVault",
        "label": "roundPricePerShare",
        "offset": 0,
        "slot": "202",
        "type": "t_mapping(t_uint256,t_uint256)"
      },
      {
        "astId": 26074,
        "contract": "contracts/vaults/SpreadVaults/SpreadVault.sol:SpreadVault",
        "label": "withdrawals",
        "offset": 0,
        "slot": "203",
        "type": "t_mapping(t_address,t_struct(Withdrawal)9356_storage)"
      },
      {
        "astId": 26078,
        "contract": "contracts/vaults/SpreadVaults/SpreadVault.sol:SpreadVault",
        "label": "vaultParams",
        "offset": 0,
        "slot": "204",
        "type": "t_struct(VaultParams)9311_storage"
      },
      {
        "astId": 26082,
        "contract": "contracts/vaults/SpreadVaults/SpreadVault.sol:SpreadVault",
        "label": "vaultState",
        "offset": 0,
        "slot": "207",
        "type": "t_struct(VaultState)9344_storage"
      },
      {
        "astId": 26086,
        "contract": "contracts/vaults/SpreadVaults/SpreadVault.sol:SpreadVault",
        "label": "spreadState",
        "offset": 0,
        "slot": "210",
        "type": "t_struct(SpreadState)9331_storage"
      },
      {
        "astId": 26089,
        "contract": "contracts/vaults/SpreadVaults/SpreadVault.sol:SpreadVault",
        "label": "feeRecipient",
        "offset": 0,
        "slot": "214",
        "type": "t_address"
      },
      {
        "astId": 26092,
        "contract": "contracts/vaults/SpreadVaults/SpreadVault.sol:SpreadVault",
        "label": "keeper",
        "offset": 0,
        "slot": "215",
        "type": "t_address"
      },
      {
        "astId": 26095,
        "contract": "contracts/vaults/SpreadVaults/SpreadVault.sol:SpreadVault",
        "label": "performanceFee",
        "offset": 0,
        "slot": "216",
        "type": "t_uint256"
      },
      {
        "astId": 26098,
        "contract": "contracts/vaults/SpreadVaults/SpreadVault.sol:SpreadVault",
        "label": "managementFee",
        "offset": 0,
        "slot": "217",
        "type": "t_uint256"
      },
      {
        "astId": 26102,
        "contract": "contracts/vaults/SpreadVaults/SpreadVault.sol:SpreadVault",
        "label": "____gap",
        "offset": 0,
        "slot": "218",
        "type": "t_array(t_uint256)30_storage"
      },
      {
        "astId": 15219,
        "contract": "contracts/vaults/SpreadVaults/SpreadVault.sol:SpreadVault",
        "label": "optionsPremiumPricer",
        "offset": 0,
        "slot": "248",
        "type": "t_address"
      },
      {
        "astId": 15221,
        "contract": "contracts/vaults/SpreadVaults/SpreadVault.sol:SpreadVault",
        "label": "strikeSelection",
        "offset": 0,
        "slot": "249",
        "type": "t_address"
      },
      {
        "astId": 15223,
        "contract": "contracts/vaults/SpreadVaults/SpreadVault.sol:SpreadVault",
        "label": "premiumDiscount",
        "offset": 0,
        "slot": "250",
        "type": "t_uint256"
      },
      {
        "astId": 15225,
        "contract": "contracts/vaults/SpreadVaults/SpreadVault.sol:SpreadVault",
        "label": "currentSpreadPremium",
        "offset": 0,
        "slot": "251",
        "type": "t_uint256"
      },
      {
        "astId": 15227,
        "contract": "contracts/vaults/SpreadVaults/SpreadVault.sol:SpreadVault",
        "label": "auctionDuration",
        "offset": 0,
        "slot": "252",
        "type": "t_uint256"
      },
      {
        "astId": 15229,
        "contract": "contracts/vaults/SpreadVaults/SpreadVault.sol:SpreadVault",
        "label": "optionAuctionID",
        "offset": 0,
        "slot": "253",
        "type": "t_uint256"
      },
      {
        "astId": 15231,
        "contract": "contracts/vaults/SpreadVaults/SpreadVault.sol:SpreadVault",
        "label": "lastQueuedWithdrawAmount",
        "offset": 0,
        "slot": "254",
        "type": "t_uint256"
      },
      {
        "astId": 15233,
        "contract": "contracts/vaults/SpreadVaults/SpreadVault.sol:SpreadVault",
        "label": "currentQueuedWithdrawShares",
        "offset": 0,
        "slot": "255",
        "type": "t_uint256"
      }
    ],
    "types": {
      "t_address": {
        "encoding": "inplace",
        "label": "address",
        "numberOfBytes": "20"
      },
      "t_array(t_address)dyn_storage": {
        "base": "t_address",
        "encoding": "dynamic_array",
        "label": "address[]",
        "numberOfBytes": "32"
      },
      "t_array(t_uint256)30_storage": {
        "base": "t_uint256",
        "encoding": "inplace",
        "label": "uint256[30]",
        "numberOfBytes": "960"
      },
      "t_array(t_uint256)45_storage": {
        "base": "t_uint256",
        "encoding": "inplace",
        "label": "uint256[45]",
        "numberOfBytes": "1440"
      },
      "t_array(t_uint256)49_storage": {
        "base": "t_uint256",
        "encoding": "inplace",
        "label": "uint256[49]",
        "numberOfBytes": "1568"
      },
      "t_array(t_uint256)50_storage": {
        "base": "t_uint256",
        "encoding": "inplace",
        "label": "uint256[50]",
        "numberOfBytes": "1600"
      },
      "t_bool": {
        "encoding": "inplace",
        "label": "bool",
        "numberOfBytes": "1"
      },
      "t_mapping(t_address,t_mapping(t_address,t_uint256))": {
        "encoding": "mapping",
        "key": "t_address",
        "label": "mapping(address => mapping(address => uint256))",
        "numberOfBytes": "32",
        "value": "t_mapping(t_address,t_uint256)"
      },
      "t_mapping(t_address,t_struct(DepositReceipt)9351_storage)": {
        "encoding": "mapping",
        "key": "t_address",
        "label": "mapping(address => struct Vault.DepositReceipt)",
        "numberOfBytes": "32",
        "value": "t_struct(DepositReceipt)9351_storage"
      },
      "t_mapping(t_address,t_struct(Withdrawal)9356_storage)": {
        "encoding": "mapping",
        "key": "t_address",
        "label": "mapping(address => struct Vault.Withdrawal)",
        "numberOfBytes": "32",
        "value": "t_struct(Withdrawal)9356_storage"
      },
      "t_mapping(t_address,t_uint256)": {
        "encoding": "mapping",
        "key": "t_address",
        "label": "mapping(address => uint256)",
        "numberOfBytes": "32",
        "value": "t_uint256"
      },
      "t_mapping(t_uint256,t_uint256)": {
        "encoding": "mapping",
        "key": "t_uint256",
        "label": "mapping(uint256 => uint256)",
        "numberOfBytes": "32",
        "value": "t_uint256"
      },
      "t_string_storage": {
        "encoding": "bytes",
        "label": "string",
        "numberOfBytes": "32"
      },
      "t_struct(DepositReceipt)9351_storage": {
        "encoding": "inplace",
        "label": "struct Vault.DepositReceipt",
        "members": [
          {
            "astId": 9346,
            "contract": "contracts/vaults/SpreadVaults/SpreadVault.sol:SpreadVault",
            "label": "round",
            "offset": 0,
            "slot": "0",
            "type": "t_uint16"
          },
          {
            "astId": 9348,
            "contract": "contracts/vaults/SpreadVaults/SpreadVault.sol:SpreadVault",
            "label": "amount",
            "offset": 2,
            "slot": "0",
            "type": "t_uint104"
          },
          {
            "astId": 9350,
            "contract": "contracts/vaults/SpreadVaults/SpreadVault.sol:SpreadVault",
            "label": "unredeemedShares",
            "offset": 15,
            "slot": "0",
            "type": "t_uint128"
          }
        ],
        "numberOfBytes": "32"
      },
      "t_struct(SpreadState)9331_storage": {
        "encoding": "inplace",
        "label": "struct Vault.SpreadState",
        "members": [
          {
            "astId": 9321,
            "contract": "contracts/vaults/SpreadVaults/SpreadVault.sol:SpreadVault",
            "label": "nextSpread",
            "offset": 0,
            "slot": "0",
            "type": "t_array(t_address)dyn_storage"
          },
          {
            "astId": 9324,
            "contract": "contracts/vaults/SpreadVaults/SpreadVault.sol:SpreadVault",
            "label": "currentSpread",
            "offset": 0,
            "slot": "1",
            "type": "t_array(t_address)dyn_storage"
          },
          {
            "astId": 9326,
            "contract": "contracts/vaults/SpreadVaults/SpreadVault.sol:SpreadVault",
            "label": "nextOptionReadyAt",
            "offset": 0,
            "slot": "2",
            "type": "t_uint32"
          },
          {
            "astId": 9328,
            "contract": "contracts/vaults/SpreadVaults/SpreadVault.sol:SpreadVault",
            "label": "currentSpreadToken",
            "offset": 4,
            "slot": "2",
            "type": "t_address"
          },
          {
            "astId": 9330,
            "contract": "contracts/vaults/SpreadVaults/SpreadVault.sol:SpreadVault",
            "label": "nextSpreadToken",
            "offset": 0,
            "slot": "3",
            "type": "t_address"
          }
        ],
        "numberOfBytes": "128"
      },
      "t_struct(VaultParams)9311_storage": {
        "encoding": "inplace",
        "label": "struct Vault.VaultParams",
        "members": [
          {
            "astId": 9298,
            "contract": "contracts/vaults/SpreadVaults/SpreadVault.sol:SpreadVault",
            "label": "isPut",
            "offset": 0,
            "slot": "0",
            "type": "t_bool"
          },
          {
            "astId": 9300,
            "contract": "contracts/vaults/SpreadVaults/SpreadVault.sol:SpreadVault",
            "label": "isSpread",
            "offset": 1,
            "slot": "0",
            "type": "t_bool"
          },
          {
            "astId": 9302,
            "contract": "contracts/vaults/SpreadVaults/SpreadVault.sol:SpreadVault",
            "label": "decimals",
            "offset": 2,
            "slot": "0",
            "type": "t_uint8"
          },
          {
            "astId": 9304,
            "contract": "contracts/vaults/SpreadVaults/SpreadVault.sol:SpreadVault",
            "label": "asset",
            "offset": 3,
            "slot": "0",
            "type": "t_address"
          },
          {
            "astId": 9306,
            "contract": "contracts/vaults/SpreadVaults/SpreadVault.sol:SpreadVault",
            "label": "underlying",
            "offset": 0,
            "slot": "1",
            "type": "t_address"
          },
          {
            "astId": 9308,
            "contract": "contracts/vaults/SpreadVaults/SpreadVault.sol:SpreadVault",
            "label": "minimumSupply",
            "offset": 20,
            "slot": "1",
            "type": "t_uint56"
          },
          {
            "astId": 9310,
            "contract": "contracts/vaults/SpreadVaults/SpreadVault.sol:SpreadVault",
            "label": "cap",
            "offset": 0,
            "slot": "2",
            "type": "t_uint104"
          }
        ],
        "numberOfBytes": "96"
      },
      "t_struct(VaultState)9344_storage": {
        "encoding": "inplace",
        "label": "struct Vault.VaultState",
        "members": [
          {
            "astId": 9333,
            "contract": "contracts/vaults/SpreadVaults/SpreadVault.sol:SpreadVault",
            "label": "round",
            "offset": 0,
            "slot": "0",
            "type": "t_uint16"
          },
          {
            "astId": 9335,
            "contract": "contracts/vaults/SpreadVaults/SpreadVault.sol:SpreadVault",
            "label": "lockedAmount",
            "offset": 2,
            "slot": "0",
            "type": "t_uint104"
          },
          {
            "astId": 9337,
            "contract": "contracts/vaults/SpreadVaults/SpreadVault.sol:SpreadVault",
            "label": "lastLockedAmount",
            "offset": 15,
            "slot": "0",
            "type": "t_uint104"
          },
          {
            "astId": 9339,
            "contract": "contracts/vaults/SpreadVaults/SpreadVault.sol:SpreadVault",
            "label": "lockedAmountUsed",
            "offset": 0,
            "slot": "1",
            "type": "t_uint104"
          },
          {
            "astId": 9341,
            "contract": "contracts/vaults/SpreadVaults/SpreadVault.sol:SpreadVault",
            "label": "totalPending",
            "offset": 13,
            "slot": "1",
            "type": "t_uint128"
          },
          {
            "astId": 9343,
            "contract": "contracts/vaults/SpreadVaults/SpreadVault.sol:SpreadVault",
            "label": "queuedWithdrawShares",
            "offset": 0,
            "slot": "2",
            "type": "t_uint128"
          }
        ],
        "numberOfBytes": "96"
      },
      "t_struct(Withdrawal)9356_storage": {
        "encoding": "inplace",
        "label": "struct Vault.Withdrawal",
        "members": [
          {
            "astId": 9353,
            "contract": "contracts/vaults/SpreadVaults/SpreadVault.sol:SpreadVault",
            "label": "round",
            "offset": 0,
            "slot": "0",
            "type": "t_uint16"
          },
          {
            "astId": 9355,
            "contract": "contracts/vaults/SpreadVaults/SpreadVault.sol:SpreadVault",
            "label": "shares",
            "offset": 2,
            "slot": "0",
            "type": "t_uint128"
          }
        ],
        "numberOfBytes": "32"
      },
      "t_uint104": {
        "encoding": "inplace",
        "label": "uint104",
        "numberOfBytes": "13"
      },
      "t_uint128": {
        "encoding": "inplace",
        "label": "uint128",
        "numberOfBytes": "16"
      },
      "t_uint16": {
        "encoding": "inplace",
        "label": "uint16",
        "numberOfBytes": "2"
      },
      "t_uint256": {
        "encoding": "inplace",
        "label": "uint256",
        "numberOfBytes": "32"
      },
      "t_uint32": {
        "encoding": "inplace",
        "label": "uint32",
        "numberOfBytes": "4"
      },
      "t_uint56": {
        "encoding": "inplace",
        "label": "uint56",
        "numberOfBytes": "7"
      },
      "t_uint8": {
        "encoding": "inplace",
        "label": "uint8",
        "numberOfBytes": "1"
      }
    }
  }
}