{
  "address": "0x7F9cDc9E36c6772c22c4f8966A1a86Ade6f27Deb",
  "abi": [
    {
      "inputs": [
        {
          "internalType": "address",
          "name": "gamma",
          "type": "address"
        }
      ],
      "stateMutability": "nonpayable",
      "type": "constructor"
    },
    {
      "anonymous": false,
      "inputs": [
        {
          "indexed": true,
          "internalType": "address",
          "name": "owner",
          "type": "address"
        },
        {
          "indexed": true,
          "internalType": "address",
          "name": "spender",
          "type": "address"
        },
        {
          "indexed": false,
          "internalType": "uint256",
          "name": "value",
          "type": "uint256"
        }
      ],
      "name": "Approval",
      "type": "event"
    },
    {
      "anonymous": false,
      "inputs": [
        {
          "indexed": true,
          "internalType": "address",
          "name": "from",
          "type": "address"
        },
        {
          "indexed": true,
          "internalType": "address",
          "name": "to",
          "type": "address"
        },
        {
          "indexed": false,
          "internalType": "uint256",
          "name": "value",
          "type": "uint256"
        }
      ],
      "name": "Transfer",
      "type": "event"
    },
    {
      "inputs": [],
      "name": "GAMMA_CONTROLLER",
      "outputs": [
        {
          "internalType": "address",
          "name": "",
          "type": "address"
        }
      ],
      "stateMutability": "view",
      "type": "function"
    },
    {
      "inputs": [
        {
          "internalType": "address",
          "name": "owner",
          "type": "address"
        },
        {
          "internalType": "address",
          "name": "spender",
          "type": "address"
        }
      ],
      "name": "allowance",
      "outputs": [
        {
          "internalType": "uint256",
          "name": "",
          "type": "uint256"
        }
      ],
      "stateMutability": "view",
      "type": "function"
    },
    {
      "inputs": [
        {
          "internalType": "address",
          "name": "spender",
          "type": "address"
        },
        {
          "internalType": "uint256",
          "name": "amount",
          "type": "uint256"
        }
      ],
      "name": "approve",
      "outputs": [
        {
          "internalType": "bool",
          "name": "",
          "type": "bool"
        }
      ],
      "stateMutability": "nonpayable",
      "type": "function"
    },
    {
      "inputs": [],
      "name": "asset",
      "outputs": [
        {
          "internalType": "contract IERC20",
          "name": "",
          "type": "address"
        }
      ],
      "stateMutability": "view",
      "type": "function"
    },
    {
      "inputs": [
        {
          "internalType": "address",
          "name": "account",
          "type": "address"
        }
      ],
      "name": "balanceOf",
      "outputs": [
        {
          "internalType": "uint256",
          "name": "",
          "type": "uint256"
        }
      ],
      "stateMutability": "view",
      "type": "function"
    },
    {
      "inputs": [],
      "name": "burnAndClaim",
      "outputs": [],
      "stateMutability": "nonpayable",
      "type": "function"
    },
    {
      "inputs": [],
      "name": "decimals",
      "outputs": [
        {
          "internalType": "uint8",
          "name": "",
          "type": "uint8"
        }
      ],
      "stateMutability": "view",
      "type": "function"
    },
    {
      "inputs": [
        {
          "internalType": "address",
          "name": "spender",
          "type": "address"
        },
        {
          "internalType": "uint256",
          "name": "subtractedValue",
          "type": "uint256"
        }
      ],
      "name": "decreaseAllowance",
      "outputs": [
        {
          "internalType": "bool",
          "name": "",
          "type": "bool"
        }
      ],
      "stateMutability": "nonpayable",
      "type": "function"
    },
    {
      "inputs": [],
      "name": "expiryTimestamp",
      "outputs": [
        {
          "internalType": "uint256",
          "name": "",
          "type": "uint256"
        }
      ],
      "stateMutability": "view",
      "type": "function"
    },
    {
      "inputs": [],
      "name": "himalayanVault",
      "outputs": [
        {
          "internalType": "address",
          "name": "",
          "type": "address"
        }
      ],
      "stateMutability": "view",
      "type": "function"
    },
    {
      "inputs": [
        {
          "internalType": "address",
          "name": "spender",
          "type": "address"
        },
        {
          "internalType": "uint256",
          "name": "addedValue",
          "type": "uint256"
        }
      ],
      "name": "increaseAllowance",
      "outputs": [
        {
          "internalType": "bool",
          "name": "",
          "type": "bool"
        }
      ],
      "stateMutability": "nonpayable",
      "type": "function"
    },
    {
      "inputs": [
        {
          "internalType": "string",
          "name": "name",
          "type": "string"
        },
        {
          "internalType": "string",
          "name": "symbol",
          "type": "string"
        },
        {
          "internalType": "address",
          "name": "_asset",
          "type": "address"
        },
        {
          "internalType": "address",
          "name": "_underlying",
          "type": "address"
        },
        {
          "internalType": "uint256",
          "name": "_expiry",
          "type": "uint256"
        },
        {
          "internalType": "bool",
          "name": "_isPut",
          "type": "bool"
        }
      ],
      "name": "init",
      "outputs": [],
      "stateMutability": "nonpayable",
      "type": "function"
    },
    {
      "inputs": [],
      "name": "initialized",
      "outputs": [
        {
          "internalType": "bool",
          "name": "",
          "type": "bool"
        }
      ],
      "stateMutability": "view",
      "type": "function"
    },
    {
      "inputs": [],
      "name": "isPut",
      "outputs": [
        {
          "internalType": "bool",
          "name": "",
          "type": "bool"
        }
      ],
      "stateMutability": "view",
      "type": "function"
    },
    {
      "inputs": [
        {
          "internalType": "uint256",
          "name": "amount",
          "type": "uint256"
        }
      ],
      "name": "mint",
      "outputs": [],
      "stateMutability": "nonpayable",
      "type": "function"
    },
    {
      "inputs": [],
      "name": "name",
      "outputs": [
        {
          "internalType": "string",
          "name": "",
          "type": "string"
        }
      ],
      "stateMutability": "view",
      "type": "function"
    },
    {
      "inputs": [],
      "name": "settleVault",
      "outputs": [],
      "stateMutability": "nonpayable",
      "type": "function"
    },
    {
      "inputs": [],
      "name": "settled",
      "outputs": [
        {
          "internalType": "bool",
          "name": "",
          "type": "bool"
        }
      ],
      "stateMutability": "view",
      "type": "function"
    },
    {
      "inputs": [],
      "name": "symbol",
      "outputs": [
        {
          "internalType": "string",
          "name": "",
          "type": "string"
        }
      ],
      "stateMutability": "view",
      "type": "function"
    },
    {
      "inputs": [],
      "name": "totalSupply",
      "outputs": [
        {
          "internalType": "uint256",
          "name": "",
          "type": "uint256"
        }
      ],
      "stateMutability": "view",
      "type": "function"
    },
    {
      "inputs": [
        {
          "internalType": "address",
          "name": "to",
          "type": "address"
        },
        {
          "internalType": "uint256",
          "name": "amount",
          "type": "uint256"
        }
      ],
      "name": "transfer",
      "outputs": [
        {
          "internalType": "bool",
          "name": "",
          "type": "bool"
        }
      ],
      "stateMutability": "nonpayable",
      "type": "function"
    },
    {
      "inputs": [
        {
          "internalType": "address",
          "name": "from",
          "type": "address"
        },
        {
          "internalType": "address",
          "name": "to",
          "type": "address"
        },
        {
          "internalType": "uint256",
          "name": "amount",
          "type": "uint256"
        }
      ],
      "name": "transferFrom",
      "outputs": [
        {
          "internalType": "bool",
          "name": "",
          "type": "bool"
        }
      ],
      "stateMutability": "nonpayable",
      "type": "function"
    },
    {
      "inputs": [],
      "name": "underlyingAsset",
      "outputs": [
        {
          "internalType": "contract IERC20",
          "name": "",
          "type": "address"
        }
      ],
      "stateMutability": "view",
      "type": "function"
    }
  ],
  "transactionHash": "0xce7d48ddc5c6ec6c310cd51ae6e21233b9c51e5d47e21e1979818030b2ce2469",
  "args": [
    "0x7a23c712bddde52b22d8ff52e4cdadb1bcb0b203"
  ],
  "solcInputHash": "6af5012b821624158e268746ba6ca5b7",
  "bytecode": "0x60a060405234801561001057600080fd5b5060405161174c38038061174c83398101604081905261002f91610083565b6001600160a01b0381166100725760405162461bcd60e51b81526020600482015260066024820152652167616d6d6160d01b604482015260640160405180910390fd5b6001600160a01b03166080526100b3565b60006020828403121561009557600080fd5b81516001600160a01b03811681146100ac57600080fd5b9392505050565b6080516116706100dc600039600081816101ab015281816105da01526107d901526116706000f3fe608060405234801561001057600080fd5b506004361061011d5760003560e01c806306fdde0314610122578063095ea7b3146101405780630ff26f00146101635780631513e9b914610178578063158ef93e1461018057806318160ddd146101945780631a92f6c2146101a657806323b872dd146101da578063313ce567146101ed57806338d52e0f146101fc578063395093511461020f57806370a08231146102225780637158da7c1461024b57806372661f251461025e5780638f7758391461026657806395d89b411461027a578063a0712d6814610282578063a457c2d714610295578063a9059cbb146102a8578063ade6e2aa146102bb578063daa45645146102c4578063dd62ed3e146102dc578063f3c274a6146102ef575b600080fd5b61012a6102fc565b60405161013791906110b4565b60405180910390f35b61015361014e3660046110ea565b61038e565b6040519015158152602001610137565b61017661017136600461116a565b6103a8565b005b6101766106c2565b60085461015390600160a81b900460ff1681565b6002545b604051908152602001610137565b6101cd7f000000000000000000000000000000000000000000000000000000000000000081565b6040516101379190611225565b6101536101e8366004611239565b61084e565b60405160088152602001610137565b6005546101cd906001600160a01b031681565b61015361021d3660046110ea565b610872565b610198610230366004611275565b6001600160a01b031660009081526020819052604090205490565b6006546101cd906001600160a01b031681565b610176610894565b60085461015390600160b01b900460ff1681565b61012a610a10565b610176610290366004611290565b610a1f565b6101536102a33660046110ea565b610a64565b6101536102b63660046110ea565b610adf565b61019860075481565b6008546101cd9061010090046001600160a01b031681565b6101986102ea3660046112a9565b610aed565b6008546101539060ff1681565b60606003805461030b906112dc565b80601f0160208091040260200160405190810160405280929190818152602001828054610337906112dc565b80156103845780601f1061035957610100808354040283529160200191610384565b820191906000526020600020905b81548152906001019060200180831161036757829003601f168201915b5050505050905090565b60003361039c818585610b18565b60019150505b92915050565b600854600160a81b900460ff16156103fd5760405162461bcd60e51b8152602060048201526013602482015272105b1c9958591e481a5b9a5d1a585b1a5e9959606a1b60448201526064015b60405180910390fd5b6001600160a01b0384166104235760405162461bcd60e51b81526004016103f490611316565b6001600160a01b0383166104495760405162461bcd60e51b81526004016103f490611316565b4282116104825760405162461bcd60e51b81526020600482015260076024820152662165787069727960c81b60448201526064016103f4565b6008805460ff60a81b1916600160a81b17905560036104a2888a83611392565b5060046104b0868883611392565b50600580546001600160a01b03199081166001600160a01b0387811691909117909255600680549091169185169190911790556007829055600880546001600160a81b031916821515610100600160a81b031916173361010002179055604080516001808252818301909252600091602082015b61052c61100d565b815260200190600190039081610524579050506040805161010081019091529091508060008152602001306001600160a01b0316815260200160006001600160a01b0316815260200160006001600160a01b0316815260200160018152602001600081526020016000815260200160405180602001604052806000815250815250816000815181106105c0576105c0611452565b6020908102919091010152604051635b0bf86360e11b81527f0000000000000000000000000000000000000000000000000000000000000000906001600160a01b0382169063b617f0c690610619908590600401611468565b600060405180830381600087803b15801561063357600080fd5b505af1158015610647573d6000803e3d6000fd5b505060085460405163558a729760e01b81526101009091046001600160a01b039081166004830152600160248301528416925063558a72979150604401600060405180830381600087803b15801561069e57600080fd5b505af11580156106b2573d6000803e3d6000fd5b5050505050505050505050505050565b60085461010090046001600160a01b0316336001600160a01b0316146106fa5760405162461bcd60e51b81526004016103f490611555565b6008805460ff60b01b1916600160b01b179055604080516001808252818301909252600091602082015b61072c61100d565b815260200190600190039081610724579050506040805161010081019091529091508060078152602001306001600160a01b03168152602001306001600160a01b0316815260200160006001600160a01b0316815260200160018152602001600081526020016000815260200160405180602001604052806000815250815250816000815181106107bf576107bf611452565b6020908102919091010152604051635b0bf86360e11b81527f0000000000000000000000000000000000000000000000000000000000000000906001600160a01b0382169063b617f0c690610818908590600401611468565b600060405180830381600087803b15801561083257600080fd5b505af1158015610846573d6000803e3d6000fd5b505050505050565b60003361085c858285610c3d565b610867858585610cb1565b506001949350505050565b60003361039c8185856108858383610aed565b61088f9190611598565b610b18565b600854600160b01b900460ff166108d85760405162461bcd60e51b8152602060048201526008602482015267085cd95d1d1b195960c21b60448201526064016103f4565b60006108e333610230565b905060006108f060025490565b6005546040516370a0823160e01b815291925060009183916001600160a01b0316906370a0823190610926903090600401611225565b602060405180830381865afa158015610943573d6000803e3d6000fd5b505050506040513d601f19601f8201168201806040525081019061096791906115ab565b61097190856115c4565b61097b91906115db565b90506109873384610e43565b6005546001600160a01b031663a9059cbb336040516001600160e01b031960e084901b1681526001600160a01b039091166004820152602481018490526044016020604051808303816000875af11580156109e6573d6000803e3d6000fd5b505050506040513d601f19601f82011682018060405250810190610a0a91906115fd565b50505050565b60606004805461030b906112dc565b60085461010090046001600160a01b0316336001600160a01b031614610a575760405162461bcd60e51b81526004016103f490611555565b610a613382610f60565b50565b60003381610a728286610aed565b905083811015610ad25760405162461bcd60e51b815260206004820152602560248201527f45524332303a2064656372656173656420616c6c6f77616e63652062656c6f77604482015264207a65726f60d81b60648201526084016103f4565b6108678286868403610b18565b60003361039c818585610cb1565b6001600160a01b03918216600090815260016020908152604080832093909416825291909152205490565b6001600160a01b038316610b7a5760405162461bcd60e51b8152602060048201526024808201527f45524332303a20617070726f76652066726f6d20746865207a65726f206164646044820152637265737360e01b60648201526084016103f4565b6001600160a01b038216610bdb5760405162461bcd60e51b815260206004820152602260248201527f45524332303a20617070726f766520746f20746865207a65726f206164647265604482015261737360f01b60648201526084016103f4565b6001600160a01b0383811660008181526001602090815260408083209487168084529482529182902085905590518481527f8c5be1e5ebec7d5bd14f71427d1e84f3dd0314c0f7b2291e5b200ac8c7c3b92591015b60405180910390a3505050565b6000610c498484610aed565b90506000198114610a0a5781811015610ca45760405162461bcd60e51b815260206004820152601d60248201527f45524332303a20696e73756666696369656e7420616c6c6f77616e636500000060448201526064016103f4565b610a0a8484848403610b18565b6001600160a01b038316610d155760405162461bcd60e51b815260206004820152602560248201527f45524332303a207472616e736665722066726f6d20746865207a65726f206164604482015264647265737360d81b60648201526084016103f4565b6001600160a01b038216610d775760405162461bcd60e51b815260206004820152602360248201527f45524332303a207472616e7366657220746f20746865207a65726f206164647260448201526265737360e81b60648201526084016103f4565b6001600160a01b03831660009081526020819052604090205481811015610def5760405162461bcd60e51b815260206004820152602660248201527f45524332303a207472616e7366657220616d6f756e7420657863656564732062604482015265616c616e636560d01b60648201526084016103f4565b6001600160a01b038481166000818152602081815260408083208787039055938716808352918490208054870190559251858152909260008051602061161b833981519152910160405180910390a3610a0a565b6001600160a01b038216610ea35760405162461bcd60e51b815260206004820152602160248201527f45524332303a206275726e2066726f6d20746865207a65726f206164647265736044820152607360f81b60648201526084016103f4565b6001600160a01b03821660009081526020819052604090205481811015610f175760405162461bcd60e51b815260206004820152602260248201527f45524332303a206275726e20616d6f756e7420657863656564732062616c616e604482015261636560f01b60648201526084016103f4565b6001600160a01b03831660008181526020818152604080832086860390556002805487900390555185815291929160008051602061161b8339815191529101610c30565b505050565b6001600160a01b038216610fb65760405162461bcd60e51b815260206004820152601f60248201527f45524332303a206d696e7420746f20746865207a65726f20616464726573730060448201526064016103f4565b8060026000828254610fc89190611598565b90915550506001600160a01b0382166000818152602081815260408083208054860190555184815260008051602061161b833981519152910160405180910390a35050565b604080516101008101909152806000815260200160006001600160a01b0316815260200160006001600160a01b0316815260200160006001600160a01b03168152602001600081526020016000815260200160008152602001606081525090565b6000815180845260005b8181101561109457602081850181015186830182015201611078565b506000602082860101526020601f19601f83011685010191505092915050565b6020815260006110c7602083018461106e565b9392505050565b80356001600160a01b03811681146110e557600080fd5b919050565b600080604083850312156110fd57600080fd5b611106836110ce565b946020939093013593505050565b60008083601f84011261112657600080fd5b5081356001600160401b0381111561113d57600080fd5b60208301915083602082850101111561115557600080fd5b9250929050565b8015158114610a6157600080fd5b60008060008060008060008060c0898b03121561118657600080fd5b88356001600160401b038082111561119d57600080fd5b6111a98c838d01611114565b909a50985060208b01359150808211156111c257600080fd5b506111cf8b828c01611114565b90975095506111e2905060408a016110ce565b93506111f060608a016110ce565b92506080890135915060a08901356112078161115c565b809150509295985092959890939650565b6001600160a01b03169052565b6001600160a01b0391909116815260200190565b60008060006060848603121561124e57600080fd5b611257846110ce565b9250611265602085016110ce565b9150604084013590509250925092565b60006020828403121561128757600080fd5b6110c7826110ce565b6000602082840312156112a257600080fd5b5035919050565b600080604083850312156112bc57600080fd5b6112c5836110ce565b91506112d3602084016110ce565b90509250929050565b600181811c908216806112f057607f821691505b60208210810361131057634e487b7160e01b600052602260045260246000fd5b50919050565b60208082526006908201526508585cdcd95d60d21b604082015260600190565b634e487b7160e01b600052604160045260246000fd5b601f821115610f5b57600081815260208120601f850160051c810160208610156113735750805b601f850160051c820191505b818110156108465782815560010161137f565b6001600160401b038311156113a9576113a9611336565b6113bd836113b783546112dc565b8361134c565b6000601f8411600181146113f157600085156113d95750838201355b600019600387901b1c1916600186901b17835561144b565b600083815260209020601f19861690835b828110156114225786850135825560209485019460019092019101611402565b508682101561143f5760001960f88860031b161c19848701351681555b505060018560011b0183555b5050505050565b634e487b7160e01b600052603260045260246000fd5b60006020808301818452808551808352604092508286019150828160051b8701018488016000805b8481101561154657603f198a850301865282516101008151600b81106114c457634e487b7160e01b85526021600452602485fd5b8652818a01516114d68b880182611218565b50888201516114e78a880182611218565b506060808301516114fa82890182611218565b50506080828101519087015260a0808301519087015260c0808301519087015260e0918201519186018190526115328187018361106e565b978a01979550505091870191600101611490565b50919998505050505050505050565b602080825260139082015272556e617574686f72697a65642061636365737360681b604082015260600190565b634e487b7160e01b600052601160045260246000fd5b808201808211156103a2576103a2611582565b6000602082840312156115bd57600080fd5b5051919050565b80820281158282048414176103a2576103a2611582565b6000826115f857634e487b7160e01b600052601260045260246000fd5b500490565b60006020828403121561160f57600080fd5b81516110c78161115c56feddf252ad1be2c89b69c2b068fc378daa952ba7f163c4a11628f55a4df523b3efa26469706673582212200ff88a28452553227ba37e4a70ba8c82e2cbde3520b0425ca3e5cdc84521476164736f6c63430008110033",
  "devdoc": {
    "kind": "dev",
    "methods": {
      "allowance(address,address)": {
        "details": "See {IERC20-allowance}."
      },
      "approve(address,uint256)": {
        "details": "See {IERC20-approve}. NOTE: If `amount` is the maximum `uint256`, the allowance is not updated on `transferFrom`. This is semantically equivalent to an infinite approval. Requirements: - `spender` cannot be the zero address."
      },
      "balanceOf(address)": {
        "details": "See {IERC20-balanceOf}."
      },
      "decimals()": {
        "details": "Returns the number of decimals used to get its user representation. For example, if `decimals` equals `2`, a balance of `505` tokens should be displayed to a user as `5.05` (`505 / 10 ** 2`). Tokens usually opt for a value of 18, imitating the relationship between Ether and Wei. This is the value {ERC20} uses, unless this function is overridden; NOTE: This information is only used for _display_ purposes: it in no way affects any of the arithmetic of the contract, including {IERC20-balanceOf} and {IERC20-transfer}."
      },
      "decreaseAllowance(address,uint256)": {
        "details": "Atomically decreases the allowance granted to `spender` by the caller. This is an alternative to {approve} that can be used as a mitigation for problems described in {IERC20-approve}. Emits an {Approval} event indicating the updated allowance. Requirements: - `spender` cannot be the zero address. - `spender` must have allowance for the caller of at least `subtractedValue`."
      },
      "increaseAllowance(address,uint256)": {
        "details": "Atomically increases the allowance granted to `spender` by the caller. This is an alternative to {approve} that can be used as a mitigation for problems described in {IERC20-approve}. Emits an {Approval} event indicating the updated allowance. Requirements: - `spender` cannot be the zero address."
      },
      "name()": {
        "details": "Returns the name of the token."
      },
      "symbol()": {
        "details": "Returns the symbol of the token, usually a shorter version of the name."
      },
      "totalSupply()": {
        "details": "See {IERC20-totalSupply}."
      },
      "transfer(address,uint256)": {
        "details": "See {IERC20-transfer}. Requirements: - `to` cannot be the zero address. - the caller must have a balance of at least `amount`."
      },
      "transferFrom(address,address,uint256)": {
        "details": "See {IERC20-transferFrom}. Emits an {Approval} event indicating the updated allowance. This is not required by the EIP. See the note at the beginning of {ERC20}. NOTE: Does not update the allowance if the current allowance is the maximum `uint256`. Requirements: - `from` and `to` cannot be the zero address. - `from` must have a balance of at least `amount`. - the caller must have allowance for ``from``'s tokens of at least `amount`."
      }
    },
    "version": 1
  },
  "userdoc": {
    "kind": "user",
    "methods": {},
    "version": 1
  },
  "storageLayout": {
    "storage": [
      {
        "astId": 24066,
        "contract": "contracts/vaults/SpreadVaults/SpreadToken.sol:SpreadToken",
        "label": "_balances",
        "offset": 0,
        "slot": "0",
        "type": "t_mapping(t_address,t_uint256)"
      },
      {
        "astId": 24072,
        "contract": "contracts/vaults/SpreadVaults/SpreadToken.sol:SpreadToken",
        "label": "_allowances",
        "offset": 0,
        "slot": "1",
        "type": "t_mapping(t_address,t_mapping(t_address,t_uint256))"
      },
      {
        "astId": 24074,
        "contract": "contracts/vaults/SpreadVaults/SpreadToken.sol:SpreadToken",
        "label": "_totalSupply",
        "offset": 0,
        "slot": "2",
        "type": "t_uint256"
      },
      {
        "astId": 24076,
        "contract": "contracts/vaults/SpreadVaults/SpreadToken.sol:SpreadToken",
        "label": "_name",
        "offset": 0,
        "slot": "3",
        "type": "t_string_storage"
      },
      {
        "astId": 24078,
        "contract": "contracts/vaults/SpreadVaults/SpreadToken.sol:SpreadToken",
        "label": "_symbol",
        "offset": 0,
        "slot": "4",
        "type": "t_string_storage"
      },
      {
        "astId": 24634,
        "contract": "contracts/vaults/SpreadVaults/SpreadToken.sol:SpreadToken",
        "label": "asset",
        "offset": 0,
        "slot": "5",
        "type": "t_contract(IERC20)2241"
      },
      {
        "astId": 24637,
        "contract": "contracts/vaults/SpreadVaults/SpreadToken.sol:SpreadToken",
        "label": "underlyingAsset",
        "offset": 0,
        "slot": "6",
        "type": "t_contract(IERC20)2241"
      },
      {
        "astId": 24639,
        "contract": "contracts/vaults/SpreadVaults/SpreadToken.sol:SpreadToken",
        "label": "expiryTimestamp",
        "offset": 0,
        "slot": "7",
        "type": "t_uint256"
      },
      {
        "astId": 24641,
        "contract": "contracts/vaults/SpreadVaults/SpreadToken.sol:SpreadToken",
        "label": "isPut",
        "offset": 0,
        "slot": "8",
        "type": "t_bool"
      },
      {
        "astId": 24643,
        "contract": "contracts/vaults/SpreadVaults/SpreadToken.sol:SpreadToken",
        "label": "himalayanVault",
        "offset": 1,
        "slot": "8",
        "type": "t_address"
      },
      {
        "astId": 24645,
        "contract": "contracts/vaults/SpreadVaults/SpreadToken.sol:SpreadToken",
        "label": "initialized",
        "offset": 21,
        "slot": "8",
        "type": "t_bool"
      },
      {
        "astId": 24647,
        "contract": "contracts/vaults/SpreadVaults/SpreadToken.sol:SpreadToken",
        "label": "settled",
        "offset": 22,
        "slot": "8",
        "type": "t_bool"
      }
    ],
    "types": {
      "t_address": {
        "encoding": "inplace",
        "label": "address",
        "numberOfBytes": "20"
      },
      "t_bool": {
        "encoding": "inplace",
        "label": "bool",
        "numberOfBytes": "1"
      },
      "t_contract(IERC20)2241": {
        "encoding": "inplace",
        "label": "contract IERC20",
        "numberOfBytes": "20"
      },
      "t_mapping(t_address,t_mapping(t_address,t_uint256))": {
        "encoding": "mapping",
        "key": "t_address",
        "label": "mapping(address => mapping(address => uint256))",
        "numberOfBytes": "32",
        "value": "t_mapping(t_address,t_uint256)"
      },
      "t_mapping(t_address,t_uint256)": {
        "encoding": "mapping",
        "key": "t_address",
        "label": "mapping(address => uint256)",
        "numberOfBytes": "32",
        "value": "t_uint256"
      },
      "t_string_storage": {
        "encoding": "bytes",
        "label": "string",
        "numberOfBytes": "32"
      },
      "t_uint256": {
        "encoding": "inplace",
        "label": "uint256",
        "numberOfBytes": "32"
      }
    }
  }
}