{
  "address": "0xa4eb8ce5A9443d484aeE00e3804Db7c52C76Ef4f",
  "abi": [
    {
      "inputs": [
        {
          "internalType": "address",
          "name": "gamma",
          "type": "address"
        }
      ],
      "stateMutability": "nonpayable",
      "type": "constructor"
    },
    {
      "anonymous": false,
      "inputs": [
        {
          "indexed": true,
          "internalType": "address",
          "name": "owner",
          "type": "address"
        },
        {
          "indexed": true,
          "internalType": "address",
          "name": "spender",
          "type": "address"
        },
        {
          "indexed": false,
          "internalType": "uint256",
          "name": "value",
          "type": "uint256"
        }
      ],
      "name": "Approval",
      "type": "event"
    },
    {
      "anonymous": false,
      "inputs": [
        {
          "indexed": true,
          "internalType": "address",
          "name": "from",
          "type": "address"
        },
        {
          "indexed": true,
          "internalType": "address",
          "name": "to",
          "type": "address"
        },
        {
          "indexed": false,
          "internalType": "uint256",
          "name": "value",
          "type": "uint256"
        }
      ],
      "name": "Transfer",
      "type": "event"
    },
    {
      "inputs": [],
      "name": "GAMMA_CONTROLLER",
      "outputs": [
        {
          "internalType": "address",
          "name": "",
          "type": "address"
        }
      ],
      "stateMutability": "view",
      "type": "function"
    },
    {
      "inputs": [
        {
          "internalType": "address",
          "name": "owner",
          "type": "address"
        },
        {
          "internalType": "address",
          "name": "spender",
          "type": "address"
        }
      ],
      "name": "allowance",
      "outputs": [
        {
          "internalType": "uint256",
          "name": "",
          "type": "uint256"
        }
      ],
      "stateMutability": "view",
      "type": "function"
    },
    {
      "inputs": [
        {
          "internalType": "address",
          "name": "spender",
          "type": "address"
        },
        {
          "internalType": "uint256",
          "name": "amount",
          "type": "uint256"
        }
      ],
      "name": "approve",
      "outputs": [
        {
          "internalType": "bool",
          "name": "",
          "type": "bool"
        }
      ],
      "stateMutability": "nonpayable",
      "type": "function"
    },
    {
      "inputs": [],
      "name": "asset",
      "outputs": [
        {
          "internalType": "contract IERC20",
          "name": "",
          "type": "address"
        }
      ],
      "stateMutability": "view",
      "type": "function"
    },
    {
      "inputs": [
        {
          "internalType": "address",
          "name": "account",
          "type": "address"
        }
      ],
      "name": "balanceOf",
      "outputs": [
        {
          "internalType": "uint256",
          "name": "",
          "type": "uint256"
        }
      ],
      "stateMutability": "view",
      "type": "function"
    },
    {
      "inputs": [],
      "name": "burnAndClaim",
      "outputs": [],
      "stateMutability": "nonpayable",
      "type": "function"
    },
    {
      "inputs": [],
      "name": "decimals",
      "outputs": [
        {
          "internalType": "uint8",
          "name": "",
          "type": "uint8"
        }
      ],
      "stateMutability": "view",
      "type": "function"
    },
    {
      "inputs": [
        {
          "internalType": "address",
          "name": "spender",
          "type": "address"
        },
        {
          "internalType": "uint256",
          "name": "subtractedValue",
          "type": "uint256"
        }
      ],
      "name": "decreaseAllowance",
      "outputs": [
        {
          "internalType": "bool",
          "name": "",
          "type": "bool"
        }
      ],
      "stateMutability": "nonpayable",
      "type": "function"
    },
    {
      "inputs": [],
      "name": "himalayanVault",
      "outputs": [
        {
          "internalType": "address",
          "name": "",
          "type": "address"
        }
      ],
      "stateMutability": "view",
      "type": "function"
    },
    {
      "inputs": [
        {
          "internalType": "address",
          "name": "spender",
          "type": "address"
        },
        {
          "internalType": "uint256",
          "name": "addedValue",
          "type": "uint256"
        }
      ],
      "name": "increaseAllowance",
      "outputs": [
        {
          "internalType": "bool",
          "name": "",
          "type": "bool"
        }
      ],
      "stateMutability": "nonpayable",
      "type": "function"
    },
    {
      "inputs": [
        {
          "internalType": "string",
          "name": "name",
          "type": "string"
        },
        {
          "internalType": "string",
          "name": "symbol",
          "type": "string"
        },
        {
          "internalType": "address",
          "name": "_asset",
          "type": "address"
        },
        {
          "internalType": "address",
          "name": "_underlying",
          "type": "address"
        }
      ],
      "name": "init",
      "outputs": [],
      "stateMutability": "nonpayable",
      "type": "function"
    },
    {
      "inputs": [],
      "name": "initialized",
      "outputs": [
        {
          "internalType": "bool",
          "name": "",
          "type": "bool"
        }
      ],
      "stateMutability": "view",
      "type": "function"
    },
    {
      "inputs": [
        {
          "internalType": "uint256",
          "name": "amount",
          "type": "uint256"
        }
      ],
      "name": "mint",
      "outputs": [],
      "stateMutability": "nonpayable",
      "type": "function"
    },
    {
      "inputs": [],
      "name": "name",
      "outputs": [
        {
          "internalType": "string",
          "name": "",
          "type": "string"
        }
      ],
      "stateMutability": "view",
      "type": "function"
    },
    {
      "inputs": [],
      "name": "settleVault",
      "outputs": [],
      "stateMutability": "nonpayable",
      "type": "function"
    },
    {
      "inputs": [],
      "name": "settled",
      "outputs": [
        {
          "internalType": "bool",
          "name": "",
          "type": "bool"
        }
      ],
      "stateMutability": "view",
      "type": "function"
    },
    {
      "inputs": [],
      "name": "symbol",
      "outputs": [
        {
          "internalType": "string",
          "name": "",
          "type": "string"
        }
      ],
      "stateMutability": "view",
      "type": "function"
    },
    {
      "inputs": [],
      "name": "totalSupply",
      "outputs": [
        {
          "internalType": "uint256",
          "name": "",
          "type": "uint256"
        }
      ],
      "stateMutability": "view",
      "type": "function"
    },
    {
      "inputs": [
        {
          "internalType": "address",
          "name": "to",
          "type": "address"
        },
        {
          "internalType": "uint256",
          "name": "amount",
          "type": "uint256"
        }
      ],
      "name": "transfer",
      "outputs": [
        {
          "internalType": "bool",
          "name": "",
          "type": "bool"
        }
      ],
      "stateMutability": "nonpayable",
      "type": "function"
    },
    {
      "inputs": [
        {
          "internalType": "address",
          "name": "from",
          "type": "address"
        },
        {
          "internalType": "address",
          "name": "to",
          "type": "address"
        },
        {
          "internalType": "uint256",
          "name": "amount",
          "type": "uint256"
        }
      ],
      "name": "transferFrom",
      "outputs": [
        {
          "internalType": "bool",
          "name": "",
          "type": "bool"
        }
      ],
      "stateMutability": "nonpayable",
      "type": "function"
    },
    {
      "inputs": [],
      "name": "underlying",
      "outputs": [
        {
          "internalType": "contract IERC20",
          "name": "",
          "type": "address"
        }
      ],
      "stateMutability": "view",
      "type": "function"
    }
  ],
  "transactionHash": "0x1cba73821d6c504f998c9032390c447a4ae0f073068ab72466975ec2cf499459",
  "args": [
    "0x7a23c712bddde52b22d8ff52e4cdadb1bcb0b203"
  ],
  "solcInputHash": "d527cdaa9e8309b979a05a31d25f22aa",
  "bytecode": "0x60a060405234801561001057600080fd5b5060405161169138038061169183398101604081905261002f91610083565b6001600160a01b0381166100725760405162461bcd60e51b81526020600482015260066024820152652167616d6d6160d01b604482015260640160405180910390fd5b6001600160a01b03166080526100b3565b60006020828403121561009557600080fd5b81516001600160a01b03811681146100ac57600080fd5b9392505050565b6080516115b56100dc600039600081816101950152818161056b015261074b01526115b56000f3fe608060405234801561001057600080fd5b50600436106101075760003560e01c806306fdde031461010c578063095ea7b31461012a5780630e07f8541461014d5780631513e9b914610162578063158ef93e1461016a57806318160ddd1461017e5780631a92f6c21461019057806323b872dd146101c4578063313ce567146101d757806338d52e0f146101e657806339509351146101f95780636f307dc31461020c57806370a082311461021f57806372661f25146102485780638f7758391461025057806395d89b4114610264578063a0712d681461026c578063a457c2d71461027f578063a9059cbb14610292578063daa45645146102a5578063dd62ed3e146102b8575b600080fd5b6101146102cb565b6040516101219190611021565b60405180910390f35b61013d610138366004611057565b61035d565b6040519015158152602001610121565b61016061015b3660046110c9565b610377565b005b61016061064c565b60075461013d90600160a01b900460ff1681565b6002545b604051908152602001610121565b6101b77f000000000000000000000000000000000000000000000000000000000000000081565b6040516101219190611165565b61013d6101d2366004611179565b6107c0565b60405160088152602001610121565b6005546101b7906001600160a01b031681565b61013d610207366004611057565b6107e4565b6006546101b7906001600160a01b031681565b61018261022d3660046111b5565b6001600160a01b031660009081526020819052604090205490565b610160610806565b60075461013d90600160a81b900460ff1681565b610114610982565b61016061027a3660046111d0565b610991565b61013d61028d366004611057565b6109d1565b61013d6102a0366004611057565b610a4c565b6007546101b7906001600160a01b031681565b6101826102c63660046111e9565b610a5a565b6060600380546102da9061121c565b80601f01602080910402602001604051908101604052809291908181526020018280546103069061121c565b80156103535780601f1061032857610100808354040283529160200191610353565b820191906000526020600020905b81548152906001019060200180831161033657829003601f168201915b5050505050905090565b60003361036b818585610a85565b60019150505b92915050565b600754600160a01b900460ff16156103cc5760405162461bcd60e51b8152602060048201526013602482015272105b1c9958591e481a5b9a5d1a585b1a5e9959606a1b60448201526064015b60405180910390fd5b6001600160a01b0382166103f25760405162461bcd60e51b81526004016103c390611256565b6001600160a01b0381166104185760405162461bcd60e51b81526004016103c390611256565b6007805460ff60a01b1916600160a01b17905560036104388688836112d2565b5060046104468486836112d2565b50600580546001600160a01b038085166001600160a01b031992831617909255600680549284169290911691909117905561047e3390565b600780546001600160a01b0319166001600160a01b0392909216919091179055604080516001808252818301909252600091602082015b6104bd610f7a565b8152602001906001900390816104b5579050506040805161010081019091529091508060008152602001306001600160a01b0316815260200160006001600160a01b0316815260200160006001600160a01b03168152602001600181526020016000815260200160008152602001604051806020016040528060008152508152508160008151811061055157610551611392565b6020908102919091010152604051635b0bf86360e11b81527f0000000000000000000000000000000000000000000000000000000000000000906001600160a01b0382169063b617f0c6906105aa9085906004016113a8565b600060405180830381600087803b1580156105c457600080fd5b505af11580156105d8573d6000803e3d6000fd5b505060075460405163558a729760e01b81526001600160a01b03918216600482015260016024820152908416925063558a72979150604401600060405180830381600087803b15801561062a57600080fd5b505af115801561063e573d6000803e3d6000fd5b505050505050505050505050565b6007546001600160a01b0316336001600160a01b03161461067f5760405162461bcd60e51b81526004016103c390611495565b604080516001808252818301909252600091816020015b61069e610f7a565b815260200190600190039081610696579050506040805161010081019091529091508060078152602001306001600160a01b03168152602001306001600160a01b0316815260200160006001600160a01b03168152602001600181526020016000815260200160008152602001604051806020016040528060008152508152508160008151811061073157610731611392565b6020908102919091010152604051635b0bf86360e11b81527f0000000000000000000000000000000000000000000000000000000000000000906001600160a01b0382169063b617f0c69061078a9085906004016113a8565b600060405180830381600087803b1580156107a457600080fd5b505af11580156107b8573d6000803e3d6000fd5b505050505050565b6000336107ce858285610baa565b6107d9858585610c1e565b506001949350505050565b60003361036b8185856107f78383610a5a565b61080191906114d8565b610a85565b600754600160a81b900460ff1661084a5760405162461bcd60e51b8152602060048201526008602482015267085cd95d1d1b195960c21b60448201526064016103c3565b60006108553361022d565b9050600061086260025490565b6005546040516370a0823160e01b815291925060009183916001600160a01b0316906370a0823190610898903090600401611165565b602060405180830381865afa1580156108b5573d6000803e3d6000fd5b505050506040513d601f19601f820116820180604052508101906108d991906114eb565b6108e39085611504565b6108ed919061151b565b90506108f93384610db0565b6005546001600160a01b031663a9059cbb336040516001600160e01b031960e084901b1681526001600160a01b039091166004820152602481018490526044016020604051808303816000875af1158015610958573d6000803e3d6000fd5b505050506040513d601f19601f8201168201806040525081019061097c919061153d565b50505050565b6060600480546102da9061121c565b6007546001600160a01b0316336001600160a01b0316146109c45760405162461bcd60e51b81526004016103c390611495565b6109ce3382610ecd565b50565b600033816109df8286610a5a565b905083811015610a3f5760405162461bcd60e51b815260206004820152602560248201527f45524332303a2064656372656173656420616c6c6f77616e63652062656c6f77604482015264207a65726f60d81b60648201526084016103c3565b6107d98286868403610a85565b60003361036b818585610c1e565b6001600160a01b03918216600090815260016020908152604080832093909416825291909152205490565b6001600160a01b038316610ae75760405162461bcd60e51b8152602060048201526024808201527f45524332303a20617070726f76652066726f6d20746865207a65726f206164646044820152637265737360e01b60648201526084016103c3565b6001600160a01b038216610b485760405162461bcd60e51b815260206004820152602260248201527f45524332303a20617070726f766520746f20746865207a65726f206164647265604482015261737360f01b60648201526084016103c3565b6001600160a01b0383811660008181526001602090815260408083209487168084529482529182902085905590518481527f8c5be1e5ebec7d5bd14f71427d1e84f3dd0314c0f7b2291e5b200ac8c7c3b92591015b60405180910390a3505050565b6000610bb68484610a5a565b9050600019811461097c5781811015610c115760405162461bcd60e51b815260206004820152601d60248201527f45524332303a20696e73756666696369656e7420616c6c6f77616e636500000060448201526064016103c3565b61097c8484848403610a85565b6001600160a01b038316610c825760405162461bcd60e51b815260206004820152602560248201527f45524332303a207472616e736665722066726f6d20746865207a65726f206164604482015264647265737360d81b60648201526084016103c3565b6001600160a01b038216610ce45760405162461bcd60e51b815260206004820152602360248201527f45524332303a207472616e7366657220746f20746865207a65726f206164647260448201526265737360e81b60648201526084016103c3565b6001600160a01b03831660009081526020819052604090205481811015610d5c5760405162461bcd60e51b815260206004820152602660248201527f45524332303a207472616e7366657220616d6f756e7420657863656564732062604482015265616c616e636560d01b60648201526084016103c3565b6001600160a01b0384811660008181526020818152604080832087870390559387168083529184902080548701905592518581529092600080516020611560833981519152910160405180910390a361097c565b6001600160a01b038216610e105760405162461bcd60e51b815260206004820152602160248201527f45524332303a206275726e2066726f6d20746865207a65726f206164647265736044820152607360f81b60648201526084016103c3565b6001600160a01b03821660009081526020819052604090205481811015610e845760405162461bcd60e51b815260206004820152602260248201527f45524332303a206275726e20616d6f756e7420657863656564732062616c616e604482015261636560f01b60648201526084016103c3565b6001600160a01b0383166000818152602081815260408083208686039055600280548790039055518581529192916000805160206115608339815191529101610b9d565b505050565b6001600160a01b038216610f235760405162461bcd60e51b815260206004820152601f60248201527f45524332303a206d696e7420746f20746865207a65726f20616464726573730060448201526064016103c3565b8060026000828254610f3591906114d8565b90915550506001600160a01b03821660008181526020818152604080832080548601905551848152600080516020611560833981519152910160405180910390a35050565b604080516101008101909152806000815260200160006001600160a01b0316815260200160006001600160a01b0316815260200160006001600160a01b03168152602001600081526020016000815260200160008152602001606081525090565b6000815180845260005b8181101561100157602081850181015186830182015201610fe5565b506000602082860101526020601f19601f83011685010191505092915050565b6020815260006110346020830184610fdb565b9392505050565b80356001600160a01b038116811461105257600080fd5b919050565b6000806040838503121561106a57600080fd5b6110738361103b565b946020939093013593505050565b60008083601f84011261109357600080fd5b5081356001600160401b038111156110aa57600080fd5b6020830191508360208285010111156110c257600080fd5b9250929050565b600080600080600080608087890312156110e257600080fd5b86356001600160401b03808211156110f957600080fd5b6111058a838b01611081565b9098509650602089013591508082111561111e57600080fd5b5061112b89828a01611081565b909550935061113e90506040880161103b565b915061114c6060880161103b565b90509295509295509295565b6001600160a01b03169052565b6001600160a01b0391909116815260200190565b60008060006060848603121561118e57600080fd5b6111978461103b565b92506111a56020850161103b565b9150604084013590509250925092565b6000602082840312156111c757600080fd5b6110348261103b565b6000602082840312156111e257600080fd5b5035919050565b600080604083850312156111fc57600080fd5b6112058361103b565b91506112136020840161103b565b90509250929050565b600181811c9082168061123057607f821691505b60208210810361125057634e487b7160e01b600052602260045260246000fd5b50919050565b60208082526006908201526508585cdcd95d60d21b604082015260600190565b634e487b7160e01b600052604160045260246000fd5b601f821115610ec857600081815260208120601f850160051c810160208610156112b35750805b601f850160051c820191505b818110156107b8578281556001016112bf565b6001600160401b038311156112e9576112e9611276565b6112fd836112f7835461121c565b8361128c565b6000601f84116001811461133157600085156113195750838201355b600019600387901b1c1916600186901b17835561138b565b600083815260209020601f19861690835b828110156113625786850135825560209485019460019092019101611342565b508682101561137f5760001960f88860031b161c19848701351681555b505060018560011b0183555b5050505050565b634e487b7160e01b600052603260045260246000fd5b60006020808301818452808551808352604092508286019150828160051b8701018488016000805b8481101561148657603f198a850301865282516101008151600b811061140457634e487b7160e01b85526021600452602485fd5b8652818a01516114168b880182611158565b50888201516114278a880182611158565b5060608083015161143a82890182611158565b50506080828101519087015260a0808301519087015260c0808301519087015260e09182015191860181905261147281870183610fdb565b978a019795505050918701916001016113d0565b50919998505050505050505050565b602080825260139082015272556e617574686f72697a65642061636365737360681b604082015260600190565b634e487b7160e01b600052601160045260246000fd5b80820180821115610371576103716114c2565b6000602082840312156114fd57600080fd5b5051919050565b8082028115828204841417610371576103716114c2565b60008261153857634e487b7160e01b600052601260045260246000fd5b500490565b60006020828403121561154f57600080fd5b8151801515811461103457600080fdfeddf252ad1be2c89b69c2b068fc378daa952ba7f163c4a11628f55a4df523b3efa2646970667358221220e2e4f11d5ad94083baeae92aa72e8d7e540bd0577512c89a386542a25f797bd664736f6c63430008110033",
  "devdoc": {
    "kind": "dev",
    "methods": {
      "allowance(address,address)": {
        "details": "See {IERC20-allowance}."
      },
      "approve(address,uint256)": {
        "details": "See {IERC20-approve}. NOTE: If `amount` is the maximum `uint256`, the allowance is not updated on `transferFrom`. This is semantically equivalent to an infinite approval. Requirements: - `spender` cannot be the zero address."
      },
      "balanceOf(address)": {
        "details": "See {IERC20-balanceOf}."
      },
      "decimals()": {
        "details": "Returns the number of decimals used to get its user representation. For example, if `decimals` equals `2`, a balance of `505` tokens should be displayed to a user as `5.05` (`505 / 10 ** 2`). Tokens usually opt for a value of 18, imitating the relationship between Ether and Wei. This is the value {ERC20} uses, unless this function is overridden; NOTE: This information is only used for _display_ purposes: it in no way affects any of the arithmetic of the contract, including {IERC20-balanceOf} and {IERC20-transfer}."
      },
      "decreaseAllowance(address,uint256)": {
        "details": "Atomically decreases the allowance granted to `spender` by the caller. This is an alternative to {approve} that can be used as a mitigation for problems described in {IERC20-approve}. Emits an {Approval} event indicating the updated allowance. Requirements: - `spender` cannot be the zero address. - `spender` must have allowance for the caller of at least `subtractedValue`."
      },
      "increaseAllowance(address,uint256)": {
        "details": "Atomically increases the allowance granted to `spender` by the caller. This is an alternative to {approve} that can be used as a mitigation for problems described in {IERC20-approve}. Emits an {Approval} event indicating the updated allowance. Requirements: - `spender` cannot be the zero address."
      },
      "name()": {
        "details": "Returns the name of the token."
      },
      "symbol()": {
        "details": "Returns the symbol of the token, usually a shorter version of the name."
      },
      "totalSupply()": {
        "details": "See {IERC20-totalSupply}."
      },
      "transfer(address,uint256)": {
        "details": "See {IERC20-transfer}. Requirements: - `to` cannot be the zero address. - the caller must have a balance of at least `amount`."
      },
      "transferFrom(address,address,uint256)": {
        "details": "See {IERC20-transferFrom}. Emits an {Approval} event indicating the updated allowance. This is not required by the EIP. See the note at the beginning of {ERC20}. NOTE: Does not update the allowance if the current allowance is the maximum `uint256`. Requirements: - `from` and `to` cannot be the zero address. - `from` must have a balance of at least `amount`. - the caller must have allowance for ``from``'s tokens of at least `amount`."
      }
    },
    "version": 1
  },
  "userdoc": {
    "kind": "user",
    "methods": {},
    "version": 1
  },
  "storageLayout": {
    "storage": [
      {
        "astId": 23781,
        "contract": "contracts/vaults/SpreadVaults/SpreadToken.sol:SpreadToken",
        "label": "_balances",
        "offset": 0,
        "slot": "0",
        "type": "t_mapping(t_address,t_uint256)"
      },
      {
        "astId": 23787,
        "contract": "contracts/vaults/SpreadVaults/SpreadToken.sol:SpreadToken",
        "label": "_allowances",
        "offset": 0,
        "slot": "1",
        "type": "t_mapping(t_address,t_mapping(t_address,t_uint256))"
      },
      {
        "astId": 23789,
        "contract": "contracts/vaults/SpreadVaults/SpreadToken.sol:SpreadToken",
        "label": "_totalSupply",
        "offset": 0,
        "slot": "2",
        "type": "t_uint256"
      },
      {
        "astId": 23791,
        "contract": "contracts/vaults/SpreadVaults/SpreadToken.sol:SpreadToken",
        "label": "_name",
        "offset": 0,
        "slot": "3",
        "type": "t_string_storage"
      },
      {
        "astId": 23793,
        "contract": "contracts/vaults/SpreadVaults/SpreadToken.sol:SpreadToken",
        "label": "_symbol",
        "offset": 0,
        "slot": "4",
        "type": "t_string_storage"
      },
      {
        "astId": 24349,
        "contract": "contracts/vaults/SpreadVaults/SpreadToken.sol:SpreadToken",
        "label": "asset",
        "offset": 0,
        "slot": "5",
        "type": "t_contract(IERC20)1852"
      },
      {
        "astId": 24352,
        "contract": "contracts/vaults/SpreadVaults/SpreadToken.sol:SpreadToken",
        "label": "underlying",
        "offset": 0,
        "slot": "6",
        "type": "t_contract(IERC20)1852"
      },
      {
        "astId": 24354,
        "contract": "contracts/vaults/SpreadVaults/SpreadToken.sol:SpreadToken",
        "label": "himalayanVault",
        "offset": 0,
        "slot": "7",
        "type": "t_address"
      },
      {
        "astId": 24356,
        "contract": "contracts/vaults/SpreadVaults/SpreadToken.sol:SpreadToken",
        "label": "initialized",
        "offset": 20,
        "slot": "7",
        "type": "t_bool"
      },
      {
        "astId": 24358,
        "contract": "contracts/vaults/SpreadVaults/SpreadToken.sol:SpreadToken",
        "label": "settled",
        "offset": 21,
        "slot": "7",
        "type": "t_bool"
      }
    ],
    "types": {
      "t_address": {
        "encoding": "inplace",
        "label": "address",
        "numberOfBytes": "20"
      },
      "t_bool": {
        "encoding": "inplace",
        "label": "bool",
        "numberOfBytes": "1"
      },
      "t_contract(IERC20)1852": {
        "encoding": "inplace",
        "label": "contract IERC20",
        "numberOfBytes": "20"
      },
      "t_mapping(t_address,t_mapping(t_address,t_uint256))": {
        "encoding": "mapping",
        "key": "t_address",
        "label": "mapping(address => mapping(address => uint256))",
        "numberOfBytes": "32",
        "value": "t_mapping(t_address,t_uint256)"
      },
      "t_mapping(t_address,t_uint256)": {
        "encoding": "mapping",
        "key": "t_address",
        "label": "mapping(address => uint256)",
        "numberOfBytes": "32",
        "value": "t_uint256"
      },
      "t_string_storage": {
        "encoding": "bytes",
        "label": "string",
        "numberOfBytes": "32"
      },
      "t_uint256": {
        "encoding": "inplace",
        "label": "uint256",
        "numberOfBytes": "32"
      }
    }
  }
}