{
  "address": "0x504Ae1f586C0ae738FD927492ACA87Fe36E461ef",
  "abi": [
    {
      "inputs": [
        {
          "internalType": "address",
          "name": "_wnative",
          "type": "address"
        },
        {
          "internalType": "address",
          "name": "_usdc",
          "type": "address"
        },
        {
          "internalType": "address",
          "name": "_oTokenFactory",
          "type": "address"
        },
        {
          "internalType": "address",
          "name": "_gammaController",
          "type": "address"
        },
        {
          "internalType": "address",
          "name": "_marginPool",
          "type": "address"
        },
        {
          "internalType": "address",
          "name": "_gnosisEasyAuction",
          "type": "address"
        },
        {
          "internalType": "address",
          "name": "_spreadTokenLogic",
          "type": "address"
        }
      ],
      "stateMutability": "nonpayable",
      "type": "constructor"
    },
    {
      "anonymous": false,
      "inputs": [
        {
          "indexed": true,
          "internalType": "address",
          "name": "owner",
          "type": "address"
        },
        {
          "indexed": true,
          "internalType": "address",
          "name": "spender",
          "type": "address"
        },
        {
          "indexed": false,
          "internalType": "uint256",
          "name": "value",
          "type": "uint256"
        }
      ],
      "name": "Approval",
      "type": "event"
    },
    {
      "anonymous": false,
      "inputs": [
        {
          "indexed": false,
          "internalType": "uint256",
          "name": "auctionDuration",
          "type": "uint256"
        },
        {
          "indexed": false,
          "internalType": "uint256",
          "name": "newAuctionDuration",
          "type": "uint256"
        }
      ],
      "name": "AuctionDurationSet",
      "type": "event"
    },
    {
      "anonymous": false,
      "inputs": [
        {
          "indexed": false,
          "internalType": "uint256",
          "name": "oldCap",
          "type": "uint256"
        },
        {
          "indexed": false,
          "internalType": "uint256",
          "name": "newCap",
          "type": "uint256"
        }
      ],
      "name": "CapSet",
      "type": "event"
    },
    {
      "anonymous": false,
      "inputs": [
        {
          "indexed": false,
          "internalType": "address[]",
          "name": "spread",
          "type": "address[]"
        },
        {
          "indexed": false,
          "internalType": "uint256",
          "name": "withdrawAmount",
          "type": "uint256"
        },
        {
          "indexed": true,
          "internalType": "address",
          "name": "manager",
          "type": "address"
        },
        {
          "indexed": true,
          "internalType": "address",
          "name": "spreadToken",
          "type": "address"
        }
      ],
      "name": "CloseSpread",
      "type": "event"
    },
    {
      "anonymous": false,
      "inputs": [
        {
          "indexed": false,
          "internalType": "uint256",
          "name": "performanceFee",
          "type": "uint256"
        },
        {
          "indexed": false,
          "internalType": "uint256",
          "name": "vaultFee",
          "type": "uint256"
        },
        {
          "indexed": false,
          "internalType": "uint256",
          "name": "round",
          "type": "uint256"
        },
        {
          "indexed": true,
          "internalType": "address",
          "name": "feeRecipient",
          "type": "address"
        }
      ],
      "name": "CollectVaultFees",
      "type": "event"
    },
    {
      "anonymous": false,
      "inputs": [
        {
          "indexed": true,
          "internalType": "address",
          "name": "account",
          "type": "address"
        },
        {
          "indexed": false,
          "internalType": "uint256",
          "name": "amount",
          "type": "uint256"
        },
        {
          "indexed": false,
          "internalType": "uint256",
          "name": "round",
          "type": "uint256"
        }
      ],
      "name": "Deposit",
      "type": "event"
    },
    {
      "anonymous": false,
      "inputs": [
        {
          "indexed": true,
          "internalType": "address",
          "name": "account",
          "type": "address"
        },
        {
          "indexed": false,
          "internalType": "uint256",
          "name": "shares",
          "type": "uint256"
        },
        {
          "indexed": false,
          "internalType": "uint256",
          "name": "round",
          "type": "uint256"
        }
      ],
      "name": "InitiateWithdraw",
      "type": "event"
    },
    {
      "anonymous": false,
      "inputs": [
        {
          "indexed": true,
          "internalType": "address",
          "name": "account",
          "type": "address"
        },
        {
          "indexed": false,
          "internalType": "uint256",
          "name": "amount",
          "type": "uint256"
        },
        {
          "indexed": false,
          "internalType": "uint256",
          "name": "round",
          "type": "uint256"
        }
      ],
      "name": "InstantWithdraw",
      "type": "event"
    },
    {
      "anonymous": false,
      "inputs": [
        {
          "indexed": false,
          "internalType": "uint256",
          "name": "managementFee",
          "type": "uint256"
        },
        {
          "indexed": false,
          "internalType": "uint256",
          "name": "newManagementFee",
          "type": "uint256"
        }
      ],
      "name": "ManagementFeeSet",
      "type": "event"
    },
    {
      "anonymous": false,
      "inputs": [
        {
          "indexed": false,
          "internalType": "uint256[]",
          "name": "strikePrices",
          "type": "uint256[]"
        },
        {
          "indexed": false,
          "internalType": "uint256[]",
          "name": "deltas",
          "type": "uint256[]"
        },
        {
          "indexed": false,
          "internalType": "address",
          "name": "spreadToken",
          "type": "address"
        }
      ],
      "name": "NewSpreadStrikesSelected",
      "type": "event"
    },
    {
      "anonymous": false,
      "inputs": [
        {
          "indexed": false,
          "internalType": "address[]",
          "name": "spread",
          "type": "address[]"
        },
        {
          "indexed": false,
          "internalType": "uint256",
          "name": "depositAmount",
          "type": "uint256"
        },
        {
          "indexed": true,
          "internalType": "address",
          "name": "manager",
          "type": "address"
        },
        {
          "indexed": true,
          "internalType": "address",
          "name": "spreadToken",
          "type": "address"
        }
      ],
      "name": "OpenSpread",
      "type": "event"
    },
    {
      "anonymous": false,
      "inputs": [
        {
          "indexed": true,
          "internalType": "address",
          "name": "previousOwner",
          "type": "address"
        },
        {
          "indexed": true,
          "internalType": "address",
          "name": "newOwner",
          "type": "address"
        }
      ],
      "name": "OwnershipTransferred",
      "type": "event"
    },
    {
      "anonymous": false,
      "inputs": [
        {
          "indexed": false,
          "internalType": "uint256",
          "name": "performanceFee",
          "type": "uint256"
        },
        {
          "indexed": false,
          "internalType": "uint256",
          "name": "newPerformanceFee",
          "type": "uint256"
        }
      ],
      "name": "PerformanceFeeSet",
      "type": "event"
    },
    {
      "anonymous": false,
      "inputs": [
        {
          "indexed": false,
          "internalType": "uint256",
          "name": "premiumDiscount",
          "type": "uint256"
        },
        {
          "indexed": false,
          "internalType": "uint256",
          "name": "newPremiumDiscount",
          "type": "uint256"
        }
      ],
      "name": "PremiumDiscountSet",
      "type": "event"
    },
    {
      "anonymous": false,
      "inputs": [
        {
          "indexed": true,
          "internalType": "address",
          "name": "account",
          "type": "address"
        },
        {
          "indexed": false,
          "internalType": "uint256",
          "name": "share",
          "type": "uint256"
        },
        {
          "indexed": false,
          "internalType": "uint256",
          "name": "round",
          "type": "uint256"
        }
      ],
      "name": "Redeem",
      "type": "event"
    },
    {
      "anonymous": false,
      "inputs": [
        {
          "indexed": true,
          "internalType": "address",
          "name": "from",
          "type": "address"
        },
        {
          "indexed": true,
          "internalType": "address",
          "name": "to",
          "type": "address"
        },
        {
          "indexed": false,
          "internalType": "uint256",
          "name": "value",
          "type": "uint256"
        }
      ],
      "name": "Transfer",
      "type": "event"
    },
    {
      "anonymous": false,
      "inputs": [
        {
          "indexed": true,
          "internalType": "address",
          "name": "account",
          "type": "address"
        },
        {
          "indexed": false,
          "internalType": "uint256",
          "name": "amount",
          "type": "uint256"
        },
        {
          "indexed": false,
          "internalType": "uint256",
          "name": "shares",
          "type": "uint256"
        }
      ],
      "name": "Withdraw",
      "type": "event"
    },
    {
      "inputs": [],
      "name": "GAMMA_CONTROLLER",
      "outputs": [
        {
          "internalType": "address",
          "name": "",
          "type": "address"
        }
      ],
      "stateMutability": "view",
      "type": "function"
    },
    {
      "inputs": [],
      "name": "GNOSIS_EASY_AUCTION",
      "outputs": [
        {
          "internalType": "address",
          "name": "",
          "type": "address"
        }
      ],
      "stateMutability": "view",
      "type": "function"
    },
    {
      "inputs": [],
      "name": "MARGIN_POOL",
      "outputs": [
        {
          "internalType": "address",
          "name": "",
          "type": "address"
        }
      ],
      "stateMutability": "view",
      "type": "function"
    },
    {
      "inputs": [],
      "name": "OTOKEN_FACTORY",
      "outputs": [
        {
          "internalType": "address",
          "name": "",
          "type": "address"
        }
      ],
      "stateMutability": "view",
      "type": "function"
    },
    {
      "inputs": [],
      "name": "PERIOD",
      "outputs": [
        {
          "internalType": "uint256",
          "name": "",
          "type": "uint256"
        }
      ],
      "stateMutability": "view",
      "type": "function"
    },
    {
      "inputs": [],
      "name": "SPREAD_TOKEN",
      "outputs": [
        {
          "internalType": "address",
          "name": "",
          "type": "address"
        }
      ],
      "stateMutability": "view",
      "type": "function"
    },
    {
      "inputs": [],
      "name": "USDC",
      "outputs": [
        {
          "internalType": "address",
          "name": "",
          "type": "address"
        }
      ],
      "stateMutability": "view",
      "type": "function"
    },
    {
      "inputs": [],
      "name": "WNATIVE",
      "outputs": [
        {
          "internalType": "address",
          "name": "",
          "type": "address"
        }
      ],
      "stateMutability": "view",
      "type": "function"
    },
    {
      "inputs": [
        {
          "internalType": "address",
          "name": "account",
          "type": "address"
        }
      ],
      "name": "accountVaultBalance",
      "outputs": [
        {
          "internalType": "uint256",
          "name": "",
          "type": "uint256"
        }
      ],
      "stateMutability": "view",
      "type": "function"
    },
    {
      "inputs": [
        {
          "internalType": "address",
          "name": "owner",
          "type": "address"
        },
        {
          "internalType": "address",
          "name": "spender",
          "type": "address"
        }
      ],
      "name": "allowance",
      "outputs": [
        {
          "internalType": "uint256",
          "name": "",
          "type": "uint256"
        }
      ],
      "stateMutability": "view",
      "type": "function"
    },
    {
      "inputs": [
        {
          "internalType": "address",
          "name": "spender",
          "type": "address"
        },
        {
          "internalType": "uint256",
          "name": "amount",
          "type": "uint256"
        }
      ],
      "name": "approve",
      "outputs": [
        {
          "internalType": "bool",
          "name": "",
          "type": "bool"
        }
      ],
      "stateMutability": "nonpayable",
      "type": "function"
    },
    {
      "inputs": [],
      "name": "auctionDuration",
      "outputs": [
        {
          "internalType": "uint256",
          "name": "",
          "type": "uint256"
        }
      ],
      "stateMutability": "view",
      "type": "function"
    },
    {
      "inputs": [
        {
          "internalType": "address",
          "name": "account",
          "type": "address"
        }
      ],
      "name": "balanceOf",
      "outputs": [
        {
          "internalType": "uint256",
          "name": "",
          "type": "uint256"
        }
      ],
      "stateMutability": "view",
      "type": "function"
    },
    {
      "inputs": [],
      "name": "cap",
      "outputs": [
        {
          "internalType": "uint256",
          "name": "",
          "type": "uint256"
        }
      ],
      "stateMutability": "view",
      "type": "function"
    },
    {
      "inputs": [],
      "name": "commitAndClose",
      "outputs": [],
      "stateMutability": "nonpayable",
      "type": "function"
    },
    {
      "inputs": [],
      "name": "completeWithdraw",
      "outputs": [],
      "stateMutability": "nonpayable",
      "type": "function"
    },
    {
      "inputs": [],
      "name": "currentQueuedWithdrawShares",
      "outputs": [
        {
          "internalType": "uint256",
          "name": "",
          "type": "uint256"
        }
      ],
      "stateMutability": "view",
      "type": "function"
    },
    {
      "inputs": [],
      "name": "currentSpread",
      "outputs": [
        {
          "internalType": "address[]",
          "name": "",
          "type": "address[]"
        }
      ],
      "stateMutability": "view",
      "type": "function"
    },
    {
      "inputs": [],
      "name": "currentSpreadPremium",
      "outputs": [
        {
          "internalType": "uint256",
          "name": "",
          "type": "uint256"
        }
      ],
      "stateMutability": "view",
      "type": "function"
    },
    {
      "inputs": [],
      "name": "decimals",
      "outputs": [
        {
          "internalType": "uint8",
          "name": "",
          "type": "uint8"
        }
      ],
      "stateMutability": "view",
      "type": "function"
    },
    {
      "inputs": [
        {
          "internalType": "address",
          "name": "spender",
          "type": "address"
        },
        {
          "internalType": "uint256",
          "name": "subtractedValue",
          "type": "uint256"
        }
      ],
      "name": "decreaseAllowance",
      "outputs": [
        {
          "internalType": "bool",
          "name": "",
          "type": "bool"
        }
      ],
      "stateMutability": "nonpayable",
      "type": "function"
    },
    {
      "inputs": [
        {
          "internalType": "uint256",
          "name": "amount",
          "type": "uint256"
        }
      ],
      "name": "deposit",
      "outputs": [],
      "stateMutability": "nonpayable",
      "type": "function"
    },
    {
      "inputs": [],
      "name": "depositETH",
      "outputs": [],
      "stateMutability": "payable",
      "type": "function"
    },
    {
      "inputs": [
        {
          "internalType": "uint256",
          "name": "amount",
          "type": "uint256"
        },
        {
          "internalType": "address",
          "name": "creditor",
          "type": "address"
        }
      ],
      "name": "depositFor",
      "outputs": [],
      "stateMutability": "nonpayable",
      "type": "function"
    },
    {
      "inputs": [
        {
          "internalType": "address",
          "name": "",
          "type": "address"
        }
      ],
      "name": "depositReceipts",
      "outputs": [
        {
          "internalType": "uint16",
          "name": "round",
          "type": "uint16"
        },
        {
          "internalType": "uint104",
          "name": "amount",
          "type": "uint104"
        },
        {
          "internalType": "uint128",
          "name": "unredeemedShares",
          "type": "uint128"
        }
      ],
      "stateMutability": "view",
      "type": "function"
    },
    {
      "inputs": [],
      "name": "feeRecipient",
      "outputs": [
        {
          "internalType": "address",
          "name": "",
          "type": "address"
        }
      ],
      "stateMutability": "view",
      "type": "function"
    },
    {
      "inputs": [
        {
          "internalType": "address",
          "name": "spender",
          "type": "address"
        },
        {
          "internalType": "uint256",
          "name": "addedValue",
          "type": "uint256"
        }
      ],
      "name": "increaseAllowance",
      "outputs": [
        {
          "internalType": "bool",
          "name": "",
          "type": "bool"
        }
      ],
      "stateMutability": "nonpayable",
      "type": "function"
    },
    {
      "inputs": [
        {
          "internalType": "uint256",
          "name": "numRounds",
          "type": "uint256"
        }
      ],
      "name": "initRounds",
      "outputs": [],
      "stateMutability": "nonpayable",
      "type": "function"
    },
    {
      "inputs": [
        {
          "components": [
            {
              "internalType": "address",
              "name": "_owner",
              "type": "address"
            },
            {
              "internalType": "address",
              "name": "_keeper",
              "type": "address"
            },
            {
              "internalType": "address",
              "name": "_feeRecipient",
              "type": "address"
            },
            {
              "internalType": "uint256",
              "name": "_managementFee",
              "type": "uint256"
            },
            {
              "internalType": "uint256",
              "name": "_performanceFee",
              "type": "uint256"
            },
            {
              "internalType": "string",
              "name": "_tokenName",
              "type": "string"
            },
            {
              "internalType": "string",
              "name": "_tokenSymbol",
              "type": "string"
            },
            {
              "internalType": "address",
              "name": "_optionsPremiumPricer",
              "type": "address"
            },
            {
              "internalType": "address",
              "name": "_strikeSelection",
              "type": "address"
            },
            {
              "internalType": "uint32",
              "name": "_premiumDiscount",
              "type": "uint32"
            },
            {
              "internalType": "uint256",
              "name": "_auctionDuration",
              "type": "uint256"
            }
          ],
          "internalType": "struct SpreadVault.InitParams",
          "name": "_initParams",
          "type": "tuple"
        },
        {
          "components": [
            {
              "internalType": "bool",
              "name": "isPut",
              "type": "bool"
            },
            {
              "internalType": "bool",
              "name": "isSpread",
              "type": "bool"
            },
            {
              "internalType": "uint8",
              "name": "decimals",
              "type": "uint8"
            },
            {
              "internalType": "address",
              "name": "asset",
              "type": "address"
            },
            {
              "internalType": "address",
              "name": "underlying",
              "type": "address"
            },
            {
              "internalType": "uint56",
              "name": "minimumSupply",
              "type": "uint56"
            },
            {
              "internalType": "uint104",
              "name": "cap",
              "type": "uint104"
            }
          ],
          "internalType": "struct Vault.VaultParams",
          "name": "_vaultParams",
          "type": "tuple"
        }
      ],
      "name": "initialize",
      "outputs": [],
      "stateMutability": "nonpayable",
      "type": "function"
    },
    {
      "inputs": [
        {
          "internalType": "uint256",
          "name": "numShares",
          "type": "uint256"
        }
      ],
      "name": "initiateWithdraw",
      "outputs": [],
      "stateMutability": "nonpayable",
      "type": "function"
    },
    {
      "inputs": [],
      "name": "keeper",
      "outputs": [
        {
          "internalType": "address",
          "name": "",
          "type": "address"
        }
      ],
      "stateMutability": "view",
      "type": "function"
    },
    {
      "inputs": [],
      "name": "lastQueuedWithdrawAmount",
      "outputs": [
        {
          "internalType": "uint256",
          "name": "",
          "type": "uint256"
        }
      ],
      "stateMutability": "view",
      "type": "function"
    },
    {
      "inputs": [],
      "name": "managementFee",
      "outputs": [
        {
          "internalType": "uint256",
          "name": "",
          "type": "uint256"
        }
      ],
      "stateMutability": "view",
      "type": "function"
    },
    {
      "inputs": [],
      "name": "maxRedeem",
      "outputs": [],
      "stateMutability": "nonpayable",
      "type": "function"
    },
    {
      "inputs": [],
      "name": "name",
      "outputs": [
        {
          "internalType": "string",
          "name": "",
          "type": "string"
        }
      ],
      "stateMutability": "view",
      "type": "function"
    },
    {
      "inputs": [],
      "name": "nextOptionReadyAt",
      "outputs": [
        {
          "internalType": "uint256",
          "name": "",
          "type": "uint256"
        }
      ],
      "stateMutability": "view",
      "type": "function"
    },
    {
      "inputs": [],
      "name": "nextSpread",
      "outputs": [
        {
          "internalType": "address[]",
          "name": "",
          "type": "address[]"
        }
      ],
      "stateMutability": "view",
      "type": "function"
    },
    {
      "inputs": [],
      "name": "optionAuctionID",
      "outputs": [
        {
          "internalType": "uint256",
          "name": "",
          "type": "uint256"
        }
      ],
      "stateMutability": "view",
      "type": "function"
    },
    {
      "inputs": [],
      "name": "optionsPremiumPricer",
      "outputs": [
        {
          "internalType": "address",
          "name": "",
          "type": "address"
        }
      ],
      "stateMutability": "view",
      "type": "function"
    },
    {
      "inputs": [],
      "name": "owner",
      "outputs": [
        {
          "internalType": "address",
          "name": "",
          "type": "address"
        }
      ],
      "stateMutability": "view",
      "type": "function"
    },
    {
      "inputs": [],
      "name": "performanceFee",
      "outputs": [
        {
          "internalType": "uint256",
          "name": "",
          "type": "uint256"
        }
      ],
      "stateMutability": "view",
      "type": "function"
    },
    {
      "inputs": [],
      "name": "premiumDiscount",
      "outputs": [
        {
          "internalType": "uint256",
          "name": "",
          "type": "uint256"
        }
      ],
      "stateMutability": "view",
      "type": "function"
    },
    {
      "inputs": [],
      "name": "pricePerShare",
      "outputs": [
        {
          "internalType": "uint256",
          "name": "",
          "type": "uint256"
        }
      ],
      "stateMutability": "view",
      "type": "function"
    },
    {
      "inputs": [
        {
          "internalType": "address",
          "name": "token",
          "type": "address"
        },
        {
          "internalType": "address",
          "name": "recipient",
          "type": "address"
        }
      ],
      "name": "recoverTokens",
      "outputs": [],
      "stateMutability": "nonpayable",
      "type": "function"
    },
    {
      "inputs": [
        {
          "internalType": "uint256",
          "name": "numShares",
          "type": "uint256"
        }
      ],
      "name": "redeem",
      "outputs": [],
      "stateMutability": "nonpayable",
      "type": "function"
    },
    {
      "inputs": [],
      "name": "renounceOwnership",
      "outputs": [],
      "stateMutability": "nonpayable",
      "type": "function"
    },
    {
      "inputs": [
        {
          "internalType": "uint256",
          "name": "index",
          "type": "uint256"
        }
      ],
      "name": "rollToNextOption",
      "outputs": [],
      "stateMutability": "nonpayable",
      "type": "function"
    },
    {
      "inputs": [
        {
          "internalType": "uint256",
          "name": "",
          "type": "uint256"
        }
      ],
      "name": "roundPricePerShare",
      "outputs": [
        {
          "internalType": "uint256",
          "name": "",
          "type": "uint256"
        }
      ],
      "stateMutability": "view",
      "type": "function"
    },
    {
      "inputs": [
        {
          "internalType": "uint256",
          "name": "newAuctionDuration",
          "type": "uint256"
        }
      ],
      "name": "setAuctionDuration",
      "outputs": [],
      "stateMutability": "nonpayable",
      "type": "function"
    },
    {
      "inputs": [
        {
          "internalType": "uint256",
          "name": "newCap",
          "type": "uint256"
        }
      ],
      "name": "setCap",
      "outputs": [],
      "stateMutability": "nonpayable",
      "type": "function"
    },
    {
      "inputs": [
        {
          "internalType": "address",
          "name": "newFeeRecipient",
          "type": "address"
        }
      ],
      "name": "setFeeRecipient",
      "outputs": [],
      "stateMutability": "nonpayable",
      "type": "function"
    },
    {
      "inputs": [
        {
          "internalType": "uint256",
          "name": "newManagementFee",
          "type": "uint256"
        }
      ],
      "name": "setManagementFee",
      "outputs": [],
      "stateMutability": "nonpayable",
      "type": "function"
    },
    {
      "inputs": [
        {
          "internalType": "uint256",
          "name": "minPrice",
          "type": "uint256"
        }
      ],
      "name": "setMinPrice",
      "outputs": [],
      "stateMutability": "nonpayable",
      "type": "function"
    },
    {
      "inputs": [
        {
          "internalType": "address",
          "name": "newKeeper",
          "type": "address"
        }
      ],
      "name": "setNewKeeper",
      "outputs": [],
      "stateMutability": "nonpayable",
      "type": "function"
    },
    {
      "inputs": [
        {
          "internalType": "address",
          "name": "newOptionsPremiumPricer",
          "type": "address"
        }
      ],
      "name": "setOptionsPremiumPricer",
      "outputs": [],
      "stateMutability": "nonpayable",
      "type": "function"
    },
    {
      "inputs": [
        {
          "internalType": "uint256",
          "name": "newPerformanceFee",
          "type": "uint256"
        }
      ],
      "name": "setPerformanceFee",
      "outputs": [],
      "stateMutability": "nonpayable",
      "type": "function"
    },
    {
      "inputs": [
        {
          "internalType": "uint256",
          "name": "newPremiumDiscount",
          "type": "uint256"
        }
      ],
      "name": "setPremiumDiscount",
      "outputs": [],
      "stateMutability": "nonpayable",
      "type": "function"
    },
    {
      "inputs": [
        {
          "internalType": "address",
          "name": "newStrikeSelection",
          "type": "address"
        }
      ],
      "name": "setStrikeSelection",
      "outputs": [],
      "stateMutability": "nonpayable",
      "type": "function"
    },
    {
      "inputs": [
        {
          "internalType": "address",
          "name": "account",
          "type": "address"
        }
      ],
      "name": "shareBalances",
      "outputs": [
        {
          "internalType": "uint256",
          "name": "heldByAccount",
          "type": "uint256"
        },
        {
          "internalType": "uint256",
          "name": "heldByVault",
          "type": "uint256"
        }
      ],
      "stateMutability": "view",
      "type": "function"
    },
    {
      "inputs": [
        {
          "internalType": "address",
          "name": "account",
          "type": "address"
        }
      ],
      "name": "shares",
      "outputs": [
        {
          "internalType": "uint256",
          "name": "",
          "type": "uint256"
        }
      ],
      "stateMutability": "view",
      "type": "function"
    },
    {
      "inputs": [],
      "name": "spreadState",
      "outputs": [
        {
          "internalType": "uint32",
          "name": "nextOptionReadyAt",
          "type": "uint32"
        },
        {
          "internalType": "address",
          "name": "currentSpreadToken",
          "type": "address"
        },
        {
          "internalType": "address",
          "name": "nextSpreadToken",
          "type": "address"
        }
      ],
      "stateMutability": "view",
      "type": "function"
    },
    {
      "inputs": [],
      "name": "startAuction",
      "outputs": [],
      "stateMutability": "nonpayable",
      "type": "function"
    },
    {
      "inputs": [],
      "name": "strikeSelection",
      "outputs": [
        {
          "internalType": "address",
          "name": "",
          "type": "address"
        }
      ],
      "stateMutability": "view",
      "type": "function"
    },
    {
      "inputs": [],
      "name": "symbol",
      "outputs": [
        {
          "internalType": "string",
          "name": "",
          "type": "string"
        }
      ],
      "stateMutability": "view",
      "type": "function"
    },
    {
      "inputs": [],
      "name": "totalBalance",
      "outputs": [
        {
          "internalType": "uint256",
          "name": "",
          "type": "uint256"
        }
      ],
      "stateMutability": "view",
      "type": "function"
    },
    {
      "inputs": [],
      "name": "totalPending",
      "outputs": [
        {
          "internalType": "uint256",
          "name": "",
          "type": "uint256"
        }
      ],
      "stateMutability": "view",
      "type": "function"
    },
    {
      "inputs": [],
      "name": "totalSupply",
      "outputs": [
        {
          "internalType": "uint256",
          "name": "",
          "type": "uint256"
        }
      ],
      "stateMutability": "view",
      "type": "function"
    },
    {
      "inputs": [
        {
          "internalType": "address",
          "name": "recipient",
          "type": "address"
        },
        {
          "internalType": "uint256",
          "name": "amount",
          "type": "uint256"
        }
      ],
      "name": "transfer",
      "outputs": [
        {
          "internalType": "bool",
          "name": "",
          "type": "bool"
        }
      ],
      "stateMutability": "nonpayable",
      "type": "function"
    },
    {
      "inputs": [
        {
          "internalType": "address",
          "name": "sender",
          "type": "address"
        },
        {
          "internalType": "address",
          "name": "recipient",
          "type": "address"
        },
        {
          "internalType": "uint256",
          "name": "amount",
          "type": "uint256"
        }
      ],
      "name": "transferFrom",
      "outputs": [
        {
          "internalType": "bool",
          "name": "",
          "type": "bool"
        }
      ],
      "stateMutability": "nonpayable",
      "type": "function"
    },
    {
      "inputs": [
        {
          "internalType": "address",
          "name": "newOwner",
          "type": "address"
        }
      ],
      "name": "transferOwnership",
      "outputs": [],
      "stateMutability": "nonpayable",
      "type": "function"
    },
    {
      "inputs": [],
      "name": "vaultParams",
      "outputs": [
        {
          "internalType": "bool",
          "name": "isPut",
          "type": "bool"
        },
        {
          "internalType": "bool",
          "name": "isSpread",
          "type": "bool"
        },
        {
          "internalType": "uint8",
          "name": "decimals",
          "type": "uint8"
        },
        {
          "internalType": "address",
          "name": "asset",
          "type": "address"
        },
        {
          "internalType": "address",
          "name": "underlying",
          "type": "address"
        },
        {
          "internalType": "uint56",
          "name": "minimumSupply",
          "type": "uint56"
        },
        {
          "internalType": "uint104",
          "name": "cap",
          "type": "uint104"
        }
      ],
      "stateMutability": "view",
      "type": "function"
    },
    {
      "inputs": [],
      "name": "vaultState",
      "outputs": [
        {
          "internalType": "uint16",
          "name": "round",
          "type": "uint16"
        },
        {
          "internalType": "uint104",
          "name": "lockedAmount",
          "type": "uint104"
        },
        {
          "internalType": "uint104",
          "name": "lastLockedAmount",
          "type": "uint104"
        },
        {
          "internalType": "uint104",
          "name": "lockedAmountUsed",
          "type": "uint104"
        },
        {
          "internalType": "uint128",
          "name": "totalPending",
          "type": "uint128"
        },
        {
          "internalType": "uint128",
          "name": "queuedWithdrawShares",
          "type": "uint128"
        }
      ],
      "stateMutability": "view",
      "type": "function"
    },
    {
      "inputs": [
        {
          "internalType": "uint256",
          "name": "amount",
          "type": "uint256"
        }
      ],
      "name": "withdrawInstantly",
      "outputs": [],
      "stateMutability": "nonpayable",
      "type": "function"
    },
    {
      "inputs": [
        {
          "internalType": "address",
          "name": "",
          "type": "address"
        }
      ],
      "name": "withdrawals",
      "outputs": [
        {
          "internalType": "uint16",
          "name": "round",
          "type": "uint16"
        },
        {
          "internalType": "uint128",
          "name": "shares",
          "type": "uint128"
        }
      ],
      "stateMutability": "view",
      "type": "function"
    }
  ],
  "transactionHash": "0xcf95236ef069ac45cf365fef56eba8ab6ed5521f2d62736ce6834e91b5a7e106",
  "args": [
    "0x0d500b1d8e8ef31e21c99d1db9a6444d3adf1270",
    "0x2791bca1f2de4661ed88a30c99a7a9449aa84174",
    "0xedD70E045903D34fBA7302B5094D37EAceb1397c",
    "0x7a23c712bddde52b22d8ff52e4cdadb1bcb0b203",
    "0x30aE5DEBc9EdF60a23cD19494492b1ef37afA56d",
    "0x0b7fFc1f4AD541A4Ed16b40D8c37f0929158D101",
    "0xe88849cBAE5f2cfBC4AF043FE42c719f764e52B2"
  ],
  "solcInputHash": "9473a549e7272c4a71718040f400cc17",
  "bytecode": "0x6101606040523480156200001257600080fd5b50604051620063bd380380620063bd833981016040819052620000359162000294565b8686858585856001600160a01b038616620000835760405162461bcd60e51b8152602060048201526009602482015268215f776e617469766560b81b60448201526064015b60405180910390fd5b6001600160a01b038516620000c45760405162461bcd60e51b8152602060048201526006602482015265215f7573646360d01b60448201526064016200007a565b6001600160a01b0382166200011c5760405162461bcd60e51b815260206004820152601360248201527f215f676e6f7369734561737941756374696f6e0000000000000000000000000060448201526064016200007a565b6001600160a01b038416620001685760405162461bcd60e51b815260206004820152601160248201527010afb3b0b6b6b0a1b7b73a3937b63632b960791b60448201526064016200007a565b6001600160a01b038316620001af5760405162461bcd60e51b815260206004820152600c60248201526b0857db585c99da5b941bdbdb60a21b60448201526064016200007a565b6001600160a01b038116620001f05760405162461bcd60e51b815260206004820152600660248201526510ba37b5b2b760d11b60448201526064016200007a565b6001600160a01b0395861660805293851660a05291841660c052831660e05282166101005281166101205285166200025d5760405162461bcd60e51b815260206004820152600f60248201526e215f6f546f6b656e466163746f727960881b60448201526064016200007a565b505050506001600160a01b03166101405250620003299050565b80516001600160a01b03811681146200028f57600080fd5b919050565b600080600080600080600060e0888a031215620002b057600080fd5b620002bb8862000277565b9650620002cb6020890162000277565b9550620002db6040890162000277565b9450620002eb6060890162000277565b9350620002fb6080890162000277565b92506200030b60a0890162000277565b91506200031b60c0890162000277565b905092959891949750929550565b60805160a05160c05160e051610100516101205161014051615fec620003d160003960008181610d0c0152612963015260008181610a3201526129d10152600081816108240152611fa6015260008181610757015261171301526000818161042d015281816116f2015261466d01526000818161099f0152612988015260008181610c0b01528181612f5a0152818161300a01528181613d2a0152613d660152615fec6000f3fe6080604052600436106103405760003560e01c8062ffa9af14610345578063056097ac1461036757806306fdde0314610387578063095ea7b3146103b25780630cbf54c8146103e257806318160ddd146104065780631a92f6c21461041b5780631b60612a1461045c57806323b872dd1461047c5780632728f3331461049c5780632775d01c1461053e57806330630da41461055e578063313ce5671461057e57806333aaee5b146105a9578063355274ea146105cb57806336efd16f146105e957806339509351146106095780633f23bb73146106295780633f90916a14610649578063432833a61461066e5780634603c0aa1461068457806346904840146106a457806347786d37146106c45780634b2431d9146106e4578063503c70aa146106fa5780635ea8cd12146107105780636152137d14610730578063650cce8a146107455780636719b2ee146107795780636b64c769146107fd5780636c10f66c146108125780636f31ab341461084657806370897b231461085b57806370a082311461087b578063715018a61461089b5780637a9262a2146108b05780637e108d521461091457806383536ff31461093457806387153eb11461094a578063877887821461097757806389a302711461098d5780638da5cb5b146109c157806395d89b41146109d657806399530b06146109eb5780639be43daa14610a005780639f0bf18214610a205780639fcc2d7514610a54578063a285c9e814610b13578063a457c2d714610b2e578063a497e67414610b4e578063a6f7f5d614610b6e578063a9059cbb14610b84578063aced166114610ba4578063ad7a672f14610bc4578063afa6626414610bd9578063b381cf4014610bf9578063b4d1d79514610c2d578063b6b55f2514610c44578063ce7c2ac214610c64578063d13f1b3e14610c84578063d164cc1514610ca4578063db006a7514610cc4578063db3c9bde14610ce4578063db43e86214610cfa578063dd62ed3e14610d2e578063e74b981b14610d74578063ea00b1ca14610d94578063f2fde38b14610da9578063f3f140e214610dc9578063f6326fb314610e2b578063f656ba5114610e33578063f756fa2114610e61578063f957a06714610e76578063fe56e23214610e96575b600080fd5b34801561035157600080fd5b50610365610360366004615193565b610eb6565b005b34801561037357600080fd5b50610365610382366004615218565b61120c565b34801561039357600080fd5b5061039c611432565b6040516103a991906152a1565b60405180910390f35b3480156103be57600080fd5b506103d26103cd3660046152b4565b6114c4565b60405190151581526020016103a9565b3480156103ee57600080fd5b506103f860fc5481565b6040519081526020016103a9565b34801561041257600080fd5b506099546103f8565b34801561042757600080fd5b5061044f7f000000000000000000000000000000000000000000000000000000000000000081565b6040516103a991906152ed565b34801561046857600080fd5b50610365610477366004615301565b6114db565b34801561048857600080fd5b506103d261049736600461531a565b611866565b3480156104a857600080fd5b5060cf5460d05460d1546104f39261ffff8116926001600160681b03620100008304811693600160781b909304811692908216916001600160801b03600160681b9091048116911686565b6040805161ffff90971687526001600160681b03958616602088015293851693860193909352921660608401526001600160801b0391821660808401521660a082015260c0016103a9565b34801561054a57600080fd5b50610365610559366004615301565b611910565b34801561056a57600080fd5b5061036561057936600461535b565b611ac7565b34801561058a57600080fd5b5060cc5462010000900460ff1660405160ff90911681526020016103a9565b3480156105b557600080fd5b506105be611b64565b6040516103a991906153bc565b3480156105d757600080fd5b5060ce546001600160681b03166103f8565b3480156105f557600080fd5b506103656106043660046153cf565b611bc8565b34801561061557600080fd5b506103d26106243660046152b4565b611c50565b34801561063557600080fd5b506103f861064436600461535b565b611c8c565b34801561065557600080fd5b5060d054600160681b90046001600160801b03166103f8565b34801561067a57600080fd5b506103f860fd5481565b34801561069057600080fd5b5061036561069f36600461535b565b611ce7565b3480156106b057600080fd5b5060d65461044f906001600160a01b031681565b3480156106d057600080fd5b506103656106df366004615301565b611d89565b3480156106f057600080fd5b506103f860ff5481565b34801561070657600080fd5b506103f860fe5481565b34801561071c57600080fd5b5061036561072b366004615301565b611e63565b34801561073c57600080fd5b506105be611ece565b34801561075157600080fd5b5061044f7f000000000000000000000000000000000000000000000000000000000000000081565b34801561078557600080fd5b506107cc61079436600461535b565b60c96020526000908152604090205461ffff8116906201000081046001600160681b031690600160781b90046001600160801b031683565b6040805161ffff90941684526001600160681b0390921660208401526001600160801b0316908201526060016103a9565b34801561080957600080fd5b50610365611f31565b34801561081e57600080fd5b5061044f7f000000000000000000000000000000000000000000000000000000000000000081565b34801561085257600080fd5b506103656120b3565b34801561086757600080fd5b50610365610876366004615301565b6120ef565b34801561088757600080fd5b506103f861089636600461535b565b6121b4565b3480156108a757600080fd5b506103656121cf565b3480156108bc57600080fd5b506108f26108cb36600461535b565b60cb6020526000908152604090205461ffff8116906201000090046001600160801b031682565b6040805161ffff90931683526001600160801b039091166020830152016103a9565b34801561092057600080fd5b5061036561092f366004615301565b61220a565b34801561094057600080fd5b506103f860fa5481565b34801561095657600080fd5b506103f8610965366004615301565b60ca6020526000908152604090205481565b34801561098357600080fd5b506103f860d85481565b34801561099957600080fd5b5061044f7f000000000000000000000000000000000000000000000000000000000000000081565b3480156109cd57600080fd5b5061044f612252565b3480156109e257600080fd5b5061039c612261565b3480156109f757600080fd5b506103f8612270565b348015610a0c57600080fd5b50610365610a1b366004615301565b6122b1565b348015610a2c57600080fd5b5061044f7f000000000000000000000000000000000000000000000000000000000000000081565b348015610a6057600080fd5b5060cc5460cd5460ce54610aba9260ff80821693610100830482169362010000840490921692630100000090046001600160a01b039081169290821691600160a01b900466ffffffffffffff16906001600160681b031687565b604080519715158852951515602088015260ff909416948601949094526001600160a01b03918216606086015216608084015266ffffffffffffff90911660a08301526001600160681b031660c082015260e0016103a9565b348015610b1f57600080fd5b5060d45463ffffffff166103f8565b348015610b3a57600080fd5b506103d2610b493660046152b4565b6123aa565b348015610b5a57600080fd5b50610365610b69366004615301565b612443565b348015610b7a57600080fd5b506103f860d95481565b348015610b9057600080fd5b506103d2610b9f3660046152b4565b6124ff565b348015610bb057600080fd5b5060d75461044f906001600160a01b031681565b348015610bd057600080fd5b506103f861250c565b348015610be557600080fd5b5060f85461044f906001600160a01b031681565b348015610c0557600080fd5b5061044f7f000000000000000000000000000000000000000000000000000000000000000081565b348015610c3957600080fd5b506103f862093a8081565b348015610c5057600080fd5b50610365610c5f366004615301565b6125a1565b348015610c7057600080fd5b506103f8610c7f36600461535b565b612615565b348015610c9057600080fd5b50610365610c9f366004615301565b612632565b348015610cb057600080fd5b50610365610cbf36600461535b565b6126f6565b348015610cd057600080fd5b50610365610cdf366004615301565b61278a565b348015610cf057600080fd5b506103f860fb5481565b348015610d0657600080fd5b5061044f7f000000000000000000000000000000000000000000000000000000000000000081565b348015610d3a57600080fd5b506103f8610d49366004615218565b6001600160a01b03918216600090815260986020908152604080832093909416825291909152205490565b348015610d8057600080fd5b50610365610d8f36600461535b565b6127d9565b348015610da057600080fd5b506103656128cc565b348015610db557600080fd5b50610365610dc436600461535b565b612e8e565b348015610dd557600080fd5b5060d45460d554610dff9163ffffffff8116916001600160a01b03600160201b9092048216911683565b6040805163ffffffff90941684526001600160a01b0392831660208501529116908201526060016103a9565b610365612f2e565b348015610e3f57600080fd5b50610e53610e4e36600461535b565b613082565b6040516103a99291906153f4565b348015610e6d57600080fd5b50610365613146565b348015610e8257600080fd5b5060f95461044f906001600160a01b031681565b348015610ea257600080fd5b50610365610eb1366004615301565b61319a565b600054610100900460ff1680610ecf575060005460ff16155b610ef45760405162461bcd60e51b8152600401610eeb90615402565b60405180910390fd5b600054610100900460ff16158015610f16576000805461ffff19166101011790555b610fdb610f26602085018561535b565b610f36604086016020870161535b565b610f46606087016040880161535b565b60608701356080880135610f5d60a08a018a615450565b8080601f016020809104026020016040519081016040528093929190818152602001838380828437600092019190915250610f9f9250505060c08b018b615450565b8080601f0160208091040260200160405190810160405280939291908181526020018383808284376000920191909152508c925061327f915050565b6000610fee610100850160e0860161535b565b6001600160a01b03160361103d5760405162461bcd60e51b815260206004820152601660248201527510afb7b83a34b7b739a83932b6b4bab6a83934b1b2b960511b6044820152606401610eeb565b60006110516101208501610100860161535b565b6001600160a01b03160361109b5760405162461bcd60e51b815260206004820152601160248201527010afb9ba3934b5b2a9b2b632b1ba34b7b760791b6044820152606401610eeb565b60006110af6101408501610120860161549d565b63ffffffff161180156110e357506110c9600a60646154d9565b6110db6101408501610120860161549d565b63ffffffff16105b6111235760405162461bcd60e51b81526020600482015260116024820152700857dc1c995b5a5d5b511a5cd8dbdd5b9d607a1b6044820152606401610eeb565b61012c836101400135101561116e5760405162461bcd60e51b815260206004820152601160248201527010afb0bab1ba34b7b7223ab930ba34b7b760791b6044820152606401610eeb565b61117f610100840160e0850161535b565b60f880546001600160a01b0319166001600160a01b03929092169190911790556111b16101208401610100850161535b565b60f980546001600160a01b0319166001600160a01b03929092169190911790556111e36101408401610120850161549d565b63ffffffff1660fa5561014083013560fc558015611207576000805461ff00191690555b505050565b33611215612252565b6001600160a01b03161461123b5760405162461bcd60e51b8152600401610eeb906154f0565b60cc546001600160a01b03630100000090910481169083160361129e5760405162461bcd60e51b815260206004820152601b60248201527a5661756c74206173736574206e6f74207265636f76657261626c6560281b6044820152606401610eeb565b306001600160a01b038316036112f45760405162461bcd60e51b815260206004820152601b60248201527a5661756c74207368617265206e6f74207265636f76657261626c6560281b6044820152606401610eeb565b306001600160a01b038216036113485760405162461bcd60e51b8152602060048201526019602482015278149958da5c1a595b9d0818d85b9b9bdd081899481d985d5b1d603a1b6044820152606401610eeb565b60d4546001600160a01b03600160201b9091048116908316036113ac5760405162461bcd60e51b815260206004820152601c60248201527b53707265616420546f6b656e206e6f74207265636f76657261626c6560201b6044820152606401610eeb565b61142e81836001600160a01b03166370a08231306040518263ffffffff1660e01b81526004016113dc91906152ed565b602060405180830381865afa1580156113f9573d6000803e3d6000fd5b505050506040513d601f19601f8201168201806040525081019061141d9190615525565b6001600160a01b03851691906134ab565b5050565b6060609a80546114419061553e565b80601f016020809104026020016040519081016040528092919081815260200182805461146d9061553e565b80156114ba5780601f1061148f576101008083540402835291602001916114ba565b820191906000526020600020905b81548152906001019060200180831161149d57829003601f168201915b5050505050905090565b60006114d133848461350e565b5060015b92915050565b60d7546001600160a01b031633146115055760405162461bcd60e51b8152600401610eeb90615578565b6002600154036115275760405162461bcd60e51b8152600401610eeb90615599565b600260015560ff5460d05460d38054604080516020808402820181019092528281526001600160681b03909416936000939092909183018282801561159557602002820191906000526020600020905b81546001600160a01b03168152600190910190602001808311611577575b505060cf5460d4549495506201000090046001600160681b0390811694600160201b90046001600160a01b0316935060009250829150861681036116a8576115df60fe5488613632565b60fe82905560d15493985091965090945092506000906116099089906001600160801b03166155d0565b905061161481613ac0565b60d180546001600160801b0319166001600160801b038316179055600060ff5561163d85613b0a565b60cf805462010000600160781b031916620100006001600160681b038816021790556040516001600160a01b0385169033907fa791ce33e95f5df21d37ec5d288fe02046a80030931540eacf489b12f17125169061169e908a908a906155e3565b60405180910390a3505b6116bb6001600160681b03871685615605565b93505b6000881180156116ce5750600084115b156117fe57600080738AdF1D7EE2E971c867f3535fF4bE239cdA50E2CA63087aebc47f00000000000000000000000000000000000000000000000000000000000000007f00000000000000000000000000000000000000000000000000000000000000008a8a8a6040518663ffffffff1660e01b8152600401611755959493929190615618565b6040805180830381865af4158015611771573d6000803e3d6000fd5b505050506040513d601f19601f82011682018060405250810190611795919061565c565b90925090506117a482846155d0565b92506117b160018b615605565b60d054909a506117cb9082906001600160681b0316615680565b60d080546001600160681b0319166001600160681b03929092169190911790556117f58187615605565b955050506116be565b60405163140e25ad60e31b8152600481018290526001600160a01b0384169063a0712d6890602401600060405180830381600087803b15801561184057600080fd5b505af1158015611854573d6000803e3d6000fd5b50506001805550505050505050505050565b6000611873848484613b54565b6001600160a01b0384166000908152609860209081526040808320338452909152902054828110156118f85760405162461bcd60e51b815260206004820152602860248201527f45524332303a207472616e7366657220616d6f756e74206578636565647320616044820152676c6c6f77616e636560c01b6064820152608401610eeb565b611905853385840361350e565b506001949350505050565b6002600154036119325760405162461bcd60e51b8152600401610eeb90615599565b600260015533600090815260c96020526040902060cf5461ffff168261196a5760405162461bcd60e51b8152600401610eeb906156a7565b815461ffff1681146119ae5760405162461bcd60e51b815260206004820152600d60248201526c125b9d985b1a59081c9bdd5b99609a1b6044820152606401610eeb565b81546201000090046001600160681b0316838110156119ff5760405162461bcd60e51b815260206004820152600d60248201526c115e18d9595908185b5bdd5b9d609a1b6044820152606401610eeb565b611a098482615605565b83546001600160681b0391909116620100000262010000600160781b031990911617835560d054611a4c9085906001600160801b03600160681b90910416615605565b60d080546001600160801b0392909216600160681b02600160681b600160e81b031990921691909117905560405133907fab2daf3c146ca6416cbccd2a86ed2ba995e171ef6319df14a38aef01403a9c9690611aab90879086906153f4565b60405180910390a2611abd3385613d12565b5050600180555050565b33611ad0612252565b6001600160a01b031614611af65760405162461bcd60e51b8152600401610eeb906154f0565b6001600160a01b038116611b425760405162461bcd60e51b815260206004820152601360248201527210b732bba9ba3934b5b2a9b2b632b1ba34b7b760691b6044820152606401610eeb565b60f980546001600160a01b0319166001600160a01b0392909216919091179055565b606060d26000018054806020026020016040519081016040528092919081815260200182805480156114ba57602002820191906000526020600020905b81546001600160a01b03168152600190910190602001808311611ba1575050505050905090565b600260015403611bea5760405162461bcd60e51b8152600401610eeb90615599565b600260015581611c0c5760405162461bcd60e51b8152600401610eeb906156a7565b6001600160a01b038116611c1f57600080fd5b611c298282613e73565b60cc54611c4890630100000090046001600160a01b031633308561410d565b505060018055565b3360008181526098602090815260408083206001600160a01b038716845290915281205490916114d1918590611c879086906155d0565b61350e565b60cc5460009060ff620100009091041681611cca611ca960995490565b611cb161250c565b60d054600160681b90046001600160801b031685614145565b9050611cdf611cd885612615565b828461418b565b949350505050565b33611cf0612252565b6001600160a01b031614611d165760405162461bcd60e51b8152600401610eeb906154f0565b6001600160a01b038116611d675760405162461bcd60e51b815260206004820152601860248201527710b732bba7b83a34b7b739a83932b6b4bab6a83934b1b2b960411b6044820152606401610eeb565b60f880546001600160a01b0319166001600160a01b0392909216919091179055565b33611d92612252565b6001600160a01b031614611db85760405162461bcd60e51b8152600401610eeb906154f0565b60008111611df25760405162461bcd60e51b81526020600482015260076024820152660216e65774361760cc1b6044820152606401610eeb565b611dfb81613b0a565b60ce54604080516001600160681b039092168252602082018390527f5f86edbb9d92228a9edc3f0ebc0f001bda1ea345ac7335e0eeef3504b31d1a1c910160405180910390a160ce80546001600160681b0319166001600160681b0392909216919091179055565b60d7546001600160a01b03163314611e8d5760405162461bcd60e51b8152600401610eeb90615578565b60008111611ec95760405162461bcd60e51b8152602060048201526009602482015268216d696e507269636560b81b6044820152606401610eeb565b60fb55565b606060d26001018054806020026020016040519081016040528092919081815260200182805480156114ba576020028201919060005260206000209081546001600160a01b03168152600190910190602001808311611ba1575050505050905090565b60d7546001600160a01b03163314611f5b5760405162461bcd60e51b8152600401610eeb90615578565b600260015403611f7d5760405162461bcd60e51b8152600401610eeb90615599565b60026001556040805160c08101825260d4546001600160a01b03600160201b90910481168083527f000000000000000000000000000000000000000000000000000000000000000082166020840190815260cc5463010000008104841685870190815260ff62010000909204919091166060860190815260fb546080870190815260fc5460a088019081529751633baf17fd60e21b8152875187166004820152935186166024850152915190941660448301529251606482015291516084830152925160a4820152909190738AdF1D7EE2E971c867f3535fF4bE239cdA50E2CA9063eebc5ff49060c401602060405180830381865af4158015612084573d6000803e3d6000fd5b505050506040513d601f19601f820116820180604052508101906120a89190615525565b60fd55505060018055565b6002600154036120d55760405162461bcd60e51b8152600401610eeb90615599565b60026001819055506120e9600060016141c5565b60018055565b336120f8612252565b6001600160a01b03161461211e5760405162461bcd60e51b8152600401610eeb906154f0565b61212c620f424060646154d9565b81106121745760405162461bcd60e51b8152602060048201526017602482015276496e76616c696420706572666f726d616e63652066656560481b6044820152606401610eeb565b7f24867dfb6fcb9970a07be21024956524abe7a1837faa903ff0e99aaa40cf893e60d854826040516121a79291906153f4565b60405180910390a160d855565b6001600160a01b031660009081526097602052604090205490565b336121d8612252565b6001600160a01b0316146121fe5760405162461bcd60e51b8152600401610eeb906154f0565b6122086000614376565b565b60026001540361222c5760405162461bcd60e51b8152600401610eeb90615599565b600260015561223a816143c8565b8060ff5461224891906155d0565b60ff555060018055565b6065546001600160a01b031690565b6060609b80546114419061553e565b60006122ac61227e60995490565b61228661250c565b60d05460cc54600160681b9091046001600160801b03169062010000900460ff16614145565b905090565b6002600154036122d35760405162461bcd60e51b8152600401610eeb90615599565b6002600155806123125760405162461bcd60e51b815260206004820152600a602482015269216e756d526f756e647360b01b6044820152606401610eeb565b60cf5461ffff1660005b828110156123a157600061233082846155d0565b600081815260ca60205260409020549091501561237d5760405162461bcd60e51b815260206004820152600b60248201526a125b9a5d1a585b1a5e995960aa1b6044820152606401610eeb565b600090815260ca602052604090206001905580612399816156c8565b91505061231c565b50506001805550565b3360009081526098602090815260408083206001600160a01b03861684529091528120548281101561242c5760405162461bcd60e51b815260206004820152602560248201527f45524332303a2064656372656173656420616c6c6f77616e63652062656c6f77604482015264207a65726f60d81b6064820152608401610eeb565b612439338585840361350e565b5060019392505050565b3361244c612252565b6001600160a01b0316146124725760405162461bcd60e51b8152600401610eeb906154f0565b61012c8110156124bf5760405162461bcd60e51b815260206004820152601860248201527724b73b30b634b21030bab1ba34b7b710323ab930ba34b7b760411b6044820152606401610eeb565b7f5acd982e2240ed224a69aa03dab039d3797c108e4b5f288cd7dd6ca181b275f360fc54826040516124f29291906153f4565b60405180910390a160fc55565b60006114d1338484613b54565b60cc546040516370a0823160e01b8152600091630100000090046001600160a01b0316906370a08231906125449030906004016152ed565b602060405180830381865afa158015612561573d6000803e3d6000fd5b505050506040513d601f19601f820116820180604052508101906125859190615525565b60cf546122ac91906201000090046001600160681b03166155d0565b6002600154036125c35760405162461bcd60e51b8152600401610eeb90615599565b6002600155806125e55760405162461bcd60e51b8152600401610eeb906156a7565b6125ef8133613e73565b60cc5461260e90630100000090046001600160a01b031633308461410d565b5060018055565b600080600061262384613082565b9092509050611cdf81836155d0565b60d7546001600160a01b0316331461265c5760405162461bcd60e51b8152600401610eeb90615578565b6000811180156126775750612673600a60646154d9565b8111155b6126b65760405162461bcd60e51b815260206004820152601060248201526f125b9d985b1a5908191a5cd8dbdd5b9d60821b6044820152606401610eeb565b7f4cd657fde404967d63a338fb06c5c98751a9df57dfae6dc333a432faf8a5f65660fa54826040516126e99291906153f4565b60405180910390a160fa55565b336126ff612252565b6001600160a01b0316146127255760405162461bcd60e51b8152600401610eeb906154f0565b6001600160a01b0381166127685760405162461bcd60e51b815260206004820152600a60248201526910b732bba5b2b2b832b960b11b6044820152606401610eeb565b60d780546001600160a01b0319166001600160a01b0392909216919091179055565b6002600154036127ac5760405162461bcd60e51b8152600401610eeb90615599565b6002600155806127ce5760405162461bcd60e51b8152600401610eeb906156e1565b61260e8160006141c5565b336127e2612252565b6001600160a01b0316146128085760405162461bcd60e51b8152600401610eeb906154f0565b6001600160a01b0381166128515760405162461bcd60e51b815260206004820152601060248201526f085b995dd19959549958da5c1a595b9d60821b6044820152606401610eeb565b60d6546001600160a01b03908116908216036128aa5760405162461bcd60e51b8152602060048201526018602482015277135d5cdd081899481b995dc8199959549958da5c1a595b9d60421b6044820152606401610eeb565b60d680546001600160a01b0319166001600160a01b0392909216919091179055565b6002600154036128ee5760405162461bcd60e51b8152600401610eeb90615599565b600260015560d38054604080516020808402820181019092528281526000939092909183018282801561294a57602002820191906000526020600020905b81546001600160a01b0316815260019091019060200180831161292c575b505060d4546040805160e0810182526001600160a01b037f0000000000000000000000000000000000000000000000000000000000000000811682527f00000000000000000000000000000000000000000000000000000000000000008116602083015281830188905260006060830181905260f9548216608084015260fa5460a08401527f0000000000000000000000000000000000000000000000000000000000000000821660c0840152925163068bb40360e41b8152979850600160201b90930490921695919450925082915081908190738AdF1D7EE2E971c867f3535fF4bE239cdA50E2CA906368bb403090612a4e90889060cc9060cf90600401615705565b600060405180830381865af4158015612a6b573d6000803e3d6000fd5b505050506040513d6000823e601f3d908101601f19168201604052612a93919081019061586b565b93509350935093507f8b2c6e7d4d72cff90224277b40c8404bbdedcede50c7449f6e4d231b5b11981b838383604051612ace93929190615994565b60405180910390a160cc5460ff168015612c5e5784600181518110612af557612af56159d2565b60200260200101516001600160a01b031663c52987cf6040518163ffffffff1660e01b8152600401602060405180830381865afa158015612b3a573d6000803e3d6000fd5b505050506040513d601f19601f82011682018060405250810190612b5e9190615525565b85600081518110612b7157612b716159d2565b60200260200101516001600160a01b031663c52987cf6040518163ffffffff1660e01b8152600401602060405180830381865afa158015612bb6573d6000803e3d6000fd5b505050506040513d601f19601f82011682018060405250810190612bda9190615525565b11612c595760405162461bcd60e51b815260206004820152604360248201527f53686f727420707574206f746f6b656e206d757374206861766520686967686560448201527f7220737472696b65207072696365207468656e206c6f6e6720707574206f746f60648201526235b2b760e91b608482015260a401610eeb565b612dc4565b84600181518110612c7157612c716159d2565b60200260200101516001600160a01b031663c52987cf6040518163ffffffff1660e01b8152600401602060405180830381865afa158015612cb6573d6000803e3d6000fd5b505050506040513d601f19601f82011682018060405250810190612cda9190615525565b85600081518110612ced57612ced6159d2565b60200260200101516001600160a01b031663c52987cf6040518163ffffffff1660e01b8152600401602060405180830381865afa158015612d32573d6000803e3d6000fd5b505050506040513d601f19601f82011682018060405250810190612d569190615525565b10612dc45760405162461bcd60e51b815260206004820152603860248201527f53686f7274206f746f6b656e206d7573742068617665206c657373207374726960448201527735b290383934b1b2903a3432b7103637b733903a37b5b2b760411b6064820152608401610eeb565b8451612dd79060d29060208801906150ff565b5060d580546001600160a01b0319166001600160a01b0384161790556000612dff42826155d0565b905063ffffffff811115612e505760405162461bcd60e51b81526020600482015260186024820152774f766572666c6f77206e6578744f7074696f6e526561647960401b6044820152606401610eeb565b60d4805463ffffffff191663ffffffff831617905560d080546001600160681b0319169055612e7f898961457a565b50506001805550505050505050565b33612e97612252565b6001600160a01b031614612ebd5760405162461bcd60e51b8152600401610eeb906154f0565b6001600160a01b038116612f225760405162461bcd60e51b815260206004820152602660248201527f4f776e61626c653a206e6577206f776e657220697320746865207a65726f206160448201526564647265737360d01b6064820152608401610eeb565b612f2b81614376565b50565b600260015403612f505760405162461bcd60e51b8152600401610eeb90615599565b600260015560cc547f00000000000000000000000000000000000000000000000000000000000000006001600160a01b0390811663010000009092041614612fc55760405162461bcd60e51b815260206004820152600860248201526721574e415449564560c01b6044820152606401610eeb565b60003411612ffe5760405162461bcd60e51b81526020600482015260066024820152652176616c756560d01b6044820152606401610eeb565b6130083433613e73565b7f00000000000000000000000000000000000000000000000000000000000000006001600160a01b031663d0e30db0346040518263ffffffff1660e01b81526004016000604051808303818588803b15801561306357600080fd5b505af1158015613077573d6000803e3d6000fd5b505060018055505050565b6001600160a01b038116600090815260c9602090815260408083208151606081018352905461ffff81168083526201000082046001600160681b031694830194909452600160781b90046001600160801b0316918101919091528291600111156130fa576130ef846121b4565b946000945092505050565b60cf54815161ffff908116600090815260ca602052604081205460cc5491936131319386939116919062010000900460ff16614744565b905061313c856121b4565b9590945092505050565b6002600154036131685760405162461bcd60e51b8152600401610eeb90615599565b600260015560006131776147b5565b90508060fe546131879190615605565b6001600160801b031660fe555060018055565b336131a3612252565b6001600160a01b0316146131c95760405162461bcd60e51b8152600401610eeb906154f0565b6131d7620f424060646154d9565b811061321e5760405162461bcd60e51b8152602060048201526016602482015275496e76616c6964206d616e6167656d656e742066656560501b6044820152606401610eeb565b600063031ba309613232620f4240846154d9565b61323c91906159e8565b90507f4e874b007ab14f7e263baefd44951834c8266f4f224d1092e49e9c254354cc5460d954836040516132719291906153f4565b60405180910390a160d95550565b600054610100900460ff1680613298575060005460ff16155b6132b45760405162461bcd60e51b8152600401610eeb90615402565b600054610100900460ff161580156132d6576000805461ffff19166101011790555b60405163c72733f760e01b8152738AdF1D7EE2E971c867f3535fF4bE239cdA50E2CA9063c72733f79061331b908c908c908c908b908d908c908c908c90600401615a67565b60006040518083038186803b15801561333357600080fd5b505af4158015613347573d6000803e3d6000fd5b50505050613353614976565b61335d84846149e9565b613365614a68565b61336e89612e8e565b60d780546001600160a01b03808b166001600160a01b03199283161790925560d68054928a169290911691909117905560d885905563031ba3096133b5620f4240886154d9565b6133bf91906159e8565b60d9558160cc6133cf8282615baf565b505060cc546040516370a0823160e01b8152600091630100000090046001600160a01b0316906370a08231906134099030906004016152ed565b602060405180830381865afa158015613426573d6000803e3d6000fd5b505050506040513d601f19601f8201168201806040525081019061344a9190615525565b905061345581613b0a565b60cf805461ffff196001600160681b03909316600160781b029290921661ffff600160781b03600160e01b031990921691909117600117905580156134a0576000805461ff00191690555b505050505050505050565b6040516001600160a01b03831660248201526044810182905261120790849063a9059cbb60e01b906064015b60408051601f198184030181529190526020810180516001600160e01b03166001600160e01b031990931692909217909152614acf565b6001600160a01b0383166135705760405162461bcd60e51b8152602060048201526024808201527f45524332303a20617070726f76652066726f6d20746865207a65726f206164646044820152637265737360e01b6064820152608401610eeb565b6001600160a01b0382166135d15760405162461bcd60e51b815260206004820152602260248201527f45524332303a20617070726f766520746f20746865207a65726f206164647265604482015261737360f01b6064820152608401610eeb565b6001600160a01b0383811660008181526098602090815260408083209487168084529482529182902085905590518481527f8c5be1e5ebec7d5bd14f71427d1e84f3dd0314c0f7b2291e5b200ac8c7c3b925910160405180910390a3505050565b60d4546060906000908190819063ffffffff1642101561367d5760405162461bcd60e51b815260206004820152600660248201526521726561647960d01b6044820152606401610eeb565b60d28054604080516020808402820181019092528281529291908301828280156136d057602002820191906000526020600020905b81546001600160a01b031681526001909101906020018083116136b2575b505060d55484519498506001600160a01b03169450600093889350849250151590506136fe576136fe6159d2565b60200260200101516001600160a01b03160361374c5760405162461bcd60e51b815260206004820152600d60248201526c0216e657874537072656164203609c1b6044820152606401610eeb565b60006001600160a01b03168460018151811061376a5761376a6159d2565b60200260200101516001600160a01b0316036137b85760405162461bcd60e51b815260206004820152600d60248201526c216e657874537072656164203160981b6044820152606401610eeb565b6001600160a01b0381166137fd5760405162461bcd60e51b815260206004820152600c60248201526b10b9b83932b0b22a37b5b2b760a11b6044820152606401610eeb565b60d6546040805160e08101825260cc5460ff62010000820416825291516370a0823160e01b81526001600160a01b0393841693600093849384938493738AdF1D7EE2E971c867f3535fF4bE239cdA50E2CA9363c8128b659360cf93909260208401926301000000900416906370a082319061387c9030906004016152ed565b602060405180830381865afa158015613899573d6000803e3d6000fd5b505050506040513d601f19601f820116820180604052508101906138bd9190615525565b81526020016138cb60995490565b81526020018f815260200160d854815260200160d95481526020018e8152506040518363ffffffff1660e01b815260040161395892919060006101008201905083825282516020830152602083015160408301526040830151606083015260608301516080830152608083015160a083015260a083015160c083015260c083015160e08301529392505050565b60c060405180830381865af4158015613975573d6000803e3d6000fd5b505050506040513d601f19601f820116820180604052508101906139999190615cef565b8e51959d50939b50909750955090935091506139bc9060d39060208c01906150ff565b5060d48054600160201b600160c01b031916600160201b6001600160a01b0389160217905560d580546001600160a01b03191690556139fd60d26000615164565b60cf5461ffff16600081815260ca602090815260409182902084905581518681529081018590529081018290526001600160a01b038716907f0a242f7ecaf711036ca770774ceffae28e60ef042ac113ddd187f2631db0c0069060600160405180910390a260d08054600160681b600160e81b0319169055613a808160016155d0565b60cf805461ffff191661ffff9290921691909117905550613aa390503084614ba1565b8015613ab357613ab38482613d12565b5050505092959194509250565b6001600160801b03811115612f2b5760405162461bcd60e51b815260206004820152601060248201526f09eeccae4ccd8deee40ead2dce86264760831b6044820152606401610eeb565b6001600160681b03811115612f2b5760405162461bcd60e51b815260206004820152601060248201526f13dd995c999b1bddc81d5a5b9d0c4c0d60821b6044820152606401610eeb565b6001600160a01b038316613bb85760405162461bcd60e51b815260206004820152602560248201527f45524332303a207472616e736665722066726f6d20746865207a65726f206164604482015264647265737360d81b6064820152608401610eeb565b6001600160a01b038216613c1a5760405162461bcd60e51b815260206004820152602360248201527f45524332303a207472616e7366657220746f20746865207a65726f206164647260448201526265737360e81b6064820152608401610eeb565b6001600160a01b03831660009081526097602052604090205481811015613c925760405162461bcd60e51b815260206004820152602660248201527f45524332303a207472616e7366657220616d6f756e7420657863656564732062604482015265616c616e636560d01b6064820152608401610eeb565b6001600160a01b03808516600090815260976020526040808220858503905591851681529081208054849290613cc99084906155d0565b92505081905550826001600160a01b0316846001600160a01b0316600080516020615f9783398151915284604051613d0391815260200190565b60405180910390a35b50505050565b60cc546001600160a01b0363010000009091048116907f0000000000000000000000000000000000000000000000000000000000000000168103613e5f57604051632e1a7d4d60e01b8152600481018390527f00000000000000000000000000000000000000000000000000000000000000006001600160a01b031690632e1a7d4d90602401600060405180830381600087803b158015613db257600080fd5b505af1158015613dc6573d6000803e3d6000fd5b505050506000836001600160a01b03168360405160006040518083038185875af1925050503d8060008114613e17576040519150601f19603f3d011682016040523d82523d6000602084013e613e1c565b606091505b5050905080613d0c5760405162461bcd60e51b815260206004820152600f60248201526e151c985b9cd9995c8819985a5b1959608a1b6044820152606401610eeb565b6112076001600160a01b03821684846134ab565b60cf5461ffff16600083613e8561250c565b613e8f91906155d0565b60ce549091506001600160681b0316811115613eda5760405162461bcd60e51b815260206004820152600a6024820152690457863656564206361760b41b6044820152606401610eeb565b60cd54600160a01b900466ffffffffffffff16811015613f335760405162461bcd60e51b8152602060048201526014602482015273496e73756666696369656e742062616c616e636560601b6044820152606401610eeb565b826001600160a01b03167f90890809c654f11d6e72a28fa60149770a0d11ec6c92319d6ceb2bb0a4ea1a158584604051613f6e9291906153f4565b60405180910390a26001600160a01b038316600090815260c9602090815260408083208151606081018352905461ffff8116808352620100008083046001600160681b031684870152600160781b9092046001600160801b031683850152855260ca9093529083205460cc54919392613ff0928592889290910460ff16614744565b8251909150869061ffff1685036140205760008784602001516001600160681b031661401c91906155d0565b9150505b61402981613b0a565b6040805160608101825261ffff80881682526001600160681b0380851660208085019182526001600160801b038089168688019081526001600160a01b038e16600090815260c990935296822095518654935197518216600160781b02600160781b600160f81b03199890951662010000026001600160781b031990941695169490941791909117949094161790915560d0546140cf918a91600160681b9004166155d0565b90506140da81613ac0565b60d080546001600160801b03909216600160681b02600160681b600160e81b031990921691909117905550505050505050565b6040516001600160a01b0380851660248301528316604482015260648101829052613d0c9085906323b872dd60e01b906084016134d7565b60008061415383600a615e1d565b9050600086116141635780614181565b6141818661417b6141748888614c6e565b8490614c81565b90614c8d565b9695505050505050565b6000600183116141ad5760405162461bcd60e51b8152600401610eeb90615e29565b611cdf6141bb83600a615e1d565b61417b8686614c81565b33600090815260c9602090815260408083208151606081018352905461ffff808216808452620100008084046001600160681b031685880152600160781b9093046001600160801b03168486015260cf5490875260ca9095529285205460cc54929594909316939261423f9286928692910460ff16614744565b90508361424c578461424e565b805b94508460000361425f575050505050565b808511156142a35760405162461bcd60e51b81526020600482015260116024820152704578636565647320617661696c61626c6560781b6044820152606401610eeb565b825161ffff168211156142d05733600090815260c960205260409020805462010000600160781b03191690555b6142d985613ac0565b6142e38582615605565b33600081815260c960205260409081902080546001600160801b0394909416600160781b02600160781b600160f81b0319909416939093179092558451915190917fe5b754fb1abb7f01b499791d0b820ae3b6af3424ac1c59768edb53f4ec31a9299161435c9189825261ffff16602082015260400190565b60405180910390a261436f303387613b54565b5050505050565b606580546001600160a01b038381166001600160a01b0319831681179093556040519116919082907f8be0079c531659141344cd1fd0a4f28419497f9722a3daafe3b4186f6b6457e090600090a35050565b600081116143e85760405162461bcd60e51b8152600401610eeb906156e1565b33600090815260c960205260409020546201000090046001600160681b0316151580614432575033600090815260c96020526040902054600160781b90046001600160801b031615155b1561444357614443600060016141c5565b60cf5433600081815260cb6020526040908190208054915161ffff948516949193919092168414917f0c53c82ad07e2d592d88ece3b066777dd60f1118e2a081b380efc4358f0d9e2a9061449a90879087906153f4565b60405180910390a281546201000090046001600160801b0316600082156144cc576144c586836155d0565b905061452f565b811561450e5760405162461bcd60e51b81526020600482015260116024820152704578697374696e6720776974686472617760781b6044820152606401610eeb565b5033600090815260cb60205260409020805461ffff191661ffff8616179055845b61453881613ac0565b33600081815260cb60205260409020805462010000600160901b031916620100006001600160801b03851602179055614572903088613b54565b505050505050565b60cf548251620100009091046001600160681b031690158015906145cb575060006001600160a01b0316836000815181106145b7576145b76159d2565b60200260200101516001600160a01b031614155b156145f55760cf8054600160781b600160e01b031916600160781b6001600160681b038416021790555b60cf805462010000600160781b031916905561461360d36000615164565b60008351118015614651575060006001600160a01b03168360008151811061463d5761463d6159d2565b60200260200101516001600160a01b031614155b156112075760405163666efabd60e11b81526001600160a01b037f00000000000000000000000000000000000000000000000000000000000000008116600483015283166024820152600090738AdF1D7EE2E971c867f3535fF4bE239cdA50E2CA9063ccddf57a90604401602060405180830381865af41580156146d9573d6000803e3d6000fd5b505050506040513d601f19601f820116820180604052508101906146fd9190615525565b9050826001600160a01b0316336001600160a01b03167f9b8941400c12b7c3e5e1346cc27f63b2067832b71616b00a9abb91526b75fb7b8684604051613d039291906155e3565b835160009061ffff161580159061475f5750845161ffff1684115b156147a157600061477e86602001516001600160681b03168585614c99565b6040870151909150614799906001600160801b031682614cd4565b915050611cdf565b50505050604001516001600160801b031690565b33600090815260cb6020526040812080546001600160801b03620100008204169061ffff16816148175760405162461bcd60e51b815260206004820152600d60248201526c139bdd081a5b9a5d1a585d1959609a1b6044820152606401610eeb565b60cf5461ffff16811061485f5760405162461bcd60e51b815260206004820152601060248201526f149bdd5b99081b9bdd0818db1bdcd95960821b6044820152606401610eeb565b33600090815260cb60205260409020805462010000600160901b031916905560d1546148959083906001600160801b0316615605565b60d180546001600160801b0319166001600160801b0392909216919091179055600081815260ca602052604081205460cc546148db91859162010000900460ff1661418b565b9050336001600160a01b03167ff279e6a1f5e320cca91135676d9cb6e44ca8a08c0b88342bcdb1144f6511b56882856040516149189291906153f4565b60405180910390a261492a3084614ce0565b6000811161496c5760405162461bcd60e51b815260206004820152600f60248201526e085dda5d1a191c985dd05b5bdd5b9d608a1b6044820152606401610eeb565b611cdf3382613d12565b600054610100900460ff168061498f575060005460ff16155b6149ab5760405162461bcd60e51b8152600401610eeb90615402565b600054610100900460ff161580156149cd576000805461ffff19166101011790555b6149d5614e1c565b8015612f2b576000805461ff001916905550565b600054610100900460ff1680614a02575060005460ff16155b614a1e5760405162461bcd60e51b8152600401610eeb90615402565b600054610100900460ff16158015614a40576000805461ffff19166101011790555b614a48614e8b565b614a528383614ef5565b8015611207576000805461ff0019169055505050565b600054610100900460ff1680614a81575060005460ff16155b614a9d5760405162461bcd60e51b8152600401610eeb90615402565b600054610100900460ff16158015614abf576000805461ffff19166101011790555b614ac7614e8b565b6149d5614f7c565b6000614b24826040518060400160405280602081526020017f5361666545524332303a206c6f772d6c6576656c2063616c6c206661696c6564815250856001600160a01b0316614fdc9092919063ffffffff16565b8051909150156112075780806020019051810190614b429190615e58565b6112075760405162461bcd60e51b815260206004820152602a60248201527f5361666545524332303a204552433230206f7065726174696f6e20646964206e6044820152691bdd081cdd58d8d9595960b21b6064820152608401610eeb565b6001600160a01b038216614bf75760405162461bcd60e51b815260206004820152601f60248201527f45524332303a206d696e7420746f20746865207a65726f2061646472657373006044820152606401610eeb565b8060996000828254614c0991906155d0565b90915550506001600160a01b03821660009081526097602052604081208054839290614c369084906155d0565b90915550506040518181526001600160a01b03831690600090600080516020615f978339815191529060200160405180910390a35050565b6000614c7a8284615605565b9392505050565b6000614c7a82846154d9565b6000614c7a82846159e8565b600060018311614cbb5760405162461bcd60e51b8152600401610eeb90615e29565b611cdf8361417b614ccd85600a615e1d565b8790614c81565b6000614c7a82846155d0565b6001600160a01b038216614d405760405162461bcd60e51b815260206004820152602160248201527f45524332303a206275726e2066726f6d20746865207a65726f206164647265736044820152607360f81b6064820152608401610eeb565b6001600160a01b03821660009081526097602052604090205481811015614db45760405162461bcd60e51b815260206004820152602260248201527f45524332303a206275726e20616d6f756e7420657863656564732062616c616e604482015261636560f01b6064820152608401610eeb565b6001600160a01b0383166000908152609760205260408120838303905560998054849290614de3908490615605565b90915550506040518281526000906001600160a01b03851690600080516020615f978339815191529060200160405180910390a3505050565b600054610100900460ff1680614e35575060005460ff16155b614e515760405162461bcd60e51b8152600401610eeb90615402565b600054610100900460ff16158015614e73576000805461ffff19166101011790555b600180558015612f2b576000805461ff001916905550565b600054610100900460ff1680614ea4575060005460ff16155b614ec05760405162461bcd60e51b8152600401610eeb90615402565b600054610100900460ff161580156149d5576000805461ffff19166101011790558015612f2b576000805461ff001916905550565b600054610100900460ff1680614f0e575060005460ff16155b614f2a5760405162461bcd60e51b8152600401610eeb90615402565b600054610100900460ff16158015614f4c576000805461ffff19166101011790555b609a614f588482615ebb565b50609b614f658382615ebb565b508015611207576000805461ff0019169055505050565b600054610100900460ff1680614f95575060005460ff16155b614fb15760405162461bcd60e51b8152600401610eeb90615402565b600054610100900460ff16158015614fd3576000805461ffff19166101011790555b6149d533614376565b6060611cdf848460008585600080866001600160a01b031685876040516150039190615f7a565b60006040518083038185875af1925050503d8060008114615040576040519150601f19603f3d011682016040523d82523d6000602084013e615045565b606091505b509150915061505687838387615061565b979650505050505050565b606083156150d05782516000036150c9576001600160a01b0385163b6150c95760405162461bcd60e51b815260206004820152601d60248201527f416464726573733a2063616c6c20746f206e6f6e2d636f6e74726163740000006044820152606401610eeb565b5081611cdf565b611cdf83838151156150e55781518083602001fd5b8060405162461bcd60e51b8152600401610eeb91906152a1565b828054828255906000526020600020908101928215615154579160200282015b8281111561515457825182546001600160a01b0319166001600160a01b0390911617825560209092019160019091019061511f565b5061516092915061517e565b5090565b5080546000825590600052602060002090810190612f2b91905b5b80821115615160576000815560010161517f565b6000808284036101008112156151a857600080fd5b83356001600160401b038111156151be57600080fd5b840161016081870312156151d157600080fd5b925060e0601f19820112156151e557600080fd5b506020830190509250929050565b6001600160a01b0381168114612f2b57600080fd5b8035615213816151f3565b919050565b6000806040838503121561522b57600080fd5b8235615236816151f3565b91506020830135615246816151f3565b809150509250929050565b60005b8381101561526c578181015183820152602001615254565b50506000910152565b6000815180845261528d816020860160208601615251565b601f01601f19169290920160200192915050565b602081526000614c7a6020830184615275565b600080604083850312156152c757600080fd5b82356152d2816151f3565b946020939093013593505050565b6001600160a01b03169052565b6001600160a01b0391909116815260200190565b60006020828403121561531357600080fd5b5035919050565b60008060006060848603121561532f57600080fd5b833561533a816151f3565b9250602084013561534a816151f3565b929592945050506040919091013590565b60006020828403121561536d57600080fd5b8135614c7a816151f3565b600081518084526020808501945080840160005b838110156153b15781516001600160a01b03168752958201959082019060010161538c565b509495945050505050565b602081526000614c7a6020830184615378565b600080604083850312156153e257600080fd5b823591506020830135615246816151f3565b918252602082015260400190565b6020808252602e908201527f496e697469616c697a61626c653a20636f6e747261637420697320616c72656160408201526d191e481a5b9a5d1a585b1a5e995960921b606082015260800190565b6000808335601e1984360301811261546757600080fd5b8301803591506001600160401b0382111561548157600080fd5b60200191503681900382131561549657600080fd5b9250929050565b6000602082840312156154af57600080fd5b813563ffffffff81168114614c7a57600080fd5b634e487b7160e01b600052601160045260246000fd5b80820281158282048414176114d5576114d56154c3565b6020808252818101527f4f776e61626c653a2063616c6c6572206973206e6f7420746865206f776e6572604082015260600190565b60006020828403121561553757600080fd5b5051919050565b600181811c9082168061555257607f821691505b60208210810361557257634e487b7160e01b600052602260045260246000fd5b50919050565b60208082526007908201526610b5b2b2b832b960c91b604082015260600190565b6020808252601f908201527f5265656e7472616e637947756172643a207265656e7472616e742063616c6c00604082015260600190565b808201808211156114d5576114d56154c3565b6040815260006155f66040830185615378565b90508260208301529392505050565b818103818111156114d5576114d56154c3565b600060018060a01b038088168352808716602084015260a0604084015261564260a0840187615378565b606084019590955292909216608090910152509392505050565b6000806040838503121561566f57600080fd5b505080516020909101519092909150565b6001600160681b038181168382160190808211156156a0576156a06154c3565b5092915050565b60208082526007908201526608585b5bdd5b9d60ca1b604082015260600190565b6000600182016156da576156da6154c3565b5060010190565b6020808252600a9082015269216e756d53686172657360b01b604082015260600190565b60608152600060018060a01b03808651166060840152806020870151166080840152604086015160e060a0850152615741610140850182615378565b9050606087015160c08501528160808801511660e085015260a087015161010085015260c087015191506157796101208501836152e0565b6020840195909552505060400152919050565b634e487b7160e01b600052604160045260246000fd5b604051601f8201601f191681016001600160401b03811182821017156157ca576157ca61578c565b604052919050565b60006001600160401b038211156157eb576157eb61578c565b5060051b60200190565b8051615213816151f3565b600082601f83011261581157600080fd5b81516020615826615821836157d2565b6157a2565b82815260059290921b8401810191818101908684111561584557600080fd5b8286015b848110156158605780518352918301918301615849565b509695505050505050565b6000806000806080858703121561588157600080fd5b84516001600160401b038082111561589857600080fd5b818701915087601f8301126158ac57600080fd5b815160206158bc615821836157d2565b82815260059290921b8401810191818101908b8411156158db57600080fd5b948201945b838610156159025785516158f3816151f3565b825294820194908201906158e0565b918a015191985090935050508082111561591b57600080fd5b61592788838901615800565b9450604087015191508082111561593d57600080fd5b5061594a87828801615800565b925050615959606086016157f5565b905092959194509250565b600081518084526020808501945080840160005b838110156153b157815187529582019590820190600101615978565b6060815260006159a76060830186615964565b82810360208401526159b98186615964565b91505060018060a01b0383166040830152949350505050565b634e487b7160e01b600052603260045260246000fd5b600082615a0557634e487b7160e01b600052601260045260246000fd5b500490565b8015158114612f2b57600080fd5b60ff81168114612f2b57600080fd5b66ffffffffffffff81168114612f2b57600080fd5b803561521381615a27565b6001600160681b0381168114612f2b57600080fd5b803561521381615a47565b6001600160a01b03898116825288811660208301528716604082015260608101869052608081018590526101c060a08201819052600090615aaa83820187615275565b905082810360c0840152615abe8186615275565b9150508235615acc81615a0a565b151560e08301526020830135615ae181615a0a565b15156101008301526040830135615af781615a18565b60ff16610120830152615b0c60608401615208565b615b1a6101408401826152e0565b50615b2760808401615208565b615b356101608401826152e0565b50615b4260a08401615a3c565b66ffffffffffffff16610180830152615b5d60c08401615a5c565b6001600160681b0381166101a0840152509998505050505050505050565b600081356114d581615a18565b600081356114d5816151f3565b600081356114d581615a27565b600081356114d581615a47565b8135615bba81615a0a565b815460ff19811691151560ff1691821783556020840135615bda81615a0a565b61ffff199190911690911790151560081b61ff0016178155615c19615c0160408401615b7b565b825462ff0000191660109190911b62ff000016178255565b615c52615c2860608401615b88565b8280546301000000600160b81b03191660189290921b6301000000600160b81b0316919091179055565b60018101615c82615c6560808501615b88565b82546001600160a01b0319166001600160a01b0391909116178255565b615cbb615c9160a08501615b95565b828054600160a01b600160d81b03191660a09290921b600160a01b600160d81b0316919091179055565b5061142e615ccb60c08401615ba2565b6002830180546001600160681b0319166001600160681b0392909216919091179055565b60008060008060008060c08789031215615d0857600080fd5b865195506020870151945060408701519350606087015192506080870151915060a087015190509295509295509295565b600181815b80851115615d74578160001904821115615d5a57615d5a6154c3565b80851615615d6757918102915b93841c9390800290615d3e565b509250929050565b600082615d8b575060016114d5565b81615d98575060006114d5565b8160018114615dae5760028114615db857615dd4565b60019150506114d5565b60ff841115615dc957615dc96154c3565b50506001821b6114d5565b5060208310610133831016604e8410600b8410161715615df7575081810a6114d5565b615e018383615d39565b8060001904821115615e1557615e156154c3565b029392505050565b6000614c7a8383615d7c565b602080825260159082015274496e76616c6964206173736574506572536861726560581b604082015260600190565b600060208284031215615e6a57600080fd5b8151614c7a81615a0a565b601f82111561120757600081815260208120601f850160051c81016020861015615e9c5750805b601f850160051c820191505b8181101561457257828155600101615ea8565b81516001600160401b03811115615ed457615ed461578c565b615ee881615ee2845461553e565b84615e75565b602080601f831160018114615f1d5760008415615f055750858301515b600019600386901b1c1916600185901b178555614572565b600085815260208120601f198616915b82811015615f4c57888601518255948401946001909101908401615f2d565b5085821015615f6a5787850151600019600388901b60f8161c191681555b5050505050600190811b01905550565b60008251615f8c818460208701615251565b919091019291505056feddf252ad1be2c89b69c2b068fc378daa952ba7f163c4a11628f55a4df523b3efa2646970667358221220abcb23f3fc0561d28e99e3943dfa6e672e0216e4af1976e08fe70bb8de3ecdb964736f6c63430008110033",
  "deployedBytecode": "0x6080604052600436106103405760003560e01c8062ffa9af14610345578063056097ac1461036757806306fdde0314610387578063095ea7b3146103b25780630cbf54c8146103e257806318160ddd146104065780631a92f6c21461041b5780631b60612a1461045c57806323b872dd1461047c5780632728f3331461049c5780632775d01c1461053e57806330630da41461055e578063313ce5671461057e57806333aaee5b146105a9578063355274ea146105cb57806336efd16f146105e957806339509351146106095780633f23bb73146106295780633f90916a14610649578063432833a61461066e5780634603c0aa1461068457806346904840146106a457806347786d37146106c45780634b2431d9146106e4578063503c70aa146106fa5780635ea8cd12146107105780636152137d14610730578063650cce8a146107455780636719b2ee146107795780636b64c769146107fd5780636c10f66c146108125780636f31ab341461084657806370897b231461085b57806370a082311461087b578063715018a61461089b5780637a9262a2146108b05780637e108d521461091457806383536ff31461093457806387153eb11461094a578063877887821461097757806389a302711461098d5780638da5cb5b146109c157806395d89b41146109d657806399530b06146109eb5780639be43daa14610a005780639f0bf18214610a205780639fcc2d7514610a54578063a285c9e814610b13578063a457c2d714610b2e578063a497e67414610b4e578063a6f7f5d614610b6e578063a9059cbb14610b84578063aced166114610ba4578063ad7a672f14610bc4578063afa6626414610bd9578063b381cf4014610bf9578063b4d1d79514610c2d578063b6b55f2514610c44578063ce7c2ac214610c64578063d13f1b3e14610c84578063d164cc1514610ca4578063db006a7514610cc4578063db3c9bde14610ce4578063db43e86214610cfa578063dd62ed3e14610d2e578063e74b981b14610d74578063ea00b1ca14610d94578063f2fde38b14610da9578063f3f140e214610dc9578063f6326fb314610e2b578063f656ba5114610e33578063f756fa2114610e61578063f957a06714610e76578063fe56e23214610e96575b600080fd5b34801561035157600080fd5b50610365610360366004615193565b610eb6565b005b34801561037357600080fd5b50610365610382366004615218565b61120c565b34801561039357600080fd5b5061039c611432565b6040516103a991906152a1565b60405180910390f35b3480156103be57600080fd5b506103d26103cd3660046152b4565b6114c4565b60405190151581526020016103a9565b3480156103ee57600080fd5b506103f860fc5481565b6040519081526020016103a9565b34801561041257600080fd5b506099546103f8565b34801561042757600080fd5b5061044f7f000000000000000000000000000000000000000000000000000000000000000081565b6040516103a991906152ed565b34801561046857600080fd5b50610365610477366004615301565b6114db565b34801561048857600080fd5b506103d261049736600461531a565b611866565b3480156104a857600080fd5b5060cf5460d05460d1546104f39261ffff8116926001600160681b03620100008304811693600160781b909304811692908216916001600160801b03600160681b9091048116911686565b6040805161ffff90971687526001600160681b03958616602088015293851693860193909352921660608401526001600160801b0391821660808401521660a082015260c0016103a9565b34801561054a57600080fd5b50610365610559366004615301565b611910565b34801561056a57600080fd5b5061036561057936600461535b565b611ac7565b34801561058a57600080fd5b5060cc5462010000900460ff1660405160ff90911681526020016103a9565b3480156105b557600080fd5b506105be611b64565b6040516103a991906153bc565b3480156105d757600080fd5b5060ce546001600160681b03166103f8565b3480156105f557600080fd5b506103656106043660046153cf565b611bc8565b34801561061557600080fd5b506103d26106243660046152b4565b611c50565b34801561063557600080fd5b506103f861064436600461535b565b611c8c565b34801561065557600080fd5b5060d054600160681b90046001600160801b03166103f8565b34801561067a57600080fd5b506103f860fd5481565b34801561069057600080fd5b5061036561069f36600461535b565b611ce7565b3480156106b057600080fd5b5060d65461044f906001600160a01b031681565b3480156106d057600080fd5b506103656106df366004615301565b611d89565b3480156106f057600080fd5b506103f860ff5481565b34801561070657600080fd5b506103f860fe5481565b34801561071c57600080fd5b5061036561072b366004615301565b611e63565b34801561073c57600080fd5b506105be611ece565b34801561075157600080fd5b5061044f7f000000000000000000000000000000000000000000000000000000000000000081565b34801561078557600080fd5b506107cc61079436600461535b565b60c96020526000908152604090205461ffff8116906201000081046001600160681b031690600160781b90046001600160801b031683565b6040805161ffff90941684526001600160681b0390921660208401526001600160801b0316908201526060016103a9565b34801561080957600080fd5b50610365611f31565b34801561081e57600080fd5b5061044f7f000000000000000000000000000000000000000000000000000000000000000081565b34801561085257600080fd5b506103656120b3565b34801561086757600080fd5b50610365610876366004615301565b6120ef565b34801561088757600080fd5b506103f861089636600461535b565b6121b4565b3480156108a757600080fd5b506103656121cf565b3480156108bc57600080fd5b506108f26108cb36600461535b565b60cb6020526000908152604090205461ffff8116906201000090046001600160801b031682565b6040805161ffff90931683526001600160801b039091166020830152016103a9565b34801561092057600080fd5b5061036561092f366004615301565b61220a565b34801561094057600080fd5b506103f860fa5481565b34801561095657600080fd5b506103f8610965366004615301565b60ca6020526000908152604090205481565b34801561098357600080fd5b506103f860d85481565b34801561099957600080fd5b5061044f7f000000000000000000000000000000000000000000000000000000000000000081565b3480156109cd57600080fd5b5061044f612252565b3480156109e257600080fd5b5061039c612261565b3480156109f757600080fd5b506103f8612270565b348015610a0c57600080fd5b50610365610a1b366004615301565b6122b1565b348015610a2c57600080fd5b5061044f7f000000000000000000000000000000000000000000000000000000000000000081565b348015610a6057600080fd5b5060cc5460cd5460ce54610aba9260ff80821693610100830482169362010000840490921692630100000090046001600160a01b039081169290821691600160a01b900466ffffffffffffff16906001600160681b031687565b604080519715158852951515602088015260ff909416948601949094526001600160a01b03918216606086015216608084015266ffffffffffffff90911660a08301526001600160681b031660c082015260e0016103a9565b348015610b1f57600080fd5b5060d45463ffffffff166103f8565b348015610b3a57600080fd5b506103d2610b493660046152b4565b6123aa565b348015610b5a57600080fd5b50610365610b69366004615301565b612443565b348015610b7a57600080fd5b506103f860d95481565b348015610b9057600080fd5b506103d2610b9f3660046152b4565b6124ff565b348015610bb057600080fd5b5060d75461044f906001600160a01b031681565b348015610bd057600080fd5b506103f861250c565b348015610be557600080fd5b5060f85461044f906001600160a01b031681565b348015610c0557600080fd5b5061044f7f000000000000000000000000000000000000000000000000000000000000000081565b348015610c3957600080fd5b506103f862093a8081565b348015610c5057600080fd5b50610365610c5f366004615301565b6125a1565b348015610c7057600080fd5b506103f8610c7f36600461535b565b612615565b348015610c9057600080fd5b50610365610c9f366004615301565b612632565b348015610cb057600080fd5b50610365610cbf36600461535b565b6126f6565b348015610cd057600080fd5b50610365610cdf366004615301565b61278a565b348015610cf057600080fd5b506103f860fb5481565b348015610d0657600080fd5b5061044f7f000000000000000000000000000000000000000000000000000000000000000081565b348015610d3a57600080fd5b506103f8610d49366004615218565b6001600160a01b03918216600090815260986020908152604080832093909416825291909152205490565b348015610d8057600080fd5b50610365610d8f36600461535b565b6127d9565b348015610da057600080fd5b506103656128cc565b348015610db557600080fd5b50610365610dc436600461535b565b612e8e565b348015610dd557600080fd5b5060d45460d554610dff9163ffffffff8116916001600160a01b03600160201b9092048216911683565b6040805163ffffffff90941684526001600160a01b0392831660208501529116908201526060016103a9565b610365612f2e565b348015610e3f57600080fd5b50610e53610e4e36600461535b565b613082565b6040516103a99291906153f4565b348015610e6d57600080fd5b50610365613146565b348015610e8257600080fd5b5060f95461044f906001600160a01b031681565b348015610ea257600080fd5b50610365610eb1366004615301565b61319a565b600054610100900460ff1680610ecf575060005460ff16155b610ef45760405162461bcd60e51b8152600401610eeb90615402565b60405180910390fd5b600054610100900460ff16158015610f16576000805461ffff19166101011790555b610fdb610f26602085018561535b565b610f36604086016020870161535b565b610f46606087016040880161535b565b60608701356080880135610f5d60a08a018a615450565b8080601f016020809104026020016040519081016040528093929190818152602001838380828437600092019190915250610f9f9250505060c08b018b615450565b8080601f0160208091040260200160405190810160405280939291908181526020018383808284376000920191909152508c925061327f915050565b6000610fee610100850160e0860161535b565b6001600160a01b03160361103d5760405162461bcd60e51b815260206004820152601660248201527510afb7b83a34b7b739a83932b6b4bab6a83934b1b2b960511b6044820152606401610eeb565b60006110516101208501610100860161535b565b6001600160a01b03160361109b5760405162461bcd60e51b815260206004820152601160248201527010afb9ba3934b5b2a9b2b632b1ba34b7b760791b6044820152606401610eeb565b60006110af6101408501610120860161549d565b63ffffffff161180156110e357506110c9600a60646154d9565b6110db6101408501610120860161549d565b63ffffffff16105b6111235760405162461bcd60e51b81526020600482015260116024820152700857dc1c995b5a5d5b511a5cd8dbdd5b9d607a1b6044820152606401610eeb565b61012c836101400135101561116e5760405162461bcd60e51b815260206004820152601160248201527010afb0bab1ba34b7b7223ab930ba34b7b760791b6044820152606401610eeb565b61117f610100840160e0850161535b565b60f880546001600160a01b0319166001600160a01b03929092169190911790556111b16101208401610100850161535b565b60f980546001600160a01b0319166001600160a01b03929092169190911790556111e36101408401610120850161549d565b63ffffffff1660fa5561014083013560fc558015611207576000805461ff00191690555b505050565b33611215612252565b6001600160a01b03161461123b5760405162461bcd60e51b8152600401610eeb906154f0565b60cc546001600160a01b03630100000090910481169083160361129e5760405162461bcd60e51b815260206004820152601b60248201527a5661756c74206173736574206e6f74207265636f76657261626c6560281b6044820152606401610eeb565b306001600160a01b038316036112f45760405162461bcd60e51b815260206004820152601b60248201527a5661756c74207368617265206e6f74207265636f76657261626c6560281b6044820152606401610eeb565b306001600160a01b038216036113485760405162461bcd60e51b8152602060048201526019602482015278149958da5c1a595b9d0818d85b9b9bdd081899481d985d5b1d603a1b6044820152606401610eeb565b60d4546001600160a01b03600160201b9091048116908316036113ac5760405162461bcd60e51b815260206004820152601c60248201527b53707265616420546f6b656e206e6f74207265636f76657261626c6560201b6044820152606401610eeb565b61142e81836001600160a01b03166370a08231306040518263ffffffff1660e01b81526004016113dc91906152ed565b602060405180830381865afa1580156113f9573d6000803e3d6000fd5b505050506040513d601f19601f8201168201806040525081019061141d9190615525565b6001600160a01b03851691906134ab565b5050565b6060609a80546114419061553e565b80601f016020809104026020016040519081016040528092919081815260200182805461146d9061553e565b80156114ba5780601f1061148f576101008083540402835291602001916114ba565b820191906000526020600020905b81548152906001019060200180831161149d57829003601f168201915b5050505050905090565b60006114d133848461350e565b5060015b92915050565b60d7546001600160a01b031633146115055760405162461bcd60e51b8152600401610eeb90615578565b6002600154036115275760405162461bcd60e51b8152600401610eeb90615599565b600260015560ff5460d05460d38054604080516020808402820181019092528281526001600160681b03909416936000939092909183018282801561159557602002820191906000526020600020905b81546001600160a01b03168152600190910190602001808311611577575b505060cf5460d4549495506201000090046001600160681b0390811694600160201b90046001600160a01b0316935060009250829150861681036116a8576115df60fe5488613632565b60fe82905560d15493985091965090945092506000906116099089906001600160801b03166155d0565b905061161481613ac0565b60d180546001600160801b0319166001600160801b038316179055600060ff5561163d85613b0a565b60cf805462010000600160781b031916620100006001600160681b038816021790556040516001600160a01b0385169033907fa791ce33e95f5df21d37ec5d288fe02046a80030931540eacf489b12f17125169061169e908a908a906155e3565b60405180910390a3505b6116bb6001600160681b03871685615605565b93505b6000881180156116ce5750600084115b156117fe5760008073__$d3108057e698617f7b9bc4e765a7fad314$__63087aebc47f00000000000000000000000000000000000000000000000000000000000000007f00000000000000000000000000000000000000000000000000000000000000008a8a8a6040518663ffffffff1660e01b8152600401611755959493929190615618565b6040805180830381865af4158015611771573d6000803e3d6000fd5b505050506040513d601f19601f82011682018060405250810190611795919061565c565b90925090506117a482846155d0565b92506117b160018b615605565b60d054909a506117cb9082906001600160681b0316615680565b60d080546001600160681b0319166001600160681b03929092169190911790556117f58187615605565b955050506116be565b60405163140e25ad60e31b8152600481018290526001600160a01b0384169063a0712d6890602401600060405180830381600087803b15801561184057600080fd5b505af1158015611854573d6000803e3d6000fd5b50506001805550505050505050505050565b6000611873848484613b54565b6001600160a01b0384166000908152609860209081526040808320338452909152902054828110156118f85760405162461bcd60e51b815260206004820152602860248201527f45524332303a207472616e7366657220616d6f756e74206578636565647320616044820152676c6c6f77616e636560c01b6064820152608401610eeb565b611905853385840361350e565b506001949350505050565b6002600154036119325760405162461bcd60e51b8152600401610eeb90615599565b600260015533600090815260c96020526040902060cf5461ffff168261196a5760405162461bcd60e51b8152600401610eeb906156a7565b815461ffff1681146119ae5760405162461bcd60e51b815260206004820152600d60248201526c125b9d985b1a59081c9bdd5b99609a1b6044820152606401610eeb565b81546201000090046001600160681b0316838110156119ff5760405162461bcd60e51b815260206004820152600d60248201526c115e18d9595908185b5bdd5b9d609a1b6044820152606401610eeb565b611a098482615605565b83546001600160681b0391909116620100000262010000600160781b031990911617835560d054611a4c9085906001600160801b03600160681b90910416615605565b60d080546001600160801b0392909216600160681b02600160681b600160e81b031990921691909117905560405133907fab2daf3c146ca6416cbccd2a86ed2ba995e171ef6319df14a38aef01403a9c9690611aab90879086906153f4565b60405180910390a2611abd3385613d12565b5050600180555050565b33611ad0612252565b6001600160a01b031614611af65760405162461bcd60e51b8152600401610eeb906154f0565b6001600160a01b038116611b425760405162461bcd60e51b815260206004820152601360248201527210b732bba9ba3934b5b2a9b2b632b1ba34b7b760691b6044820152606401610eeb565b60f980546001600160a01b0319166001600160a01b0392909216919091179055565b606060d26000018054806020026020016040519081016040528092919081815260200182805480156114ba57602002820191906000526020600020905b81546001600160a01b03168152600190910190602001808311611ba1575050505050905090565b600260015403611bea5760405162461bcd60e51b8152600401610eeb90615599565b600260015581611c0c5760405162461bcd60e51b8152600401610eeb906156a7565b6001600160a01b038116611c1f57600080fd5b611c298282613e73565b60cc54611c4890630100000090046001600160a01b031633308561410d565b505060018055565b3360008181526098602090815260408083206001600160a01b038716845290915281205490916114d1918590611c879086906155d0565b61350e565b60cc5460009060ff620100009091041681611cca611ca960995490565b611cb161250c565b60d054600160681b90046001600160801b031685614145565b9050611cdf611cd885612615565b828461418b565b949350505050565b33611cf0612252565b6001600160a01b031614611d165760405162461bcd60e51b8152600401610eeb906154f0565b6001600160a01b038116611d675760405162461bcd60e51b815260206004820152601860248201527710b732bba7b83a34b7b739a83932b6b4bab6a83934b1b2b960411b6044820152606401610eeb565b60f880546001600160a01b0319166001600160a01b0392909216919091179055565b33611d92612252565b6001600160a01b031614611db85760405162461bcd60e51b8152600401610eeb906154f0565b60008111611df25760405162461bcd60e51b81526020600482015260076024820152660216e65774361760cc1b6044820152606401610eeb565b611dfb81613b0a565b60ce54604080516001600160681b039092168252602082018390527f5f86edbb9d92228a9edc3f0ebc0f001bda1ea345ac7335e0eeef3504b31d1a1c910160405180910390a160ce80546001600160681b0319166001600160681b0392909216919091179055565b60d7546001600160a01b03163314611e8d5760405162461bcd60e51b8152600401610eeb90615578565b60008111611ec95760405162461bcd60e51b8152602060048201526009602482015268216d696e507269636560b81b6044820152606401610eeb565b60fb55565b606060d26001018054806020026020016040519081016040528092919081815260200182805480156114ba576020028201919060005260206000209081546001600160a01b03168152600190910190602001808311611ba1575050505050905090565b60d7546001600160a01b03163314611f5b5760405162461bcd60e51b8152600401610eeb90615578565b600260015403611f7d5760405162461bcd60e51b8152600401610eeb90615599565b60026001556040805160c08101825260d4546001600160a01b03600160201b90910481168083527f000000000000000000000000000000000000000000000000000000000000000082166020840190815260cc5463010000008104841685870190815260ff62010000909204919091166060860190815260fb546080870190815260fc5460a088019081529751633baf17fd60e21b8152875187166004820152935186166024850152915190941660448301529251606482015291516084830152925160a482015290919073__$d3108057e698617f7b9bc4e765a7fad314$__9063eebc5ff49060c401602060405180830381865af4158015612084573d6000803e3d6000fd5b505050506040513d601f19601f820116820180604052508101906120a89190615525565b60fd55505060018055565b6002600154036120d55760405162461bcd60e51b8152600401610eeb90615599565b60026001819055506120e9600060016141c5565b60018055565b336120f8612252565b6001600160a01b03161461211e5760405162461bcd60e51b8152600401610eeb906154f0565b61212c620f424060646154d9565b81106121745760405162461bcd60e51b8152602060048201526017602482015276496e76616c696420706572666f726d616e63652066656560481b6044820152606401610eeb565b7f24867dfb6fcb9970a07be21024956524abe7a1837faa903ff0e99aaa40cf893e60d854826040516121a79291906153f4565b60405180910390a160d855565b6001600160a01b031660009081526097602052604090205490565b336121d8612252565b6001600160a01b0316146121fe5760405162461bcd60e51b8152600401610eeb906154f0565b6122086000614376565b565b60026001540361222c5760405162461bcd60e51b8152600401610eeb90615599565b600260015561223a816143c8565b8060ff5461224891906155d0565b60ff555060018055565b6065546001600160a01b031690565b6060609b80546114419061553e565b60006122ac61227e60995490565b61228661250c565b60d05460cc54600160681b9091046001600160801b03169062010000900460ff16614145565b905090565b6002600154036122d35760405162461bcd60e51b8152600401610eeb90615599565b6002600155806123125760405162461bcd60e51b815260206004820152600a602482015269216e756d526f756e647360b01b6044820152606401610eeb565b60cf5461ffff1660005b828110156123a157600061233082846155d0565b600081815260ca60205260409020549091501561237d5760405162461bcd60e51b815260206004820152600b60248201526a125b9a5d1a585b1a5e995960aa1b6044820152606401610eeb565b600090815260ca602052604090206001905580612399816156c8565b91505061231c565b50506001805550565b3360009081526098602090815260408083206001600160a01b03861684529091528120548281101561242c5760405162461bcd60e51b815260206004820152602560248201527f45524332303a2064656372656173656420616c6c6f77616e63652062656c6f77604482015264207a65726f60d81b6064820152608401610eeb565b612439338585840361350e565b5060019392505050565b3361244c612252565b6001600160a01b0316146124725760405162461bcd60e51b8152600401610eeb906154f0565b61012c8110156124bf5760405162461bcd60e51b815260206004820152601860248201527724b73b30b634b21030bab1ba34b7b710323ab930ba34b7b760411b6044820152606401610eeb565b7f5acd982e2240ed224a69aa03dab039d3797c108e4b5f288cd7dd6ca181b275f360fc54826040516124f29291906153f4565b60405180910390a160fc55565b60006114d1338484613b54565b60cc546040516370a0823160e01b8152600091630100000090046001600160a01b0316906370a08231906125449030906004016152ed565b602060405180830381865afa158015612561573d6000803e3d6000fd5b505050506040513d601f19601f820116820180604052508101906125859190615525565b60cf546122ac91906201000090046001600160681b03166155d0565b6002600154036125c35760405162461bcd60e51b8152600401610eeb90615599565b6002600155806125e55760405162461bcd60e51b8152600401610eeb906156a7565b6125ef8133613e73565b60cc5461260e90630100000090046001600160a01b031633308461410d565b5060018055565b600080600061262384613082565b9092509050611cdf81836155d0565b60d7546001600160a01b0316331461265c5760405162461bcd60e51b8152600401610eeb90615578565b6000811180156126775750612673600a60646154d9565b8111155b6126b65760405162461bcd60e51b815260206004820152601060248201526f125b9d985b1a5908191a5cd8dbdd5b9d60821b6044820152606401610eeb565b7f4cd657fde404967d63a338fb06c5c98751a9df57dfae6dc333a432faf8a5f65660fa54826040516126e99291906153f4565b60405180910390a160fa55565b336126ff612252565b6001600160a01b0316146127255760405162461bcd60e51b8152600401610eeb906154f0565b6001600160a01b0381166127685760405162461bcd60e51b815260206004820152600a60248201526910b732bba5b2b2b832b960b11b6044820152606401610eeb565b60d780546001600160a01b0319166001600160a01b0392909216919091179055565b6002600154036127ac5760405162461bcd60e51b8152600401610eeb90615599565b6002600155806127ce5760405162461bcd60e51b8152600401610eeb906156e1565b61260e8160006141c5565b336127e2612252565b6001600160a01b0316146128085760405162461bcd60e51b8152600401610eeb906154f0565b6001600160a01b0381166128515760405162461bcd60e51b815260206004820152601060248201526f085b995dd19959549958da5c1a595b9d60821b6044820152606401610eeb565b60d6546001600160a01b03908116908216036128aa5760405162461bcd60e51b8152602060048201526018602482015277135d5cdd081899481b995dc8199959549958da5c1a595b9d60421b6044820152606401610eeb565b60d680546001600160a01b0319166001600160a01b0392909216919091179055565b6002600154036128ee5760405162461bcd60e51b8152600401610eeb90615599565b600260015560d38054604080516020808402820181019092528281526000939092909183018282801561294a57602002820191906000526020600020905b81546001600160a01b0316815260019091019060200180831161292c575b505060d4546040805160e0810182526001600160a01b037f0000000000000000000000000000000000000000000000000000000000000000811682527f00000000000000000000000000000000000000000000000000000000000000008116602083015281830188905260006060830181905260f9548216608084015260fa5460a08401527f0000000000000000000000000000000000000000000000000000000000000000821660c0840152925163068bb40360e41b8152979850600160201b9093049092169591945092508291508190819073__$d3108057e698617f7b9bc4e765a7fad314$__906368bb403090612a4e90889060cc9060cf90600401615705565b600060405180830381865af4158015612a6b573d6000803e3d6000fd5b505050506040513d6000823e601f3d908101601f19168201604052612a93919081019061586b565b93509350935093507f8b2c6e7d4d72cff90224277b40c8404bbdedcede50c7449f6e4d231b5b11981b838383604051612ace93929190615994565b60405180910390a160cc5460ff168015612c5e5784600181518110612af557612af56159d2565b60200260200101516001600160a01b031663c52987cf6040518163ffffffff1660e01b8152600401602060405180830381865afa158015612b3a573d6000803e3d6000fd5b505050506040513d601f19601f82011682018060405250810190612b5e9190615525565b85600081518110612b7157612b716159d2565b60200260200101516001600160a01b031663c52987cf6040518163ffffffff1660e01b8152600401602060405180830381865afa158015612bb6573d6000803e3d6000fd5b505050506040513d601f19601f82011682018060405250810190612bda9190615525565b11612c595760405162461bcd60e51b815260206004820152604360248201527f53686f727420707574206f746f6b656e206d757374206861766520686967686560448201527f7220737472696b65207072696365207468656e206c6f6e6720707574206f746f60648201526235b2b760e91b608482015260a401610eeb565b612dc4565b84600181518110612c7157612c716159d2565b60200260200101516001600160a01b031663c52987cf6040518163ffffffff1660e01b8152600401602060405180830381865afa158015612cb6573d6000803e3d6000fd5b505050506040513d601f19601f82011682018060405250810190612cda9190615525565b85600081518110612ced57612ced6159d2565b60200260200101516001600160a01b031663c52987cf6040518163ffffffff1660e01b8152600401602060405180830381865afa158015612d32573d6000803e3d6000fd5b505050506040513d601f19601f82011682018060405250810190612d569190615525565b10612dc45760405162461bcd60e51b815260206004820152603860248201527f53686f7274206f746f6b656e206d7573742068617665206c657373207374726960448201527735b290383934b1b2903a3432b7103637b733903a37b5b2b760411b6064820152608401610eeb565b8451612dd79060d29060208801906150ff565b5060d580546001600160a01b0319166001600160a01b0384161790556000612dff42826155d0565b905063ffffffff811115612e505760405162461bcd60e51b81526020600482015260186024820152774f766572666c6f77206e6578744f7074696f6e526561647960401b6044820152606401610eeb565b60d4805463ffffffff191663ffffffff831617905560d080546001600160681b0319169055612e7f898961457a565b50506001805550505050505050565b33612e97612252565b6001600160a01b031614612ebd5760405162461bcd60e51b8152600401610eeb906154f0565b6001600160a01b038116612f225760405162461bcd60e51b815260206004820152602660248201527f4f776e61626c653a206e6577206f776e657220697320746865207a65726f206160448201526564647265737360d01b6064820152608401610eeb565b612f2b81614376565b50565b600260015403612f505760405162461bcd60e51b8152600401610eeb90615599565b600260015560cc547f00000000000000000000000000000000000000000000000000000000000000006001600160a01b0390811663010000009092041614612fc55760405162461bcd60e51b815260206004820152600860248201526721574e415449564560c01b6044820152606401610eeb565b60003411612ffe5760405162461bcd60e51b81526020600482015260066024820152652176616c756560d01b6044820152606401610eeb565b6130083433613e73565b7f00000000000000000000000000000000000000000000000000000000000000006001600160a01b031663d0e30db0346040518263ffffffff1660e01b81526004016000604051808303818588803b15801561306357600080fd5b505af1158015613077573d6000803e3d6000fd5b505060018055505050565b6001600160a01b038116600090815260c9602090815260408083208151606081018352905461ffff81168083526201000082046001600160681b031694830194909452600160781b90046001600160801b0316918101919091528291600111156130fa576130ef846121b4565b946000945092505050565b60cf54815161ffff908116600090815260ca602052604081205460cc5491936131319386939116919062010000900460ff16614744565b905061313c856121b4565b9590945092505050565b6002600154036131685760405162461bcd60e51b8152600401610eeb90615599565b600260015560006131776147b5565b90508060fe546131879190615605565b6001600160801b031660fe555060018055565b336131a3612252565b6001600160a01b0316146131c95760405162461bcd60e51b8152600401610eeb906154f0565b6131d7620f424060646154d9565b811061321e5760405162461bcd60e51b8152602060048201526016602482015275496e76616c6964206d616e6167656d656e742066656560501b6044820152606401610eeb565b600063031ba309613232620f4240846154d9565b61323c91906159e8565b90507f4e874b007ab14f7e263baefd44951834c8266f4f224d1092e49e9c254354cc5460d954836040516132719291906153f4565b60405180910390a160d95550565b600054610100900460ff1680613298575060005460ff16155b6132b45760405162461bcd60e51b8152600401610eeb90615402565b600054610100900460ff161580156132d6576000805461ffff19166101011790555b60405163c72733f760e01b815273__$d3108057e698617f7b9bc4e765a7fad314$__9063c72733f79061331b908c908c908c908b908d908c908c908c90600401615a67565b60006040518083038186803b15801561333357600080fd5b505af4158015613347573d6000803e3d6000fd5b50505050613353614976565b61335d84846149e9565b613365614a68565b61336e89612e8e565b60d780546001600160a01b03808b166001600160a01b03199283161790925560d68054928a169290911691909117905560d885905563031ba3096133b5620f4240886154d9565b6133bf91906159e8565b60d9558160cc6133cf8282615baf565b505060cc546040516370a0823160e01b8152600091630100000090046001600160a01b0316906370a08231906134099030906004016152ed565b602060405180830381865afa158015613426573d6000803e3d6000fd5b505050506040513d601f19601f8201168201806040525081019061344a9190615525565b905061345581613b0a565b60cf805461ffff196001600160681b03909316600160781b029290921661ffff600160781b03600160e01b031990921691909117600117905580156134a0576000805461ff00191690555b505050505050505050565b6040516001600160a01b03831660248201526044810182905261120790849063a9059cbb60e01b906064015b60408051601f198184030181529190526020810180516001600160e01b03166001600160e01b031990931692909217909152614acf565b6001600160a01b0383166135705760405162461bcd60e51b8152602060048201526024808201527f45524332303a20617070726f76652066726f6d20746865207a65726f206164646044820152637265737360e01b6064820152608401610eeb565b6001600160a01b0382166135d15760405162461bcd60e51b815260206004820152602260248201527f45524332303a20617070726f766520746f20746865207a65726f206164647265604482015261737360f01b6064820152608401610eeb565b6001600160a01b0383811660008181526098602090815260408083209487168084529482529182902085905590518481527f8c5be1e5ebec7d5bd14f71427d1e84f3dd0314c0f7b2291e5b200ac8c7c3b925910160405180910390a3505050565b60d4546060906000908190819063ffffffff1642101561367d5760405162461bcd60e51b815260206004820152600660248201526521726561647960d01b6044820152606401610eeb565b60d28054604080516020808402820181019092528281529291908301828280156136d057602002820191906000526020600020905b81546001600160a01b031681526001909101906020018083116136b2575b505060d55484519498506001600160a01b03169450600093889350849250151590506136fe576136fe6159d2565b60200260200101516001600160a01b03160361374c5760405162461bcd60e51b815260206004820152600d60248201526c0216e657874537072656164203609c1b6044820152606401610eeb565b60006001600160a01b03168460018151811061376a5761376a6159d2565b60200260200101516001600160a01b0316036137b85760405162461bcd60e51b815260206004820152600d60248201526c216e657874537072656164203160981b6044820152606401610eeb565b6001600160a01b0381166137fd5760405162461bcd60e51b815260206004820152600c60248201526b10b9b83932b0b22a37b5b2b760a11b6044820152606401610eeb565b60d6546040805160e08101825260cc5460ff62010000820416825291516370a0823160e01b81526001600160a01b039384169360009384938493849373__$d3108057e698617f7b9bc4e765a7fad314$__9363c8128b659360cf93909260208401926301000000900416906370a082319061387c9030906004016152ed565b602060405180830381865afa158015613899573d6000803e3d6000fd5b505050506040513d601f19601f820116820180604052508101906138bd9190615525565b81526020016138cb60995490565b81526020018f815260200160d854815260200160d95481526020018e8152506040518363ffffffff1660e01b815260040161395892919060006101008201905083825282516020830152602083015160408301526040830151606083015260608301516080830152608083015160a083015260a083015160c083015260c083015160e08301529392505050565b60c060405180830381865af4158015613975573d6000803e3d6000fd5b505050506040513d601f19601f820116820180604052508101906139999190615cef565b8e51959d50939b50909750955090935091506139bc9060d39060208c01906150ff565b5060d48054600160201b600160c01b031916600160201b6001600160a01b0389160217905560d580546001600160a01b03191690556139fd60d26000615164565b60cf5461ffff16600081815260ca602090815260409182902084905581518681529081018590529081018290526001600160a01b038716907f0a242f7ecaf711036ca770774ceffae28e60ef042ac113ddd187f2631db0c0069060600160405180910390a260d08054600160681b600160e81b0319169055613a808160016155d0565b60cf805461ffff191661ffff9290921691909117905550613aa390503084614ba1565b8015613ab357613ab38482613d12565b5050505092959194509250565b6001600160801b03811115612f2b5760405162461bcd60e51b815260206004820152601060248201526f09eeccae4ccd8deee40ead2dce86264760831b6044820152606401610eeb565b6001600160681b03811115612f2b5760405162461bcd60e51b815260206004820152601060248201526f13dd995c999b1bddc81d5a5b9d0c4c0d60821b6044820152606401610eeb565b6001600160a01b038316613bb85760405162461bcd60e51b815260206004820152602560248201527f45524332303a207472616e736665722066726f6d20746865207a65726f206164604482015264647265737360d81b6064820152608401610eeb565b6001600160a01b038216613c1a5760405162461bcd60e51b815260206004820152602360248201527f45524332303a207472616e7366657220746f20746865207a65726f206164647260448201526265737360e81b6064820152608401610eeb565b6001600160a01b03831660009081526097602052604090205481811015613c925760405162461bcd60e51b815260206004820152602660248201527f45524332303a207472616e7366657220616d6f756e7420657863656564732062604482015265616c616e636560d01b6064820152608401610eeb565b6001600160a01b03808516600090815260976020526040808220858503905591851681529081208054849290613cc99084906155d0565b92505081905550826001600160a01b0316846001600160a01b0316600080516020615f9783398151915284604051613d0391815260200190565b60405180910390a35b50505050565b60cc546001600160a01b0363010000009091048116907f0000000000000000000000000000000000000000000000000000000000000000168103613e5f57604051632e1a7d4d60e01b8152600481018390527f00000000000000000000000000000000000000000000000000000000000000006001600160a01b031690632e1a7d4d90602401600060405180830381600087803b158015613db257600080fd5b505af1158015613dc6573d6000803e3d6000fd5b505050506000836001600160a01b03168360405160006040518083038185875af1925050503d8060008114613e17576040519150601f19603f3d011682016040523d82523d6000602084013e613e1c565b606091505b5050905080613d0c5760405162461bcd60e51b815260206004820152600f60248201526e151c985b9cd9995c8819985a5b1959608a1b6044820152606401610eeb565b6112076001600160a01b03821684846134ab565b60cf5461ffff16600083613e8561250c565b613e8f91906155d0565b60ce549091506001600160681b0316811115613eda5760405162461bcd60e51b815260206004820152600a6024820152690457863656564206361760b41b6044820152606401610eeb565b60cd54600160a01b900466ffffffffffffff16811015613f335760405162461bcd60e51b8152602060048201526014602482015273496e73756666696369656e742062616c616e636560601b6044820152606401610eeb565b826001600160a01b03167f90890809c654f11d6e72a28fa60149770a0d11ec6c92319d6ceb2bb0a4ea1a158584604051613f6e9291906153f4565b60405180910390a26001600160a01b038316600090815260c9602090815260408083208151606081018352905461ffff8116808352620100008083046001600160681b031684870152600160781b9092046001600160801b031683850152855260ca9093529083205460cc54919392613ff0928592889290910460ff16614744565b8251909150869061ffff1685036140205760008784602001516001600160681b031661401c91906155d0565b9150505b61402981613b0a565b6040805160608101825261ffff80881682526001600160681b0380851660208085019182526001600160801b038089168688019081526001600160a01b038e16600090815260c990935296822095518654935197518216600160781b02600160781b600160f81b03199890951662010000026001600160781b031990941695169490941791909117949094161790915560d0546140cf918a91600160681b9004166155d0565b90506140da81613ac0565b60d080546001600160801b03909216600160681b02600160681b600160e81b031990921691909117905550505050505050565b6040516001600160a01b0380851660248301528316604482015260648101829052613d0c9085906323b872dd60e01b906084016134d7565b60008061415383600a615e1d565b9050600086116141635780614181565b6141818661417b6141748888614c6e565b8490614c81565b90614c8d565b9695505050505050565b6000600183116141ad5760405162461bcd60e51b8152600401610eeb90615e29565b611cdf6141bb83600a615e1d565b61417b8686614c81565b33600090815260c9602090815260408083208151606081018352905461ffff808216808452620100008084046001600160681b031685880152600160781b9093046001600160801b03168486015260cf5490875260ca9095529285205460cc54929594909316939261423f9286928692910460ff16614744565b90508361424c578461424e565b805b94508460000361425f575050505050565b808511156142a35760405162461bcd60e51b81526020600482015260116024820152704578636565647320617661696c61626c6560781b6044820152606401610eeb565b825161ffff168211156142d05733600090815260c960205260409020805462010000600160781b03191690555b6142d985613ac0565b6142e38582615605565b33600081815260c960205260409081902080546001600160801b0394909416600160781b02600160781b600160f81b0319909416939093179092558451915190917fe5b754fb1abb7f01b499791d0b820ae3b6af3424ac1c59768edb53f4ec31a9299161435c9189825261ffff16602082015260400190565b60405180910390a261436f303387613b54565b5050505050565b606580546001600160a01b038381166001600160a01b0319831681179093556040519116919082907f8be0079c531659141344cd1fd0a4f28419497f9722a3daafe3b4186f6b6457e090600090a35050565b600081116143e85760405162461bcd60e51b8152600401610eeb906156e1565b33600090815260c960205260409020546201000090046001600160681b0316151580614432575033600090815260c96020526040902054600160781b90046001600160801b031615155b1561444357614443600060016141c5565b60cf5433600081815260cb6020526040908190208054915161ffff948516949193919092168414917f0c53c82ad07e2d592d88ece3b066777dd60f1118e2a081b380efc4358f0d9e2a9061449a90879087906153f4565b60405180910390a281546201000090046001600160801b0316600082156144cc576144c586836155d0565b905061452f565b811561450e5760405162461bcd60e51b81526020600482015260116024820152704578697374696e6720776974686472617760781b6044820152606401610eeb565b5033600090815260cb60205260409020805461ffff191661ffff8616179055845b61453881613ac0565b33600081815260cb60205260409020805462010000600160901b031916620100006001600160801b03851602179055614572903088613b54565b505050505050565b60cf548251620100009091046001600160681b031690158015906145cb575060006001600160a01b0316836000815181106145b7576145b76159d2565b60200260200101516001600160a01b031614155b156145f55760cf8054600160781b600160e01b031916600160781b6001600160681b038416021790555b60cf805462010000600160781b031916905561461360d36000615164565b60008351118015614651575060006001600160a01b03168360008151811061463d5761463d6159d2565b60200260200101516001600160a01b031614155b156112075760405163666efabd60e11b81526001600160a01b037f0000000000000000000000000000000000000000000000000000000000000000811660048301528316602482015260009073__$d3108057e698617f7b9bc4e765a7fad314$__9063ccddf57a90604401602060405180830381865af41580156146d9573d6000803e3d6000fd5b505050506040513d601f19601f820116820180604052508101906146fd9190615525565b9050826001600160a01b0316336001600160a01b03167f9b8941400c12b7c3e5e1346cc27f63b2067832b71616b00a9abb91526b75fb7b8684604051613d039291906155e3565b835160009061ffff161580159061475f5750845161ffff1684115b156147a157600061477e86602001516001600160681b03168585614c99565b6040870151909150614799906001600160801b031682614cd4565b915050611cdf565b50505050604001516001600160801b031690565b33600090815260cb6020526040812080546001600160801b03620100008204169061ffff16816148175760405162461bcd60e51b815260206004820152600d60248201526c139bdd081a5b9a5d1a585d1959609a1b6044820152606401610eeb565b60cf5461ffff16811061485f5760405162461bcd60e51b815260206004820152601060248201526f149bdd5b99081b9bdd0818db1bdcd95960821b6044820152606401610eeb565b33600090815260cb60205260409020805462010000600160901b031916905560d1546148959083906001600160801b0316615605565b60d180546001600160801b0319166001600160801b0392909216919091179055600081815260ca602052604081205460cc546148db91859162010000900460ff1661418b565b9050336001600160a01b03167ff279e6a1f5e320cca91135676d9cb6e44ca8a08c0b88342bcdb1144f6511b56882856040516149189291906153f4565b60405180910390a261492a3084614ce0565b6000811161496c5760405162461bcd60e51b815260206004820152600f60248201526e085dda5d1a191c985dd05b5bdd5b9d608a1b6044820152606401610eeb565b611cdf3382613d12565b600054610100900460ff168061498f575060005460ff16155b6149ab5760405162461bcd60e51b8152600401610eeb90615402565b600054610100900460ff161580156149cd576000805461ffff19166101011790555b6149d5614e1c565b8015612f2b576000805461ff001916905550565b600054610100900460ff1680614a02575060005460ff16155b614a1e5760405162461bcd60e51b8152600401610eeb90615402565b600054610100900460ff16158015614a40576000805461ffff19166101011790555b614a48614e8b565b614a528383614ef5565b8015611207576000805461ff0019169055505050565b600054610100900460ff1680614a81575060005460ff16155b614a9d5760405162461bcd60e51b8152600401610eeb90615402565b600054610100900460ff16158015614abf576000805461ffff19166101011790555b614ac7614e8b565b6149d5614f7c565b6000614b24826040518060400160405280602081526020017f5361666545524332303a206c6f772d6c6576656c2063616c6c206661696c6564815250856001600160a01b0316614fdc9092919063ffffffff16565b8051909150156112075780806020019051810190614b429190615e58565b6112075760405162461bcd60e51b815260206004820152602a60248201527f5361666545524332303a204552433230206f7065726174696f6e20646964206e6044820152691bdd081cdd58d8d9595960b21b6064820152608401610eeb565b6001600160a01b038216614bf75760405162461bcd60e51b815260206004820152601f60248201527f45524332303a206d696e7420746f20746865207a65726f2061646472657373006044820152606401610eeb565b8060996000828254614c0991906155d0565b90915550506001600160a01b03821660009081526097602052604081208054839290614c369084906155d0565b90915550506040518181526001600160a01b03831690600090600080516020615f978339815191529060200160405180910390a35050565b6000614c7a8284615605565b9392505050565b6000614c7a82846154d9565b6000614c7a82846159e8565b600060018311614cbb5760405162461bcd60e51b8152600401610eeb90615e29565b611cdf8361417b614ccd85600a615e1d565b8790614c81565b6000614c7a82846155d0565b6001600160a01b038216614d405760405162461bcd60e51b815260206004820152602160248201527f45524332303a206275726e2066726f6d20746865207a65726f206164647265736044820152607360f81b6064820152608401610eeb565b6001600160a01b03821660009081526097602052604090205481811015614db45760405162461bcd60e51b815260206004820152602260248201527f45524332303a206275726e20616d6f756e7420657863656564732062616c616e604482015261636560f01b6064820152608401610eeb565b6001600160a01b0383166000908152609760205260408120838303905560998054849290614de3908490615605565b90915550506040518281526000906001600160a01b03851690600080516020615f978339815191529060200160405180910390a3505050565b600054610100900460ff1680614e35575060005460ff16155b614e515760405162461bcd60e51b8152600401610eeb90615402565b600054610100900460ff16158015614e73576000805461ffff19166101011790555b600180558015612f2b576000805461ff001916905550565b600054610100900460ff1680614ea4575060005460ff16155b614ec05760405162461bcd60e51b8152600401610eeb90615402565b600054610100900460ff161580156149d5576000805461ffff19166101011790558015612f2b576000805461ff001916905550565b600054610100900460ff1680614f0e575060005460ff16155b614f2a5760405162461bcd60e51b8152600401610eeb90615402565b600054610100900460ff16158015614f4c576000805461ffff19166101011790555b609a614f588482615ebb565b50609b614f658382615ebb565b508015611207576000805461ff0019169055505050565b600054610100900460ff1680614f95575060005460ff16155b614fb15760405162461bcd60e51b8152600401610eeb90615402565b600054610100900460ff16158015614fd3576000805461ffff19166101011790555b6149d533614376565b6060611cdf848460008585600080866001600160a01b031685876040516150039190615f7a565b60006040518083038185875af1925050503d8060008114615040576040519150601f19603f3d011682016040523d82523d6000602084013e615045565b606091505b509150915061505687838387615061565b979650505050505050565b606083156150d05782516000036150c9576001600160a01b0385163b6150c95760405162461bcd60e51b815260206004820152601d60248201527f416464726573733a2063616c6c20746f206e6f6e2d636f6e74726163740000006044820152606401610eeb565b5081611cdf565b611cdf83838151156150e55781518083602001fd5b8060405162461bcd60e51b8152600401610eeb91906152a1565b828054828255906000526020600020908101928215615154579160200282015b8281111561515457825182546001600160a01b0319166001600160a01b0390911617825560209092019160019091019061511f565b5061516092915061517e565b5090565b5080546000825590600052602060002090810190612f2b91905b5b80821115615160576000815560010161517f565b6000808284036101008112156151a857600080fd5b83356001600160401b038111156151be57600080fd5b840161016081870312156151d157600080fd5b925060e0601f19820112156151e557600080fd5b506020830190509250929050565b6001600160a01b0381168114612f2b57600080fd5b8035615213816151f3565b919050565b6000806040838503121561522b57600080fd5b8235615236816151f3565b91506020830135615246816151f3565b809150509250929050565b60005b8381101561526c578181015183820152602001615254565b50506000910152565b6000815180845261528d816020860160208601615251565b601f01601f19169290920160200192915050565b602081526000614c7a6020830184615275565b600080604083850312156152c757600080fd5b82356152d2816151f3565b946020939093013593505050565b6001600160a01b03169052565b6001600160a01b0391909116815260200190565b60006020828403121561531357600080fd5b5035919050565b60008060006060848603121561532f57600080fd5b833561533a816151f3565b9250602084013561534a816151f3565b929592945050506040919091013590565b60006020828403121561536d57600080fd5b8135614c7a816151f3565b600081518084526020808501945080840160005b838110156153b15781516001600160a01b03168752958201959082019060010161538c565b509495945050505050565b602081526000614c7a6020830184615378565b600080604083850312156153e257600080fd5b823591506020830135615246816151f3565b918252602082015260400190565b6020808252602e908201527f496e697469616c697a61626c653a20636f6e747261637420697320616c72656160408201526d191e481a5b9a5d1a585b1a5e995960921b606082015260800190565b6000808335601e1984360301811261546757600080fd5b8301803591506001600160401b0382111561548157600080fd5b60200191503681900382131561549657600080fd5b9250929050565b6000602082840312156154af57600080fd5b813563ffffffff81168114614c7a57600080fd5b634e487b7160e01b600052601160045260246000fd5b80820281158282048414176114d5576114d56154c3565b6020808252818101527f4f776e61626c653a2063616c6c6572206973206e6f7420746865206f776e6572604082015260600190565b60006020828403121561553757600080fd5b5051919050565b600181811c9082168061555257607f821691505b60208210810361557257634e487b7160e01b600052602260045260246000fd5b50919050565b60208082526007908201526610b5b2b2b832b960c91b604082015260600190565b6020808252601f908201527f5265656e7472616e637947756172643a207265656e7472616e742063616c6c00604082015260600190565b808201808211156114d5576114d56154c3565b6040815260006155f66040830185615378565b90508260208301529392505050565b818103818111156114d5576114d56154c3565b600060018060a01b038088168352808716602084015260a0604084015261564260a0840187615378565b606084019590955292909216608090910152509392505050565b6000806040838503121561566f57600080fd5b505080516020909101519092909150565b6001600160681b038181168382160190808211156156a0576156a06154c3565b5092915050565b60208082526007908201526608585b5bdd5b9d60ca1b604082015260600190565b6000600182016156da576156da6154c3565b5060010190565b6020808252600a9082015269216e756d53686172657360b01b604082015260600190565b60608152600060018060a01b03808651166060840152806020870151166080840152604086015160e060a0850152615741610140850182615378565b9050606087015160c08501528160808801511660e085015260a087015161010085015260c087015191506157796101208501836152e0565b6020840195909552505060400152919050565b634e487b7160e01b600052604160045260246000fd5b604051601f8201601f191681016001600160401b03811182821017156157ca576157ca61578c565b604052919050565b60006001600160401b038211156157eb576157eb61578c565b5060051b60200190565b8051615213816151f3565b600082601f83011261581157600080fd5b81516020615826615821836157d2565b6157a2565b82815260059290921b8401810191818101908684111561584557600080fd5b8286015b848110156158605780518352918301918301615849565b509695505050505050565b6000806000806080858703121561588157600080fd5b84516001600160401b038082111561589857600080fd5b818701915087601f8301126158ac57600080fd5b815160206158bc615821836157d2565b82815260059290921b8401810191818101908b8411156158db57600080fd5b948201945b838610156159025785516158f3816151f3565b825294820194908201906158e0565b918a015191985090935050508082111561591b57600080fd5b61592788838901615800565b9450604087015191508082111561593d57600080fd5b5061594a87828801615800565b925050615959606086016157f5565b905092959194509250565b600081518084526020808501945080840160005b838110156153b157815187529582019590820190600101615978565b6060815260006159a76060830186615964565b82810360208401526159b98186615964565b91505060018060a01b0383166040830152949350505050565b634e487b7160e01b600052603260045260246000fd5b600082615a0557634e487b7160e01b600052601260045260246000fd5b500490565b8015158114612f2b57600080fd5b60ff81168114612f2b57600080fd5b66ffffffffffffff81168114612f2b57600080fd5b803561521381615a27565b6001600160681b0381168114612f2b57600080fd5b803561521381615a47565b6001600160a01b03898116825288811660208301528716604082015260608101869052608081018590526101c060a08201819052600090615aaa83820187615275565b905082810360c0840152615abe8186615275565b9150508235615acc81615a0a565b151560e08301526020830135615ae181615a0a565b15156101008301526040830135615af781615a18565b60ff16610120830152615b0c60608401615208565b615b1a6101408401826152e0565b50615b2760808401615208565b615b356101608401826152e0565b50615b4260a08401615a3c565b66ffffffffffffff16610180830152615b5d60c08401615a5c565b6001600160681b0381166101a0840152509998505050505050505050565b600081356114d581615a18565b600081356114d5816151f3565b600081356114d581615a27565b600081356114d581615a47565b8135615bba81615a0a565b815460ff19811691151560ff1691821783556020840135615bda81615a0a565b61ffff199190911690911790151560081b61ff0016178155615c19615c0160408401615b7b565b825462ff0000191660109190911b62ff000016178255565b615c52615c2860608401615b88565b8280546301000000600160b81b03191660189290921b6301000000600160b81b0316919091179055565b60018101615c82615c6560808501615b88565b82546001600160a01b0319166001600160a01b0391909116178255565b615cbb615c9160a08501615b95565b828054600160a01b600160d81b03191660a09290921b600160a01b600160d81b0316919091179055565b5061142e615ccb60c08401615ba2565b6002830180546001600160681b0319166001600160681b0392909216919091179055565b60008060008060008060c08789031215615d0857600080fd5b865195506020870151945060408701519350606087015192506080870151915060a087015190509295509295509295565b600181815b80851115615d74578160001904821115615d5a57615d5a6154c3565b80851615615d6757918102915b93841c9390800290615d3e565b509250929050565b600082615d8b575060016114d5565b81615d98575060006114d5565b8160018114615dae5760028114615db857615dd4565b60019150506114d5565b60ff841115615dc957615dc96154c3565b50506001821b6114d5565b5060208310610133831016604e8410600b8410161715615df7575081810a6114d5565b615e018383615d39565b8060001904821115615e1557615e156154c3565b029392505050565b6000614c7a8383615d7c565b602080825260159082015274496e76616c6964206173736574506572536861726560581b604082015260600190565b600060208284031215615e6a57600080fd5b8151614c7a81615a0a565b601f82111561120757600081815260208120601f850160051c81016020861015615e9c5750805b601f850160051c820191505b8181101561457257828155600101615ea8565b81516001600160401b03811115615ed457615ed461578c565b615ee881615ee2845461553e565b84615e75565b602080601f831160018114615f1d5760008415615f055750858301515b600019600386901b1c1916600185901b178555614572565b600085815260208120601f198616915b82811015615f4c57888601518255948401946001909101908401615f2d565b5085821015615f6a5787850151600019600388901b60f8161c191681555b5050505050600190811b01905550565b60008251615f8c818460208701615251565b919091019291505056feddf252ad1be2c89b69c2b068fc378daa952ba7f163c4a11628f55a4df523b3efa2646970667358221220abcb23f3fc0561d28e99e3943dfa6e672e0216e4af1976e08fe70bb8de3ecdb964736f6c63430008110033",
  "libraries": {
    "VaultLifecycleSpread": "0x8AdF1D7EE2E971c867f3535fF4bE239cdA50E2CA"
  },
  "devdoc": {
    "kind": "dev",
    "methods": {
      "accountVaultBalance(address)": {
        "params": {
          "account": "is the address to lookup balance for"
        },
        "returns": {
          "_0": "the amount of `asset` custodied by the vault for the user"
        }
      },
      "allowance(address,address)": {
        "details": "See {IERC20-allowance}."
      },
      "approve(address,uint256)": {
        "details": "See {IERC20-approve}. Requirements: - `spender` cannot be the zero address."
      },
      "balanceOf(address)": {
        "details": "See {IERC20-balanceOf}."
      },
      "constructor": {
        "params": {
          "_gammaController": "is the contract address for opyn actions",
          "_gnosisEasyAuction": "is the contract address that facilitates gnosis auctions",
          "_marginPool": "is the contract address for providing collateral to opyn",
          "_oTokenFactory": "is the contract address for minting new opyn option types (strikes, asset, expiry)",
          "_spreadTokenLogic": "Spread token logic contract",
          "_usdc": "is the USDC contract",
          "_wnative": "is the Wrapped Native contract"
        }
      },
      "decreaseAllowance(address,uint256)": {
        "details": "Atomically decreases the allowance granted to `spender` by the caller. This is an alternative to {approve} that can be used as a mitigation for problems described in {IERC20-approve}. Emits an {Approval} event indicating the updated allowance. Requirements: - `spender` cannot be the zero address. - `spender` must have allowance for the caller of at least `subtractedValue`."
      },
      "deposit(uint256)": {
        "params": {
          "amount": "is the amount of `asset` to deposit"
        }
      },
      "depositFor(uint256,address)": {
        "params": {
          "amount": "is the amount of `asset` to deposit",
          "creditor": "is the address that can claim/withdraw deposited amount"
        }
      },
      "increaseAllowance(address,uint256)": {
        "details": "Atomically increases the allowance granted to `spender` by the caller. This is an alternative to {approve} that can be used as a mitigation for problems described in {IERC20-approve}. Emits an {Approval} event indicating the updated allowance. Requirements: - `spender` cannot be the zero address."
      },
      "initRounds(uint256)": {
        "params": {
          "numRounds": "is the number of rounds to initialize in the map"
        }
      },
      "initialize((address,address,address,uint256,uint256,string,string,address,address,uint32,uint256),(bool,bool,uint8,address,address,uint56,uint104))": {
        "params": {
          "_initParams": "is the struct with vault initialization parameters",
          "_vaultParams": "is the struct with vault general data"
        }
      },
      "initiateWithdraw(uint256)": {
        "params": {
          "numShares": "is the number of shares to withdraw"
        }
      },
      "name()": {
        "details": "Returns the name of the token."
      },
      "owner()": {
        "details": "Returns the address of the current owner."
      },
      "recoverTokens(address,address)": {
        "params": {
          "recipient": "is the recipient of the recovered tokens",
          "token": "is the ERC20 token to recover from the vault"
        }
      },
      "redeem(uint256)": {
        "params": {
          "numShares": "is the number of shares to redeem"
        }
      },
      "renounceOwnership()": {
        "details": "Leaves the contract without owner. It will not be possible to call `onlyOwner` functions anymore. Can only be called by the current owner. NOTE: Renouncing ownership will leave the contract without an owner, thereby removing any functionality that is only available to the owner."
      },
      "setAuctionDuration(uint256)": {
        "params": {
          "newAuctionDuration": "is the auction duration"
        }
      },
      "setCap(uint256)": {
        "params": {
          "newCap": "is the new cap for deposits"
        }
      },
      "setFeeRecipient(address)": {
        "params": {
          "newFeeRecipient": "is the address of the new fee recipient"
        }
      },
      "setManagementFee(uint256)": {
        "params": {
          "newManagementFee": "is the management fee (6 decimals). ex: 2 * 10 ** 6 = 2%"
        }
      },
      "setMinPrice(uint256)": {
        "params": {
          "minPrice": "is the new oToken Premium in the units of 10**18"
        }
      },
      "setNewKeeper(address)": {
        "params": {
          "newKeeper": "is the address of the new keeper"
        }
      },
      "setOptionsPremiumPricer(address)": {
        "params": {
          "newOptionsPremiumPricer": "is the address of the new strike selection contract"
        }
      },
      "setPerformanceFee(uint256)": {
        "params": {
          "newPerformanceFee": "is the performance fee (6 decimals). ex: 20 * 10 ** 6 = 20%"
        }
      },
      "setPremiumDiscount(uint256)": {
        "params": {
          "newPremiumDiscount": "is the premium discount"
        }
      },
      "setStrikeSelection(address)": {
        "params": {
          "newStrikeSelection": "is the address of the new strike selection contract"
        }
      },
      "shareBalances(address)": {
        "params": {
          "account": "is the account to lookup share balance for"
        },
        "returns": {
          "heldByAccount": "is the shares held by account",
          "heldByVault": "is the shares held on the vault (unredeemedShares)"
        }
      },
      "shares(address)": {
        "params": {
          "account": "is the account to lookup share balance for"
        },
        "returns": {
          "_0": "the share balance"
        }
      },
      "symbol()": {
        "details": "Returns the symbol of the token, usually a shorter version of the name."
      },
      "totalBalance()": {
        "returns": {
          "_0": "total balance of the vault, including the amounts locked in third party protocols"
        }
      },
      "totalSupply()": {
        "details": "See {IERC20-totalSupply}."
      },
      "transfer(address,uint256)": {
        "details": "See {IERC20-transfer}. Requirements: - `recipient` cannot be the zero address. - the caller must have a balance of at least `amount`."
      },
      "transferFrom(address,address,uint256)": {
        "details": "See {IERC20-transferFrom}. Emits an {Approval} event indicating the updated allowance. This is not required by the EIP. See the note at the beginning of {ERC20}. Requirements: - `sender` and `recipient` cannot be the zero address. - `sender` must have a balance of at least `amount`. - the caller must have allowance for ``sender``'s tokens of at least `amount`."
      },
      "transferOwnership(address)": {
        "details": "Transfers ownership of the contract to a new account (`newOwner`). Can only be called by the current owner."
      },
      "withdrawInstantly(uint256)": {
        "params": {
          "amount": "is the amount to withdraw"
        }
      }
    },
    "version": 1
  },
  "userdoc": {
    "kind": "user",
    "methods": {
      "OTOKEN_FACTORY()": {
        "notice": "oTokenFactory is the factory contract used to spawn otokens. Used to lookup otokens."
      },
      "PERIOD()": {
        "notice": "7 day period between each options sale."
      },
      "USDC()": {
        "notice": "USDC"
      },
      "WNATIVE()": {
        "notice": "Wrapped NATIVE currency "
      },
      "accountVaultBalance(address)": {
        "notice": "Returns the asset balance held on the vault for the account"
      },
      "commitAndClose()": {
        "notice": "Sets the next call spread the vault will be setting up existing the vault.         This allows all the users to withdraw if the next option is malicious."
      },
      "completeWithdraw()": {
        "notice": "Completes a scheduled withdrawal from a past round. Uses finalized pps for the round"
      },
      "constructor": {
        "notice": "Initializes the contract with immutable variables"
      },
      "decimals()": {
        "notice": "Returns the token decimals"
      },
      "deposit(uint256)": {
        "notice": "Deposits the `asset` from msg.sender."
      },
      "depositETH()": {
        "notice": "Deposits ETH into the contract and mint vault shares. Reverts if the asset is not WNATIVE."
      },
      "depositFor(uint256,address)": {
        "notice": "Deposits the `asset` from msg.sender added to `creditor`'s deposit.Used for vault -> vault deposits on the user's behalf"
      },
      "depositReceipts(address)": {
        "notice": "Stores the user's pending deposit for the round"
      },
      "feeRecipient()": {
        "notice": "Fee recipient for the performance and management fees"
      },
      "initRounds(uint256)": {
        "notice": "Helper function that helps to save gas for writing values into the roundPricePerShare map.         Writing `1` into the map makes subsequent writes warm, reducing the gas from 20k to 5k.         Having 1 initialized beforehand will not be an issue as long as we round down share calculations to 0."
      },
      "initialize((address,address,address,uint256,uint256,string,string,address,address,uint32,uint256),(bool,bool,uint8,address,address,uint56,uint104))": {
        "notice": "Initializes the OptionVault contract with storage variables."
      },
      "initiateWithdraw(uint256)": {
        "notice": "Initiates a withdrawal that can be processed once the round completes"
      },
      "keeper()": {
        "notice": "role in charge of weekly vault operations such as rollToNextOption and burnRemainingOTokens"
      },
      "managementFee()": {
        "notice": "Management fee charged on entire AUM in rollToNextOption. Only charged when there is no loss."
      },
      "maxRedeem()": {
        "notice": "Redeems the entire unredeemedShares balance that is owed to the account"
      },
      "performanceFee()": {
        "notice": "Performance fee charged on premiums earned in rollToNextOption. Only charged when there is no loss."
      },
      "pricePerShare()": {
        "notice": "The price of a unit of share denominated in the `asset`"
      },
      "recoverTokens(address,address)": {
        "notice": "Recovery function that returns an ERC20 token to the recipient"
      },
      "redeem(uint256)": {
        "notice": "Redeems shares that are owed to the account"
      },
      "rollToNextOption(uint256)": {
        "notice": "Rolls the vault's funds into a new short position."
      },
      "roundPricePerShare(uint256)": {
        "notice": "On every round's close, the pricePerShare value of an rTHETA token is stored This is used to determine the number of shares to be returned to a user with their DepositReceipt.depositAmount"
      },
      "setAuctionDuration(uint256)": {
        "notice": "Sets the new auction duration"
      },
      "setCap(uint256)": {
        "notice": "Sets a new cap for deposits"
      },
      "setFeeRecipient(address)": {
        "notice": "Sets the new fee recipient"
      },
      "setManagementFee(uint256)": {
        "notice": "Sets the management fee for the vault"
      },
      "setMinPrice(uint256)": {
        "notice": "Sets oToken Premium"
      },
      "setNewKeeper(address)": {
        "notice": "Sets the new keeper"
      },
      "setOptionsPremiumPricer(address)": {
        "notice": "Sets the new options premium pricer contract"
      },
      "setPerformanceFee(uint256)": {
        "notice": "Sets the performance fee for the vault"
      },
      "setPremiumDiscount(uint256)": {
        "notice": "Sets the new discount on premiums for options we are selling"
      },
      "setStrikeSelection(address)": {
        "notice": "Sets the new strike selection contract"
      },
      "shareBalances(address)": {
        "notice": "Getter for returning the account's share balance split between account and vault holdings"
      },
      "shares(address)": {
        "notice": "Getter for returning the account's share balance including unredeemed shares"
      },
      "spreadState()": {
        "notice": "Vault's state of the strategy sold"
      },
      "startAuction()": {
        "notice": "Initiate the gnosis auction."
      },
      "totalBalance()": {
        "notice": "Returns the vault's total balance, including the amounts locked into a short position"
      },
      "vaultParams()": {
        "notice": "Vault's parameters like cap, decimals"
      },
      "vaultState()": {
        "notice": "Vault's lifecycle state like round and locked amounts"
      },
      "withdrawInstantly(uint256)": {
        "notice": "Withdraws the assets on the vault using the outstanding `DepositReceipt.amount`"
      },
      "withdrawals(address)": {
        "notice": "Stores pending user withdrawals"
      }
    },
    "notice": "UPGRADEABILITY: Since we use the upgradeable proxy pattern, we must observe the inheritance chain closely. Any changes/appends in storage variable needs to happen in HimalayanCallSpreadStorage. CallSpread should not inherit from any other contract aside from HimalayanVault, HimalayanCallSpreadStorage",
    "version": 1
  },
  "storageLayout": {
    "storage": [
      {
        "astId": 130,
        "contract": "contracts/vaults/SpreadVaults/SpreadVault.sol:SpreadVault",
        "label": "_initialized",
        "offset": 0,
        "slot": "0",
        "type": "t_bool"
      },
      {
        "astId": 133,
        "contract": "contracts/vaults/SpreadVaults/SpreadVault.sol:SpreadVault",
        "label": "_initializing",
        "offset": 1,
        "slot": "0",
        "type": "t_bool"
      },
      {
        "astId": 184,
        "contract": "contracts/vaults/SpreadVaults/SpreadVault.sol:SpreadVault",
        "label": "_status",
        "offset": 0,
        "slot": "1",
        "type": "t_uint256"
      },
      {
        "astId": 227,
        "contract": "contracts/vaults/SpreadVaults/SpreadVault.sol:SpreadVault",
        "label": "__gap",
        "offset": 0,
        "slot": "2",
        "type": "t_array(t_uint256)49_storage"
      },
      {
        "astId": 947,
        "contract": "contracts/vaults/SpreadVaults/SpreadVault.sol:SpreadVault",
        "label": "__gap",
        "offset": 0,
        "slot": "51",
        "type": "t_array(t_uint256)50_storage"
      },
      {
        "astId": 10,
        "contract": "contracts/vaults/SpreadVaults/SpreadVault.sol:SpreadVault",
        "label": "_owner",
        "offset": 0,
        "slot": "101",
        "type": "t_address"
      },
      {
        "astId": 123,
        "contract": "contracts/vaults/SpreadVaults/SpreadVault.sol:SpreadVault",
        "label": "__gap",
        "offset": 0,
        "slot": "102",
        "type": "t_array(t_uint256)49_storage"
      },
      {
        "astId": 247,
        "contract": "contracts/vaults/SpreadVaults/SpreadVault.sol:SpreadVault",
        "label": "_balances",
        "offset": 0,
        "slot": "151",
        "type": "t_mapping(t_address,t_uint256)"
      },
      {
        "astId": 253,
        "contract": "contracts/vaults/SpreadVaults/SpreadVault.sol:SpreadVault",
        "label": "_allowances",
        "offset": 0,
        "slot": "152",
        "type": "t_mapping(t_address,t_mapping(t_address,t_uint256))"
      },
      {
        "astId": 255,
        "contract": "contracts/vaults/SpreadVaults/SpreadVault.sol:SpreadVault",
        "label": "_totalSupply",
        "offset": 0,
        "slot": "153",
        "type": "t_uint256"
      },
      {
        "astId": 257,
        "contract": "contracts/vaults/SpreadVaults/SpreadVault.sol:SpreadVault",
        "label": "_name",
        "offset": 0,
        "slot": "154",
        "type": "t_string_storage"
      },
      {
        "astId": 259,
        "contract": "contracts/vaults/SpreadVaults/SpreadVault.sol:SpreadVault",
        "label": "_symbol",
        "offset": 0,
        "slot": "155",
        "type": "t_string_storage"
      },
      {
        "astId": 800,
        "contract": "contracts/vaults/SpreadVaults/SpreadVault.sol:SpreadVault",
        "label": "__gap",
        "offset": 0,
        "slot": "156",
        "type": "t_array(t_uint256)45_storage"
      },
      {
        "astId": 6637,
        "contract": "contracts/vaults/SpreadVaults/SpreadVault.sol:SpreadVault",
        "label": "depositReceipts",
        "offset": 0,
        "slot": "201",
        "type": "t_mapping(t_address,t_struct(DepositReceipt)3805_storage)"
      },
      {
        "astId": 6642,
        "contract": "contracts/vaults/SpreadVaults/SpreadVault.sol:SpreadVault",
        "label": "roundPricePerShare",
        "offset": 0,
        "slot": "202",
        "type": "t_mapping(t_uint256,t_uint256)"
      },
      {
        "astId": 6648,
        "contract": "contracts/vaults/SpreadVaults/SpreadVault.sol:SpreadVault",
        "label": "withdrawals",
        "offset": 0,
        "slot": "203",
        "type": "t_mapping(t_address,t_struct(Withdrawal)3810_storage)"
      },
      {
        "astId": 6652,
        "contract": "contracts/vaults/SpreadVaults/SpreadVault.sol:SpreadVault",
        "label": "vaultParams",
        "offset": 0,
        "slot": "204",
        "type": "t_struct(VaultParams)3765_storage"
      },
      {
        "astId": 6656,
        "contract": "contracts/vaults/SpreadVaults/SpreadVault.sol:SpreadVault",
        "label": "vaultState",
        "offset": 0,
        "slot": "207",
        "type": "t_struct(VaultState)3798_storage"
      },
      {
        "astId": 6660,
        "contract": "contracts/vaults/SpreadVaults/SpreadVault.sol:SpreadVault",
        "label": "spreadState",
        "offset": 0,
        "slot": "210",
        "type": "t_struct(SpreadState)3785_storage"
      },
      {
        "astId": 6663,
        "contract": "contracts/vaults/SpreadVaults/SpreadVault.sol:SpreadVault",
        "label": "feeRecipient",
        "offset": 0,
        "slot": "214",
        "type": "t_address"
      },
      {
        "astId": 6666,
        "contract": "contracts/vaults/SpreadVaults/SpreadVault.sol:SpreadVault",
        "label": "keeper",
        "offset": 0,
        "slot": "215",
        "type": "t_address"
      },
      {
        "astId": 6669,
        "contract": "contracts/vaults/SpreadVaults/SpreadVault.sol:SpreadVault",
        "label": "performanceFee",
        "offset": 0,
        "slot": "216",
        "type": "t_uint256"
      },
      {
        "astId": 6672,
        "contract": "contracts/vaults/SpreadVaults/SpreadVault.sol:SpreadVault",
        "label": "managementFee",
        "offset": 0,
        "slot": "217",
        "type": "t_uint256"
      },
      {
        "astId": 6676,
        "contract": "contracts/vaults/SpreadVaults/SpreadVault.sol:SpreadVault",
        "label": "____gap",
        "offset": 0,
        "slot": "218",
        "type": "t_array(t_uint256)30_storage"
      },
      {
        "astId": 5521,
        "contract": "contracts/vaults/SpreadVaults/SpreadVault.sol:SpreadVault",
        "label": "optionsPremiumPricer",
        "offset": 0,
        "slot": "248",
        "type": "t_address"
      },
      {
        "astId": 5523,
        "contract": "contracts/vaults/SpreadVaults/SpreadVault.sol:SpreadVault",
        "label": "strikeSelection",
        "offset": 0,
        "slot": "249",
        "type": "t_address"
      },
      {
        "astId": 5525,
        "contract": "contracts/vaults/SpreadVaults/SpreadVault.sol:SpreadVault",
        "label": "premiumDiscount",
        "offset": 0,
        "slot": "250",
        "type": "t_uint256"
      },
      {
        "astId": 5527,
        "contract": "contracts/vaults/SpreadVaults/SpreadVault.sol:SpreadVault",
        "label": "currentSpreadPremium",
        "offset": 0,
        "slot": "251",
        "type": "t_uint256"
      },
      {
        "astId": 5529,
        "contract": "contracts/vaults/SpreadVaults/SpreadVault.sol:SpreadVault",
        "label": "auctionDuration",
        "offset": 0,
        "slot": "252",
        "type": "t_uint256"
      },
      {
        "astId": 5531,
        "contract": "contracts/vaults/SpreadVaults/SpreadVault.sol:SpreadVault",
        "label": "optionAuctionID",
        "offset": 0,
        "slot": "253",
        "type": "t_uint256"
      },
      {
        "astId": 5533,
        "contract": "contracts/vaults/SpreadVaults/SpreadVault.sol:SpreadVault",
        "label": "lastQueuedWithdrawAmount",
        "offset": 0,
        "slot": "254",
        "type": "t_uint256"
      },
      {
        "astId": 5535,
        "contract": "contracts/vaults/SpreadVaults/SpreadVault.sol:SpreadVault",
        "label": "currentQueuedWithdrawShares",
        "offset": 0,
        "slot": "255",
        "type": "t_uint256"
      }
    ],
    "types": {
      "t_address": {
        "encoding": "inplace",
        "label": "address",
        "numberOfBytes": "20"
      },
      "t_array(t_address)dyn_storage": {
        "base": "t_address",
        "encoding": "dynamic_array",
        "label": "address[]",
        "numberOfBytes": "32"
      },
      "t_array(t_uint256)30_storage": {
        "base": "t_uint256",
        "encoding": "inplace",
        "label": "uint256[30]",
        "numberOfBytes": "960"
      },
      "t_array(t_uint256)45_storage": {
        "base": "t_uint256",
        "encoding": "inplace",
        "label": "uint256[45]",
        "numberOfBytes": "1440"
      },
      "t_array(t_uint256)49_storage": {
        "base": "t_uint256",
        "encoding": "inplace",
        "label": "uint256[49]",
        "numberOfBytes": "1568"
      },
      "t_array(t_uint256)50_storage": {
        "base": "t_uint256",
        "encoding": "inplace",
        "label": "uint256[50]",
        "numberOfBytes": "1600"
      },
      "t_bool": {
        "encoding": "inplace",
        "label": "bool",
        "numberOfBytes": "1"
      },
      "t_mapping(t_address,t_mapping(t_address,t_uint256))": {
        "encoding": "mapping",
        "key": "t_address",
        "label": "mapping(address => mapping(address => uint256))",
        "numberOfBytes": "32",
        "value": "t_mapping(t_address,t_uint256)"
      },
      "t_mapping(t_address,t_struct(DepositReceipt)3805_storage)": {
        "encoding": "mapping",
        "key": "t_address",
        "label": "mapping(address => struct Vault.DepositReceipt)",
        "numberOfBytes": "32",
        "value": "t_struct(DepositReceipt)3805_storage"
      },
      "t_mapping(t_address,t_struct(Withdrawal)3810_storage)": {
        "encoding": "mapping",
        "key": "t_address",
        "label": "mapping(address => struct Vault.Withdrawal)",
        "numberOfBytes": "32",
        "value": "t_struct(Withdrawal)3810_storage"
      },
      "t_mapping(t_address,t_uint256)": {
        "encoding": "mapping",
        "key": "t_address",
        "label": "mapping(address => uint256)",
        "numberOfBytes": "32",
        "value": "t_uint256"
      },
      "t_mapping(t_uint256,t_uint256)": {
        "encoding": "mapping",
        "key": "t_uint256",
        "label": "mapping(uint256 => uint256)",
        "numberOfBytes": "32",
        "value": "t_uint256"
      },
      "t_string_storage": {
        "encoding": "bytes",
        "label": "string",
        "numberOfBytes": "32"
      },
      "t_struct(DepositReceipt)3805_storage": {
        "encoding": "inplace",
        "label": "struct Vault.DepositReceipt",
        "members": [
          {
            "astId": 3800,
            "contract": "contracts/vaults/SpreadVaults/SpreadVault.sol:SpreadVault",
            "label": "round",
            "offset": 0,
            "slot": "0",
            "type": "t_uint16"
          },
          {
            "astId": 3802,
            "contract": "contracts/vaults/SpreadVaults/SpreadVault.sol:SpreadVault",
            "label": "amount",
            "offset": 2,
            "slot": "0",
            "type": "t_uint104"
          },
          {
            "astId": 3804,
            "contract": "contracts/vaults/SpreadVaults/SpreadVault.sol:SpreadVault",
            "label": "unredeemedShares",
            "offset": 15,
            "slot": "0",
            "type": "t_uint128"
          }
        ],
        "numberOfBytes": "32"
      },
      "t_struct(SpreadState)3785_storage": {
        "encoding": "inplace",
        "label": "struct Vault.SpreadState",
        "members": [
          {
            "astId": 3775,
            "contract": "contracts/vaults/SpreadVaults/SpreadVault.sol:SpreadVault",
            "label": "nextSpread",
            "offset": 0,
            "slot": "0",
            "type": "t_array(t_address)dyn_storage"
          },
          {
            "astId": 3778,
            "contract": "contracts/vaults/SpreadVaults/SpreadVault.sol:SpreadVault",
            "label": "currentSpread",
            "offset": 0,
            "slot": "1",
            "type": "t_array(t_address)dyn_storage"
          },
          {
            "astId": 3780,
            "contract": "contracts/vaults/SpreadVaults/SpreadVault.sol:SpreadVault",
            "label": "nextOptionReadyAt",
            "offset": 0,
            "slot": "2",
            "type": "t_uint32"
          },
          {
            "astId": 3782,
            "contract": "contracts/vaults/SpreadVaults/SpreadVault.sol:SpreadVault",
            "label": "currentSpreadToken",
            "offset": 4,
            "slot": "2",
            "type": "t_address"
          },
          {
            "astId": 3784,
            "contract": "contracts/vaults/SpreadVaults/SpreadVault.sol:SpreadVault",
            "label": "nextSpreadToken",
            "offset": 0,
            "slot": "3",
            "type": "t_address"
          }
        ],
        "numberOfBytes": "128"
      },
      "t_struct(VaultParams)3765_storage": {
        "encoding": "inplace",
        "label": "struct Vault.VaultParams",
        "members": [
          {
            "astId": 3752,
            "contract": "contracts/vaults/SpreadVaults/SpreadVault.sol:SpreadVault",
            "label": "isPut",
            "offset": 0,
            "slot": "0",
            "type": "t_bool"
          },
          {
            "astId": 3754,
            "contract": "contracts/vaults/SpreadVaults/SpreadVault.sol:SpreadVault",
            "label": "isSpread",
            "offset": 1,
            "slot": "0",
            "type": "t_bool"
          },
          {
            "astId": 3756,
            "contract": "contracts/vaults/SpreadVaults/SpreadVault.sol:SpreadVault",
            "label": "decimals",
            "offset": 2,
            "slot": "0",
            "type": "t_uint8"
          },
          {
            "astId": 3758,
            "contract": "contracts/vaults/SpreadVaults/SpreadVault.sol:SpreadVault",
            "label": "asset",
            "offset": 3,
            "slot": "0",
            "type": "t_address"
          },
          {
            "astId": 3760,
            "contract": "contracts/vaults/SpreadVaults/SpreadVault.sol:SpreadVault",
            "label": "underlying",
            "offset": 0,
            "slot": "1",
            "type": "t_address"
          },
          {
            "astId": 3762,
            "contract": "contracts/vaults/SpreadVaults/SpreadVault.sol:SpreadVault",
            "label": "minimumSupply",
            "offset": 20,
            "slot": "1",
            "type": "t_uint56"
          },
          {
            "astId": 3764,
            "contract": "contracts/vaults/SpreadVaults/SpreadVault.sol:SpreadVault",
            "label": "cap",
            "offset": 0,
            "slot": "2",
            "type": "t_uint104"
          }
        ],
        "numberOfBytes": "96"
      },
      "t_struct(VaultState)3798_storage": {
        "encoding": "inplace",
        "label": "struct Vault.VaultState",
        "members": [
          {
            "astId": 3787,
            "contract": "contracts/vaults/SpreadVaults/SpreadVault.sol:SpreadVault",
            "label": "round",
            "offset": 0,
            "slot": "0",
            "type": "t_uint16"
          },
          {
            "astId": 3789,
            "contract": "contracts/vaults/SpreadVaults/SpreadVault.sol:SpreadVault",
            "label": "lockedAmount",
            "offset": 2,
            "slot": "0",
            "type": "t_uint104"
          },
          {
            "astId": 3791,
            "contract": "contracts/vaults/SpreadVaults/SpreadVault.sol:SpreadVault",
            "label": "lastLockedAmount",
            "offset": 15,
            "slot": "0",
            "type": "t_uint104"
          },
          {
            "astId": 3793,
            "contract": "contracts/vaults/SpreadVaults/SpreadVault.sol:SpreadVault",
            "label": "lockedAmountUsed",
            "offset": 0,
            "slot": "1",
            "type": "t_uint104"
          },
          {
            "astId": 3795,
            "contract": "contracts/vaults/SpreadVaults/SpreadVault.sol:SpreadVault",
            "label": "totalPending",
            "offset": 13,
            "slot": "1",
            "type": "t_uint128"
          },
          {
            "astId": 3797,
            "contract": "contracts/vaults/SpreadVaults/SpreadVault.sol:SpreadVault",
            "label": "queuedWithdrawShares",
            "offset": 0,
            "slot": "2",
            "type": "t_uint128"
          }
        ],
        "numberOfBytes": "96"
      },
      "t_struct(Withdrawal)3810_storage": {
        "encoding": "inplace",
        "label": "struct Vault.Withdrawal",
        "members": [
          {
            "astId": 3807,
            "contract": "contracts/vaults/SpreadVaults/SpreadVault.sol:SpreadVault",
            "label": "round",
            "offset": 0,
            "slot": "0",
            "type": "t_uint16"
          },
          {
            "astId": 3809,
            "contract": "contracts/vaults/SpreadVaults/SpreadVault.sol:SpreadVault",
            "label": "shares",
            "offset": 2,
            "slot": "0",
            "type": "t_uint128"
          }
        ],
        "numberOfBytes": "32"
      },
      "t_uint104": {
        "encoding": "inplace",
        "label": "uint104",
        "numberOfBytes": "13"
      },
      "t_uint128": {
        "encoding": "inplace",
        "label": "uint128",
        "numberOfBytes": "16"
      },
      "t_uint16": {
        "encoding": "inplace",
        "label": "uint16",
        "numberOfBytes": "2"
      },
      "t_uint256": {
        "encoding": "inplace",
        "label": "uint256",
        "numberOfBytes": "32"
      },
      "t_uint32": {
        "encoding": "inplace",
        "label": "uint32",
        "numberOfBytes": "4"
      },
      "t_uint56": {
        "encoding": "inplace",
        "label": "uint56",
        "numberOfBytes": "7"
      },
      "t_uint8": {
        "encoding": "inplace",
        "label": "uint8",
        "numberOfBytes": "1"
      }
    }
  }
}