{
  "address": "0x94AE3Eb4DA3c3D5F577aA1F31D762F1D75Bd6468",
  "abi": [
    {
      "anonymous": false,
      "inputs": [
        {
          "indexed": true,
          "internalType": "address",
          "name": "previousOwner",
          "type": "address"
        },
        {
          "indexed": true,
          "internalType": "address",
          "name": "newOwner",
          "type": "address"
        }
      ],
      "name": "OwnershipTransferred",
      "type": "event"
    },
    {
      "inputs": [
        {
          "internalType": "uint256",
          "name": "",
          "type": "uint256"
        }
      ],
      "name": "deltas",
      "outputs": [
        {
          "internalType": "uint256",
          "name": "",
          "type": "uint256"
        }
      ],
      "stateMutability": "view",
      "type": "function"
    },
    {
      "inputs": [
        {
          "internalType": "uint256",
          "name": "",
          "type": "uint256"
        },
        {
          "internalType": "bool",
          "name": "",
          "type": "bool"
        }
      ],
      "name": "getStrikePrices",
      "outputs": [
        {
          "internalType": "uint256[]",
          "name": "",
          "type": "uint256[]"
        },
        {
          "internalType": "uint256[]",
          "name": "",
          "type": "uint256[]"
        }
      ],
      "stateMutability": "view",
      "type": "function"
    },
    {
      "inputs": [],
      "name": "owner",
      "outputs": [
        {
          "internalType": "address",
          "name": "",
          "type": "address"
        }
      ],
      "stateMutability": "view",
      "type": "function"
    },
    {
      "inputs": [],
      "name": "renounceOwnership",
      "outputs": [],
      "stateMutability": "nonpayable",
      "type": "function"
    },
    {
      "inputs": [
        {
          "internalType": "uint256[]",
          "name": "_strikePrices",
          "type": "uint256[]"
        }
      ],
      "name": "setStrikePrice",
      "outputs": [],
      "stateMutability": "nonpayable",
      "type": "function"
    },
    {
      "inputs": [
        {
          "internalType": "uint256",
          "name": "",
          "type": "uint256"
        }
      ],
      "name": "strikePrices",
      "outputs": [
        {
          "internalType": "uint256",
          "name": "",
          "type": "uint256"
        }
      ],
      "stateMutability": "view",
      "type": "function"
    },
    {
      "inputs": [
        {
          "internalType": "address",
          "name": "newOwner",
          "type": "address"
        }
      ],
      "name": "transferOwnership",
      "outputs": [],
      "stateMutability": "nonpayable",
      "type": "function"
    }
  ],
  "transactionHash": "0x34139d957db21678285767568768a567a769e3fb6df43c3f86f6fd27aadee96f",
  "args": [],
  "solcInputHash": "7a9a7fde5daea9d518e47d571827a975",
  "bytecode": "0x60c06040526103e8608081815260a09190915261001f906002908161008b565b5034801561002c57600080fd5b506100363361003b565b6100f1565b600080546001600160a01b038381166001600160a01b0319831681178455604051919092169283917f8be0079c531659141344cd1fd0a4f28419497f9722a3daafe3b4186f6b6457e09190a35050565b8280548282559060005260206000209081019282156100cc579160200282015b828111156100cc578251829061ffff169055916020019190600101906100ab565b506100d89291506100dc565b5090565b5b808211156100d857600081556001016100dd565b61055d806101006000396000f3fe608060405234801561001057600080fd5b506004361061006d5760003560e01c80632f4ad3f6146100725780633127842014610098578063715018a6146100b95780638da5cb5b146100c3578063990f6059146100e3578063d934d2f7146100f6578063f2fde38b14610109575b600080fd5b6100856100803660046103cc565b61011c565b6040519081526020015b60405180910390f35b6100ab6100a63660046103e5565b61013d565b60405161008f929190610455565b6100c16101f3565b005b6100cb610207565b6040516001600160a01b03909116815260200161008f565b6100c16100f1366004610483565b610216565b6100856101043660046103cc565b61022f565b6100c16101173660046104f7565b61023f565b6001818154811061012c57600080fd5b600091825260209091200154905081565b606080600160028180548060200260200160405190810160405280929190818152602001828054801561018f57602002820191906000526020600020905b81548152602001906001019080831161017b575b50505050509150808054806020026020016040519081016040528092919081815260200182805480156101e157602002820191906000526020600020905b8154815260200190600101908083116101cd575b50505050509050915091509250929050565b6101fb6102bd565b610205600061031c565b565b6000546001600160a01b031690565b61021e6102bd565b61022a6001838361036c565b505050565b6002818154811061012c57600080fd5b6102476102bd565b6001600160a01b0381166102b15760405162461bcd60e51b815260206004820152602660248201527f4f776e61626c653a206e6577206f776e657220697320746865207a65726f206160448201526564647265737360d01b60648201526084015b60405180910390fd5b6102ba8161031c565b50565b336102c6610207565b6001600160a01b0316146102055760405162461bcd60e51b815260206004820181905260248201527f4f776e61626c653a2063616c6c6572206973206e6f7420746865206f776e657260448201526064016102a8565b600080546001600160a01b038381166001600160a01b0319831681178455604051919092169283917f8be0079c531659141344cd1fd0a4f28419497f9722a3daafe3b4186f6b6457e09190a35050565b8280548282559060005260206000209081019282156103a7579160200282015b828111156103a757823582559160200191906001019061038c565b506103b39291506103b7565b5090565b5b808211156103b357600081556001016103b8565b6000602082840312156103de57600080fd5b5035919050565b600080604083850312156103f857600080fd5b823591506020830135801515811461040f57600080fd5b809150509250929050565b600081518084526020808501945080840160005b8381101561044a5781518752958201959082019060010161042e565b509495945050505050565b604081526000610468604083018561041a565b828103602084015261047a818561041a565b95945050505050565b6000806020838503121561049657600080fd5b82356001600160401b03808211156104ad57600080fd5b818501915085601f8301126104c157600080fd5b8135818111156104d057600080fd5b8660208260051b85010111156104e557600080fd5b60209290920196919550909350505050565b60006020828403121561050957600080fd5b81356001600160a01b038116811461052057600080fd5b939250505056fea2646970667358221220eaafc37e8c18be26e61a8980add57e60a6f2244415e1fd41e2b0fe7df4252b0a64736f6c63430008110033",
  "devdoc": {
    "kind": "dev",
    "methods": {
      "getStrikePrices(uint256,bool)": {
        "returns": {
          "_0": "newStrikePrice is the strike price of the option (ex: for BTC might be 45000 * 10 ** 8)",
          "_1": "newDelta is the delta of the option given its parameters"
        }
      },
      "owner()": {
        "details": "Returns the address of the current owner."
      },
      "renounceOwnership()": {
        "details": "Leaves the contract without owner. It will not be possible to call `onlyOwner` functions anymore. Can only be called by the current owner. NOTE: Renouncing ownership will leave the contract without an owner, thereby removing any functionality that is only available to the owner."
      },
      "setStrikePrice(uint256[])": {
        "params": {
          "_strikePrices": "are the strike prices of the options in the spread"
        }
      },
      "transferOwnership(address)": {
        "details": "Transfers ownership of the contract to a new account (`newOwner`). Can only be called by the current owner."
      }
    },
    "stateVariables": {
      "deltas": {
        "details": "Delta for options strike price selection. 1 is 10000 (10**4)"
      },
      "strikePrices": {
        "details": "Selected strike price"
      }
    },
    "version": 1
  },
  "userdoc": {
    "kind": "user",
    "methods": {
      "getStrikePrices(uint256,bool)": {
        "notice": "Gets the strike price satisfying the delta value given the expiry timestamp and whether option is call or put"
      },
      "setStrikePrice(uint256[])": {
        "notice": "Sets the strike price, only callable by the owner"
      }
    },
    "version": 1
  },
  "storageLayout": {
    "storage": [
      {
        "astId": 1391,
        "contract": "contracts/utils/ManualStrikeSelectionCallSpread.sol:ManualStrikeSelectionCallSpread",
        "label": "_owner",
        "offset": 0,
        "slot": "0",
        "type": "t_address"
      },
      {
        "astId": 16415,
        "contract": "contracts/utils/ManualStrikeSelectionCallSpread.sol:ManualStrikeSelectionCallSpread",
        "label": "strikePrices",
        "offset": 0,
        "slot": "1",
        "type": "t_array(t_uint256)dyn_storage"
      },
      {
        "astId": 16422,
        "contract": "contracts/utils/ManualStrikeSelectionCallSpread.sol:ManualStrikeSelectionCallSpread",
        "label": "deltas",
        "offset": 0,
        "slot": "2",
        "type": "t_array(t_uint256)dyn_storage"
      }
    ],
    "types": {
      "t_address": {
        "encoding": "inplace",
        "label": "address",
        "numberOfBytes": "20"
      },
      "t_array(t_uint256)dyn_storage": {
        "base": "t_uint256",
        "encoding": "dynamic_array",
        "label": "uint256[]",
        "numberOfBytes": "32"
      },
      "t_uint256": {
        "encoding": "inplace",
        "label": "uint256",
        "numberOfBytes": "32"
      }
    }
  }
}